{"abi":[{"type":"constructor","inputs":[{"name":"_wSToken","type":"address","internalType":"address"},{"name":"_vault","type":"address","internalType":"address"},{"name":"_lendingAdapter","type":"address","internalType":"address"},{"name":"_ringsAdapter","type":"address","internalType":"address"},{"name":"_usdc","type":"address","internalType":"address"},{"name":"_borrowRatio","type":"uint256","internalType":"uint256"}],"stateMutability":"nonpayable"},{"type":"function","name":"ASSET","inputs":[],"outputs":[{"name":"","type":"address","internalType":"contract IERC20"}],"stateMutability":"view"},{"type":"function","name":"BORROW_RATIO","inputs":[],"outputs":[{"name":"","type":"uint256","internalType":"uint256"}],"stateMutability":"view"},{"type":"function","name":"LENDING","inputs":[],"outputs":[{"name":"","type":"address","internalType":"contract ILendingAdapter"}],"stateMutability":"view"},{"type":"function","name":"RINGS","inputs":[],"outputs":[{"name":"","type":"address","internalType":"contract IRingsAdapter"}],"stateMutability":"view"},{"type":"function","name":"SC_USD","inputs":[],"outputs":[{"name":"","type":"address","internalType":"address"}],"stateMutability":"view"},{"type":"function","name":"USDC","inputs":[],"outputs":[{"name":"","type":"address","internalType":"address"}],"stateMutability":"view"},{"type":"function","name":"VAULT","inputs":[],"outputs":[{"name":"","type":"address","internalType":"address"}],"stateMutability":"view"},{"type":"function","name":"apy","inputs":[],"outputs":[{"name":"","type":"uint256","internalType":"uint256"}],"stateMutability":"view"},{"type":"function","name":"asset","inputs":[],"outputs":[{"name":"","type":"address","internalType":"contract IERC20"}],"stateMutability":"view"},{"type":"function","name":"components","inputs":[],"outputs":[{"name":"asset","type":"address","internalType":"address"},{"name":"schemaVersion","type":"uint8","internalType":"uint8"},{"name":"comps","type":"tuple[]","internalType":"struct IStrategyIntrospection.Component[]","components":[{"name":"kind","type":"uint8","internalType":"enum IStrategyIntrospection.ComponentKind"},{"name":"adapter","type":"address","internalType":"address"},{"name":"token0","type":"address","internalType":"address"},{"name":"token1","type":"address","internalType":"address"},{"name":"pool","type":"address","internalType":"address"},{"name":"gauge","type":"address","internalType":"address"},{"name":"extra","type":"bytes","internalType":"bytes"}]}],"stateMutability":"view"},{"type":"function","name":"deposit","inputs":[{"name":"amount","type":"uint256","internalType":"uint256"}],"outputs":[],"stateMutability":"nonpayable"},{"type":"function","name":"harvest","inputs":[],"outputs":[{"name":"","type":"uint256","internalType":"uint256"}],"stateMutability":"nonpayable"},{"type":"function","name":"owner","inputs":[],"outputs":[{"name":"","type":"address","internalType":"address"}],"stateMutability":"view"},{"type":"function","name":"renounceOwnership","inputs":[],"outputs":[],"stateMutability":"nonpayable"},{"type":"function","name":"totalAssets","inputs":[],"outputs":[{"name":"","type":"uint256","internalType":"uint256"}],"stateMutability":"view"},{"type":"function","name":"transferOwnership","inputs":[{"name":"newOwner","type":"address","internalType":"address"}],"outputs":[],"stateMutability":"nonpayable"},{"type":"function","name":"vault","inputs":[],"outputs":[{"name":"","type":"address","internalType":"address"}],"stateMutability":"view"},{"type":"function","name":"withdraw","inputs":[{"name":"amount","type":"uint256","internalType":"uint256"}],"outputs":[],"stateMutability":"nonpayable"},{"type":"event","name":"OwnershipTransferred","inputs":[{"name":"previousOwner","type":"address","indexed":true,"internalType":"address"},{"name":"newOwner","type":"address","indexed":true,"internalType":"address"}],"anonymous":false},{"type":"event","name":"StrategyComponent","inputs":[{"name":"strategy","type":"address","indexed":true,"internalType":"address"},{"name":"kind","type":"uint8","indexed":false,"internalType":"enum IStrategyIntrospection.ComponentKind"},{"name":"adapter","type":"address","indexed":false,"internalType":"address"},{"name":"token0","type":"address","indexed":false,"internalType":"address"},{"name":"token1","type":"address","indexed":false,"internalType":"address"},{"name":"pool","type":"address","indexed":false,"internalType":"address"},{"name":"gauge","type":"address","indexed":false,"internalType":"address"},{"name":"extra","type":"bytes","indexed":false,"internalType":"bytes"}],"anonymous":false},{"type":"event","name":"StrategyConfigured","inputs":[{"name":"strategy","type":"address","indexed":true,"internalType":"address"},{"name":"asset","type":"address","indexed":false,"internalType":"address"},{"name":"schemaVersion","type":"uint8","indexed":false,"internalType":"uint8"}],"anonymous":false},{"type":"error","name":"OwnableInvalidOwner","inputs":[{"name":"owner","type":"address","internalType":"address"}]},{"type":"error","name":"OwnableUnauthorizedAccount","inputs":[{"name":"account","type":"address","internalType":"address"}]},{"type":"error","name":"ReentrancyGuardReentrantCall","inputs":[]},{"type":"error","name":"SafeERC20FailedOperation","inputs":[{"name":"token","type":"address","internalType":"address"}]}],"bytecode":{"object":"0x610160604081815234620004e55760c08262001bab8038038091620000258285620004e9565b833981010312620004e5576200003b8262000521565b916020916200004c83830162000521565b926200005a82840162000521565b93620000696060850162000521565b9460a06200007a6080870162000521565b950151945f91600183553315620004cd5760018054336001600160a01b03198216811790925587516001600160a01b039b9096928c9283167f8be0079c531659141344cd1fd0a4f28419497f9722a3daafe3b4186f6b6457e08880a3169485151580620004c1575b15620004935750608085905260a0528816968715158062000487575b1562000454576127108711620004245788908860c05216908160e05261010098818a52865198638d24974f60e01b8a52868a600481875afa998a156200038957859a620003e1575b50610120998a5261014098895287519263095ea7b360e01b9384815282600482015288816044818a5f199c8d60248401525af18015620003b55790849291620003bf575b501690885184815285600482015287602482015288816044818a875af18015620003b557899288949260449262000393575b508b51948593849289845260048401528b60248401525af18015620003895760449288959492879262000367575b508b5116895197889586948552600485015260248401525af19081156200035c575062000327575b5050519161165a9384620005518539608051848181610196015281816104f401528181610c0f0152818161103c015261121c015260a0518481816104a50152818161093b01528181610b350152611260015260c05184818161020101528181610539015281816108ee01528181610a2801528181610bb9015281816110670152611494015260e0518481816102a501528181610661015281816108aa015281816109b501528181610f0c0152611513015251838181610231015281816105f2015281816107c6015281816109f801528181610b89015281816110b5015261145f01525182818161086601528181610dce0152818161111c01526114190152518181816105a801528181610a5e0152610fef0152f35b816200034b92903d1062000354575b620003428183620004e9565b81019062000536565b505f8062000212565b503d62000336565b8451903d90823e3d90fd5b6200038190873d89116200035457620003428183620004e9565b505f620001ea565b88513d87823e3d90fd5b620003ad90853d87116200035457620003428183620004e9565b505f620001bc565b8a513d89823e3d90fd5b620003d9908a3d8c116200035457620003428183620004e9565b505f6200018a565b9099508681813d83116200041c575b620003fc8183620004e9565b810103126200041857620004109062000521565b985f62000146565b8480fd5b503d620003f0565b855162461bcd60e51b815260048101869052600960248201526862616420726174696f60b81b6044820152606490fd5b855162461bcd60e51b815260048101869052600c60248201526b62616420616461707465727360a01b6044820152606490fd5b508881161515620000fe565b62461bcd60e51b81526004810187905260096024820152683d32b9379030b2323960b91b6044820152606490fd5b508a82161515620000e2565b8551631e4fbdf760e01b815260048101849052602490fd5b5f80fd5b601f909101601f19168101906001600160401b038211908210176200050d57604052565b634e487b7160e01b5f52604160045260245ffd5b51906001600160a01b0382168203620004e557565b90816020910312620004e557518015158103620004e5579056fe6080806040526004361015610012575f80fd5b5f803560e01c91826301e1d11414611012575081632022ce1e14610fd85781632e1a7d4d14610b1457816338d52e0f1461091d5781633bcfc4b814610985578163411557d1146100e45781634641257d146109225781634800d97f1461091d57816348fb27b8146108d95781635acfc85a146108955781636ebb16ea14610851578163715018a6146107f557816389a30271146107b15781638da5cb5b14610789578163b6b55f2514610480578163ba62fbe414610180578163f2fde38b146100e9575063fbfa77cf146100e4575f80fd5b61124b565b3461017d57602036600319011261017d576004356001600160a01b03818116918290036101795761011861128f565b811561016057600154826bffffffffffffffffffffffff60a01b821617600155167f8be0079c531659141344cd1fd0a4f28419497f9722a3daafe3b4186f6b6457e05f80a380f35b604051631e4fbdf760e01b815260048101849052602490fd5b8280fd5b80fd5b3461017d578060031936011261017d57604051907f00000000000000000000000000000000000000000000000000000000000000006001600160a01b03166060830167ffffffffffffffff81118482101761046c5760405260028352815b6040811061042a5750826040516101f481611342565b8381526001600160a01b037f00000000000000000000000000000000000000000000000000000000000000008116602083015260408083018590527f000000000000000000000000000000000000000000000000000000000000000090911660608301526080820185905260a08201859052516102708161135e565b5f815260c0820152610281826115f3565b5261028b816115f3565b5060405161029881611342565b6002815260018060a01b037f00000000000000000000000000000000000000000000000000000000000000001660208201528360408201528360608201528360808201528360a08201526040516102ee8161135e565b5f815260c08201526102ff82611614565b5261030981611614565b506040519160608301908352600160208401526060604084015281518091526080830193602060808360051b860101930194815b83831061034a5785850386f35b90919293607f198682030183528651805160078110156104165782526020808201516001600160a01b039081169184019190915260408083015182169084015260608083015182169084015260808083015182169084015260a0808301519091169083015260c09081015160e09183018290528051918301829052909190835b8381106103ff575050808201610100908101849052602098890198601f909301601f191690910101949360010192019061033d565b8060208092840101516101008286010152016103ca565b634e487b7160e01b84526021600452602484fd5b60209060405161043981611342565b8481528285818301528560408301528560608301528560808301528560a0830152606060c08301528287010152016101de565b634e487b7160e01b5f52604160045260245ffd5b3461017d576020908160031936011261017d57600435916001600160a01b036104cc337f00000000000000000000000000000000000000000000000000000000000000008316146112bb565b6104d46113c3565b6104df8415156112f4565b6040516370a0823160e01b81523060048201527f0000000000000000000000000000000000000000000000000000000000000000821691908381602481865afa908115610712579086918691610758575b501061072157807f00000000000000000000000000000000000000000000000000000000000000001691823b1561071d576040516311f9fbc960e21b81526001600160a01b0391909116600482015260248101869052848160448183875af18015610712576106f7575b506127106105cd85969594957f00000000000000000000000000000000000000000000000000000000000000009061139c565b04806105dc575b836001815580f35b823b156106f357604051634b8a352960e01b81527f00000000000000000000000000000000000000000000000000000000000000006001600160a01b03166004820152602481018290529284908490604490829084905af180156106e857859385916106cf575b505060249060405194859384926382e7c3f560e01b845260048401527f0000000000000000000000000000000000000000000000000000000000000000165af180156106c457610697575b808084926105d4565b813d83116106bd575b6106aa818361137a565b810103126106b957818061068e565b5f80fd5b503d6106a0565b6040513d85823e3d90fd5b6106db9192945061132e565b6101795783918387610643565b6040513d86823e3d90fd5b8380fd5b6105cd9593946107096127109261132e565b9493955061059a565b6040513d87823e3d90fd5b8480fd5b60405162461bcd60e51b815260048101849052600f60248201526e696e73756666696369656e7420775360881b6044820152606490fd5b809250858092503d8311610782575b610771818361137a565b8101031261071d5785905187610530565b503d610767565b3461017d578060031936011261017d576001546040516001600160a01b039091168152602090f35b3461017d578060031936011261017d576040517f00000000000000000000000000000000000000000000000000000000000000006001600160a01b03168152602090f35b3461017d578060031936011261017d5761080d61128f565b600180546001600160a01b0319811690915581906001600160a01b03167f8be0079c531659141344cd1fd0a4f28419497f9722a3daafe3b4186f6b6457e08280a380f35b3461017d578060031936011261017d576040517f00000000000000000000000000000000000000000000000000000000000000006001600160a01b03168152602090f35b3461017d578060031936011261017d576040517f00000000000000000000000000000000000000000000000000000000000000006001600160a01b03168152602090f35b3461017d578060031936011261017d576040517f00000000000000000000000000000000000000000000000000000000000000006001600160a01b03168152602090f35b611207565b3461017d578060031936011261017d57602090610969337f00000000000000000000000000000000000000000000000000000000000000006001600160a01b0316146112bb565b6109716113c3565b600161097b6113f1565b9155604051908152f35b3461017d578060031936011261017d5760405162fdc91760e51b8152602091906001600160a01b039083816004817f000000000000000000000000000000000000000000000000000000000000000086165afa9081156106c45784908492610ae6575b50604051637e27b03360e01b81527f00000000000000000000000000000000000000000000000000000000000000008416600482015292839060249082907f0000000000000000000000000000000000000000000000000000000000000000165afa9182156106c4578392610ab7575b50610a947f00000000000000000000000000000000000000000000000000000000000000008092610a8d61271094859261139c565b049361139c565b049081811115610ab057610aa892506113e4565b604051908152f35b5050610aa8565b9091508381813d8311610adf575b610acf818361137a565b8101031261017957519084610a58565b503d610ac5565b809250813d8311610b0d575b610afc818361137a565b8101031261017957518360246109e8565b503d610af2565b3461017d57602080600319360112610fd45760043590826001600160a01b037f0000000000000000000000000000000000000000000000000000000000000000610b6133838316146112bb565b610b696113c3565b610b748515156112f4565b604051634c4ab16960e01b81523060048201527f00000000000000000000000000000000000000000000000000000000000000006001600160a01b03811660248301527f00000000000000000000000000000000000000000000000000000000000000008416918681604481865afa908115610da6578691610fa7575b5080610db1575b505060405163d8b7575d60e01b81523060048201527f00000000000000000000000000000000000000000000000000000000000000009384166001600160a01b0381166024830152968682604481865afa918215610da6578692610d73575b5081811115610d6c57505b80610c70575b846001815580f35b60405163f3fef3a360e01b81526001600160a01b0388166004820152602481018290529186908390604490829089905af180156107125785928791610d3d575b505060405163a9059cbb60e01b8782019081526001600160a01b03949094166024820152604480820192909252908152610ceb60648261137a565b51925af115610d305781513d610d275750803b155b610d0f57808281808080610c68565b60249060405190635274afe760e01b82526004820152fd5b60011415610d00565b50604051903d90823e3d90fd5b90809293503d8311610d65575b610d54818361137a565b810103126106f35783908589610cb0565b503d610d4a565b9050610c62565b9091508681813d8311610d9f575b610d8b818361137a565b81010312610d9b57519089610c57565b8580fd5b503d610d81565b6040513d88823e3d90fd5b6040516370a0823160e01b808252306004830152919088816024817f00000000000000000000000000000000000000000000000000000000000000008b165afa908115610f6b578891610f76575b5080610ef1575b5060405191825230600483015287826024818987165afa8015610ee65788928891610eb3575b5081811115610eac57505b80610e43575b50610bf8565b604051630450cfaf60e31b81526001600160a01b0393909316600484015260248301528160448188865af1908115610712578691610e83575b8190610e3d565b813d8311610ea5575b610e96818361137a565b810103126106f3578488610e7c565b503d610e8c565b9050610e37565b83819492503d8311610edf575b610eca818361137a565b81010312610edb578791518b610e2c565b8680fd5b503d610ec0565b6040513d89823e3d90fd5b6040519062654e8160e91b8252600482015288816024818b8b7f0000000000000000000000000000000000000000000000000000000000000000165af1908115610f6b578991610f42575b50610e06565b813d8311610f64575b610f55818361137a565b81010312610edb57878b610f3c565b503d610f4b565b6040513d8a823e3d90fd5b90508881813d8311610fa0575b610f8d818361137a565b81010312610f9c57518b610dff565b8780fd5b503d610f83565b90508681813d8311610fcd575b610fbe818361137a565b81010312610d9b575189610bf1565b503d610fb4565b5080fd5b3461017d578060031936011261017d5760206040517f00000000000000000000000000000000000000000000000000000000000000008152f35b34610fd45781600319360112610fd45763d8b7575d60e01b81523060048201526001600160a01b037f0000000000000000000000000000000000000000000000000000000000000000811660248301526020917f00000000000000000000000000000000000000000000000000000000000000008216918382604481865afa9182156107125785926111d8575b50604051634c4ab16960e01b81523060048201527f00000000000000000000000000000000000000000000000000000000000000006001600160a01b03166024820152928490849060449082905afa9283156107125785936111a9575b50938360249495604051958680926370a0823160e01b82523060048301527f0000000000000000000000000000000000000000000000000000000000000000165afa938415610d3057819461117a575b508261115885846115e6565b11156111715750610aa89261116c916115e6565b6113e4565b92505050610aa8565b9093508481813d83116111a2575b611192818361137a565b810103126106f35751928561114c565b503d611188565b9092508381813d83116111d1575b6111c1818361137a565b8101031261071d575191836110fc565b503d6111b7565b9091508381813d8311611200575b6111f0818361137a565b8101031261071d5751908561109f565b503d6111e6565b346106b9575f3660031901126106b9576040517f00000000000000000000000000000000000000000000000000000000000000006001600160a01b03168152602090f35b346106b9575f3660031901126106b9576040517f00000000000000000000000000000000000000000000000000000000000000006001600160a01b03168152602090f35b6001546001600160a01b031633036112a357565b60405163118cdaa760e01b8152336004820152602490fd5b156112c257565b60405162461bcd60e51b815260206004820152600a60248201526913db9b1e481d985d5b1d60b21b6044820152606490fd5b156112fb57565b60405162461bcd60e51b815260206004820152600b60248201526a1e995c9bc8185b5bdd5b9d60aa1b6044820152606490fd5b67ffffffffffffffff811161046c57604052565b60e0810190811067ffffffffffffffff82111761046c57604052565b6020810190811067ffffffffffffffff82111761046c57604052565b90601f8019910116810190811067ffffffffffffffff82111761046c57604052565b818102929181159184041417156113af57565b634e487b7160e01b5f52601160045260245ffd5b60025f54146113d25760025f55565b604051633ee5aeb560e01b8152600490fd5b919082039182116113af57565b604080516370a0823160e01b81523060048201526001600160a01b03916020919082826024817f000000000000000000000000000000000000000000000000000000000000000088165afa9182156115dc575f926115ad575b508051634c4ab16960e01b81523060048201527f00000000000000000000000000000000000000000000000000000000000000006001600160a01b031660248201529183836044817f000000000000000000000000000000000000000000000000000000000000000089165afa9283156115a3575f93611574575b508281116114d7575b50505050505f90565b6114e383600a926113e4565b9204808311156114ce576114f984915f946113e4565b94602483518095819362654e8160e91b83528960048401527f0000000000000000000000000000000000000000000000000000000000000000165af190811561156b575061154657505090565b813d8311611564575b611559818361137a565b810103126106b95790565b503d61154f565b513d5f823e3d90fd5b90928482813d831161159c575b61158b818361137a565b8101031261017d575051915f6114c5565b503d611581565b82513d5f823e3d90fd5b90918382813d83116115d5575b6115c4818361137a565b8101031261017d575051905f61144a565b503d6115ba565b50513d5f823e3d90fd5b919082018092116113af57565b8051156116005760200190565b634e487b7160e01b5f52603260045260245ffd5b805160011015611600576040019056fea264697066735822122014fc0ef55b150cdde820f5c3e0999edd76002a9f2f4e4d4956b6950f64815b2864736f6c63430008140033","linkReferences":{}},"methodIdentifiers":{"ASSET()":"4800d97f","BORROW_RATIO()":"2022ce1e","LENDING()":"48fb27b8","RINGS()":"5acfc85a","SC_USD()":"6ebb16ea","USDC()":"89a30271","VAULT()":"411557d1","apy()":"3bcfc4b8","asset()":"38d52e0f","components()":"ba62fbe4","deposit(uint256)":"b6b55f25","harvest()":"4641257d","owner()":"8da5cb5b","renounceOwnership()":"715018a6","totalAssets()":"01e1d114","transferOwnership(address)":"f2fde38b","vault()":"fbfa77cf","withdraw(uint256)":"2e1a7d4d"},"id":53}