{"abi":[{"type":"constructor","inputs":[{"name":"_sToken","type":"address","internalType":"address"},{"name":"_vault","type":"address","internalType":"address"},{"name":"_eggsAdapter","type":"address","internalType":"address"},{"name":"_stSAdapter","type":"address","internalType":"address"},{"name":"_shadowAdapter","type":"address","internalType":"address"},{"name":"_pool","type":"address","internalType":"address"},{"name":"_gauge","type":"address","internalType":"address"},{"name":"_borrowRatio","type":"uint256","internalType":"uint256"},{"name":"_targetHf","type":"uint256","internalType":"uint256"},{"name":"_maxIter","type":"uint256","internalType":"uint256"},{"name":"_name","type":"string","internalType":"string"}],"stateMutability":"nonpayable"},{"type":"function","name":"ASSET","inputs":[],"outputs":[{"name":"","type":"address","internalType":"contract IERC20"}],"stateMutability":"view"},{"type":"function","name":"BORROW_RATIO","inputs":[],"outputs":[{"name":"","type":"uint256","internalType":"uint256"}],"stateMutability":"view"},{"type":"function","name":"EGGS","inputs":[],"outputs":[{"name":"","type":"address","internalType":"contract IEggsAdapter"}],"stateMutability":"view"},{"type":"function","name":"GAUGE","inputs":[],"outputs":[{"name":"","type":"address","internalType":"address"}],"stateMutability":"view"},{"type":"function","name":"MAX_ITERATIONS","inputs":[],"outputs":[{"name":"","type":"uint256","internalType":"uint256"}],"stateMutability":"view"},{"type":"function","name":"POOL","inputs":[],"outputs":[{"name":"","type":"address","internalType":"address"}],"stateMutability":"view"},{"type":"function","name":"SHADOW","inputs":[],"outputs":[{"name":"","type":"address","internalType":"contract IShadowAdapter"}],"stateMutability":"view"},{"type":"function","name":"STS","inputs":[],"outputs":[{"name":"","type":"address","internalType":"contract IStSAdapter"}],"stateMutability":"view"},{"type":"function","name":"STS_TOKEN","inputs":[],"outputs":[{"name":"","type":"address","internalType":"address"}],"stateMutability":"view"},{"type":"function","name":"TARGET_HF","inputs":[],"outputs":[{"name":"","type":"uint256","internalType":"uint256"}],"stateMutability":"view"},{"type":"function","name":"VAULT","inputs":[],"outputs":[{"name":"","type":"address","internalType":"address"}],"stateMutability":"view"},{"type":"function","name":"apy","inputs":[],"outputs":[{"name":"","type":"uint256","internalType":"uint256"}],"stateMutability":"view"},{"type":"function","name":"asset","inputs":[],"outputs":[{"name":"","type":"address","internalType":"contract IERC20"}],"stateMutability":"view"},{"type":"function","name":"components","inputs":[],"outputs":[{"name":"asset","type":"address","internalType":"address"},{"name":"schemaVersion","type":"uint8","internalType":"uint8"},{"name":"comps","type":"tuple[]","internalType":"struct IStrategyIntrospection.Component[]","components":[{"name":"kind","type":"uint8","internalType":"enum IStrategyIntrospection.ComponentKind"},{"name":"adapter","type":"address","internalType":"address"},{"name":"token0","type":"address","internalType":"address"},{"name":"token1","type":"address","internalType":"address"},{"name":"pool","type":"address","internalType":"address"},{"name":"gauge","type":"address","internalType":"address"},{"name":"extra","type":"bytes","internalType":"bytes"},{"name":"name","type":"string","internalType":"string"}]}],"stateMutability":"view"},{"type":"function","name":"deposit","inputs":[{"name":"amount","type":"uint256","internalType":"uint256"}],"outputs":[],"stateMutability":"nonpayable"},{"type":"function","name":"harvest","inputs":[],"outputs":[{"name":"harvested","type":"uint256","internalType":"uint256"}],"stateMutability":"nonpayable"},{"type":"function","name":"name","inputs":[],"outputs":[{"name":"","type":"string","internalType":"string"}],"stateMutability":"view"},{"type":"function","name":"owner","inputs":[],"outputs":[{"name":"","type":"address","internalType":"address"}],"stateMutability":"view"},{"type":"function","name":"registerMe","inputs":[{"name":"projectId","type":"uint256","internalType":"uint256"}],"outputs":[],"stateMutability":"nonpayable"},{"type":"function","name":"renounceOwnership","inputs":[],"outputs":[],"stateMutability":"nonpayable"},{"type":"function","name":"stakedLp","inputs":[],"outputs":[{"name":"","type":"uint256","internalType":"uint256"}],"stateMutability":"view"},{"type":"function","name":"totalAssets","inputs":[],"outputs":[{"name":"","type":"uint256","internalType":"uint256"}],"stateMutability":"view"},{"type":"function","name":"transferOwnership","inputs":[{"name":"newOwner","type":"address","internalType":"address"}],"outputs":[],"stateMutability":"nonpayable"},{"type":"function","name":"vault","inputs":[],"outputs":[{"name":"","type":"address","internalType":"address"}],"stateMutability":"view"},{"type":"function","name":"withdraw","inputs":[{"name":"amount","type":"uint256","internalType":"uint256"}],"outputs":[],"stateMutability":"nonpayable"},{"type":"event","name":"OwnershipTransferred","inputs":[{"name":"previousOwner","type":"address","indexed":true,"internalType":"address"},{"name":"newOwner","type":"address","indexed":true,"internalType":"address"}],"anonymous":false},{"type":"event","name":"StrategyComponent","inputs":[{"name":"strategy","type":"address","indexed":true,"internalType":"address"},{"name":"kind","type":"uint8","indexed":false,"internalType":"enum IStrategyIntrospection.ComponentKind"},{"name":"adapter","type":"address","indexed":false,"internalType":"address"},{"name":"token0","type":"address","indexed":false,"internalType":"address"},{"name":"token1","type":"address","indexed":false,"internalType":"address"},{"name":"pool","type":"address","indexed":false,"internalType":"address"},{"name":"gauge","type":"address","indexed":false,"internalType":"address"},{"name":"extra","type":"bytes","indexed":false,"internalType":"bytes"}],"anonymous":false},{"type":"event","name":"StrategyConfigured","inputs":[{"name":"strategy","type":"address","indexed":true,"internalType":"address"},{"name":"asset","type":"address","indexed":false,"internalType":"address"},{"name":"schemaVersion","type":"uint8","indexed":false,"internalType":"uint8"}],"anonymous":false},{"type":"error","name":"OwnableInvalidOwner","inputs":[{"name":"owner","type":"address","internalType":"address"}]},{"type":"error","name":"OwnableUnauthorizedAccount","inputs":[{"name":"account","type":"address","internalType":"address"}]},{"type":"error","name":"ReentrancyGuardReentrantCall","inputs":[]},{"type":"error","name":"SafeERC20FailedOperation","inputs":[{"name":"token","type":"address","internalType":"address"}]}],"bytecode":{"object":"0x6101e08060405234620009d35762002c048038038091620000218285620009d7565b833981019061016081830312620009d3576200003d81620009fb565b906200004c60208201620009fb565b6200005a60408301620009fb565b926200006960608401620009fb565b916200007860808501620009fb565b936200008760a08201620009fb565b6200009560c08301620009fb565b60e083015191610100998a850151946101208101519661014082015160018060401b0392838211620009d35701601f90848282011215620009d3578051848111620009505760405191601f1996620000f5602089878601160185620009d7565b82845260208383010111620009d3575f5b828110620009bd57505060205f9183010152600192835f553315620009a5578354336001600160a01b0319821681178655604051916001600160a01b03167f8be0079c531659141344cd1fd0a4f28419497f9722a3daafe3b4186f6b6457e05f80a36001600160a01b038d1615158062000992575b156200096457506001600160a01b038c1660805260a052805193841162000950576002548381811c9116801562000945575b60208210146200093157828111620008e6575b5060209184116001146200088157839450908392915f9462000875575b50501b915f199060031b1c1916176002555b6001600160a01b03891615158062000862575b806200084f575b156200081b576001600160a01b03811615158062000808575b15620007d8576127108311620007a7578315620007795760018060a01b03891660c05260018060a01b03881660e05260018060a01b0387168a526101405261016052610180526101a0526101c05260405163065a291b60e31b815260208160048160018060a01b0387165afa90811562000637575f9162000737575b506101205260405163095ea7b360e01b81526001600160a01b0385811660048301525f196024830152602090829060449082905f9087165af18015620006375762000713575b5060405163095ea7b360e01b81526001600160a01b0380841660048301525f196024830152909290602090849060449082905f9087165af190811562000637575f93602092620006f1575b506101205160405163095ea7b360e01b81526001600160a01b03928316600482015285196024820152948592604492849291165af191821562000637575f92620006cd575b506101205160405163095ea7b360e01b81526001600160a01b038581166004830152841960248301529093602092859260449284929091165af1801562000637575f93602093604492620006ab575b5060405163095ea7b360e01b81526001600160a01b039182166004820152851960248201529485938492165af18015620006375762000687575b5060405163369625df60e21b81526020816004816001600160a01b0386165afa90811562000637575f9162000642575b506001600160a01b03169081620005ba575b826040516121d9918262000a2b83396080518281816102270152818161069f01528181611026015281816119d001528181611b880152611e7d015260a05182818161064d01528181610cf901528181610fea0152611bcc015260c0518281816101e2015281816102dc015281816106d901528181610e1101528181611083015281816113f501528181611a040152611d45015260e05182818161041c01528181610a8701528181610d6501528181610ec6015281816115570152611e2101525181818161037c01528181610baf0152818161168b0152611dc101526101205181818161044c01528181611628015281816118240152611ea601526101405181818161047401528181610b0f01528181610e99015281816115f80152611e5301526101605181818161049c01528181610acb01528181610d3e0152818161158c0152611f7201526101805181818161075301526117ec01526101a0518181816107b30152610a4f01526101c051818181610791015261186a0152f35b60405163095ea7b360e01b81526001600160a01b0390911660048201525f19602482015290602090829060449082905f905af18015620006375762000601575b806200043f565b620006279060203d6020116200062f575b6200061e8183620009d7565b81019062000a10565b505f620005fa565b503d62000612565b6040513d5f823e3d90fd5b906020823d6020116200067e575b816200065f60209383620009d7565b810103126200067b57506200067490620009fb565b5f6200042d565b80fd5b3d915062000650565b620006a39060203d6020116200062f576200061e8183620009d7565b505f620003fd565b620006c590853d87116200062f576200061e8183620009d7565b505f620003c3565b620006e99060203d6020116200062f576200061e8183620009d7565b505f62000374565b6200070b90833d85116200062f576200061e8183620009d7565b505f6200032f565b6200072f9060203d6020116200062f576200061e8183620009d7565b505f620002e4565b906020823d60201162000770575b816200075460209383620009d7565b810103126200067b57506200076990620009fb565b5f6200029e565b3d915062000745565b60405162461bcd60e51b81526020600482015260066024820152653130b210242360d11b6044820152606490fd5b60405162461bcd60e51b815260206004820152600960248201526862616420726174696f60b81b6044820152606490fd5b60405162461bcd60e51b8152602060048201526008602482015267189859081c1bdbdb60c21b6044820152606490fd5b506001600160a01b038216151562000222565b60405162461bcd60e51b815260206004820152600c60248201526b62616420616461707465727360a01b6044820152606490fd5b506001600160a01b038716151562000209565b506001600160a01b038816151562000202565b015192505f80620001dd565b919383169160025f528360205f20935f5b87828210620008cc57505010620008b3575b505050811b01600255620001ef565b01515f1960f88460031b161c191690555f8080620008a4565b848601518755909501946020948501948793500162000892565b60025f5260205f208380870160051c8201926020881062000927575b0160051c019084905b8281106200091b575050620001c0565b5f81550184906200090b565b9250819262000902565b634e487b7160e01b5f52602260045260245ffd5b90607f1690620001ad565b634e487b7160e01b5f52604160045260245ffd5b62461bcd60e51b81526020600482015260096024820152683d32b9379030b2323960b91b6044820152606490fd5b506001600160a01b03821615156200017b565b604051631e4fbdf760e01b81525f6004820152602490fd5b8060208092840101518282870101520162000106565b5f80fd5b601f909101601f19168101906001600160401b038211908210176200095057604052565b51906001600160a01b0382168203620009d357565b90816020910312620009d357518015158103620009d3579056fe6080806040526004361015610012575f80fd5b5f803560e01c91826301e1d1141461199d5750816306fdde031461188d5781631d92c26d146118535781631fc170b61461180f5781632022ce1e146117d5578163218fa0ac146117b85781632e1a7d4d14610fc957816338d52e0f14610cd35781633bcfc4b814610de5578163411557d1146101315781634641257d14610cd85781634800d97f14610cd357816355af853514610bde578163611e6f1a14610b9a578163715018a614610b3e5781637535d24614610afa5781637651b1e614610ab657816379248d9414610a725781638cd85c8f14610a385781638da5cb5b14610a10578163b6b55f2514610629578163ba62fbe414610211578163c8aae238146101cd578163f2fde38b14610136575063fbfa77cf14610131575f80fd5b611bb7565b346101ca5760203660031901126101ca576004356001600160a01b03818116918290036101c657610165611bfb565b81156101ad57600154826bffffffffffffffffffffffff60a01b821617600155167f8be0079c531659141344cd1fd0a4f28419497f9722a3daafe3b4186f6b6457e05f80a380f35b604051631e4fbdf760e01b815260048101849052602490fd5b8280fd5b80fd5b346101ca57806003193601126101ca576040517f00000000000000000000000000000000000000000000000000000000000000006001600160a01b03168152602090f35b346101ca57806003193601126101ca57604051907f00000000000000000000000000000000000000000000000000000000000000006001600160a01b03166080830167ffffffffffffffff8111848210176106155760405260038352815b6060808210156102c0576040516020929161028982611c3b565b8582528390868284015286604084015286818401528660808401528660a08401528060c084015260e083015282870101520161026f565b8383866040516102cf81611c3b565b6001815260018060a01b037f00000000000000000000000000000000000000000000000000000000000000001660208201528360408201528360608201528360808201528360a082015260405161032581611c58565b84815260c082015260405161033981611c74565b60048152634567677360e01b602082015260e082015261035882612162565b5261036281612162565b5060405161036f81611c3b565b6003815260018060a01b037f00000000000000000000000000000000000000000000000000000000000000001660208201528360408201528360608201528360808201528360a08201526040516103c581611c58565b84815260c08201526040516103d981611c74565b600381526253745360e81b602082015260e08201526103f782612183565b5261040181612183565b5060405161040e81611c3b565b600581526001600160a01b037f00000000000000000000000000000000000000000000000000000000000000008116602083015260408083018590527f0000000000000000000000000000000000000000000000000000000000000000821660608401527f0000000000000000000000000000000000000000000000000000000000000000821660808401527f000000000000000000000000000000000000000000000000000000000000000090911660a0830152516104cd81611c58565b84815260c08201526040516104e181611c74565b6006815265536861646f7760d01b602082015260e082015261050282612193565b5261050c81612193565b5060405192839260608401908452600160208501526060604085015282518091526080840190602060808260051b870101940192805b82821061054f5786860387f35b919395509193607f19878203018552855190815160078110156106015781526020808301516001600160a01b039081168284015260408085015182169084015260608085015182169084015260808085015182169084015260a0808501519091169083015260c080840151610100918401829052600194929384936105f193909260e0916105e09190840190611b35565b9201519060e0818403910152611b35565b9701950192018695949391610542565b634e487b7160e01b84526021600452602484fd5b634e487b7160e01b5f52604160045260245ffd5b346101ca57602080600319360112610a0c576001600160a01b0390600435610674337f0000000000000000000000000000000000000000000000000000000000000000851614611cb2565b61067c611ceb565b80156109d8576040516370a0823160e01b815230600482015260249390838186817f000000000000000000000000000000000000000000000000000000000000000086165afa801561093357839187916109a7575b5010610972577f0000000000000000000000000000000000000000000000000000000000000000169060405190634f783e0960e01b825260048201528281858188865af190811561096757839161093e575b5050604051631aefb10760e01b808252306004830152929081818681865afa908115610933578691610906575b507f0000000000000000000000000000000000000000000000000000000000000000908181029181830414901517156108f3576127109004806108e4575b507f0000000000000000000000000000000000000000000000000000000000000000927f0000000000000000000000000000000000000000000000000000000000000000865b8581106107e4575b876001815580f35b604051636ad9f9df60e01b815230600482015284818981895afa80156108a35783918a916108b3575b5011156108ae5760405183815230600482015284818981895afa80156108a3578990610871575b600a915004801561086b5761084890611d3a565b5f198114610858576001016107d4565b634e487b7160e01b885260116004528688fd5b506107dc565b508481813d831161089c575b6108878183611c90565b8101031261089857600a9051610834565b5f80fd5b503d61087d565b6040513d8b823e3d90fd5b6107dc565b809250868092503d83116108dd575b6108cc8183611c90565b81010312610898578290518a61080d565b503d6108c2565b6108ed90611d3a565b8561078e565b84634e487b7160e01b5f5260116004525ffd5b90508181813d831161092c575b61091d8183611c90565b81010312610898575186610750565b503d610913565b6040513d88823e3d90fd5b813d8311610960575b6109518183611c90565b81010312610898578185610723565b503d610947565b6040513d87823e3d90fd5b60405162461bcd60e51b815260048101849052600e818601526d696e73756666696369656e74205360901b6044820152606490fd5b809250858092503d83116109d1575b6109c08183611c90565b8101031261089857829051876106d1565b503d6109b6565b60405162461bcd60e51b815260048101839052600c60248201526b1e995c9bc819195c1bdcda5d60a21b6044820152606490fd5b5080fd5b346101ca57806003193601126101ca576001546040516001600160a01b039091168152602090f35b346101ca57806003193601126101ca5760206040517f00000000000000000000000000000000000000000000000000000000000000008152f35b346101ca57806003193601126101ca576040517f00000000000000000000000000000000000000000000000000000000000000006001600160a01b03168152602090f35b346101ca57806003193601126101ca576040517f00000000000000000000000000000000000000000000000000000000000000006001600160a01b03168152602090f35b346101ca57806003193601126101ca576040517f00000000000000000000000000000000000000000000000000000000000000006001600160a01b03168152602090f35b346101ca57806003193601126101ca57610b56611bfb565b600180546001600160a01b031981169091555f906001600160a01b03167f8be0079c531659141344cd1fd0a4f28419497f9722a3daafe3b4186f6b6457e08280a380f35b346101ca57806003193601126101ca576040517f00000000000000000000000000000000000000000000000000000000000000006001600160a01b03168152602090f35b346101ca5760203660031901126101ca57610bf7611bfb565b60405160208101906307983f4560e21b82526004356024820152602481526060810167ffffffffffffffff9282821084831117610615578492839260405251908273dc2b0d2dd2b7759d97d50db4eabdc369731108305af1903d15610ccd573d9081116106155760405190610c76601f8201601f191660200183611c90565b81528260203d92013e5b15610c885780f35b60405162461bcd60e51b815260206004820152601860248201527f4665654d20726567697374726174696f6e206661696c656400000000000000006044820152606490fd5b50610c80565b611b73565b346101ca57806003193601126101ca578060206001600160a01b03610d20337f0000000000000000000000000000000000000000000000000000000000000000831614611cb2565b610d28611ceb565b60246040518095819363515ce51760e01b8352807f00000000000000000000000000000000000000000000000000000000000000001660048401527f0000000000000000000000000000000000000000000000000000000000000000165af1918215610dd8578192610da4575b60208360018455604051908152f35b91506020823d8211610dd0575b81610dbe60209383611c90565b81010312610898579051906001610d95565b3d9150610db1565b50604051903d90823e3d90fd5b346101ca57806003193601126101ca5760405163d2089f7360e01b8152602091906001600160a01b03907f000000000000000000000000000000000000000000000000000000000000000082168482600481845afa908115610f8e5785908592610f99575b60405163b54f4d8760e01b81529350839060049082905afa918215610f8e579085918593610f5d575b5082811115610f5157602492610e8891611d0c565b925b60405163a7533e0960e01b81527f00000000000000000000000000000000000000000000000000000000000000008216600482015292839182907f0000000000000000000000000000000000000000000000000000000000000000165afa928315610f455792610f10575b50655af3107a4000610f08920490611d2d565b604051908152f35b91508282813d8311610f3e575b610f278183611c90565b8101031261089857905190655af3107a4000610ef5565b503d610f1d565b604051903d90823e3d90fd5b50602491508392610e8a565b8281939294503d8311610f87575b610f758183611c90565b81010312610898578490519186610e73565b503d610f6b565b6040513d86823e3d90fd5b915082813d8311610fc2575b610faf8183611c90565b8101031261089857846004925191610e4a565b503d610fa5565b346101ca57602080600319360112610a0c576001600160a01b0390600435907f00000000000000000000000000000000000000000000000000000000000000006110163385831614611cb2565b61101e611ceb565b8215611783577f0000000000000000000000000000000000000000000000000000000000000000908482169360405195876370a0823160e01b918289523060048a015260249887818b818c5afa801561133c5785918491611752575b50106113d6575b7f000000000000000000000000000000000000000000000000000000000000000016604051631aefb10760e01b815230600482015287818b81855afa90811561133c5783916113a5575b5080611347575b5060405163d283e75f60e01b81523060048201529087828b81845afa91821561133c57839261130a575b50898283611242575b505050505060405190815230600482015284818881895afa80156112375782918991611206575b50106111c2576040805163a9059cbb60e01b8682019081526001600160a01b0390941688820190815260208101939093528894939285926111789183910103601f198101835282611c90565b51925af1156111b75782513d6111ae5750803b155b61119957826001815580f35b60405190635274afe760e01b82526004820152fd5b6001141561118d565b6040513d84823e3d90fd5b60405162461bcd60e51b8152600481018590526017818801527f696e73756666696369656e7420616674657220657869740000000000000000006044820152606490fd5b809250868092503d8311611230575b61121f8183611c90565b81010312610898578190518961112c565b503d611215565b6040513d8a823e3d90fd5b898b604051938480928a82523060048301525afa8015610967578a948d9387926112d1575b5081106112c9575b5060405194859384926395c2448760e01b845260048401525af19081156108a35786916112a0575b89918982611105565b813d83116112c2575b6112b38183611c90565b81010312610898578489611297565b503d6112a9565b90508d61126f565b935094809296508391503d8311611303575b6112ed8183611c90565b81010312610898578b9389938c9251908f611267565b503d6112e3565b925090508682813d8111611335575b6113238183611c90565b8101031261089857899151908b6110fc565b503d611319565b6040513d85823e3d90fd5b604051906377e206f360e01b8252600482015287818b8186865af190811561133c578891611376575b506110d2565b90809293503d831161139e575b61138d8183611c90565b81010312610898578890868b611370565b503d611383565b809350888092503d83116113cf575b6113be8183611c90565b81010312610898578991518b6110cb565b503d6113b4565b60035480611551575b5060405163d283e75f60e01b81523060048201527f0000000000000000000000000000000000000000000000000000000000000000821688828c81845afa918215610f8e57849261151f575b5081611439575b5050611081565b60405185815230600482015289818d818e5afa928315610967578a938d9287916114e4575b50869493929190818111156114dd57505b8061147d575b505050611432565b60405194859384926395c2448760e01b845260048401525af190811561133c5788916114ae575b90818b8593611475565b90809293503d83116114d6575b6114c58183611c90565b81010312610898578890868b6114a4565b503d6114bb565b905061146f565b9492505091945082813d8311611518575b6114ff8183611c90565b810103126108985790518b93899290918c91908661145e565b503d6114f5565b935090508783813d811161154a575b6115388183611c90565b81010312610898578a9251908c61142b565b503d61152e565b908092507f000000000000000000000000000000000000000000000000000000000000000016803b1561174e576040516288951f60e11b81527f00000000000000000000000000000000000000000000000000000000000000006001600160a01b03166004820152602481018390528b8160448183865af1801561174357611724575b5060408b939260c48c868d9581600355855196879586946384ef21bd60e01b86528a7f00000000000000000000000000000000000000000000000000000000000000001660048701528501526044840152877f00000000000000000000000000000000000000000000000000000000000000001660648401528160848401528160a48401525af190811561133c5783916116f0575b5080156113df57604051906359e19dc560e11b8252600482015287818b8186867f0000000000000000000000000000000000000000000000000000000000000000165af190811561133c5788916116c1575b506113df565b90809293503d83116116e9575b6116d88183611c90565b81010312610898578890868b6116bb565b503d6116ce565b90506040813d60401161171c575b8161170b60409383611c90565b810103126101c6578701518b611669565b3d91506116fe565b8991939260c48c9d611737604094611c27565b9d5050929391506115d4565b6040513d8e823e3d90fd5b8a80fd5b809250898092503d831161177c575b61176b8183611c90565b810103126101c6578490518c61107a565b503d611761565b60405162461bcd60e51b815260048101839052600d60248201526c7a65726f20776974686472617760981b6044820152606490fd5b346101ca57806003193601126101ca576020600354604051908152f35b346101ca57806003193601126101ca5760206040517f00000000000000000000000000000000000000000000000000000000000000008152f35b346101ca57806003193601126101ca576040517f00000000000000000000000000000000000000000000000000000000000000006001600160a01b03168152602090f35b346101ca57806003193601126101ca5760206040517f00000000000000000000000000000000000000000000000000000000000000008152f35b346101ca57806003193601126101ca57604051908060025491600183811c92818516948515611993575b602095868610811461197f5785885287949392918790821561195d575050600114611903575b50506118eb92500383611c90565b6118ff604051928284938452830190611b35565b0390f35b90859250600282527f405787fa12a823e0f2b7631cc41b3ba8828b3321ca811111fa75cd3aa3bb5ace5b8583106119455750506118eb935082010185806118dd565b8054838901850152879450869390920191810161192d565b92509350506118eb94915060ff191682840152151560051b82010185806118dd565b634e487b7160e01b83526022600452602483fd5b93607f16936118b7565b90346101ca57806003193601126101ca576370a0823160e01b82523060048301526020916001600160a01b0383826024817f000000000000000000000000000000000000000000000000000000000000000085165afa91821561133c578392611b06575b507f0000000000000000000000000000000000000000000000000000000000000000169060405190631aefb10760e01b82523060048301528482602481865afa918215610f8e5785908593611ad6575b5060405163d283e75f60e01b815230600482015293849060249082905afa928315610f8e578493611aa1575b5090611a8891611d2d565b81811115611a9a57610f089250611d0c565b5050610f08565b9092508481813d8311611acf575b611ab98183611c90565b81010312611acb575191611a88611a7d565b8380fd5b503d611aaf565b80929350813d8311611aff575b611aed8183611c90565b81010312611acb575190846024611a51565b503d611ae3565b9091508381813d8311611b2e575b611b1e8183611c90565b810103126101c657519084611a01565b503d611b14565b91908251928382525f5b848110611b5f575050825f602080949584010152601f8019910116010190565b602081830181015184830182015201611b3f565b34610898575f366003190112610898576040517f00000000000000000000000000000000000000000000000000000000000000006001600160a01b03168152602090f35b34610898575f366003190112610898576040517f00000000000000000000000000000000000000000000000000000000000000006001600160a01b03168152602090f35b6001546001600160a01b03163303611c0f57565b60405163118cdaa760e01b8152336004820152602490fd5b67ffffffffffffffff811161061557604052565b610100810190811067ffffffffffffffff82111761061557604052565b6020810190811067ffffffffffffffff82111761061557604052565b6040810190811067ffffffffffffffff82111761061557604052565b90601f8019910116810190811067ffffffffffffffff82111761061557604052565b15611cb957565b60405162461bcd60e51b815260206004820152600a60248201526913db9b1e481d985d5b1d60b21b6044820152606490fd5b60025f5414611cfa5760025f55565b604051633ee5aeb560e01b8152600490fd5b91908203918211611d1957565b634e487b7160e01b5f52601160045260245ffd5b91908201809211611d1957565b6001600160a01b03907f00000000000000000000000000000000000000000000000000000000000000008216803b1561089857604090815190638237abb560e01b82525f938285809460049484868301528160249788925af1801561205c5761214f575b508060011c92845193636cdea07b60e01b85528084860152602092838684818b8d7f0000000000000000000000000000000000000000000000000000000000000000165af195861561209757889661211c575b5090611dfc91611d0c565b96611e078589611d2d565b605f810290808204605f149015171561210a5760648591837f0000000000000000000000000000000000000000000000000000000000000000169789519b63d875c70f60e01b8d528c867f00000000000000000000000000000000000000000000000000000000000000001695869101528c87877f0000000000000000000000000000000000000000000000000000000000000000169101528c6044877f000000000000000000000000000000000000000000000000000000000000000016910152838d015260848c01520460a48a0152838960c4818b8a5af19889156120975788996120db575b5086519063038941b960e51b82528582015283818481895afa9081156120975788916120a1575b50168551636eb1769f60e11b8152308582015285838201528381604481855afa908115612097579088949392918591612066575b5015611ff0575b50505050813b15611acb5782516361c1200160e11b81526001600160a01b037f000000000000000000000000000000000000000000000000000000000000000016918101918252602082018690529291849184919082908490829060400103925af1908115611fe75750611fd3575b5050611fce90600354611d2d565b600355565b611fdd8291611c27565b6101ca5780611fc0565b513d84823e3d90fd5b604483928851958693849263095ea7b360e01b84528a8a8501525f19908401525af1801561205c57612025575b808692611f51565b81813d8311612055575b6120398183611c90565b81010312612051575180151503611acb575f8061201d565b8480fd5b503d61202f565b85513d88823e3d90fd5b809550848092503d8311612090575b61207f8183611c90565b81010312610898578793515f611f4a565b503d612075565b87513d8a823e3d90fd5b90508381813d83116120d4575b6120b88183611c90565b810103126120d0575181811681036120d0575f611f16565b8780fd5b503d6120ae565b9098508381813d8311612103575b6120f38183611c90565b810103126108985751975f611eef565b503d6120e9565b634e487b7160e01b8852601185528288fd5b919095508382813d8311612148575b6121358183611c90565b8101031261089857905194611dfc611df1565b503d61212b565b61215b90959195611c27565b935f611d9e565b80511561216f5760200190565b634e487b7160e01b5f52603260045260245ffd5b80516001101561216f5760400190565b80516002101561216f576060019056fea2646970667358221220135ee1a91352c74b83cb34b07f3c0db2002541862744eb13f897932243fa9ada64736f6c63430008140033","linkReferences":{}},"methodIdentifiers":{"ASSET()":"4800d97f","BORROW_RATIO()":"2022ce1e","EGGS()":"c8aae238","GAUGE()":"7651b1e6","MAX_ITERATIONS()":"1d92c26d","POOL()":"7535d246","SHADOW()":"79248d94","STS()":"611e6f1a","STS_TOKEN()":"1fc170b6","TARGET_HF()":"8cd85c8f","VAULT()":"411557d1","apy()":"3bcfc4b8","asset()":"38d52e0f","components()":"ba62fbe4","deposit(uint256)":"b6b55f25","harvest()":"4641257d","name()":"06fdde03","owner()":"8da5cb5b","registerMe(uint256)":"55af8535","renounceOwnership()":"715018a6","stakedLp()":"218fa0ac","totalAssets()":"01e1d114","transferOwnership(address)":"f2fde38b","vault()":"fbfa77cf","withdraw(uint256)":"2e1a7d4d"},"id":55}