{"abi":[{"type":"constructor","inputs":[{"name":"_sToken","type":"address","internalType":"address"},{"name":"_vault","type":"address","internalType":"address"},{"name":"_eggsAdapter","type":"address","internalType":"address"},{"name":"_stSAdapter","type":"address","internalType":"address"},{"name":"_shadowAdapter","type":"address","internalType":"address"},{"name":"_pool","type":"address","internalType":"address"},{"name":"_gauge","type":"address","internalType":"address"},{"name":"_borrowRatio","type":"uint256","internalType":"uint256"},{"name":"_targetHf","type":"uint256","internalType":"uint256"},{"name":"_maxIter","type":"uint256","internalType":"uint256"}],"stateMutability":"nonpayable"},{"type":"function","name":"ASSET","inputs":[],"outputs":[{"name":"","type":"address","internalType":"contract IERC20"}],"stateMutability":"view"},{"type":"function","name":"BORROW_RATIO","inputs":[],"outputs":[{"name":"","type":"uint256","internalType":"uint256"}],"stateMutability":"view"},{"type":"function","name":"EGGS","inputs":[],"outputs":[{"name":"","type":"address","internalType":"contract IEggsAdapter"}],"stateMutability":"view"},{"type":"function","name":"GAUGE","inputs":[],"outputs":[{"name":"","type":"address","internalType":"address"}],"stateMutability":"view"},{"type":"function","name":"MAX_ITERATIONS","inputs":[],"outputs":[{"name":"","type":"uint256","internalType":"uint256"}],"stateMutability":"view"},{"type":"function","name":"POOL","inputs":[],"outputs":[{"name":"","type":"address","internalType":"address"}],"stateMutability":"view"},{"type":"function","name":"SHADOW","inputs":[],"outputs":[{"name":"","type":"address","internalType":"contract IShadowAdapter"}],"stateMutability":"view"},{"type":"function","name":"STS","inputs":[],"outputs":[{"name":"","type":"address","internalType":"contract IStSAdapter"}],"stateMutability":"view"},{"type":"function","name":"STS_TOKEN","inputs":[],"outputs":[{"name":"","type":"address","internalType":"address"}],"stateMutability":"view"},{"type":"function","name":"TARGET_HF","inputs":[],"outputs":[{"name":"","type":"uint256","internalType":"uint256"}],"stateMutability":"view"},{"type":"function","name":"VAULT","inputs":[],"outputs":[{"name":"","type":"address","internalType":"address"}],"stateMutability":"view"},{"type":"function","name":"apy","inputs":[],"outputs":[{"name":"","type":"uint256","internalType":"uint256"}],"stateMutability":"view"},{"type":"function","name":"asset","inputs":[],"outputs":[{"name":"","type":"address","internalType":"contract IERC20"}],"stateMutability":"view"},{"type":"function","name":"components","inputs":[],"outputs":[{"name":"asset","type":"address","internalType":"address"},{"name":"schemaVersion","type":"uint8","internalType":"uint8"},{"name":"comps","type":"tuple[]","internalType":"struct IStrategyIntrospection.Component[]","components":[{"name":"kind","type":"uint8","internalType":"enum IStrategyIntrospection.ComponentKind"},{"name":"adapter","type":"address","internalType":"address"},{"name":"token0","type":"address","internalType":"address"},{"name":"token1","type":"address","internalType":"address"},{"name":"pool","type":"address","internalType":"address"},{"name":"gauge","type":"address","internalType":"address"},{"name":"extra","type":"bytes","internalType":"bytes"}]}],"stateMutability":"view"},{"type":"function","name":"deposit","inputs":[{"name":"amount","type":"uint256","internalType":"uint256"}],"outputs":[],"stateMutability":"nonpayable"},{"type":"function","name":"harvest","inputs":[],"outputs":[{"name":"harvested","type":"uint256","internalType":"uint256"}],"stateMutability":"nonpayable"},{"type":"function","name":"owner","inputs":[],"outputs":[{"name":"","type":"address","internalType":"address"}],"stateMutability":"view"},{"type":"function","name":"renounceOwnership","inputs":[],"outputs":[],"stateMutability":"nonpayable"},{"type":"function","name":"stakedLp","inputs":[],"outputs":[{"name":"","type":"uint256","internalType":"uint256"}],"stateMutability":"view"},{"type":"function","name":"totalAssets","inputs":[],"outputs":[{"name":"","type":"uint256","internalType":"uint256"}],"stateMutability":"view"},{"type":"function","name":"transferOwnership","inputs":[{"name":"newOwner","type":"address","internalType":"address"}],"outputs":[],"stateMutability":"nonpayable"},{"type":"function","name":"vault","inputs":[],"outputs":[{"name":"","type":"address","internalType":"address"}],"stateMutability":"view"},{"type":"function","name":"withdraw","inputs":[{"name":"amount","type":"uint256","internalType":"uint256"}],"outputs":[],"stateMutability":"nonpayable"},{"type":"event","name":"OwnershipTransferred","inputs":[{"name":"previousOwner","type":"address","indexed":true,"internalType":"address"},{"name":"newOwner","type":"address","indexed":true,"internalType":"address"}],"anonymous":false},{"type":"event","name":"StrategyComponent","inputs":[{"name":"strategy","type":"address","indexed":true,"internalType":"address"},{"name":"kind","type":"uint8","indexed":false,"internalType":"enum IStrategyIntrospection.ComponentKind"},{"name":"adapter","type":"address","indexed":false,"internalType":"address"},{"name":"token0","type":"address","indexed":false,"internalType":"address"},{"name":"token1","type":"address","indexed":false,"internalType":"address"},{"name":"pool","type":"address","indexed":false,"internalType":"address"},{"name":"gauge","type":"address","indexed":false,"internalType":"address"},{"name":"extra","type":"bytes","indexed":false,"internalType":"bytes"}],"anonymous":false},{"type":"event","name":"StrategyConfigured","inputs":[{"name":"strategy","type":"address","indexed":true,"internalType":"address"},{"name":"asset","type":"address","indexed":false,"internalType":"address"},{"name":"schemaVersion","type":"uint8","indexed":false,"internalType":"uint8"}],"anonymous":false},{"type":"error","name":"OwnableInvalidOwner","inputs":[{"name":"owner","type":"address","internalType":"address"}]},{"type":"error","name":"OwnableUnauthorizedAccount","inputs":[{"name":"account","type":"address","internalType":"address"}]},{"type":"error","name":"ReentrancyGuardReentrantCall","inputs":[]},{"type":"error","name":"SafeERC20FailedOperation","inputs":[{"name":"token","type":"address","internalType":"address"}]}],"bytecode":{"object":"0x6101e08060405234620005ac576101408162002777803803809162000025828562000800565b833981010312620005ac576200003b8162000838565b620000496020830162000838565b620000576040840162000838565b91620000666060850162000838565b90620000756080860162000838565b926200008460a0870162000838565b956200009360c0820162000838565b60e082015190610100986101208a8501519401519460015f553315620007e85760018054336001600160a01b03198216811790925560405191906001600160a01b03167f8be0079c531659141344cd1fd0a4f28419497f9722a3daafe3b4186f6b6457e05f80a36001600160a01b038816151580620007d5575b15620007a757506001600160a01b0387811660805260a091909152891615158062000794575b8062000781575b156200074d576001600160a01b0381161515806200073a575b156200070a576127108311620006d9578315620006ab5760018060a01b03891660c05260018060a01b03881660e05260018060a01b0387168a526101405261016052610180526101a0526101c05260405163065a291b60e31b815260208160048160018060a01b0387165afa90811562000568575f9162000669575b506101205260405163095ea7b360e01b81526001600160a01b0385811660048301525f196024830152602090829060449082905f9087165af18015620005685762000645575b5060405163095ea7b360e01b81526001600160a01b0380841660048301525f196024830152909290602090849060449082905f9087165af190811562000568575f9360209262000623575b506101205160405163095ea7b360e01b81526001600160a01b03928316600482015285196024820152948592604492849291165af191821562000568575f92620005ff575b506101205160405163095ea7b360e01b81526001600160a01b038581166004830152841960248301529093602092859260449284929091165af1801562000568575f93602093604492620005dd575b5060405163095ea7b360e01b81526001600160a01b039182166004820152851960248201529485938492165af180156200056857620005b9575b5060405163369625df60e21b81526020816004816001600160a01b0386165afa90811562000568575f9162000573575b506001600160a01b03169081620004eb575b82604051611f0f91826200086883396080518281816102110152818161063501528181610ec701528181611761015281816118db0152611bb3015260a0518281816105e301528181610b9a01528181610e8b015261191f015260c0518281816101cc015281816102c10152818161066f01528181610cb201528181610f2401528181611296015281816117950152611a7b015260e0518281816103be01528181610a1d01528181610c0601528181610d67015281816113f80152611b5701525181818161033f01528181610b450152818161152c0152611af70152610120518181816103ee015281816114c9015281816116c50152611bdc01526101405181818161041601528181610aa501528181610d3a015281816114990152611b8901526101605181818161043e01528181610a6101528181610bdf0152818161142d0152611ca80152610180518181816106e9015261168d01526101a05181818161074901526109e501526101c051818181610727015261170b0152f35b60405163095ea7b360e01b81526001600160a01b0390911660048201525f19602482015290602090829060449082905f905af18015620005685762000532575b8062000370565b620005589060203d60201162000560575b6200054f818362000800565b8101906200084d565b505f6200052b565b503d62000543565b6040513d5f823e3d90fd5b90506020813d602011620005b0575b81620005916020938362000800565b81010312620005ac57620005a59062000838565b5f6200035e565b5f80fd5b3d915062000582565b620005d59060203d60201162000560576200054f818362000800565b505f6200032e565b620005f790853d871162000560576200054f818362000800565b505f620002f4565b6200061b9060203d60201162000560576200054f818362000800565b505f620002a5565b6200063d90833d851162000560576200054f818362000800565b505f62000260565b620006619060203d60201162000560576200054f818362000800565b505f62000215565b90506020813d602011620006a2575b81620006876020938362000800565b81010312620005ac576200069b9062000838565b5f620001cf565b3d915062000678565b60405162461bcd60e51b81526020600482015260066024820152653130b210242360d11b6044820152606490fd5b60405162461bcd60e51b815260206004820152600960248201526862616420726174696f60b81b6044820152606490fd5b60405162461bcd60e51b8152602060048201526008602482015267189859081c1bdbdb60c21b6044820152606490fd5b506001600160a01b038216151562000153565b60405162461bcd60e51b815260206004820152600c60248201526b62616420616461707465727360a01b6044820152606490fd5b506001600160a01b03871615156200013a565b506001600160a01b038816151562000133565b62461bcd60e51b81526020600482015260096024820152683d32b9379030b2323960b91b6044820152606490fd5b506001600160a01b03821615156200010d565b604051631e4fbdf760e01b81525f6004820152602490fd5b601f909101601f19168101906001600160401b038211908210176200082457604052565b634e487b7160e01b5f52604160045260245ffd5b51906001600160a01b0382168203620005ac57565b90816020910312620005ac57518015158103620005ac579056fe6080806040526004361015610012575f80fd5b5f803560e01c91826301e1d1141461172e575081631d92c26d146116f45781631fc170b6146116b05781632022ce1e14611676578163218fa0ac146116595781632e1a7d4d14610e6a57816338d52e0f14610b745781633bcfc4b814610c86578163411557d11461011b5781634641257d14610b795781634800d97f14610b74578163611e6f1a14610b30578163715018a614610ad45781637535d24614610a905781637651b1e614610a4c57816379248d9414610a085781638cd85c8f146109ce5781638da5cb5b146109a6578163b6b55f25146105bf578163ba62fbe4146101fb578163c8aae238146101b7578163f2fde38b14610120575063fbfa77cf1461011b575f80fd5b61190a565b346101b45760203660031901126101b4576004356001600160a01b03818116918290036101b05761014f61194e565b811561019757600154826bffffffffffffffffffffffff60a01b821617600155167f8be0079c531659141344cd1fd0a4f28419497f9722a3daafe3b4186f6b6457e05f80a380f35b604051631e4fbdf760e01b815260048101849052602490fd5b8280fd5b80fd5b346101b457806003193601126101b4576040517f00000000000000000000000000000000000000000000000000000000000000006001600160a01b03168152602090f35b346101b457806003193601126101b457604051907f00000000000000000000000000000000000000000000000000000000000000006001600160a01b03166080830167ffffffffffffffff8111848210176105ab5760405260038352815b606090818110156102a457604051602092610273826119c7565b8582528390868284015286604084015286818401528660808401528660a084015260c0830152828701015201610259565b505090916040516102b4816119c7565b6001815260018060a01b037f00000000000000000000000000000000000000000000000000000000000000001660208201528360408201528360608201528360808201528360a082015260405161030a816119e3565b5f815260c082015261031b82611e98565b5261032581611e98565b50604051610332816119c7565b6003815260018060a01b037f00000000000000000000000000000000000000000000000000000000000000001660208201528360408201528360608201528360808201528360a0820152604051610388816119e3565b5f815260c082015261039982611eb9565b526103a381611eb9565b506040516103b0816119c7565b600581526001600160a01b037f00000000000000000000000000000000000000000000000000000000000000008116602083015260408083018590527f0000000000000000000000000000000000000000000000000000000000000000821660608401527f0000000000000000000000000000000000000000000000000000000000000000821660808401527f000000000000000000000000000000000000000000000000000000000000000090911660a08301525161046f816119e3565b5f815260c082015261048082611ec9565b5261048a81611ec9565b506040519160608301908352600160208401526060604084015281518091526080830193602060808360051b860101930194815b8383106104cb5785850386f35b90919293607f198682030183528651805160078110156105975782526020808201516001600160a01b039081169184019190915260408083015182169084015260608083015182169084015260808083015182169084015260a0808301519091169083015260c09081015160e09183018290528051918301829052909190835b838110610580575050808201610100908101849052602098890198601f909301601f19169091010194936001019201906104be565b80602080928401015161010082860101520161054b565b634e487b7160e01b84526021600452602484fd5b634e487b7160e01b5f52604160045260245ffd5b346101b4576020806003193601126109a2576001600160a01b039060043561060a337f000000000000000000000000000000000000000000000000000000000000000085161461197a565b610612611a21565b801561096e576040516370a0823160e01b815230600482015260249390838186817f000000000000000000000000000000000000000000000000000000000000000086165afa80156108c9578391879161093d575b5010610908577f0000000000000000000000000000000000000000000000000000000000000000169060405190634f783e0960e01b825260048201528281858188865af19081156108fd5783916108d4575b5050604051631aefb10760e01b808252306004830152929081818681865afa9081156108c957869161089c575b507f0000000000000000000000000000000000000000000000000000000000000000908181029181830414901517156108895761271090048061087a575b507f0000000000000000000000000000000000000000000000000000000000000000927f0000000000000000000000000000000000000000000000000000000000000000865b85811061077a575b876001815580f35b604051636ad9f9df60e01b815230600482015284818981895afa80156108395783918a91610849575b5011156108445760405183815230600482015284818981895afa8015610839578990610807575b600a9150048015610801576107de90611a70565b5f1981146107ee5760010161076a565b634e487b7160e01b885260116004528688fd5b50610772565b508481813d8311610832575b61081d81836119ff565b8101031261082e57600a90516107ca565b5f80fd5b503d610813565b6040513d8b823e3d90fd5b610772565b809250868092503d8311610873575b61086281836119ff565b8101031261082e578290518a6107a3565b503d610858565b61088390611a70565b85610724565b84634e487b7160e01b5f5260116004525ffd5b90508181813d83116108c2575b6108b381836119ff565b8101031261082e5751866106e6565b503d6108a9565b6040513d88823e3d90fd5b813d83116108f6575b6108e781836119ff565b8101031261082e5781856106b9565b503d6108dd565b6040513d87823e3d90fd5b60405162461bcd60e51b815260048101849052600e818601526d696e73756666696369656e74205360901b6044820152606490fd5b809250858092503d8311610967575b61095681836119ff565b8101031261082e5782905187610667565b503d61094c565b60405162461bcd60e51b815260048101839052600c60248201526b1e995c9bc819195c1bdcda5d60a21b6044820152606490fd5b5080fd5b346101b457806003193601126101b4576001546040516001600160a01b039091168152602090f35b346101b457806003193601126101b45760206040517f00000000000000000000000000000000000000000000000000000000000000008152f35b346101b457806003193601126101b4576040517f00000000000000000000000000000000000000000000000000000000000000006001600160a01b03168152602090f35b346101b457806003193601126101b4576040517f00000000000000000000000000000000000000000000000000000000000000006001600160a01b03168152602090f35b346101b457806003193601126101b4576040517f00000000000000000000000000000000000000000000000000000000000000006001600160a01b03168152602090f35b346101b457806003193601126101b457610aec61194e565b600180546001600160a01b031981169091555f906001600160a01b03167f8be0079c531659141344cd1fd0a4f28419497f9722a3daafe3b4186f6b6457e08280a380f35b346101b457806003193601126101b4576040517f00000000000000000000000000000000000000000000000000000000000000006001600160a01b03168152602090f35b6118c6565b346101b457806003193601126101b4578060206001600160a01b03610bc1337f000000000000000000000000000000000000000000000000000000000000000083161461197a565b610bc9611a21565b60246040518095819363515ce51760e01b8352807f00000000000000000000000000000000000000000000000000000000000000001660048401527f0000000000000000000000000000000000000000000000000000000000000000165af1918215610c79578192610c45575b60208360018455604051908152f35b91506020823d8211610c71575b81610c5f602093836119ff565b8101031261082e579051906001610c36565b3d9150610c52565b50604051903d90823e3d90fd5b346101b457806003193601126101b45760405163d2089f7360e01b8152602091906001600160a01b03907f000000000000000000000000000000000000000000000000000000000000000082168482600481845afa908115610e2f5785908592610e3a575b60405163b54f4d8760e01b81529350839060049082905afa918215610e2f579085918593610dfe575b5082811115610df257602492610d2991611a42565b925b60405163a7533e0960e01b81527f00000000000000000000000000000000000000000000000000000000000000008216600482015292839182907f0000000000000000000000000000000000000000000000000000000000000000165afa928315610de65792610db1575b50655af3107a4000610da9920490611a63565b604051908152f35b91508282813d8311610ddf575b610dc881836119ff565b8101031261082e57905190655af3107a4000610d96565b503d610dbe565b604051903d90823e3d90fd5b50602491508392610d2b565b8281939294503d8311610e28575b610e1681836119ff565b8101031261082e578490519186610d14565b503d610e0c565b6040513d86823e3d90fd5b915082813d8311610e63575b610e5081836119ff565b8101031261082e57846004925191610ceb565b503d610e46565b346101b4576020806003193601126109a2576001600160a01b0390600435907f0000000000000000000000000000000000000000000000000000000000000000610eb7338583161461197a565b610ebf611a21565b8215611624577f0000000000000000000000000000000000000000000000000000000000000000908482169360405195876370a0823160e01b918289523060048a015260249887818b818c5afa80156111dd57859184916115f3575b5010611277575b7f000000000000000000000000000000000000000000000000000000000000000016604051631aefb10760e01b815230600482015287818b81855afa9081156111dd578391611246575b50806111e8575b5060405163d283e75f60e01b81523060048201529087828b81845afa9182156111dd5783926111ab575b508982836110e3575b505050505060405190815230600482015284818881895afa80156110d857829189916110a7575b5010611063576040805163a9059cbb60e01b8682019081526001600160a01b0390941688820190815260208101939093528894939285926110199183910103601f1981018352826119ff565b51925af1156110585782513d61104f5750803b155b61103a57826001815580f35b60405190635274afe760e01b82526004820152fd5b6001141561102e565b6040513d84823e3d90fd5b60405162461bcd60e51b8152600481018590526017818801527f696e73756666696369656e7420616674657220657869740000000000000000006044820152606490fd5b809250868092503d83116110d1575b6110c081836119ff565b8101031261082e5781905189610fcd565b503d6110b6565b6040513d8a823e3d90fd5b898b604051938480928a82523060048301525afa80156108fd578a948d938792611172575b50811061116a575b5060405194859384926395c2448760e01b845260048401525af1908115610839578691611141575b89918982610fa6565b813d8311611163575b61115481836119ff565b8101031261082e578489611138565b503d61114a565b90508d611110565b935094809296508391503d83116111a4575b61118e81836119ff565b8101031261082e578b9389938c9251908f611108565b503d611184565b925090508682813d81116111d6575b6111c481836119ff565b8101031261082e57899151908b610f9d565b503d6111ba565b6040513d85823e3d90fd5b604051906377e206f360e01b8252600482015287818b8186865af19081156111dd578891611217575b50610f73565b90809293503d831161123f575b61122e81836119ff565b8101031261082e578890868b611211565b503d611224565b809350888092503d8311611270575b61125f81836119ff565b8101031261082e578991518b610f6c565b503d611255565b600254806113f2575b5060405163d283e75f60e01b81523060048201527f0000000000000000000000000000000000000000000000000000000000000000821688828c81845afa918215610e2f5784926113c0575b50816112da575b5050610f22565b60405185815230600482015289818d818e5afa9283156108fd578a938d928791611385575b508694939291908181111561137e57505b8061131e575b5050506112d3565b60405194859384926395c2448760e01b845260048401525af19081156111dd57889161134f575b90818b8593611316565b90809293503d8311611377575b61136681836119ff565b8101031261082e578890868b611345565b503d61135c565b9050611310565b9492505091945082813d83116113b9575b6113a081836119ff565b8101031261082e5790518b93899290918c9190866112ff565b503d611396565b935090508783813d81116113eb575b6113d981836119ff565b8101031261082e578a9251908c6112cc565b503d6113cf565b908092507f000000000000000000000000000000000000000000000000000000000000000016803b156115ef576040516288951f60e11b81527f00000000000000000000000000000000000000000000000000000000000000006001600160a01b03166004820152602481018390528b8160448183865af180156115e4576115c5575b5060408b939260c48c868d9581600255855196879586946384ef21bd60e01b86528a7f00000000000000000000000000000000000000000000000000000000000000001660048701528501526044840152877f00000000000000000000000000000000000000000000000000000000000000001660648401528160848401528160a48401525af19081156111dd578391611591575b50801561128057604051906359e19dc560e11b8252600482015287818b8186867f0000000000000000000000000000000000000000000000000000000000000000165af19081156111dd578891611562575b50611280565b90809293503d831161158a575b61157981836119ff565b8101031261082e578890868b61155c565b503d61156f565b90506040813d6040116115bd575b816115ac604093836119ff565b810103126101b0578701518b61150a565b3d915061159f565b8991939260c48c9d6115d86040946119b3565b9d505092939150611475565b6040513d8e823e3d90fd5b8a80fd5b809250898092503d831161161d575b61160c81836119ff565b810103126101b0578490518c610f1b565b503d611602565b60405162461bcd60e51b815260048101839052600d60248201526c7a65726f20776974686472617760981b6044820152606490fd5b346101b457806003193601126101b4576020600254604051908152f35b346101b457806003193601126101b45760206040517f00000000000000000000000000000000000000000000000000000000000000008152f35b346101b457806003193601126101b4576040517f00000000000000000000000000000000000000000000000000000000000000006001600160a01b03168152602090f35b346101b457806003193601126101b45760206040517f00000000000000000000000000000000000000000000000000000000000000008152f35b90346101b457806003193601126101b4576370a0823160e01b82523060048301526020916001600160a01b0383826024817f000000000000000000000000000000000000000000000000000000000000000085165afa9182156111dd578392611897575b507f0000000000000000000000000000000000000000000000000000000000000000169060405190631aefb10760e01b82523060048301528482602481865afa918215610e2f5785908593611867575b5060405163d283e75f60e01b815230600482015293849060249082905afa928315610e2f578493611832575b509061181991611a63565b8181111561182b57610da99250611a42565b5050610da9565b9092508481813d8311611860575b61184a81836119ff565b8101031261185c57519161181961180e565b8380fd5b503d611840565b80929350813d8311611890575b61187e81836119ff565b8101031261185c5751908460246117e2565b503d611874565b9091508381813d83116118bf575b6118af81836119ff565b810103126101b057519084611792565b503d6118a5565b3461082e575f36600319011261082e576040517f00000000000000000000000000000000000000000000000000000000000000006001600160a01b03168152602090f35b3461082e575f36600319011261082e576040517f00000000000000000000000000000000000000000000000000000000000000006001600160a01b03168152602090f35b6001546001600160a01b0316330361196257565b60405163118cdaa760e01b8152336004820152602490fd5b1561198157565b60405162461bcd60e51b815260206004820152600a60248201526913db9b1e481d985d5b1d60b21b6044820152606490fd5b67ffffffffffffffff81116105ab57604052565b60e0810190811067ffffffffffffffff8211176105ab57604052565b6020810190811067ffffffffffffffff8211176105ab57604052565b90601f8019910116810190811067ffffffffffffffff8211176105ab57604052565b60025f5414611a305760025f55565b604051633ee5aeb560e01b8152600490fd5b91908203918211611a4f57565b634e487b7160e01b5f52601160045260245ffd5b91908201809211611a4f57565b6001600160a01b03907f00000000000000000000000000000000000000000000000000000000000000008216803b1561082e57604090815190638237abb560e01b82525f938285809460049484868301528160249788925af18015611d9257611e85575b508060011c92845193636cdea07b60e01b85528084860152602092838684818b8d7f0000000000000000000000000000000000000000000000000000000000000000165af1958615611dcd578896611e52575b5090611b3291611a42565b96611b3d8589611a63565b605f810290808204605f1490151715611e405760648591837f0000000000000000000000000000000000000000000000000000000000000000169789519b63d875c70f60e01b8d528c867f00000000000000000000000000000000000000000000000000000000000000001695869101528c87877f0000000000000000000000000000000000000000000000000000000000000000169101528c6044877f000000000000000000000000000000000000000000000000000000000000000016910152838d015260848c01520460a48a0152838960c4818b8a5af1988915611dcd578899611e11575b5086519063038941b960e51b82528582015283818481895afa908115611dcd578891611dd7575b50168551636eb1769f60e11b8152308582015285838201528381604481855afa908115611dcd579088949392918591611d9c575b5015611d26575b50505050813b1561185c5782516361c1200160e11b81526001600160a01b037f000000000000000000000000000000000000000000000000000000000000000016918101918252602082018690529291849184919082908490829060400103925af1908115611d1d5750611d09575b5050611d0490600254611a63565b600255565b611d1382916119b3565b6101b45780611cf6565b513d84823e3d90fd5b604483928851958693849263095ea7b360e01b84528a8a8501525f19908401525af18015611d9257611d5b575b808692611c87565b81813d8311611d8b575b611d6f81836119ff565b81010312611d8757518015150361185c575f80611d53565b8480fd5b503d611d65565b85513d88823e3d90fd5b809550848092503d8311611dc6575b611db581836119ff565b8101031261082e578793515f611c80565b503d611dab565b87513d8a823e3d90fd5b90508381813d8311611e0a575b611dee81836119ff565b81010312611e0657518181168103611e06575f611c4c565b8780fd5b503d611de4565b9098508381813d8311611e39575b611e2981836119ff565b8101031261082e5751975f611c25565b503d611e1f565b634e487b7160e01b8852601185528288fd5b919095508382813d8311611e7e575b611e6b81836119ff565b8101031261082e57905194611b32611b27565b503d611e61565b611e91909591956119b3565b935f611ad4565b805115611ea55760200190565b634e487b7160e01b5f52603260045260245ffd5b805160011015611ea55760400190565b805160021015611ea5576060019056fea26469706673582212200d0340cda17b91e5ba8e74e7188b6c0da11a1c195fd021a09f2f7088f6efa95064736f6c63430008140033","linkReferences":{}},"methodIdentifiers":{"ASSET()":"4800d97f","BORROW_RATIO()":"2022ce1e","EGGS()":"c8aae238","GAUGE()":"7651b1e6","MAX_ITERATIONS()":"1d92c26d","POOL()":"7535d246","SHADOW()":"79248d94","STS()":"611e6f1a","STS_TOKEN()":"1fc170b6","TARGET_HF()":"8cd85c8f","VAULT()":"411557d1","apy()":"3bcfc4b8","asset()":"38d52e0f","components()":"ba62fbe4","deposit(uint256)":"b6b55f25","harvest()":"4641257d","owner()":"8da5cb5b","renounceOwnership()":"715018a6","stakedLp()":"218fa0ac","totalAssets()":"01e1d114","transferOwnership(address)":"f2fde38b","vault()":"fbfa77cf","withdraw(uint256)":"2e1a7d4d"},"id":55}