{"abi":[{"type":"constructor","inputs":[{"name":"_stS","type":"address","internalType":"address"},{"name":"_vault","type":"address","internalType":"address"},{"name":"_pendleAdapter","type":"address","internalType":"address"},{"name":"_lendingAdapter","type":"address","internalType":"address"},{"name":"_name","type":"string","internalType":"string"}],"stateMutability":"nonpayable"},{"type":"function","name":"ASSET","inputs":[],"outputs":[{"name":"","type":"address","internalType":"contract IERC20"}],"stateMutability":"view"},{"type":"function","name":"LENDING","inputs":[],"outputs":[{"name":"","type":"address","internalType":"contract ILendingAdapter"}],"stateMutability":"view"},{"type":"function","name":"PENDLE","inputs":[],"outputs":[{"name":"","type":"address","internalType":"contract IPendleAdapter"}],"stateMutability":"view"},{"type":"function","name":"STABLE","inputs":[],"outputs":[{"name":"","type":"address","internalType":"address"}],"stateMutability":"view"},{"type":"function","name":"VAULT","inputs":[],"outputs":[{"name":"","type":"address","internalType":"address"}],"stateMutability":"view"},{"type":"function","name":"apy","inputs":[],"outputs":[{"name":"","type":"uint256","internalType":"uint256"}],"stateMutability":"view"},{"type":"function","name":"asset","inputs":[],"outputs":[{"name":"","type":"address","internalType":"contract IERC20"}],"stateMutability":"view"},{"type":"function","name":"components","inputs":[],"outputs":[{"name":"asset","type":"address","internalType":"address"},{"name":"schemaVersion","type":"uint8","internalType":"uint8"},{"name":"comps","type":"tuple[]","internalType":"struct IStrategyIntrospection.Component[]","components":[{"name":"kind","type":"uint8","internalType":"enum IStrategyIntrospection.ComponentKind"},{"name":"adapter","type":"address","internalType":"address"},{"name":"token0","type":"address","internalType":"address"},{"name":"token1","type":"address","internalType":"address"},{"name":"pool","type":"address","internalType":"address"},{"name":"gauge","type":"address","internalType":"address"},{"name":"extra","type":"bytes","internalType":"bytes"},{"name":"name","type":"string","internalType":"string"}]}],"stateMutability":"view"},{"type":"function","name":"deposit","inputs":[{"name":"amount","type":"uint256","internalType":"uint256"}],"outputs":[],"stateMutability":"nonpayable"},{"type":"function","name":"harvest","inputs":[],"outputs":[{"name":"harvested","type":"uint256","internalType":"uint256"}],"stateMutability":"nonpayable"},{"type":"function","name":"name","inputs":[],"outputs":[{"name":"","type":"string","internalType":"string"}],"stateMutability":"view"},{"type":"function","name":"owner","inputs":[],"outputs":[{"name":"","type":"address","internalType":"address"}],"stateMutability":"view"},{"type":"function","name":"ptBalance","inputs":[],"outputs":[{"name":"","type":"uint256","internalType":"uint256"}],"stateMutability":"view"},{"type":"function","name":"registerMe","inputs":[{"name":"projectId","type":"uint256","internalType":"uint256"}],"outputs":[],"stateMutability":"nonpayable"},{"type":"function","name":"renounceOwnership","inputs":[],"outputs":[],"stateMutability":"nonpayable"},{"type":"function","name":"totalAssets","inputs":[],"outputs":[{"name":"","type":"uint256","internalType":"uint256"}],"stateMutability":"view"},{"type":"function","name":"transferOwnership","inputs":[{"name":"newOwner","type":"address","internalType":"address"}],"outputs":[],"stateMutability":"nonpayable"},{"type":"function","name":"vault","inputs":[],"outputs":[{"name":"","type":"address","internalType":"address"}],"stateMutability":"view"},{"type":"function","name":"withdraw","inputs":[{"name":"amount","type":"uint256","internalType":"uint256"}],"outputs":[],"stateMutability":"nonpayable"},{"type":"event","name":"OwnershipTransferred","inputs":[{"name":"previousOwner","type":"address","indexed":true,"internalType":"address"},{"name":"newOwner","type":"address","indexed":true,"internalType":"address"}],"anonymous":false},{"type":"event","name":"StrategyComponent","inputs":[{"name":"strategy","type":"address","indexed":true,"internalType":"address"},{"name":"kind","type":"uint8","indexed":false,"internalType":"enum IStrategyIntrospection.ComponentKind"},{"name":"adapter","type":"address","indexed":false,"internalType":"address"},{"name":"token0","type":"address","indexed":false,"internalType":"address"},{"name":"token1","type":"address","indexed":false,"internalType":"address"},{"name":"pool","type":"address","indexed":false,"internalType":"address"},{"name":"gauge","type":"address","indexed":false,"internalType":"address"},{"name":"extra","type":"bytes","indexed":false,"internalType":"bytes"}],"anonymous":false},{"type":"event","name":"StrategyConfigured","inputs":[{"name":"strategy","type":"address","indexed":true,"internalType":"address"},{"name":"asset","type":"address","indexed":false,"internalType":"address"},{"name":"schemaVersion","type":"uint8","indexed":false,"internalType":"uint8"}],"anonymous":false},{"type":"error","name":"OwnableInvalidOwner","inputs":[{"name":"owner","type":"address","internalType":"address"}]},{"type":"error","name":"OwnableUnauthorizedAccount","inputs":[{"name":"account","type":"address","internalType":"address"}]},{"type":"error","name":"ReentrancyGuardReentrantCall","inputs":[]},{"type":"error","name":"SafeERC20FailedOperation","inputs":[{"name":"token","type":"address","internalType":"address"}]}],"bytecode":{"object":"0x610120604090808252346200078a576200209880380380916200002382856200078e565b833981019160a0828403126200078a576200003e82620007b2565b916020906200004f828201620007b2565b936200005d848301620007b2565b6200006b60608401620007b2565b608084015190936001600160401b0391908282116200078a5701601f98808a830112156200078a57815183811162000710578851601f19939092620000b7838e0186168b01856200078e565b8284528983830101116200078a5788905f5b838110620007755750505f9183010152600191825f5533156200075e578254336001600160a01b03198216811785558a519b6001600160a01b0398909289929083167f8be0079c531659141344cd1fd0a4f28419497f9722a3daafe3b4186f6b6457e05f80a3169a8b15158062000752575b156200072457508a60805260a052815193841162000710576002548381811c9116801562000705575b89821014620006f1578b8111620006a8575b50879a8411600114620006445750829185969798999a83925f9462000638575b50501b915f199060031b1c1916176002555b1691821515806200062c575b15620005f95781908360c05216918260e05284519563a9d75b2b60e01b875260049285888581865afa978815620005ef575f98620005b0575b5061010097885286519263095ea7b360e01b93848152818682015287816044815f8019988960248401525af18015620004a4576200058e575b50875163e018b0ef60e01b815287818781855afa908115620004a4575f9162000551575b508851634220301560e01b81529088828881865afa91821562000500579184918a935f926200050a575b50821680620004ae575b5016806200044d575b505f916044848c5116918b5194859384928a84528b8401528860248401525af18015620004435792879594925f9260449562000421575b508a51169089519788968795865285015260248401525af180156200041757620003e2575b5050516118b69182620007e2833960805182818161034f0152818161052b01528181610bf701528181610f35015281816110c401526112b7015260a0518281816104dc01528181610a6b01528181610dab0152818161110c015281816113fe015281816116ec015261172c015260c0518281816101ed0152818161056a0152818161083e01528181610baa015281816114bc01526115e1015260e05182818161028f0152818161060801528181610a1c01528181610af001528181610d2401528181610fb501526113560152518181816102b70152818161063f015281816109d801528181610ab501528181610cf201528181610f7c01526113260152f35b816200040692903d106200040f575b620003fd81836200078e565b810190620007c7565b505f80620002e3565b503d620003f1565b83513d5f823e3d90fd5b6200043b90883d8a116200040f57620003fd81836200078e565b505f620002be565b88513d5f823e3d90fd5b905f9160448b51809481938a8352878c8401528960248401525af18015620004a4579188915f9362000482575b509162000287565b6200049c90833d85116200040f57620003fd81836200078e565b505f6200047a565b89513d5f823e3d90fd5b5f925060448c94929451809481938b8352888d8401528a60248401525af1801562000500579184918a93156200027e57620004f890843d86116200040f57620003fd81836200078e565b505f6200027e565b8a513d5f823e3d90fd5b8093508491943d831162000549575b6200052581836200078e565b810103126200054657508891846200053e8193620007b2565b919062000274565b80fd5b503d62000519565b908882813d831162000586575b6200056a81836200078e565b810103126200054657506200057f90620007b2565b5f6200024a565b503d6200055e565b620005a890883d8a116200040f57620003fd81836200078e565b505f62000226565b90978682813d8311620005e7575b620005ca81836200078e565b81010312620005465750620005df90620007b2565b965f620001ed565b503d620005be565b87513d5f823e3d90fd5b845162461bcd60e51b815260048101859052600c60248201526b62616420616461707465727360a01b6044820152606490fd5b508181161515620001b4565b015192505f8062000196565b839293169960025f52875f20915f5b8c8110620006925750838798999a9b9c1062000679575b505050811b01600255620001a8565b01515f1960f88460031b161c191690555f80806200066a565b8183015184559285019291890191890162000653565b60025f52885f208c80870160051c8201928b8810620006e7575b0160051c019084905b828110620006db57505062000176565b5f8155018490620006cb565b92508192620006c2565b634e487b7160e01b5f52602260045260245ffd5b90607f169062000164565b634e487b7160e01b5f52604160045260245ffd5b62461bcd60e51b8152600481018a905260096024820152683d32b9379030b2323960b91b6044820152606490fd5b5087821615156200013b565b8851631e4fbdf760e01b81525f6004820152602490fd5b8181018301518582018401528a9201620000c9565b5f80fd5b601f909101601f19168101906001600160401b038211908210176200071057604052565b51906001600160a01b03821682036200078a57565b908160209103126200078a575180151581036200078a579056fe6080806040526004361015610012575f80fd5b5f803560e01c91826301e1d11414610f035750816306fdde0314610df35781632e1a7d4d14610d9457816338d52e0f14610a4b5781633bcfc4b814610ccb578163411557d1146100ef5781634641257d14610a505781634800d97f14610a4b57816348fb27b814610a0757816354d9f653146109c357816355af8535146108c9578163715018a61461086d5781637cf738d2146108295781638da5cb5b14610801578163b6b55f25146104b7578163ba62fbe4146101a8578163e05a369f1461018b578163f2fde38b146100f4575063fbfa77cf146100ef575f80fd5b6110f7565b34610188576020366003190112610188576004356001600160a01b03818116918290036101845761012361113b565b811561016b57600154826bffffffffffffffffffffffff60a01b821617600155167f8be0079c531659141344cd1fd0a4f28419497f9722a3daafe3b4186f6b6457e05f80a380f35b604051631e4fbdf760e01b815260048101849052602490fd5b8280fd5b80fd5b346101885780600319360112610188576020600354604051908152f35b346101885780600319360112610188576040516101c481611198565b60028152815b604081106104705750906040516101e081611167565b6004815260018060a01b037f00000000000000000000000000000000000000000000000000000000000000001660208201528160408201528160608201528160808201528160a0820152604051610236816111b4565b82815260c082015260405161024a816111d0565b600681526550656e646c6560d01b602082015260e082015261026b8361184f565b526102758261184f565b5060405161028281611167565b8181526001600160a01b037f0000000000000000000000000000000000000000000000000000000000000000811660208301527f000000000000000000000000000000000000000000000000000000000000000016604080830191909152606082018390526080820183905260a08201839052516102ff816111b4565b82815260c0820152604051610313816111d0565b60078152664c656e64696e6760c81b602082015260e082015261033583611870565b5261033f82611870565b5060405191829160018060a01b037f000000000000000000000000000000000000000000000000000000000000000016835260016020840152606060408401526060830182518091526080840190602060808260051b870101940192805b8282106103aa5786860387f35b919395509193607f198782030185528551908151600781101561045c5781526020808301516001600160a01b039081168284015260408085015182169084015260608085015182169084015260808085015182169084015260a0808501519091169083015260c0808401516101009184018290526001949293849361044c93909260e09161043b9190840190611071565b9201519060e0818403910152611071565b970195019201869594939161039d565b634e487b7160e01b84526021600452602484fd5b60209060405161047f81611167565b848152828581830152856040830152606086818401528660808401528660a08401528060c084015260e08301528285010152016101ca565b34610188576020908160031936011261018857600435916001600160a01b03610503337f000000000000000000000000000000000000000000000000000000000000000083161461120e565b61050b611268565b83156107cd576040516370a0823160e01b815230600482015282816024817f000000000000000000000000000000000000000000000000000000000000000086165afa9081156106ff579085918591610798575b501061075e578293817f000000000000000000000000000000000000000000000000000000000000000016906040519063d2d14b8760e01b8252600482015260408160248188865af191821561075357859285928490859261070a575b50906105cc602492600354611247565b60035560405194859384926365dbdf4760e01b845260048401525af19283156106ff5784936106cf575b505081610606575b826001815580f35b7f00000000000000000000000000000000000000000000000000000000000000001690813b156106cb576040516311f9fbc960e21b81527f00000000000000000000000000000000000000000000000000000000000000006001600160a01b03166004820152602481019190915291908290604490829084905af180156106c057610694575b8082916105fe565b67ffffffffffffffff81116106ac576040528161068c565b634e487b7160e01b82526041600452602482fd5b6040513d84823e3d90fd5b5050fd5b9080929350813d83116106f8575b6106e781836111ec565b810103126106cb57519084806105f6565b503d6106dd565b6040513d86823e3d90fd5b9350505091506040813d60401161074b575b81610729604093836111ec565b810103126107475784916024826105cc8780955192015192506105bc565b8480fd5b3d915061071c565b6040513d87823e3d90fd5b60405162461bcd60e51b8152600481018390526012602482015271696e73756666696369656e742066756e647360701b6044820152606490fd5b809250848092503d83116107c6575b6107b181836111ec565b810103126107c2578490518661055f565b8380fd5b503d6107a7565b60405162461bcd60e51b815260048101839052600c60248201526b1e995c9bc819195c1bdcda5d60a21b6044820152606490fd5b346101885780600319360112610188576001546040516001600160a01b039091168152602090f35b346101885780600319360112610188576040517f00000000000000000000000000000000000000000000000000000000000000006001600160a01b03168152602090f35b3461018857806003193601126101885761088561113b565b600180546001600160a01b0319811690915581906001600160a01b03167f8be0079c531659141344cd1fd0a4f28419497f9722a3daafe3b4186f6b6457e08280a380f35b34610188576020366003190112610188576108e261113b565b808060405160208101906307983f4560e21b825260043560248201526024815261090b81611198565b51908273dc2b0d2dd2b7759d97d50db4eabdc369731108305af13d156109be573d67ffffffffffffffff81116109aa5760405190610953601f8201601f1916602001836111ec565b81528260203d92013e5b156109655780f35b60405162461bcd60e51b815260206004820152601860248201527f4665654d20726567697374726174696f6e206661696c656400000000000000006044820152606490fd5b634e487b7160e01b83526041600452602483fd5b61095d565b346101885780600319360112610188576040517f00000000000000000000000000000000000000000000000000000000000000006001600160a01b03168152602090f35b346101885780600319360112610188576040517f00000000000000000000000000000000000000000000000000000000000000006001600160a01b03168152602090f35b6110af565b346101885780600319360112610188576001600160a01b03907f000000000000000000000000000000000000000000000000000000000000000090610a98338484161461120e565b610aa0611268565b60405163d8b7575d60e01b81523060048201527f00000000000000000000000000000000000000000000000000000000000000006001600160a01b038116602483015260209492938493909290917f00000000000000000000000000000000000000000000000000000000000000008316908783604481855afa928315610cc057908892918794610c89575b5083610b41575b828860018955604051908152f35b60405163f3fef3a360e01b81526001600160a01b0391909116600482015260248101849052959650939492939192918290604490829089905af180156107535791859493918793610c56575b506024906040519687938492638cb2988760e01b845260048401527f0000000000000000000000000000000000000000000000000000000000000000165af19283156106c0578293610c22575b50906001918380610bf1575b829350858180610b33565b610c1b917f00000000000000000000000000000000000000000000000000000000000000006117b3565b8480610be6565b9092508381813d8311610c4f575b610c3a81836111ec565b81010312610c4b5751916001610bda565b5080fd5b503d610c30565b909280929495503d8311610c82575b610c6f81836111ec565b810103126107c257839291859187610b8d565b503d610c65565b838193949295503d8311610cb9575b610ca281836111ec565b81010312610cb557908791519289610b2c565b8580fd5b503d610c98565b6040513d88823e3d90fd5b346101885780600319360112610188576040516384b7249b60e01b81526001600160a01b037f000000000000000000000000000000000000000000000000000000000000000081166004830152602090829060249082907f0000000000000000000000000000000000000000000000000000000000000000165afa9081156106c0578291610d5f575b602082604051908152f35b90506020813d8211610d8c575b81610d79602093836111ec565b81010312610c4b57602091505182610d54565b3d9150610d6c565b3461018857602036600319011261018857610dd9337f00000000000000000000000000000000000000000000000000000000000000006001600160a01b03161461120e565b610de1611268565b610dec600435611296565b6001815580f35b34610188578060031936011261018857604051908060025491600183811c92818516948515610ef9575b6020958686108114610ee557858852879493929187908215610ec3575050600114610e69575b5050610e51925003836111ec565b610e65604051928284938452830190611071565b0390f35b90859250600282527f405787fa12a823e0f2b7631cc41b3ba8828b3321ca811111fa75cd3aa3bb5ace5b858310610eab575050610e5193508201018580610e43565b80548389018501528794508693909201918101610e93565b9250935050610e5194915060ff191682840152151560051b8201018580610e43565b634e487b7160e01b83526022600452602483fd5b93607f1693610e1d565b34610c4b5781600319360112610c4b576370a0823160e01b81523060048201526020916001600160a01b0383836024817f000000000000000000000000000000000000000000000000000000000000000085165afa9283156106c0578293611042575b5060405163d8b7575d60e01b81523060048201527f00000000000000000000000000000000000000000000000000000000000000006001600160a01b03166024820152908490829060449082907f0000000000000000000000000000000000000000000000000000000000000000165afa918215611036578092611004575b84610ffc610ff38587611247565b60035490611247565b604051908152f35b9091508382813d831161102f575b61101c81836111ec565b8101031261018857505181610ff3610fe5565b503d611012565b604051903d90823e3d90fd5b9092508381813d831161106a575b61105a81836111ec565b81010312610c4b57519184610f66565b503d611050565b91908251928382525f5b84811061109b575050825f602080949584010152601f8019910116010190565b60208183018101518483018201520161107b565b346110f3575f3660031901126110f3576040517f00000000000000000000000000000000000000000000000000000000000000006001600160a01b03168152602090f35b5f80fd5b346110f3575f3660031901126110f3576040517f00000000000000000000000000000000000000000000000000000000000000006001600160a01b03168152602090f35b6001546001600160a01b0316330361114f57565b60405163118cdaa760e01b8152336004820152602490fd5b610100810190811067ffffffffffffffff82111761118457604052565b634e487b7160e01b5f52604160045260245ffd5b6060810190811067ffffffffffffffff82111761118457604052565b6020810190811067ffffffffffffffff82111761118457604052565b6040810190811067ffffffffffffffff82111761118457604052565b90601f8019910116810190811067ffffffffffffffff82111761118457604052565b1561121557565b60405162461bcd60e51b815260206004820152600a60248201526913db9b1e481d985d5b1d60b21b6044820152606490fd5b9190820180921161125457565b634e487b7160e01b5f52601160045260245ffd5b60025f54146112775760025f55565b604051633ee5aeb560e01b8152600490fd5b9190820391821161125457565b801561177e57604080516370a0823160e01b808252306004808401919091527f0000000000000000000000000000000000000000000000000000000000000000946001600160a01b038087169594602094929085816024818b5afa908115611550575f91611751575b50818082101561171d57816116e1575b5050855163d8b7575d60e01b8152308582019081527f00000000000000000000000000000000000000000000000000000000000000006001600160a01b03811660208301527f000000000000000000000000000000000000000000000000000000000000000085169290918890829081906040010381865afa9081156116d757908892915f916116a7575b508015158061169e575b611569575b5050505090600354908582151580611560575b611495575b50505061145a57906024839285519687938492835230908301525afa91821561145157505f91611425575b508091506113f8575050565b611423917f0000000000000000000000000000000000000000000000000000000000000000906117b3565b565b82813d831161144a575b61143981836111ec565b81010312610188575051805f6113ec565b503d61142f565b513d5f823e3d90fd5b50915162461bcd60e51b8152918201526016602482015275696e73756666696369656e74206c697175696469747960501b6044820152606490fd5b5f928481111561155a575083915b6024895180958193634bf1836960e01b8352868b8401527f0000000000000000000000000000000000000000000000000000000000000000165af1918215611550575f9261151f575b506114f990600354611289565b6003555f9181811115611518576115109250611289565b5f80856113c1565b5050611510565b90918682813d8311611549575b61153681836111ec565b81010312610188575051906114f96114ec565b503d61152c565b87513d5f823e3d90fd5b916114a3565b508315156113bc565b6115b3929190858111156116965750849384915b8b5163f3fef3a360e01b81526001600160a01b03909116818b01908152602081019390935293849283915f918391604090910190565b03925af1801561168c57908791611663575b5050865190638cb2988760e01b82528582015285816024815f877f0000000000000000000000000000000000000000000000000000000000000000165af1908115611550575f91611636575b505f918181111561162f576116269250611289565b5f8581806113a9565b5050611626565b908682813d831161165c575b61164c81836111ec565b810103126101885750515f611611565b503d611642565b813d8311611685575b61167681836111ec565b810103126110f357855f6115c5565b503d61166c565b88513d5f823e3d90fd5b93849161157d565b508415156113a4565b919282813d83116116d0575b6116bd81836111ec565b810103126101885750908791515f61139a565b503d6116b3565b89513d5f823e3d90fd5b6117169250611711827f00000000000000000000000000000000000000000000000000000000000000008c6117b3565b611289565b5f8061130f565b975050505050505050611423917f0000000000000000000000000000000000000000000000000000000000000000906117b3565b908682813d8311611777575b61176781836111ec565b810103126101885750515f6112ff565b503d61175d565b60405162461bcd60e51b815260206004820152600d60248201526c7a65726f20776974686472617760981b6044820152606490fd5b60405163a9059cbb60e01b60208083019182526001600160a01b0394909416602483015260448083019590955293815290925f916117f26064826111ec565b519082855af115611844575f513d61183b57506001600160a01b0381163b155b6118195750565b604051635274afe760e01b81526001600160a01b039091166004820152602490fd5b60011415611812565b6040513d5f823e3d90fd5b80511561185c5760200190565b634e487b7160e01b5f52603260045260245ffd5b80516001101561185c576040019056fea264697066735822122047533f9bb6205fec5f9a7959ec3f7e293fc864c477ae8b59b5dd896bf2fb2d9964736f6c63430008140033","linkReferences":{}},"methodIdentifiers":{"ASSET()":"4800d97f","LENDING()":"48fb27b8","PENDLE()":"7cf738d2","STABLE()":"54d9f653","VAULT()":"411557d1","apy()":"3bcfc4b8","asset()":"38d52e0f","components()":"ba62fbe4","deposit(uint256)":"b6b55f25","harvest()":"4641257d","name()":"06fdde03","owner()":"8da5cb5b","ptBalance()":"e05a369f","registerMe(uint256)":"55af8535","renounceOwnership()":"715018a6","totalAssets()":"01e1d114","transferOwnership(address)":"f2fde38b","vault()":"fbfa77cf","withdraw(uint256)":"2e1a7d4d"},"id":56}