{"abi":[{"type":"constructor","inputs":[{"name":"_stS","type":"address","internalType":"address"},{"name":"_vault","type":"address","internalType":"address"},{"name":"_pendleAdapter","type":"address","internalType":"address"},{"name":"_lendingAdapter","type":"address","internalType":"address"}],"stateMutability":"nonpayable"},{"type":"function","name":"ASSET","inputs":[],"outputs":[{"name":"","type":"address","internalType":"contract IERC20"}],"stateMutability":"view"},{"type":"function","name":"LENDING","inputs":[],"outputs":[{"name":"","type":"address","internalType":"contract ILendingAdapter"}],"stateMutability":"view"},{"type":"function","name":"PENDLE","inputs":[],"outputs":[{"name":"","type":"address","internalType":"contract IPendleAdapter"}],"stateMutability":"view"},{"type":"function","name":"STABLE","inputs":[],"outputs":[{"name":"","type":"address","internalType":"address"}],"stateMutability":"view"},{"type":"function","name":"VAULT","inputs":[],"outputs":[{"name":"","type":"address","internalType":"address"}],"stateMutability":"view"},{"type":"function","name":"apy","inputs":[],"outputs":[{"name":"","type":"uint256","internalType":"uint256"}],"stateMutability":"view"},{"type":"function","name":"asset","inputs":[],"outputs":[{"name":"","type":"address","internalType":"contract IERC20"}],"stateMutability":"view"},{"type":"function","name":"components","inputs":[],"outputs":[{"name":"asset","type":"address","internalType":"address"},{"name":"schemaVersion","type":"uint8","internalType":"uint8"},{"name":"comps","type":"tuple[]","internalType":"struct IStrategyIntrospection.Component[]","components":[{"name":"kind","type":"uint8","internalType":"enum IStrategyIntrospection.ComponentKind"},{"name":"adapter","type":"address","internalType":"address"},{"name":"token0","type":"address","internalType":"address"},{"name":"token1","type":"address","internalType":"address"},{"name":"pool","type":"address","internalType":"address"},{"name":"gauge","type":"address","internalType":"address"},{"name":"extra","type":"bytes","internalType":"bytes"}]}],"stateMutability":"view"},{"type":"function","name":"deposit","inputs":[{"name":"amount","type":"uint256","internalType":"uint256"}],"outputs":[],"stateMutability":"nonpayable"},{"type":"function","name":"harvest","inputs":[],"outputs":[{"name":"harvested","type":"uint256","internalType":"uint256"}],"stateMutability":"nonpayable"},{"type":"function","name":"owner","inputs":[],"outputs":[{"name":"","type":"address","internalType":"address"}],"stateMutability":"view"},{"type":"function","name":"ptBalance","inputs":[],"outputs":[{"name":"","type":"uint256","internalType":"uint256"}],"stateMutability":"view"},{"type":"function","name":"renounceOwnership","inputs":[],"outputs":[],"stateMutability":"nonpayable"},{"type":"function","name":"totalAssets","inputs":[],"outputs":[{"name":"","type":"uint256","internalType":"uint256"}],"stateMutability":"view"},{"type":"function","name":"transferOwnership","inputs":[{"name":"newOwner","type":"address","internalType":"address"}],"outputs":[],"stateMutability":"nonpayable"},{"type":"function","name":"vault","inputs":[],"outputs":[{"name":"","type":"address","internalType":"address"}],"stateMutability":"view"},{"type":"function","name":"withdraw","inputs":[{"name":"amount","type":"uint256","internalType":"uint256"}],"outputs":[],"stateMutability":"nonpayable"},{"type":"event","name":"OwnershipTransferred","inputs":[{"name":"previousOwner","type":"address","indexed":true,"internalType":"address"},{"name":"newOwner","type":"address","indexed":true,"internalType":"address"}],"anonymous":false},{"type":"event","name":"StrategyComponent","inputs":[{"name":"strategy","type":"address","indexed":true,"internalType":"address"},{"name":"kind","type":"uint8","indexed":false,"internalType":"enum IStrategyIntrospection.ComponentKind"},{"name":"adapter","type":"address","indexed":false,"internalType":"address"},{"name":"token0","type":"address","indexed":false,"internalType":"address"},{"name":"token1","type":"address","indexed":false,"internalType":"address"},{"name":"pool","type":"address","indexed":false,"internalType":"address"},{"name":"gauge","type":"address","indexed":false,"internalType":"address"},{"name":"extra","type":"bytes","indexed":false,"internalType":"bytes"}],"anonymous":false},{"type":"event","name":"StrategyConfigured","inputs":[{"name":"strategy","type":"address","indexed":true,"internalType":"address"},{"name":"asset","type":"address","indexed":false,"internalType":"address"},{"name":"schemaVersion","type":"uint8","indexed":false,"internalType":"uint8"}],"anonymous":false},{"type":"error","name":"OwnableInvalidOwner","inputs":[{"name":"owner","type":"address","internalType":"address"}]},{"type":"error","name":"OwnableUnauthorizedAccount","inputs":[{"name":"account","type":"address","internalType":"address"}]},{"type":"error","name":"ReentrancyGuardReentrantCall","inputs":[]},{"type":"error","name":"SafeERC20FailedOperation","inputs":[{"name":"token","type":"address","internalType":"address"}]}],"bytecode":{"object":"0x610120604081815234620005cc5760808262001c338038038091620000258285620005d0565b833981010312620005cc576200003b8262000608565b6020906200004b82850162000608565b936200006760606200005f86840162000608565b920162000608565b915f91600183553315620005b45760018054336001600160a01b0319821681179092558751986001600160a01b03949092859283167f8be0079c531659141344cd1fd0a4f28419497f9722a3daafe3b4186f6b6457e08880a3169788151580620005a8575b156200057a5750608088905260a052811692831515806200056e575b156200053b5781908460c05216928360e05285519663a9d75b2b60e01b885260049286898581865afa98891562000531578599620004ee575b5061010098895287519263095ea7b360e01b93848152818682015288816044818a5f19988960248401525af18015620003db57620004cc575b50885163e018b0ef60e01b815288818781855afa908115620003db5787916200048b575b508951634220301560e01b81529089828881865afa918215620004375788928b928692859262000441575b50821680620003e5575b50168062000385575b5090916044848d5116918c5194859384928a84528b8401528860248401525af180156200037b579288959492879260449562000359575b508b5116908a519889968795865285015260248401525af19081156200034e575062000319575b5050516115fb91826200063883396080518281816103040152818161050501528181610ad701528181610d0501528181610e560152610ffc015260a0518281816104b60152818161094b01528181610c8b01528181610e9e01528181611143015281816114310152611471015260c0518281816101e9015281816105440152818161081801528181610a8a015281816112010152611326015260e051828181610267015281816105e2015281816108fc015281816109d001528181610c0401528181610d85015261109b01525181818161028f01528181610619015281816108b80152818161099501528181610bd201528181610d4c015261106b0152f35b816200033d92903d1062000346575b620003348183620005d0565b8101906200061d565b505f806200021a565b503d62000328565b8451903d90823e3d90fd5b6200037390883d8a116200034657620003348183620005d0565b505f620001f3565b89513d88823e3d90fd5b60448c51809481938a8352878c8401528960248401525af18015620003db579189918893620003b9575b92919092620001bc565b620003d390833d85116200034657620003348183620005d0565b505f620003af565b8a513d89823e3d90fd5b909392915060448d51809481938b8352888d8401528a60248401525af18015620004375788928b92869215620001b3576200042f90843d86116200034657620003348183620005d0565b505f620001b3565b8b513d8a823e3d90fd5b93925093505081813d831162000483575b6200045e8183620005d0565b810103126200047f5783889281620004778d9462000608565b9190620001a9565b8780fd5b503d62000452565b90508881813d8311620004c4575b620004a58183620005d0565b81010312620004c057620004b99062000608565b5f6200017e565b8680fd5b503d62000499565b620004e690893d8b116200034657620003348183620005d0565b505f6200015a565b9098508681813d831162000529575b620005098183620005d0565b8101031262000525576200051d9062000608565b975f62000121565b8480fd5b503d620004fd565b88513d87823e3d90fd5b855162461bcd60e51b815260048101869052600c60248201526b62616420616461707465727360a01b6044820152606490fd5b508181161515620000e8565b62461bcd60e51b81526004810187905260096024820152683d32b9379030b2323960b91b6044820152606490fd5b508382161515620000cc565b8551631e4fbdf760e01b815260048101849052602490fd5b5f80fd5b601f909101601f19168101906001600160401b03821190821017620005f457604052565b634e487b7160e01b5f52604160045260245ffd5b51906001600160a01b0382168203620005cc57565b90816020910312620005cc57518015158103620005cc579056fe6080806040526004361015610012575f80fd5b5f803560e01c91826301e1d11414610cd3575081632e1a7d4d14610c7457816338d52e0f1461092b5781633bcfc4b814610bab578163411557d1146100d95781634641257d146109305781634800d97f1461092b57816348fb27b8146108e757816354d9f653146108a3578163715018a6146108475781637cf738d2146108035781638da5cb5b146107db578163b6b55f2514610491578163ba62fbe414610192578163e05a369f14610175578163f2fde38b146100de575063fbfa77cf146100d9575f80fd5b610e89565b34610172576020366003190112610172576004356001600160a01b038181169182900361016e5761010d610ecd565b811561015557600154826bffffffffffffffffffffffff60a01b821617600155167f8be0079c531659141344cd1fd0a4f28419497f9722a3daafe3b4186f6b6457e05f80a380f35b604051631e4fbdf760e01b815260048101849052602490fd5b8280fd5b80fd5b346101725780600319360112610172576020600254604051908152f35b34610172578060031936011261017257604051906060820182811067ffffffffffffffff82111761047d5760405260028252805b6040811061043b5750906040516101dc81610f32565b6004815260018060a01b037f00000000000000000000000000000000000000000000000000000000000000001660208201528260408201528260608201528260808201528260a082015260405161023281610f4e565b5f815260c082015261024382611594565b5261024d81611594565b5060405161025a81610f32565b8281526001600160a01b037f0000000000000000000000000000000000000000000000000000000000000000811660208301527f000000000000000000000000000000000000000000000000000000000000000016604080830191909152606082018490526080820184905260a08201849052516102d781610f4e565b5f815260c08201526102e8826115b5565b526102f2816115b5565b50604051906060820160018060a01b037f0000000000000000000000000000000000000000000000000000000000000000168352600160208401526060604084015281518091526080830193602060808360051b860101930194815b83831061035b5785850386f35b90919293607f198682030183528651805160078110156104275782526020808201516001600160a01b039081169184019190915260408083015182169084015260608083015182169084015260808083015182169084015260a0808301519091169083015260c09081015160e09183018290528051918301829052909190835b838110610410575050808201610100908101849052602098890198601f909301601f191690910101949360010192019061034e565b8060208092840101516101008286010152016103db565b634e487b7160e01b84526021600452602484fd5b60209060405161044a81610f32565b8381528284818301528460408301528460608301528460808301528460a0830152606060c08301528286010152016101c6565b634e487b7160e01b5f52604160045260245ffd5b34610172576020908160031936011261017257600435916001600160a01b036104dd337f0000000000000000000000000000000000000000000000000000000000000000831614610ef9565b6104e5610fad565b83156107a7576040516370a0823160e01b815230600482015282816024817f000000000000000000000000000000000000000000000000000000000000000086165afa9081156106d9579085918591610772575b5010610738578293817f000000000000000000000000000000000000000000000000000000000000000016906040519063d2d14b8760e01b8252600482015260408160248188865af191821561072d5785928592849085926106e4575b50906105a6602492600254610f8c565b60025560405194859384926365dbdf4760e01b845260048401525af19283156106d95784936106a9575b5050816105e0575b826001815580f35b7f00000000000000000000000000000000000000000000000000000000000000001690813b156106a5576040516311f9fbc960e21b81527f00000000000000000000000000000000000000000000000000000000000000006001600160a01b03166004820152602481019190915291908290604490829084905af1801561069a5761066e575b8082916105d8565b67ffffffffffffffff81116106865760405281610666565b634e487b7160e01b82526041600452602482fd5b6040513d84823e3d90fd5b5050fd5b9080929350813d83116106d2575b6106c18183610f6a565b810103126106a557519084806105d0565b503d6106b7565b6040513d86823e3d90fd5b9350505091506040813d604011610725575b8161070360409383610f6a565b810103126107215784916024826105a6878095519201519250610596565b8480fd5b3d91506106f6565b6040513d87823e3d90fd5b60405162461bcd60e51b8152600481018390526012602482015271696e73756666696369656e742066756e647360701b6044820152606490fd5b809250848092503d83116107a0575b61078b8183610f6a565b8101031261079c5784905186610539565b8380fd5b503d610781565b60405162461bcd60e51b815260048101839052600c60248201526b1e995c9bc819195c1bdcda5d60a21b6044820152606490fd5b346101725780600319360112610172576001546040516001600160a01b039091168152602090f35b346101725780600319360112610172576040517f00000000000000000000000000000000000000000000000000000000000000006001600160a01b03168152602090f35b3461017257806003193601126101725761085f610ecd565b600180546001600160a01b0319811690915581906001600160a01b03167f8be0079c531659141344cd1fd0a4f28419497f9722a3daafe3b4186f6b6457e08280a380f35b346101725780600319360112610172576040517f00000000000000000000000000000000000000000000000000000000000000006001600160a01b03168152602090f35b346101725780600319360112610172576040517f00000000000000000000000000000000000000000000000000000000000000006001600160a01b03168152602090f35b610e41565b346101725780600319360112610172576001600160a01b03907f0000000000000000000000000000000000000000000000000000000000000000906109783384841614610ef9565b610980610fad565b60405163d8b7575d60e01b81523060048201527f00000000000000000000000000000000000000000000000000000000000000006001600160a01b038116602483015260209492938493909290917f00000000000000000000000000000000000000000000000000000000000000008316908783604481855afa928315610ba057908892918794610b69575b5083610a21575b828860018955604051908152f35b60405163f3fef3a360e01b81526001600160a01b0391909116600482015260248101849052959650939492939192918290604490829089905af1801561072d5791859493918793610b36575b506024906040519687938492638cb2988760e01b845260048401527f0000000000000000000000000000000000000000000000000000000000000000165af192831561069a578293610b02575b50906001918380610ad1575b829350858180610a13565b610afb917f00000000000000000000000000000000000000000000000000000000000000006114f8565b8480610ac6565b9092508381813d8311610b2f575b610b1a8183610f6a565b81010312610b2b5751916001610aba565b5080fd5b503d610b10565b909280929495503d8311610b62575b610b4f8183610f6a565b8101031261079c57839291859187610a6d565b503d610b45565b838193949295503d8311610b99575b610b828183610f6a565b81010312610b9557908791519289610a0c565b8580fd5b503d610b78565b6040513d88823e3d90fd5b346101725780600319360112610172576040516384b7249b60e01b81526001600160a01b037f000000000000000000000000000000000000000000000000000000000000000081166004830152602090829060249082907f0000000000000000000000000000000000000000000000000000000000000000165afa90811561069a578291610c3f575b602082604051908152f35b90506020813d8211610c6c575b81610c5960209383610f6a565b81010312610b2b57602091505182610c34565b3d9150610c4c565b3461017257602036600319011261017257610cb9337f00000000000000000000000000000000000000000000000000000000000000006001600160a01b031614610ef9565b610cc1610fad565b610ccc600435610fdb565b6001815580f35b34610b2b5781600319360112610b2b576370a0823160e01b81523060048201526020916001600160a01b0383836024817f000000000000000000000000000000000000000000000000000000000000000085165afa92831561069a578293610e12575b5060405163d8b7575d60e01b81523060048201527f00000000000000000000000000000000000000000000000000000000000000006001600160a01b03166024820152908490829060449082907f0000000000000000000000000000000000000000000000000000000000000000165afa918215610e06578092610dd4575b84610dcc610dc38587610f8c565b60025490610f8c565b604051908152f35b9091508382813d8311610dff575b610dec8183610f6a565b8101031261017257505181610dc3610db5565b503d610de2565b604051903d90823e3d90fd5b9092508381813d8311610e3a575b610e2a8183610f6a565b81010312610b2b57519184610d36565b503d610e20565b34610e85575f366003190112610e85576040517f00000000000000000000000000000000000000000000000000000000000000006001600160a01b03168152602090f35b5f80fd5b34610e85575f366003190112610e85576040517f00000000000000000000000000000000000000000000000000000000000000006001600160a01b03168152602090f35b6001546001600160a01b03163303610ee157565b60405163118cdaa760e01b8152336004820152602490fd5b15610f0057565b60405162461bcd60e51b815260206004820152600a60248201526913db9b1e481d985d5b1d60b21b6044820152606490fd5b60e0810190811067ffffffffffffffff82111761047d57604052565b6020810190811067ffffffffffffffff82111761047d57604052565b90601f8019910116810190811067ffffffffffffffff82111761047d57604052565b91908201809211610f9957565b634e487b7160e01b5f52601160045260245ffd5b60025f5414610fbc5760025f55565b604051633ee5aeb560e01b8152600490fd5b91908203918211610f9957565b80156114c357604080516370a0823160e01b808252306004808401919091527f0000000000000000000000000000000000000000000000000000000000000000946001600160a01b038087169594602094929085816024818b5afa908115611295575f91611496575b5081808210156114625781611426575b5050855163d8b7575d60e01b8152308582019081527f00000000000000000000000000000000000000000000000000000000000000006001600160a01b03811660208301527f000000000000000000000000000000000000000000000000000000000000000085169290918890829081906040010381865afa90811561141c57908892915f916113ec575b50801515806113e3575b6112ae575b50505050906002549085821515806112a5575b6111da575b50505061119f57906024839285519687938492835230908301525afa91821561119657505f9161116a575b5080915061113d575050565b611168917f0000000000000000000000000000000000000000000000000000000000000000906114f8565b565b82813d831161118f575b61117e8183610f6a565b81010312610172575051805f611131565b503d611174565b513d5f823e3d90fd5b50915162461bcd60e51b8152918201526016602482015275696e73756666696369656e74206c697175696469747960501b6044820152606490fd5b5f928481111561129f575083915b6024895180958193634bf1836960e01b8352868b8401527f0000000000000000000000000000000000000000000000000000000000000000165af1918215611295575f92611264575b5061123e90600254610fce565b6002555f918181111561125d576112559250610fce565b5f8085611106565b5050611255565b90918682813d831161128e575b61127b8183610f6a565b810103126101725750519061123e611231565b503d611271565b87513d5f823e3d90fd5b916111e8565b50831515611101565b6112f8929190858111156113db5750849384915b8b5163f3fef3a360e01b81526001600160a01b03909116818b01908152602081019390935293849283915f918391604090910190565b03925af180156113d1579087916113a8575b5050865190638cb2988760e01b82528582015285816024815f877f0000000000000000000000000000000000000000000000000000000000000000165af1908115611295575f9161137b575b505f91818111156113745761136b9250610fce565b5f8581806110ee565b505061136b565b908682813d83116113a1575b6113918183610f6a565b810103126101725750515f611356565b503d611387565b813d83116113ca575b6113bb8183610f6a565b81010312610e8557855f61130a565b503d6113b1565b88513d5f823e3d90fd5b9384916112c2565b508415156110e9565b919282813d8311611415575b6114028183610f6a565b810103126101725750908791515f6110df565b503d6113f8565b89513d5f823e3d90fd5b61145b9250611456827f00000000000000000000000000000000000000000000000000000000000000008c6114f8565b610fce565b5f80611054565b975050505050505050611168917f0000000000000000000000000000000000000000000000000000000000000000906114f8565b908682813d83116114bc575b6114ac8183610f6a565b810103126101725750515f611044565b503d6114a2565b60405162461bcd60e51b815260206004820152600d60248201526c7a65726f20776974686472617760981b6044820152606490fd5b60405163a9059cbb60e01b60208083019182526001600160a01b0394909416602483015260448083019590955293815290925f91611537606482610f6a565b519082855af115611589575f513d61158057506001600160a01b0381163b155b61155e5750565b604051635274afe760e01b81526001600160a01b039091166004820152602490fd5b60011415611557565b6040513d5f823e3d90fd5b8051156115a15760200190565b634e487b7160e01b5f52603260045260245ffd5b8051600110156115a1576040019056fea2646970667358221220051aadfb1a87f416588f8015a49a215710c300fa8cc9d042509e4203795fbcc764736f6c63430008140033","linkReferences":{}},"methodIdentifiers":{"ASSET()":"4800d97f","LENDING()":"48fb27b8","PENDLE()":"7cf738d2","STABLE()":"54d9f653","VAULT()":"411557d1","apy()":"3bcfc4b8","asset()":"38d52e0f","components()":"ba62fbe4","deposit(uint256)":"b6b55f25","harvest()":"4641257d","owner()":"8da5cb5b","ptBalance()":"e05a369f","renounceOwnership()":"715018a6","totalAssets()":"01e1d114","transferOwnership(address)":"f2fde38b","vault()":"fbfa77cf","withdraw(uint256)":"2e1a7d4d"},"id":56}