{"abi":[{"type":"constructor","inputs":[{"name":"_usdc","type":"address","internalType":"address"},{"name":"_vault","type":"address","internalType":"address"},{"name":"_ringsAdapter","type":"address","internalType":"address"},{"name":"_lendingAdapter","type":"address","internalType":"address"},{"name":"_targetHf","type":"uint256","internalType":"uint256"},{"name":"_maxIter","type":"uint256","internalType":"uint256"}],"stateMutability":"nonpayable"},{"type":"function","name":"ASSET","inputs":[],"outputs":[{"name":"","type":"address","internalType":"contract IERC20"}],"stateMutability":"view"},{"type":"function","name":"LENDING","inputs":[],"outputs":[{"name":"","type":"address","internalType":"contract ILendingAdapter"}],"stateMutability":"view"},{"type":"function","name":"RINGS","inputs":[],"outputs":[{"name":"","type":"address","internalType":"contract IRingsAdapter"}],"stateMutability":"view"},{"type":"function","name":"SC_USD","inputs":[],"outputs":[{"name":"","type":"address","internalType":"address"}],"stateMutability":"view"},{"type":"function","name":"USDC","inputs":[],"outputs":[{"name":"","type":"address","internalType":"address"}],"stateMutability":"view"},{"type":"function","name":"VAULT","inputs":[],"outputs":[{"name":"","type":"address","internalType":"address"}],"stateMutability":"view"},{"type":"function","name":"apy","inputs":[],"outputs":[{"name":"","type":"uint256","internalType":"uint256"}],"stateMutability":"pure"},{"type":"function","name":"asset","inputs":[],"outputs":[{"name":"","type":"address","internalType":"contract IERC20"}],"stateMutability":"view"},{"type":"function","name":"components","inputs":[],"outputs":[{"name":"asset","type":"address","internalType":"address"},{"name":"schemaVersion","type":"uint8","internalType":"uint8"},{"name":"comps","type":"tuple[]","internalType":"struct IStrategyIntrospection.Component[]","components":[{"name":"kind","type":"uint8","internalType":"enum IStrategyIntrospection.ComponentKind"},{"name":"adapter","type":"address","internalType":"address"},{"name":"token0","type":"address","internalType":"address"},{"name":"token1","type":"address","internalType":"address"},{"name":"pool","type":"address","internalType":"address"},{"name":"gauge","type":"address","internalType":"address"},{"name":"extra","type":"bytes","internalType":"bytes"}]}],"stateMutability":"view"},{"type":"function","name":"deposit","inputs":[{"name":"amount","type":"uint256","internalType":"uint256"}],"outputs":[],"stateMutability":"nonpayable"},{"type":"function","name":"harvest","inputs":[],"outputs":[{"name":"","type":"uint256","internalType":"uint256"}],"stateMutability":"nonpayable"},{"type":"function","name":"maxIterations","inputs":[],"outputs":[{"name":"","type":"uint256","internalType":"uint256"}],"stateMutability":"view"},{"type":"function","name":"owner","inputs":[],"outputs":[{"name":"","type":"address","internalType":"address"}],"stateMutability":"view"},{"type":"function","name":"renounceOwnership","inputs":[],"outputs":[],"stateMutability":"nonpayable"},{"type":"function","name":"targetHf","inputs":[],"outputs":[{"name":"","type":"uint256","internalType":"uint256"}],"stateMutability":"view"},{"type":"function","name":"totalAssets","inputs":[],"outputs":[{"name":"","type":"uint256","internalType":"uint256"}],"stateMutability":"view"},{"type":"function","name":"transferOwnership","inputs":[{"name":"newOwner","type":"address","internalType":"address"}],"outputs":[],"stateMutability":"nonpayable"},{"type":"function","name":"vault","inputs":[],"outputs":[{"name":"","type":"address","internalType":"address"}],"stateMutability":"view"},{"type":"function","name":"withdraw","inputs":[{"name":"amount","type":"uint256","internalType":"uint256"}],"outputs":[],"stateMutability":"nonpayable"},{"type":"event","name":"OwnershipTransferred","inputs":[{"name":"previousOwner","type":"address","indexed":true,"internalType":"address"},{"name":"newOwner","type":"address","indexed":true,"internalType":"address"}],"anonymous":false},{"type":"event","name":"StrategyComponent","inputs":[{"name":"strategy","type":"address","indexed":true,"internalType":"address"},{"name":"kind","type":"uint8","indexed":false,"internalType":"enum IStrategyIntrospection.ComponentKind"},{"name":"adapter","type":"address","indexed":false,"internalType":"address"},{"name":"token0","type":"address","indexed":false,"internalType":"address"},{"name":"token1","type":"address","indexed":false,"internalType":"address"},{"name":"pool","type":"address","indexed":false,"internalType":"address"},{"name":"gauge","type":"address","indexed":false,"internalType":"address"},{"name":"extra","type":"bytes","indexed":false,"internalType":"bytes"}],"anonymous":false},{"type":"event","name":"StrategyConfigured","inputs":[{"name":"strategy","type":"address","indexed":true,"internalType":"address"},{"name":"asset","type":"address","indexed":false,"internalType":"address"},{"name":"schemaVersion","type":"uint8","indexed":false,"internalType":"uint8"}],"anonymous":false},{"type":"error","name":"OwnableInvalidOwner","inputs":[{"name":"owner","type":"address","internalType":"address"}]},{"type":"error","name":"OwnableUnauthorizedAccount","inputs":[{"name":"account","type":"address","internalType":"address"}]},{"type":"error","name":"ReentrancyGuardReentrantCall","inputs":[]},{"type":"error","name":"SafeERC20FailedOperation","inputs":[{"name":"token","type":"address","internalType":"address"}]}],"bytecode":{"object":"0x610140604090808252346200049d5760c08162001ae58038038091620000268285620004a1565b8339810103126200049d576200003c81620004d9565b9160206200004c818401620004d9565b62000059838501620004d9565b6200006760608601620004d9565b60a060808701519601515f92600184553315620004855760018054336001600160a01b0319821681179092558851966001600160a01b039392909184167f8be0079c531659141344cd1fd0a4f28419497f9722a3daafe3b4186f6b6457e08880a3828b16968715158062000479575b156200044b5750608087905260a052811692831515806200043f575b156200040c578815620003df5781908460c05216918260e052610100998a52875198638d24974f60e01b8a52878a600481885afa998a15620003d557869a62000392575b50610120998a5260025560035586519463095ea7b360e01b928387528460048801525f199687602482015288816044818a875af18015620003665762000370575b508588848c511660448c51809481938a83528760048401528d60248401525af180156200036657899288949260449262000344575b508b51948593849289845260048401528b60248401525af180156200033a5760449288959492879262000318575b508a5116895197889586948552600485015260248401525af19081156200030d5750620002d8575b505051906115dc928362000509843960805183818161032001526113ed015260a0518381816104d401528181610b3001528181610bcb0152611431015260c0518381816102aa0152818161057a01528181610a9f01528181610e1a0152610fb5015260e0518381816101e2015281816105b501528181610ae301528181610d22015261128101525182818161023601528181610522015281816109bb01528181610c0901526111fb01525181818161020a015281816105d801528181610a5b01528181610dae01528181610efb01526112510152f35b81620002fc92903d1062000305575b620002f38183620004a1565b810190620004ee565b505f8062000202565b503d620002e7565b8451903d90823e3d90fd5b6200033290873d89116200030557620002f38183620004a1565b505f620001da565b88513d87823e3d90fd5b6200035e90853d87116200030557620002f38183620004a1565b505f620001ac565b8a513d89823e3d90fd5b6200038a90893d8b116200030557620002f38183620004a1565b505f62000177565b9099508781813d8311620003cd575b620003ad8183620004a1565b81010312620003c957620003c190620004d9565b985f62000136565b8580fd5b503d620003a1565b89513d88823e3d90fd5b875162461bcd60e51b81526004810188905260066024820152653130b210242360d11b6044820152606490fd5b875162461bcd60e51b815260048101889052600c60248201526b62616420616461707465727360a01b6044820152606490fd5b508181161515620000f2565b62461bcd60e51b81526004810189905260096024820152683d32b9379030b2323960b91b6044820152606490fd5b508382161515620000d6565b8651631e4fbdf760e01b815260048101859052602490fd5b5f80fd5b601f909101601f19168101906001600160401b03821190821017620004c557604052565b634e487b7160e01b5f52604160045260245ffd5b51906001600160a01b03821682036200049d57565b908160209103126200049d575180151581036200049d579056fe6080806040526004361015610012575f80fd5b5f803560e01c91826301e1d114146111d5575081631c823eff146111b85781632e1a7d4d14610baa578163387f504a14610b8d57816338d52e0f14610b125781633bcfc4b814610b72578163411557d1146100ef5781634641257d14610b175781634800d97f14610b1257816348fb27b814610ace5781635acfc85a14610a8a5781636ebb16ea14610a46578163715018a6146109ea57816389a30271146109a65781638da5cb5b1461097e578163b6b55f25146104ad578163ba62fbe41461018b578163f2fde38b146100f4575063fbfa77cf146100ef575f80fd5b61141c565b34610188576020366003190112610188576004356001600160a01b038181169182900361018457610123611460565b811561016b57600154826bffffffffffffffffffffffff60a01b821617600155167f8be0079c531659141344cd1fd0a4f28419497f9722a3daafe3b4186f6b6457e05f80a380f35b604051631e4fbdf760e01b815260048101849052602490fd5b8280fd5b80fd5b34610188578060031936011261018857604051906060820182811067ffffffffffffffff8211176104995760405260028252805b604081106104575750906040516101d5816114d9565b8281526001600160a01b037f0000000000000000000000000000000000000000000000000000000000000000811660208301527f000000000000000000000000000000000000000000000000000000000000000081166040808401919091527f000000000000000000000000000000000000000000000000000000000000000090911660608301526080820184905260a0820184905251610275816114f5565b5f815260c082015261028682611575565b5261029081611575565b5060405161029d816114d9565b6002815260018060a01b037f00000000000000000000000000000000000000000000000000000000000000001660208201528260408201528260608201528260808201528260a08201526040516102f3816114f5565b5f815260c082015261030482611596565b5261030e81611596565b50604051906060820160018060a01b037f0000000000000000000000000000000000000000000000000000000000000000168352600160208401526060604084015281518091526080830193602060808360051b860101930194815b8383106103775785850386f35b90919293607f198682030183528651805160078110156104435782526020808201516001600160a01b039081169184019190915260408083015182169084015260608083015182169084015260808083015182169084015260a0808301519091169083015260c09081015160e09183018290528051918301829052909190835b83811061042c575050808201610100908101849052602098890198601f909301601f191690910101949360010192019061036a565b8060208092840101516101008286010152016103f7565b634e487b7160e01b84526021600452602484fd5b602090604051610466816114d9565b8381528284818301528460408301528460608301528460808301528460a0830152606060c08301528286010152016101bf565b634e487b7160e01b5f52604160045260245ffd5b346101885760209081600319360112610188576001600160a01b039160043591906104fb337f000000000000000000000000000000000000000000000000000000000000000086161461148c565b610503611533565b821561094b576040516370a0823160e01b8152306004820152602494907f000000000000000000000000000000000000000000000000000000000000000090838188818686165afa90811561094057908691869161090b575b50106108d3576040516382e7c3f560e01b80825260048201969096527f00000000000000000000000000000000000000000000000000000000000000008316928482898189885af19182156108c8578692610895575b507f000000000000000000000000000000000000000000000000000000000000000016927f000000000000000000000000000000000000000000000000000000000000000092843b15610891576040516311f9fbc960e21b8082526001600160a01b038616600483015260248201949094528781604481838a5af1801561088657610873575b50865b60035481101561083757604051636ad9f9df60e01b815230600482015287818c818a5afa908115610797578991610846575b5060025410156108375760405163d8b7575d60e01b81523060048201526001600160a01b038616602482015287816044818a5afa8015610797578990610809575b600a91500480156107f657863b156107a257604051634b8a352960e01b81526001600160a01b0384166004820152602481018290528981604481838c5af180156107eb57908a916107d7575b5050604051908a8252600482015287818c818c885af19081156107975789916107a6575b50863b156107a2576040518581526001600160a01b038716600482015260248101919091528881604481838b5af180156107975790899161077f575b50505f19811461076c5760010161063b565b634e487b7160e01b885260116004528988fd5b610788906114c5565b61079357878b61075a565b8780fd5b6040513d8b823e3d90fd5b8880fd5b90508781813d83116107d0575b6107bd8183611511565b810103126107cc57518b61071e565b5f80fd5b503d6107b3565b6107e0906114c5565b6107a257888c6106fa565b6040513d8c823e3d90fd5b50505050505050509150505b6001815580f35b508781813d8311610830575b61081f8183611511565b810103126107cc57600a90516106ae565b503d610815565b50505050505050915050610802565b90508781813d831161086c575b61085d8183611511565b810103126107cc57518b61066d565b503d610853565b61087f909791976114c5565b9589610638565b6040513d8a823e3d90fd5b8680fd5b9091508481813d83116108c1575b6108ad8183611511565b810103126108bd575190886105b2565b8580fd5b503d6108a3565b6040513d88823e3d90fd5b60405162461bcd60e51b81526004810184905260118188015270696e73756666696369656e74205553444360781b6044820152606490fd5b809250858092503d8311610939575b6109248183611511565b81010312610935578590518861055c565b8480fd5b503d61091a565b6040513d87823e3d90fd5b6064906040519062461bcd60e51b82526004820152600c60248201526b1e995c9bc819195c1bdcda5d60a21b6044820152fd5b346101885780600319360112610188576001546040516001600160a01b039091168152602090f35b346101885780600319360112610188576040517f00000000000000000000000000000000000000000000000000000000000000006001600160a01b03168152602090f35b34610188578060031936011261018857610a02611460565b600180546001600160a01b0319811690915581906001600160a01b03167f8be0079c531659141344cd1fd0a4f28419497f9722a3daafe3b4186f6b6457e08280a380f35b346101885780600319360112610188576040517f00000000000000000000000000000000000000000000000000000000000000006001600160a01b03168152602090f35b346101885780600319360112610188576040517f00000000000000000000000000000000000000000000000000000000000000006001600160a01b03168152602090f35b346101885780600319360112610188576040517f00000000000000000000000000000000000000000000000000000000000000006001600160a01b03168152602090f35b6113d8565b34610188578060031936011261018857602090610b5e337f00000000000000000000000000000000000000000000000000000000000000006001600160a01b03161461148c565b610b66611533565b60018155604051908152f35b34610188578060031936011261018857602090604051908152f35b346101885780600319360112610188576020600354604051908152f35b34610188576020806003193601126111b457600435906001600160a01b03907f0000000000000000000000000000000000000000000000000000000000000000610bf7338483161461148c565b610bff611533565b831561117f5784907f00000000000000000000000000000000000000000000000000000000000000009484861694604051966370a0823160e01b8089523060048a015260249887818b818c5afa90811561106b578791611152575b50848110610cf4575b50506040805163a9059cbb60e01b8882019081526001600160a01b039096168a8201908152602081019590955293610ca893508492500103601f198101835282611511565b519082855af115610ce95782513d610ce05750803b155b610ccb57826001815580f35b60405190635274afe760e01b82526004820152fd5b60011415610cbf565b6040513d84823e3d90fd5b610cfe9085611554565b604051634c4ab16960e01b81523060048201526001600160a01b03841660248201527f00000000000000000000000000000000000000000000000000000000000000008516939091908983604481885afa928315610797578993611123575b5082610ee6575b50505060405190815230600482015286818a818b5afa80156108c8578690610eb7575b610d92915084611554565b9182610d9f575b80610c63565b60405163f3fef3a360e01b81527f00000000000000000000000000000000000000000000000000000000000000006001600160a01b0316600482015260248101849052918790839060449082908a905af180156108c857869388938b92610e84575b50604051948593849262654e8160e91b845260048401527f0000000000000000000000000000000000000000000000000000000000000000165af1908115610e79578591610e50575b80610d99565b813d8311610e72575b610e638183611511565b81010312610184578388610e4a565b503d610e59565b6040513d86823e3d90fd5b915092809294503d8311610eb0575b610e9d8183611511565b810103126109355784918887928c610e01565b503d610e93565b508681813d8311610edf575b610ecd8183611511565b810103126108bd57610d929051610d87565b503d610ec3565b60405163d8b7575d60e01b81523060048201527f00000000000000000000000000000000000000000000000000000000000000006001600160a01b038116602483015292908b816044818a5afa8015611118578c918c916110e3575b50610f859290818111156110da575080945b60405163f3fef3a360e01b81526001600160a01b039091166004820152602481019190915291829081906044820190565b03818d8a5af19081156107eb578b916110b1575b50506040519162654e8160e91b8352600483015289828d818c8a7f0000000000000000000000000000000000000000000000000000000000000000165af18015610797578a928a9161107e575b506110289390818111156110765750905b604051630450cfaf60e31b81526001600160a01b039091166004820152602481019190915291829081906044820190565b03818a875af190811561106b578891611042575b80610d64565b813d8311611064575b6110558183611511565b810103126108bd57868b61103c565b503d61104b565b6040513d89823e3d90fd5b905090610ff7565b83819492503d83116110aa575b6110958183611511565b810103126107a2579051899190611028610fe6565b503d61108b565b813d83116110d3575b6110c48183611511565b810103126107a257898e610f99565b503d6110ba565b90508094610f54565b82819392503d8311611111575b6110fa8183611511565b8101031261110d57518b90610f85610f42565b8a80fd5b503d6110f0565b6040513d8d823e3d90fd5b9092508981813d831161114b575b61113b8183611511565b810103126107a25751918d610d5d565b503d611131565b90508781813d8311611178575b6111698183611511565b8101031261089157518b610c5a565b503d61115f565b60405162461bcd60e51b815260048101839052600d60248201526c7a65726f20776974686472617760981b6044820152606490fd5b5080fd5b346101885780600319360112610188576020600254604051908152f35b90346101885780600319360112610188576370a0823160e01b82523060048301526020917f0000000000000000000000000000000000000000000000000000000000000000906001600160a01b0384826024818487165afa918215610e795784926113a9575b5060405163d8b7575d60e01b81523060048201527f00000000000000000000000000000000000000000000000000000000000000006001600160a01b03166024820152927f000000000000000000000000000000000000000000000000000000000000000091909116908584604481855afa918215610940579086918693611371575b604051634c4ab16960e01b81523060048201526001600160a01b03909216602483015290945084908180604481015b03915afa928315610e7957849361133e575b50810180911161132a57818111156113235761131b9250611554565b604051908152f35b505061131b565b634e487b7160e01b83526011600452602483fd5b9092508481813d831161136a575b6113568183611511565b81010312611366575191856112ff565b8380fd5b503d61134c565b93948281939294503d83116113a2575b61138b8183611511565b81010312610935576112ed939291869151926112be565b503d611381565b9091508481813d83116113d1575b6113c18183611511565b810103126113665751908561123b565b503d6113b7565b346107cc575f3660031901126107cc576040517f00000000000000000000000000000000000000000000000000000000000000006001600160a01b03168152602090f35b346107cc575f3660031901126107cc576040517f00000000000000000000000000000000000000000000000000000000000000006001600160a01b03168152602090f35b6001546001600160a01b0316330361147457565b60405163118cdaa760e01b8152336004820152602490fd5b1561149357565b60405162461bcd60e51b815260206004820152600a60248201526913db9b1e481d985d5b1d60b21b6044820152606490fd5b67ffffffffffffffff811161049957604052565b60e0810190811067ffffffffffffffff82111761049957604052565b6020810190811067ffffffffffffffff82111761049957604052565b90601f8019910116810190811067ffffffffffffffff82111761049957604052565b60025f54146115425760025f55565b604051633ee5aeb560e01b8152600490fd5b9190820391821161156157565b634e487b7160e01b5f52601160045260245ffd5b8051156115825760200190565b634e487b7160e01b5f52603260045260245ffd5b805160011015611582576040019056fea264697066735822122024a2c02a303f6426e0156ed9293ee5ac82fe9b3aa4fdac41f01a77406f098cf964736f6c63430008140033","linkReferences":{}},"methodIdentifiers":{"ASSET()":"4800d97f","LENDING()":"48fb27b8","RINGS()":"5acfc85a","SC_USD()":"6ebb16ea","USDC()":"89a30271","VAULT()":"411557d1","apy()":"3bcfc4b8","asset()":"38d52e0f","components()":"ba62fbe4","deposit(uint256)":"b6b55f25","harvest()":"4641257d","maxIterations()":"387f504a","owner()":"8da5cb5b","renounceOwnership()":"715018a6","targetHf()":"1c823eff","totalAssets()":"01e1d114","transferOwnership(address)":"f2fde38b","vault()":"fbfa77cf","withdraw(uint256)":"2e1a7d4d"},"id":57}