{"abi":[{"type":"constructor","inputs":[{"name":"_usdc","type":"address","internalType":"address"},{"name":"_vault","type":"address","internalType":"address"},{"name":"_ringsAdapter","type":"address","internalType":"address"},{"name":"_lendingAdapter","type":"address","internalType":"address"},{"name":"_targetHf","type":"uint256","internalType":"uint256"},{"name":"_maxIter","type":"uint256","internalType":"uint256"}],"stateMutability":"nonpayable"},{"type":"function","name":"ASSET","inputs":[],"outputs":[{"name":"","type":"address","internalType":"contract IERC20"}],"stateMutability":"view"},{"type":"function","name":"LENDING","inputs":[],"outputs":[{"name":"","type":"address","internalType":"contract ILendingAdapter"}],"stateMutability":"view"},{"type":"function","name":"RINGS","inputs":[],"outputs":[{"name":"","type":"address","internalType":"contract IRingsAdapter"}],"stateMutability":"view"},{"type":"function","name":"SC_USD","inputs":[],"outputs":[{"name":"","type":"address","internalType":"address"}],"stateMutability":"view"},{"type":"function","name":"USDC","inputs":[],"outputs":[{"name":"","type":"address","internalType":"address"}],"stateMutability":"view"},{"type":"function","name":"VAULT","inputs":[],"outputs":[{"name":"","type":"address","internalType":"address"}],"stateMutability":"view"},{"type":"function","name":"apy","inputs":[],"outputs":[{"name":"","type":"uint256","internalType":"uint256"}],"stateMutability":"pure"},{"type":"function","name":"asset","inputs":[],"outputs":[{"name":"","type":"address","internalType":"contract IERC20"}],"stateMutability":"view"},{"type":"function","name":"components","inputs":[],"outputs":[{"name":"asset","type":"address","internalType":"address"},{"name":"schemaVersion","type":"uint8","internalType":"uint8"},{"name":"comps","type":"tuple[]","internalType":"struct IStrategyIntrospection.Component[]","components":[{"name":"kind","type":"uint8","internalType":"enum IStrategyIntrospection.ComponentKind"},{"name":"adapter","type":"address","internalType":"address"},{"name":"token0","type":"address","internalType":"address"},{"name":"token1","type":"address","internalType":"address"},{"name":"pool","type":"address","internalType":"address"},{"name":"gauge","type":"address","internalType":"address"},{"name":"extra","type":"bytes","internalType":"bytes"}]}],"stateMutability":"view"},{"type":"function","name":"deposit","inputs":[{"name":"amount","type":"uint256","internalType":"uint256"}],"outputs":[],"stateMutability":"nonpayable"},{"type":"function","name":"harvest","inputs":[],"outputs":[{"name":"","type":"uint256","internalType":"uint256"}],"stateMutability":"nonpayable"},{"type":"function","name":"maxIterations","inputs":[],"outputs":[{"name":"","type":"uint256","internalType":"uint256"}],"stateMutability":"view"},{"type":"function","name":"owner","inputs":[],"outputs":[{"name":"","type":"address","internalType":"address"}],"stateMutability":"view"},{"type":"function","name":"registerMe","inputs":[{"name":"projectId","type":"uint256","internalType":"uint256"}],"outputs":[],"stateMutability":"nonpayable"},{"type":"function","name":"renounceOwnership","inputs":[],"outputs":[],"stateMutability":"nonpayable"},{"type":"function","name":"targetHf","inputs":[],"outputs":[{"name":"","type":"uint256","internalType":"uint256"}],"stateMutability":"view"},{"type":"function","name":"totalAssets","inputs":[],"outputs":[{"name":"","type":"uint256","internalType":"uint256"}],"stateMutability":"view"},{"type":"function","name":"transferOwnership","inputs":[{"name":"newOwner","type":"address","internalType":"address"}],"outputs":[],"stateMutability":"nonpayable"},{"type":"function","name":"vault","inputs":[],"outputs":[{"name":"","type":"address","internalType":"address"}],"stateMutability":"view"},{"type":"function","name":"withdraw","inputs":[{"name":"amount","type":"uint256","internalType":"uint256"}],"outputs":[],"stateMutability":"nonpayable"},{"type":"event","name":"OwnershipTransferred","inputs":[{"name":"previousOwner","type":"address","indexed":true,"internalType":"address"},{"name":"newOwner","type":"address","indexed":true,"internalType":"address"}],"anonymous":false},{"type":"event","name":"StrategyComponent","inputs":[{"name":"strategy","type":"address","indexed":true,"internalType":"address"},{"name":"kind","type":"uint8","indexed":false,"internalType":"enum IStrategyIntrospection.ComponentKind"},{"name":"adapter","type":"address","indexed":false,"internalType":"address"},{"name":"token0","type":"address","indexed":false,"internalType":"address"},{"name":"token1","type":"address","indexed":false,"internalType":"address"},{"name":"pool","type":"address","indexed":false,"internalType":"address"},{"name":"gauge","type":"address","indexed":false,"internalType":"address"},{"name":"extra","type":"bytes","indexed":false,"internalType":"bytes"}],"anonymous":false},{"type":"event","name":"StrategyConfigured","inputs":[{"name":"strategy","type":"address","indexed":true,"internalType":"address"},{"name":"asset","type":"address","indexed":false,"internalType":"address"},{"name":"schemaVersion","type":"uint8","indexed":false,"internalType":"uint8"}],"anonymous":false},{"type":"error","name":"OwnableInvalidOwner","inputs":[{"name":"owner","type":"address","internalType":"address"}]},{"type":"error","name":"OwnableUnauthorizedAccount","inputs":[{"name":"account","type":"address","internalType":"address"}]},{"type":"error","name":"ReentrancyGuardReentrantCall","inputs":[]},{"type":"error","name":"SafeERC20FailedOperation","inputs":[{"name":"token","type":"address","internalType":"address"}]}],"bytecode":{"object":"0x610140604090808252346200049d5760c08162001bf48038038091620000268285620004a1565b8339810103126200049d576200003c81620004d9565b9160206200004c818401620004d9565b62000059838501620004d9565b6200006760608601620004d9565b60a060808701519601515f92600184553315620004855760018054336001600160a01b0319821681179092558851966001600160a01b039392909184167f8be0079c531659141344cd1fd0a4f28419497f9722a3daafe3b4186f6b6457e08880a3828b16968715158062000479575b156200044b5750608087905260a052811692831515806200043f575b156200040c578815620003df5781908460c05216918260e052610100998a52875198638d24974f60e01b8a52878a600481885afa998a15620003d557869a62000392575b50610120998a5260025560035586519463095ea7b360e01b928387528460048801525f199687602482015288816044818a875af18015620003665762000370575b508588848c511660448c51809481938a83528760048401528d60248401525af180156200036657899288949260449262000344575b508b51948593849289845260048401528b60248401525af180156200033a5760449288959492879262000318575b508a5116895197889586948552600485015260248401525af19081156200030d5750620002d8575b505051906116eb928362000509843960805183818161031a01526114cc015260a0518381816104b901528181610c0f01528181610caa0152611510015260c0518381816102a40152818161055f01528181610a8401528181610ef90152611094015260e0518381816101dc0152818161059a01528181610bc201528181610e01015261136001525182818161023001528181610507015281816109a001528181610ce801526112da015251818181610204015281816105bd01528181610a4001528181610e8d01528181610fda01526113300152f35b81620002fc92903d1062000305575b620002f38183620004a1565b810190620004ee565b505f8062000202565b503d620002e7565b8451903d90823e3d90fd5b6200033290873d89116200030557620002f38183620004a1565b505f620001da565b88513d87823e3d90fd5b6200035e90853d87116200030557620002f38183620004a1565b505f620001ac565b8a513d89823e3d90fd5b6200038a90893d8b116200030557620002f38183620004a1565b505f62000177565b9099508781813d8311620003cd575b620003ad8183620004a1565b81010312620003c957620003c190620004d9565b985f62000136565b8580fd5b503d620003a1565b89513d88823e3d90fd5b875162461bcd60e51b81526004810188905260066024820152653130b210242360d11b6044820152606490fd5b875162461bcd60e51b815260048101889052600c60248201526b62616420616461707465727360a01b6044820152606490fd5b508181161515620000f2565b62461bcd60e51b81526004810189905260096024820152683d32b9379030b2323960b91b6044820152606490fd5b508382161515620000d6565b8651631e4fbdf760e01b815260048101859052602490fd5b5f80fd5b601f909101601f19168101906001600160401b03821190821017620004c557604052565b634e487b7160e01b5f52604160045260245ffd5b51906001600160a01b03821682036200049d57565b908160209103126200049d575180151581036200049d579056fe6080806040526004361015610012575f80fd5b5f803560e01c91826301e1d114146112b4575081631c823eff146112975781632e1a7d4d14610c89578163387f504a14610c6c57816338d52e0f14610bf15781633bcfc4b814610c51578163411557d1146100fa5781634641257d14610bf65781634800d97f14610bf157816348fb27b814610bad57816355af853514610ab35781635acfc85a14610a6f5781636ebb16ea14610a2b578163715018a6146109cf57816389a302711461098b5781638da5cb5b14610963578163b6b55f2514610492578163ba62fbe414610196578163f2fde38b146100ff575063fbfa77cf146100fa575f80fd5b6114fb565b34610193576020366003190112610193576004356001600160a01b038181169182900361018f5761012e61153f565b811561017657600154826bffffffffffffffffffffffff60a01b821617600155167f8be0079c531659141344cd1fd0a4f28419497f9722a3daafe3b4186f6b6457e05f80a380f35b604051631e4fbdf760e01b815260048101849052602490fd5b8280fd5b80fd5b34610193578060031936011261019357604051906101b3826115af565b60028252805b604081106104515750906040516101cf81611593565b8281526001600160a01b037f0000000000000000000000000000000000000000000000000000000000000000811660208301527f000000000000000000000000000000000000000000000000000000000000000081166040808401919091527f000000000000000000000000000000000000000000000000000000000000000090911660608301526080820184905260a082018490525161026f816115cb565b83815260c082015261028082611684565b5261028a81611684565b5060405161029781611593565b6002815260018060a01b037f00000000000000000000000000000000000000000000000000000000000000001660208201528260408201528260608201528260808201528260a08201526040516102ed816115cb565b83815260c08201526102fe826116a5565b52610308816116a5565b50604051906060820160018060a01b037f0000000000000000000000000000000000000000000000000000000000000000168352600160208401526060604084015281518091526080830193602060808360051b860101930194815b8383106103715785850386f35b90919293607f1986820301835286518051600781101561043d5782526020808201516001600160a01b039081169184019190915260408083015182169084015260608083015182169084015260808083015182169084015260a0808301519091169083015260c09081015160e09183018290528051918301829052909190835b838110610426575050808201610100908101849052602098890198601f909301601f1916909101019493600101920190610364565b8060208092840101516101008286010152016103f1565b634e487b7160e01b84526021600452602484fd5b60209060405161046081611593565b838152828481830152846040830152606085818401528560808401528560a084015260c08301528286010152016101b9565b346101935760209081600319360112610193576001600160a01b039160043591906104e0337f0000000000000000000000000000000000000000000000000000000000000000861614611609565b6104e8611642565b8215610930576040516370a0823160e01b8152306004820152602494907f000000000000000000000000000000000000000000000000000000000000000090838188818686165afa9081156109255790869186916108f0575b50106108b8576040516382e7c3f560e01b80825260048201969096527f00000000000000000000000000000000000000000000000000000000000000008316928482898189885af19182156108ad57869261087a575b507f000000000000000000000000000000000000000000000000000000000000000016927f000000000000000000000000000000000000000000000000000000000000000092843b15610876576040516311f9fbc960e21b8082526001600160a01b038616600483015260248201949094528781604481838a5af1801561086b57610858575b50865b60035481101561081c57604051636ad9f9df60e01b815230600482015287818c818a5afa90811561077c57899161082b575b50600254101561081c5760405163d8b7575d60e01b81523060048201526001600160a01b038616602482015287816044818a5afa801561077c5789906107ee575b600a91500480156107db57863b1561078757604051634b8a352960e01b81526001600160a01b0384166004820152602481018290528981604481838c5af180156107d057908a916107bc575b5050604051908a8252600482015287818c818c885af190811561077c57899161078b575b50863b15610787576040518581526001600160a01b038716600482015260248101919091528881604481838b5af1801561077c57908991610764575b50505f19811461075157600101610620565b634e487b7160e01b885260116004528988fd5b61076d9061156b565b61077857878b61073f565b8780fd5b6040513d8b823e3d90fd5b8880fd5b90508781813d83116107b5575b6107a281836115e7565b810103126107b157518b610703565b5f80fd5b503d610798565b6107c59061156b565b61078757888c6106df565b6040513d8c823e3d90fd5b50505050505050509150505b6001815580f35b508781813d8311610815575b61080481836115e7565b810103126107b157600a9051610693565b503d6107fa565b505050505050509150506107e7565b90508781813d8311610851575b61084281836115e7565b810103126107b157518b610652565b503d610838565b6108649097919761156b565b958961061d565b6040513d8a823e3d90fd5b8680fd5b9091508481813d83116108a6575b61089281836115e7565b810103126108a257519088610597565b8580fd5b503d610888565b6040513d88823e3d90fd5b60405162461bcd60e51b81526004810184905260118188015270696e73756666696369656e74205553444360781b6044820152606490fd5b809250858092503d831161091e575b61090981836115e7565b8101031261091a5785905188610541565b8480fd5b503d6108ff565b6040513d87823e3d90fd5b6064906040519062461bcd60e51b82526004820152600c60248201526b1e995c9bc819195c1bdcda5d60a21b6044820152fd5b346101935780600319360112610193576001546040516001600160a01b039091168152602090f35b346101935780600319360112610193576040517f00000000000000000000000000000000000000000000000000000000000000006001600160a01b03168152602090f35b346101935780600319360112610193576109e761153f565b600180546001600160a01b0319811690915581906001600160a01b03167f8be0079c531659141344cd1fd0a4f28419497f9722a3daafe3b4186f6b6457e08280a380f35b346101935780600319360112610193576040517f00000000000000000000000000000000000000000000000000000000000000006001600160a01b03168152602090f35b346101935780600319360112610193576040517f00000000000000000000000000000000000000000000000000000000000000006001600160a01b03168152602090f35b3461019357602036600319011261019357610acc61153f565b808060405160208101906307983f4560e21b8252600435602482015260248152610af5816115af565b51908273dc2b0d2dd2b7759d97d50db4eabdc369731108305af13d15610ba8573d67ffffffffffffffff8111610b945760405190610b3d601f8201601f1916602001836115e7565b81528260203d92013e5b15610b4f5780f35b60405162461bcd60e51b815260206004820152601860248201527f4665654d20726567697374726174696f6e206661696c656400000000000000006044820152606490fd5b634e487b7160e01b83526041600452602483fd5b610b47565b346101935780600319360112610193576040517f00000000000000000000000000000000000000000000000000000000000000006001600160a01b03168152602090f35b6114b7565b34610193578060031936011261019357602090610c3d337f00000000000000000000000000000000000000000000000000000000000000006001600160a01b031614611609565b610c45611642565b60018155604051908152f35b34610193578060031936011261019357602090604051908152f35b346101935780600319360112610193576020600354604051908152f35b346101935760208060031936011261129357600435906001600160a01b03907f0000000000000000000000000000000000000000000000000000000000000000610cd63384831614611609565b610cde611642565b831561125e5784907f00000000000000000000000000000000000000000000000000000000000000009484861694604051966370a0823160e01b8089523060048a015260249887818b818c5afa90811561114a578791611231575b50848110610dd3575b50506040805163a9059cbb60e01b8882019081526001600160a01b039096168a8201908152602081019590955293610d8793508492500103601f1981018352826115e7565b519082855af115610dc85782513d610dbf5750803b155b610daa57826001815580f35b60405190635274afe760e01b82526004820152fd5b60011415610d9e565b6040513d84823e3d90fd5b610ddd9085611663565b604051634c4ab16960e01b81523060048201526001600160a01b03841660248201527f00000000000000000000000000000000000000000000000000000000000000008516939091908983604481885afa92831561077c578993611202575b5082610fc5575b50505060405190815230600482015286818a818b5afa80156108ad578690610f96575b610e71915084611663565b9182610e7e575b80610d42565b60405163f3fef3a360e01b81527f00000000000000000000000000000000000000000000000000000000000000006001600160a01b0316600482015260248101849052918790839060449082908a905af180156108ad57869388938b92610f63575b50604051948593849262654e8160e91b845260048401527f0000000000000000000000000000000000000000000000000000000000000000165af1908115610f58578591610f2f575b80610e78565b813d8311610f51575b610f4281836115e7565b8101031261018f578388610f29565b503d610f38565b6040513d86823e3d90fd5b915092809294503d8311610f8f575b610f7c81836115e7565b8101031261091a5784918887928c610ee0565b503d610f72565b508681813d8311610fbe575b610fac81836115e7565b810103126108a257610e719051610e66565b503d610fa2565b60405163d8b7575d60e01b81523060048201527f00000000000000000000000000000000000000000000000000000000000000006001600160a01b038116602483015292908b816044818a5afa80156111f7578c918c916111c2575b506110649290818111156111b9575080945b60405163f3fef3a360e01b81526001600160a01b039091166004820152602481019190915291829081906044820190565b03818d8a5af19081156107d0578b91611190575b50506040519162654e8160e91b8352600483015289828d818c8a7f0000000000000000000000000000000000000000000000000000000000000000165af1801561077c578a928a9161115d575b506111079390818111156111555750905b604051630450cfaf60e31b81526001600160a01b039091166004820152602481019190915291829081906044820190565b03818a875af190811561114a578891611121575b80610e43565b813d8311611143575b61113481836115e7565b810103126108a257868b61111b565b503d61112a565b6040513d89823e3d90fd5b9050906110d6565b83819492503d8311611189575b61117481836115e7565b810103126107875790518991906111076110c5565b503d61116a565b813d83116111b2575b6111a381836115e7565b8101031261078757898e611078565b503d611199565b90508094611033565b82819392503d83116111f0575b6111d981836115e7565b810103126111ec57518b90611064611021565b8a80fd5b503d6111cf565b6040513d8d823e3d90fd5b9092508981813d831161122a575b61121a81836115e7565b810103126107875751918d610e3c565b503d611210565b90508781813d8311611257575b61124881836115e7565b8101031261087657518b610d39565b503d61123e565b60405162461bcd60e51b815260048101839052600d60248201526c7a65726f20776974686472617760981b6044820152606490fd5b5080fd5b346101935780600319360112610193576020600254604051908152f35b90346101935780600319360112610193576370a0823160e01b82523060048301526020917f0000000000000000000000000000000000000000000000000000000000000000906001600160a01b0384826024818487165afa918215610f58578492611488575b5060405163d8b7575d60e01b81523060048201527f00000000000000000000000000000000000000000000000000000000000000006001600160a01b03166024820152927f000000000000000000000000000000000000000000000000000000000000000091909116908584604481855afa918215610925579086918693611450575b604051634c4ab16960e01b81523060048201526001600160a01b03909216602483015290945084908180604481015b03915afa928315610f5857849361141d575b5081018091116114095781811115611402576113fa9250611663565b604051908152f35b50506113fa565b634e487b7160e01b83526011600452602483fd5b9092508481813d8311611449575b61143581836115e7565b81010312611445575191856113de565b8380fd5b503d61142b565b93948281939294503d8311611481575b61146a81836115e7565b8101031261091a576113cc9392918691519261139d565b503d611460565b9091508481813d83116114b0575b6114a081836115e7565b810103126114455751908561131a565b503d611496565b346107b1575f3660031901126107b1576040517f00000000000000000000000000000000000000000000000000000000000000006001600160a01b03168152602090f35b346107b1575f3660031901126107b1576040517f00000000000000000000000000000000000000000000000000000000000000006001600160a01b03168152602090f35b6001546001600160a01b0316330361155357565b60405163118cdaa760e01b8152336004820152602490fd5b67ffffffffffffffff811161157f57604052565b634e487b7160e01b5f52604160045260245ffd5b60e0810190811067ffffffffffffffff82111761157f57604052565b6060810190811067ffffffffffffffff82111761157f57604052565b6020810190811067ffffffffffffffff82111761157f57604052565b90601f8019910116810190811067ffffffffffffffff82111761157f57604052565b1561161057565b60405162461bcd60e51b815260206004820152600a60248201526913db9b1e481d985d5b1d60b21b6044820152606490fd5b60025f54146116515760025f55565b604051633ee5aeb560e01b8152600490fd5b9190820391821161167057565b634e487b7160e01b5f52601160045260245ffd5b8051156116915760200190565b634e487b7160e01b5f52603260045260245ffd5b805160011015611691576040019056fea2646970667358221220d289cebc474eb1814c38e7b9f4b6da0b916140e07992cb7a062011d726bb8ac064736f6c63430008140033","linkReferences":{}},"methodIdentifiers":{"ASSET()":"4800d97f","LENDING()":"48fb27b8","RINGS()":"5acfc85a","SC_USD()":"6ebb16ea","USDC()":"89a30271","VAULT()":"411557d1","apy()":"3bcfc4b8","asset()":"38d52e0f","components()":"ba62fbe4","deposit(uint256)":"b6b55f25","harvest()":"4641257d","maxIterations()":"387f504a","owner()":"8da5cb5b","registerMe(uint256)":"55af8535","renounceOwnership()":"715018a6","targetHf()":"1c823eff","totalAssets()":"01e1d114","transferOwnership(address)":"f2fde38b","vault()":"fbfa77cf","withdraw(uint256)":"2e1a7d4d"},"id":69}