{"abi":[{"type":"constructor","inputs":[{"name":"_usdc","type":"address","internalType":"address"},{"name":"_vault","type":"address","internalType":"address"},{"name":"_ringsAdapter","type":"address","internalType":"address"},{"name":"_lendingAdapter","type":"address","internalType":"address"},{"name":"_targetHf","type":"uint256","internalType":"uint256"},{"name":"_maxIter","type":"uint256","internalType":"uint256"},{"name":"_name","type":"string","internalType":"string"}],"stateMutability":"nonpayable"},{"type":"function","name":"ASSET","inputs":[],"outputs":[{"name":"","type":"address","internalType":"contract IERC20"}],"stateMutability":"view"},{"type":"function","name":"LENDING","inputs":[],"outputs":[{"name":"","type":"address","internalType":"contract ILendingAdapter"}],"stateMutability":"view"},{"type":"function","name":"RINGS","inputs":[],"outputs":[{"name":"","type":"address","internalType":"contract IRingsAdapter"}],"stateMutability":"view"},{"type":"function","name":"SC_USD","inputs":[],"outputs":[{"name":"","type":"address","internalType":"address"}],"stateMutability":"view"},{"type":"function","name":"USDC","inputs":[],"outputs":[{"name":"","type":"address","internalType":"address"}],"stateMutability":"view"},{"type":"function","name":"VAULT","inputs":[],"outputs":[{"name":"","type":"address","internalType":"address"}],"stateMutability":"view"},{"type":"function","name":"apy","inputs":[],"outputs":[{"name":"","type":"uint256","internalType":"uint256"}],"stateMutability":"pure"},{"type":"function","name":"asset","inputs":[],"outputs":[{"name":"","type":"address","internalType":"contract IERC20"}],"stateMutability":"view"},{"type":"function","name":"components","inputs":[],"outputs":[{"name":"asset","type":"address","internalType":"address"},{"name":"schemaVersion","type":"uint8","internalType":"uint8"},{"name":"comps","type":"tuple[]","internalType":"struct IStrategyIntrospection.Component[]","components":[{"name":"kind","type":"uint8","internalType":"enum IStrategyIntrospection.ComponentKind"},{"name":"adapter","type":"address","internalType":"address"},{"name":"token0","type":"address","internalType":"address"},{"name":"token1","type":"address","internalType":"address"},{"name":"pool","type":"address","internalType":"address"},{"name":"gauge","type":"address","internalType":"address"},{"name":"extra","type":"bytes","internalType":"bytes"},{"name":"name","type":"string","internalType":"string"}]}],"stateMutability":"view"},{"type":"function","name":"deposit","inputs":[{"name":"amount","type":"uint256","internalType":"uint256"}],"outputs":[],"stateMutability":"nonpayable"},{"type":"function","name":"harvest","inputs":[],"outputs":[{"name":"","type":"uint256","internalType":"uint256"}],"stateMutability":"nonpayable"},{"type":"function","name":"maxIterations","inputs":[],"outputs":[{"name":"","type":"uint256","internalType":"uint256"}],"stateMutability":"view"},{"type":"function","name":"name","inputs":[],"outputs":[{"name":"","type":"string","internalType":"string"}],"stateMutability":"view"},{"type":"function","name":"owner","inputs":[],"outputs":[{"name":"","type":"address","internalType":"address"}],"stateMutability":"view"},{"type":"function","name":"registerMe","inputs":[{"name":"projectId","type":"uint256","internalType":"uint256"}],"outputs":[],"stateMutability":"nonpayable"},{"type":"function","name":"renounceOwnership","inputs":[],"outputs":[],"stateMutability":"nonpayable"},{"type":"function","name":"targetHf","inputs":[],"outputs":[{"name":"","type":"uint256","internalType":"uint256"}],"stateMutability":"view"},{"type":"function","name":"totalAssets","inputs":[],"outputs":[{"name":"","type":"uint256","internalType":"uint256"}],"stateMutability":"view"},{"type":"function","name":"transferOwnership","inputs":[{"name":"newOwner","type":"address","internalType":"address"}],"outputs":[],"stateMutability":"nonpayable"},{"type":"function","name":"vault","inputs":[],"outputs":[{"name":"","type":"address","internalType":"address"}],"stateMutability":"view"},{"type":"function","name":"withdraw","inputs":[{"name":"amount","type":"uint256","internalType":"uint256"}],"outputs":[],"stateMutability":"nonpayable"},{"type":"event","name":"OwnershipTransferred","inputs":[{"name":"previousOwner","type":"address","indexed":true,"internalType":"address"},{"name":"newOwner","type":"address","indexed":true,"internalType":"address"}],"anonymous":false},{"type":"event","name":"StrategyComponent","inputs":[{"name":"strategy","type":"address","indexed":true,"internalType":"address"},{"name":"kind","type":"uint8","indexed":false,"internalType":"enum IStrategyIntrospection.ComponentKind"},{"name":"adapter","type":"address","indexed":false,"internalType":"address"},{"name":"token0","type":"address","indexed":false,"internalType":"address"},{"name":"token1","type":"address","indexed":false,"internalType":"address"},{"name":"pool","type":"address","indexed":false,"internalType":"address"},{"name":"gauge","type":"address","indexed":false,"internalType":"address"},{"name":"extra","type":"bytes","indexed":false,"internalType":"bytes"}],"anonymous":false},{"type":"event","name":"StrategyConfigured","inputs":[{"name":"strategy","type":"address","indexed":true,"internalType":"address"},{"name":"asset","type":"address","indexed":false,"internalType":"address"},{"name":"schemaVersion","type":"uint8","indexed":false,"internalType":"uint8"}],"anonymous":false},{"type":"error","name":"OwnableInvalidOwner","inputs":[{"name":"owner","type":"address","internalType":"address"}]},{"type":"error","name":"OwnableUnauthorizedAccount","inputs":[{"name":"account","type":"address","internalType":"address"}]},{"type":"error","name":"ReentrancyGuardReentrantCall","inputs":[]},{"type":"error","name":"SafeERC20FailedOperation","inputs":[{"name":"token","type":"address","internalType":"address"}]}],"bytecode":{"object":"0x610140604090808252346200067c5762001f6a803803809162000023828562000680565b833981019160e0828403126200067c576200003e82620006a4565b926020906200004f828501620006a4565b6200005c848601620006a4565b906200006b60608701620006a4565b9260808701519260a08801519760c081015160018060401b03918282116200067c5701601f8481830112156200067c57815183811162000602578a5192601f1996620000be8c8986860116018662000680565b8285528b83830101116200067c578a905f5b838110620006675750505f9184010152600191825f55331562000650579082918d979695949354963360018060a01b031989161784558c519760018060a01b03998a91823391167f8be0079c531659141344cd1fd0a4f28419497f9722a3daafe3b4186f6b6457e05f80a316978815158062000644575b156200061657508760805260a05280519384116200060257600254958387811c97168015620005f7575b8c881014620005e3578b87848b991162000584575b50508b9285116001146200051f57505f92849290918362000513575b50501b915f199060031b1c1916176002555b16938415158062000507575b15620004d4578315620004a75782908560c05216918260e052610100988952865197638d24974f60e01b8952600494878a87818a5afa998a156200049d575f9a6200045b575b50610120998a52600355845586519163095ea7b360e01b9384845286868501525f199384602482015288816044815f875af180156200042f5762000439575b505f88848c511660448c51809481938b8352878d8401528a60248401525af180156200042f5789925f94926044926200040d575b508b5194859384928a84528b8401528860248401525af18015620004035792879594925f92604495620003e1575b508a51169089519788968795865285015260248401525af18015620003d757620003a2575b505051906118969283620006d4843960805183818161036a015261165a015260a0518381816104f901528181610c4f01528181610cea015261169e015260c0518381816102d30152818161059f01528181610ac401528181610f3901526110d4015260e0518381816101e6015281816105da01528181610c0201528181610e4101526114b001525182818161023a01528181610547015281816109e001528181610d28015261142a01525181818161020e015281816105fd01528181610a8001528181610ecd0152818161101a01526114800152f35b81620003c692903d10620003cf575b620003bd818362000680565b810190620006b9565b505f80620002cc565b503d620003b1565b83513d5f823e3d90fd5b620003fb90883d8a11620003cf57620003bd818362000680565b505f620002a7565b88513d5f823e3d90fd5b6200042790853d8711620003cf57620003bd818362000680565b505f62000279565b8a513d5f823e3d90fd5b6200045390893d8b11620003cf57620003bd818362000680565b505f62000245565b90998882813d831162000495575b62000475818362000680565b810103126200049257506200048a90620006a4565b985f62000206565b80fd5b503d62000469565b89513d5f823e3d90fd5b865162461bcd60e51b81526004810187905260066024820152653130b210242360d11b6044820152606490fd5b865162461bcd60e51b815260048101879052600c60248201526b62616420616461707465727360a01b6044820152606490fd5b508281161515620001c0565b015192505f80620001a2565b849394929192169160025f528b5f20925f5b8d8282106200056c575050841162000553575b505050811b01600255620001b4565b01515f1960f88460031b161c191690555f808062000544565b8484015186558b995094870194938401930162000531565b90919293949596975060025f5284825f209181890160051c8301938910620005d9575b958b999897969594939291950160051c01905b818110620005cb578d915062000186565b5f81558a98508501620005ba565b92508192620005a7565b634e487b7160e01b5f52602260045260245ffd5b96607f169662000171565b634e487b7160e01b5f52604160045260245ffd5b62461bcd60e51b8152600481018d905260096024820152683d32b9379030b2323960b91b6044820152606490fd5b50898216151562000147565b8a51631e4fbdf760e01b81525f6004820152602490fd5b8181018301518682018401528c9201620000d0565b5f80fd5b601f909101601f19168101906001600160401b038211908210176200060257604052565b51906001600160a01b03821682036200067c57565b908160209103126200067c575180151581036200067c579056fe6080806040526004361015610012575f80fd5b5f803560e01c91826301e1d114146114045750816306fdde03146112f45781631c823eff146112d75781632e1a7d4d14610cc9578163387f504a14610cac57816338d52e0f14610c315781633bcfc4b814610c91578163411557d1146101055781634641257d14610c365781634800d97f14610c3157816348fb27b814610bed57816355af853514610af35781635acfc85a14610aaf5781636ebb16ea14610a6b578163715018a614610a0f57816389a30271146109cb5781638da5cb5b146109a3578163b6b55f25146104d2578163ba62fbe4146101a1578163f2fde38b1461010a575063fbfa77cf14610105575f80fd5b611689565b3461019e57602036600319011261019e576004356001600160a01b038181169182900361019a576101396116cd565b811561018157600154826bffffffffffffffffffffffff60a01b821617600155167f8be0079c531659141344cd1fd0a4f28419497f9722a3daafe3b4186f6b6457e05f80a380f35b604051631e4fbdf760e01b815260048101849052602490fd5b8280fd5b80fd5b3461019e578060031936011261019e576040516101bd8161173e565b60028152815b6040811061048b5750906040516101d981611721565b8181526001600160a01b037f0000000000000000000000000000000000000000000000000000000000000000811660208301527f000000000000000000000000000000000000000000000000000000000000000081166040808401919091527f000000000000000000000000000000000000000000000000000000000000000090911660608301526080820183905260a08201839052516102798161175a565b82815260c082015260405161028d81611776565b60078152664c656e64696e6760c81b602082015260e08201526102af8361182f565b526102b98261182f565b506040516102c681611721565b6002815260018060a01b037f00000000000000000000000000000000000000000000000000000000000000001660208201528160408201528160608201528160808201528160a082015260405161031c8161175a565b82815260c082015260405161033081611776565b600581526452696e677360d81b602082015260e082015261035083611850565b5261035a82611850565b5060405191829160018060a01b037f000000000000000000000000000000000000000000000000000000000000000016835260016020840152606060408401526060830182518091526080840190602060808260051b870101940192805b8282106103c55786860387f35b919395509193607f19878203018552855190815160078110156104775781526020808301516001600160a01b039081168284015260408085015182169084015260608085015182169084015260808085015182169084015260a0808501519091169083015260c0808401516101009184018290526001949293849361046793909260e0916104569190840190611607565b9201519060e0818403910152611607565b97019501920186959493916103b8565b634e487b7160e01b84526021600452602484fd5b60209060405161049a81611721565b848152828581830152856040830152606086818401528660808401528660a08401528060c084015260e08301528285010152016101c3565b3461019e576020908160031936011261019e576001600160a01b03916004359190610520337f00000000000000000000000000000000000000000000000000000000000000008616146117b4565b6105286117ed565b8215610970576040516370a0823160e01b8152306004820152602494907f000000000000000000000000000000000000000000000000000000000000000090838188818686165afa908115610965579086918691610930575b50106108f8576040516382e7c3f560e01b80825260048201969096527f00000000000000000000000000000000000000000000000000000000000000008316928482898189885af19182156108ed5786926108ba575b507f000000000000000000000000000000000000000000000000000000000000000016927f000000000000000000000000000000000000000000000000000000000000000092843b156108b6576040516311f9fbc960e21b8082526001600160a01b038616600483015260248201949094528781604481838a5af180156108ab57610898575b50865b60045481101561085c57604051636ad9f9df60e01b815230600482015287818c818a5afa9081156107bc57899161086b575b50600354101561085c5760405163d8b7575d60e01b81523060048201526001600160a01b038616602482015287816044818a5afa80156107bc57899061082e575b600a915004801561081b57863b156107c757604051634b8a352960e01b81526001600160a01b0384166004820152602481018290528981604481838c5af1801561081057908a916107fc575b5050604051908a8252600482015287818c818c885af19081156107bc5789916107cb575b50863b156107c7576040518581526001600160a01b038716600482015260248101919091528881604481838b5af180156107bc579089916107a4575b50505f19811461079157600101610660565b634e487b7160e01b885260116004528988fd5b6107ad906116f9565b6107b857878b61077f565b8780fd5b6040513d8b823e3d90fd5b8880fd5b90508781813d83116107f5575b6107e28183611792565b810103126107f157518b610743565b5f80fd5b503d6107d8565b610805906116f9565b6107c757888c61071f565b6040513d8c823e3d90fd5b50505050505050509150505b6001815580f35b508781813d8311610855575b6108448183611792565b810103126107f157600a90516106d3565b503d61083a565b50505050505050915050610827565b90508781813d8311610891575b6108828183611792565b810103126107f157518b610692565b503d610878565b6108a4909791976116f9565b958961065d565b6040513d8a823e3d90fd5b8680fd5b9091508481813d83116108e6575b6108d28183611792565b810103126108e2575190886105d7565b8580fd5b503d6108c8565b6040513d88823e3d90fd5b60405162461bcd60e51b81526004810184905260118188015270696e73756666696369656e74205553444360781b6044820152606490fd5b809250858092503d831161095e575b6109498183611792565b8101031261095a5785905188610581565b8480fd5b503d61093f565b6040513d87823e3d90fd5b6064906040519062461bcd60e51b82526004820152600c60248201526b1e995c9bc819195c1bdcda5d60a21b6044820152fd5b3461019e578060031936011261019e576001546040516001600160a01b039091168152602090f35b3461019e578060031936011261019e576040517f00000000000000000000000000000000000000000000000000000000000000006001600160a01b03168152602090f35b3461019e578060031936011261019e57610a276116cd565b600180546001600160a01b0319811690915581906001600160a01b03167f8be0079c531659141344cd1fd0a4f28419497f9722a3daafe3b4186f6b6457e08280a380f35b3461019e578060031936011261019e576040517f00000000000000000000000000000000000000000000000000000000000000006001600160a01b03168152602090f35b3461019e578060031936011261019e576040517f00000000000000000000000000000000000000000000000000000000000000006001600160a01b03168152602090f35b3461019e57602036600319011261019e57610b0c6116cd565b808060405160208101906307983f4560e21b8252600435602482015260248152610b358161173e565b51908273dc2b0d2dd2b7759d97d50db4eabdc369731108305af13d15610be8573d67ffffffffffffffff8111610bd45760405190610b7d601f8201601f191660200183611792565b81528260203d92013e5b15610b8f5780f35b60405162461bcd60e51b815260206004820152601860248201527f4665654d20726567697374726174696f6e206661696c656400000000000000006044820152606490fd5b634e487b7160e01b83526041600452602483fd5b610b87565b3461019e578060031936011261019e576040517f00000000000000000000000000000000000000000000000000000000000000006001600160a01b03168152602090f35b611645565b3461019e578060031936011261019e57602090610c7d337f00000000000000000000000000000000000000000000000000000000000000006001600160a01b0316146117b4565b610c856117ed565b60018155604051908152f35b3461019e578060031936011261019e57602090604051908152f35b3461019e578060031936011261019e576020600454604051908152f35b3461019e576020806003193601126112d357600435906001600160a01b03907f0000000000000000000000000000000000000000000000000000000000000000610d1633848316146117b4565b610d1e6117ed565b831561129e5784907f00000000000000000000000000000000000000000000000000000000000000009484861694604051966370a0823160e01b8089523060048a015260249887818b818c5afa90811561118a578791611271575b50848110610e13575b50506040805163a9059cbb60e01b8882019081526001600160a01b039096168a8201908152602081019590955293610dc793508492500103601f198101835282611792565b519082855af115610e085782513d610dff5750803b155b610dea57826001815580f35b60405190635274afe760e01b82526004820152fd5b60011415610dde565b6040513d84823e3d90fd5b610e1d908561180e565b604051634c4ab16960e01b81523060048201526001600160a01b03841660248201527f00000000000000000000000000000000000000000000000000000000000000008516939091908983604481885afa9283156107bc578993611242575b5082611005575b50505060405190815230600482015286818a818b5afa80156108ed578690610fd6575b610eb191508461180e565b9182610ebe575b80610d82565b60405163f3fef3a360e01b81527f00000000000000000000000000000000000000000000000000000000000000006001600160a01b0316600482015260248101849052918790839060449082908a905af180156108ed57869388938b92610fa3575b50604051948593849262654e8160e91b845260048401527f0000000000000000000000000000000000000000000000000000000000000000165af1908115610f98578591610f6f575b80610eb8565b813d8311610f91575b610f828183611792565b8101031261019a578388610f69565b503d610f78565b6040513d86823e3d90fd5b915092809294503d8311610fcf575b610fbc8183611792565b8101031261095a5784918887928c610f20565b503d610fb2565b508681813d8311610ffe575b610fec8183611792565b810103126108e257610eb19051610ea6565b503d610fe2565b60405163d8b7575d60e01b81523060048201527f00000000000000000000000000000000000000000000000000000000000000006001600160a01b038116602483015292908b816044818a5afa8015611237578c918c91611202575b506110a49290818111156111f9575080945b60405163f3fef3a360e01b81526001600160a01b039091166004820152602481019190915291829081906044820190565b03818d8a5af1908115610810578b916111d0575b50506040519162654e8160e91b8352600483015289828d818c8a7f0000000000000000000000000000000000000000000000000000000000000000165af180156107bc578a928a9161119d575b506111479390818111156111955750905b604051630450cfaf60e31b81526001600160a01b039091166004820152602481019190915291829081906044820190565b03818a875af190811561118a578891611161575b80610e83565b813d8311611183575b6111748183611792565b810103126108e257868b61115b565b503d61116a565b6040513d89823e3d90fd5b905090611116565b83819492503d83116111c9575b6111b48183611792565b810103126107c7579051899190611147611105565b503d6111aa565b813d83116111f2575b6111e38183611792565b810103126107c757898e6110b8565b503d6111d9565b90508094611073565b82819392503d8311611230575b6112198183611792565b8101031261122c57518b906110a4611061565b8a80fd5b503d61120f565b6040513d8d823e3d90fd5b9092508981813d831161126a575b61125a8183611792565b810103126107c75751918d610e7c565b503d611250565b90508781813d8311611297575b6112888183611792565b810103126108b657518b610d79565b503d61127e565b60405162461bcd60e51b815260048101839052600d60248201526c7a65726f20776974686472617760981b6044820152606490fd5b5080fd5b3461019e578060031936011261019e576020600354604051908152f35b3461019e578060031936011261019e57604051908060025491600183811c928185169485156113fa575b60209586861081146113e6578588528794939291879082156113c457505060011461136a575b505061135292500383611792565b611366604051928284938452830190611607565b0390f35b90859250600282527f405787fa12a823e0f2b7631cc41b3ba8828b3321ca811111fa75cd3aa3bb5ace5b8583106113ac57505061135293508201018580611344565b80548389018501528794508693909201918101611394565b925093505061135294915060ff191682840152151560051b8201018580611344565b634e487b7160e01b83526022600452602483fd5b93607f169361131e565b903461019e578060031936011261019e576370a0823160e01b82523060048301526020917f0000000000000000000000000000000000000000000000000000000000000000906001600160a01b0384826024818487165afa918215610f985784926115d8575b5060405163d8b7575d60e01b81523060048201527f00000000000000000000000000000000000000000000000000000000000000006001600160a01b03166024820152927f000000000000000000000000000000000000000000000000000000000000000091909116908584604481855afa9182156109655790869186936115a0575b604051634c4ab16960e01b81523060048201526001600160a01b03909216602483015290945084908180604481015b03915afa928315610f9857849361156d575b50810180911161155957818111156115525761154a925061180e565b604051908152f35b505061154a565b634e487b7160e01b83526011600452602483fd5b9092508481813d8311611599575b6115858183611792565b810103126115955751918561152e565b8380fd5b503d61157b565b93948281939294503d83116115d1575b6115ba8183611792565b8101031261095a5761151c939291869151926114ed565b503d6115b0565b9091508481813d8311611600575b6115f08183611792565b810103126115955751908561146a565b503d6115e6565b91908251928382525f5b848110611631575050825f602080949584010152601f8019910116010190565b602081830181015184830182015201611611565b346107f1575f3660031901126107f1576040517f00000000000000000000000000000000000000000000000000000000000000006001600160a01b03168152602090f35b346107f1575f3660031901126107f1576040517f00000000000000000000000000000000000000000000000000000000000000006001600160a01b03168152602090f35b6001546001600160a01b031633036116e157565b60405163118cdaa760e01b8152336004820152602490fd5b67ffffffffffffffff811161170d57604052565b634e487b7160e01b5f52604160045260245ffd5b610100810190811067ffffffffffffffff82111761170d57604052565b6060810190811067ffffffffffffffff82111761170d57604052565b6020810190811067ffffffffffffffff82111761170d57604052565b6040810190811067ffffffffffffffff82111761170d57604052565b90601f8019910116810190811067ffffffffffffffff82111761170d57604052565b156117bb57565b60405162461bcd60e51b815260206004820152600a60248201526913db9b1e481d985d5b1d60b21b6044820152606490fd5b60025f54146117fc5760025f55565b604051633ee5aeb560e01b8152600490fd5b9190820391821161181b57565b634e487b7160e01b5f52601160045260245ffd5b80511561183c5760200190565b634e487b7160e01b5f52603260045260245ffd5b80516001101561183c576040019056fea2646970667358221220a74facb82b3559b48455b5ec5557e3046f8465ed6e3dab687480f57fcb956cf764736f6c63430008140033","linkReferences":{}},"methodIdentifiers":{"ASSET()":"4800d97f","LENDING()":"48fb27b8","RINGS()":"5acfc85a","SC_USD()":"6ebb16ea","USDC()":"89a30271","VAULT()":"411557d1","apy()":"3bcfc4b8","asset()":"38d52e0f","components()":"ba62fbe4","deposit(uint256)":"b6b55f25","harvest()":"4641257d","maxIterations()":"387f504a","name()":"06fdde03","owner()":"8da5cb5b","registerMe(uint256)":"55af8535","renounceOwnership()":"715018a6","targetHf()":"1c823eff","totalAssets()":"01e1d114","transferOwnership(address)":"f2fde38b","vault()":"fbfa77cf","withdraw(uint256)":"2e1a7d4d"},"id":57}