{"abi":[{"type":"constructor","inputs":[{"name":"_sToken","type":"address","internalType":"address"},{"name":"_vault","type":"address","internalType":"address"},{"name":"_stsAdapter","type":"address","internalType":"address"},{"name":"_beetsAdapter","type":"address","internalType":"address"},{"name":"_pool","type":"address","internalType":"address"}],"stateMutability":"nonpayable"},{"type":"function","name":"ASSET","inputs":[],"outputs":[{"name":"","type":"address","internalType":"contract IERC20"}],"stateMutability":"view"},{"type":"function","name":"BEETS","inputs":[],"outputs":[{"name":"","type":"address","internalType":"contract IBeetsAdapter"}],"stateMutability":"view"},{"type":"function","name":"POOL","inputs":[],"outputs":[{"name":"","type":"address","internalType":"address"}],"stateMutability":"view"},{"type":"function","name":"STS","inputs":[],"outputs":[{"name":"","type":"address","internalType":"contract IStSAdapter"}],"stateMutability":"view"},{"type":"function","name":"STS_TOKEN","inputs":[],"outputs":[{"name":"","type":"address","internalType":"address"}],"stateMutability":"view"},{"type":"function","name":"VAULT","inputs":[],"outputs":[{"name":"","type":"address","internalType":"address"}],"stateMutability":"view"},{"type":"function","name":"apy","inputs":[],"outputs":[{"name":"","type":"uint256","internalType":"uint256"}],"stateMutability":"view"},{"type":"function","name":"asset","inputs":[],"outputs":[{"name":"","type":"address","internalType":"contract IERC20"}],"stateMutability":"view"},{"type":"function","name":"components","inputs":[],"outputs":[{"name":"asset","type":"address","internalType":"address"},{"name":"schemaVersion","type":"uint8","internalType":"uint8"},{"name":"comps","type":"tuple[]","internalType":"struct IStrategyIntrospection.Component[]","components":[{"name":"kind","type":"uint8","internalType":"enum IStrategyIntrospection.ComponentKind"},{"name":"adapter","type":"address","internalType":"address"},{"name":"token0","type":"address","internalType":"address"},{"name":"token1","type":"address","internalType":"address"},{"name":"pool","type":"address","internalType":"address"},{"name":"gauge","type":"address","internalType":"address"},{"name":"extra","type":"bytes","internalType":"bytes"}]}],"stateMutability":"view"},{"type":"function","name":"deposit","inputs":[{"name":"amount","type":"uint256","internalType":"uint256"}],"outputs":[],"stateMutability":"nonpayable"},{"type":"function","name":"harvest","inputs":[],"outputs":[{"name":"harvested","type":"uint256","internalType":"uint256"}],"stateMutability":"nonpayable"},{"type":"function","name":"owner","inputs":[],"outputs":[{"name":"","type":"address","internalType":"address"}],"stateMutability":"view"},{"type":"function","name":"registerMe","inputs":[{"name":"projectId","type":"uint256","internalType":"uint256"}],"outputs":[],"stateMutability":"nonpayable"},{"type":"function","name":"renounceOwnership","inputs":[],"outputs":[],"stateMutability":"nonpayable"},{"type":"function","name":"stakedLp","inputs":[],"outputs":[{"name":"","type":"uint256","internalType":"uint256"}],"stateMutability":"view"},{"type":"function","name":"totalAssets","inputs":[],"outputs":[{"name":"","type":"uint256","internalType":"uint256"}],"stateMutability":"view"},{"type":"function","name":"transferOwnership","inputs":[{"name":"newOwner","type":"address","internalType":"address"}],"outputs":[],"stateMutability":"nonpayable"},{"type":"function","name":"vault","inputs":[],"outputs":[{"name":"","type":"address","internalType":"address"}],"stateMutability":"view"},{"type":"function","name":"withdraw","inputs":[{"name":"amount","type":"uint256","internalType":"uint256"}],"outputs":[],"stateMutability":"nonpayable"},{"type":"event","name":"OwnershipTransferred","inputs":[{"name":"previousOwner","type":"address","indexed":true,"internalType":"address"},{"name":"newOwner","type":"address","indexed":true,"internalType":"address"}],"anonymous":false},{"type":"event","name":"StrategyComponent","inputs":[{"name":"strategy","type":"address","indexed":true,"internalType":"address"},{"name":"kind","type":"uint8","indexed":false,"internalType":"enum IStrategyIntrospection.ComponentKind"},{"name":"adapter","type":"address","indexed":false,"internalType":"address"},{"name":"token0","type":"address","indexed":false,"internalType":"address"},{"name":"token1","type":"address","indexed":false,"internalType":"address"},{"name":"pool","type":"address","indexed":false,"internalType":"address"},{"name":"gauge","type":"address","indexed":false,"internalType":"address"},{"name":"extra","type":"bytes","indexed":false,"internalType":"bytes"}],"anonymous":false},{"type":"event","name":"StrategyConfigured","inputs":[{"name":"strategy","type":"address","indexed":true,"internalType":"address"},{"name":"asset","type":"address","indexed":false,"internalType":"address"},{"name":"schemaVersion","type":"uint8","indexed":false,"internalType":"uint8"}],"anonymous":false},{"type":"error","name":"OwnableInvalidOwner","inputs":[{"name":"owner","type":"address","internalType":"address"}]},{"type":"error","name":"OwnableUnauthorizedAccount","inputs":[{"name":"account","type":"address","internalType":"address"}]},{"type":"error","name":"ReentrancyGuardReentrantCall","inputs":[]},{"type":"error","name":"SafeERC20FailedOperation","inputs":[{"name":"token","type":"address","internalType":"address"}]}],"bytecode":{"object":"0x61014060409080825234620004af5760a08162001ba18038038091620000268285620004b3565b833981010312620004af576200003c81620004eb565b9160206200004c818401620004eb565b926200005a838201620004eb565b6200007660806200006e60608501620004eb565b9301620004eb565b955f91600183553315620004975760018054336001600160a01b0319821681179092558751986001600160a01b03949092859283167f8be0079c531659141344cd1fd0a4f28419497f9722a3daafe3b4186f6b6457e08880a31697881515806200048b575b156200045d5750608088905260a0528116928315158062000451575b156200041e5781881615620003ef5781908460c05216908160e05261010097885285519663065a291b60e31b88528588600481885afa978815620003e5578498620003a2575b5061012097885286519463095ea7b360e01b928387528160048801525f199687602482015288816044818a885af18015620003765762000380575b508588828c511660448c51809481938a83528b60048401528d60248401525af180156200037657899288949260449262000354575b508c5116918b51948593849289845260048401528b60248401525af180156200034a5760449288959492879262000328575b50895197889586948552600485015260248401525af19081156200031d5750620002e8575b5050519061168692836200051b843960805183818161031a015281816105ac01528181610ef9015281816113cf015261145c015260a05183818161056201528181610c8301528181610ebd01526114a0015260c0518381816102140152818161061001528181610b3601526111e1015260e0518381816101a0015281816102bb0152818161067201528181610cec01528181610e1c01526110cb015251828181610290015281816106a401528181610a9601528181610cc101528181610df501526110a0015251818181610345015281816106d20152818161117401526113780152f35b816200030c92903d1062000315575b620003038183620004b3565b81019062000500565b505f8062000204565b503d620002f7565b8451903d90823e3d90fd5b6200034290873d89116200031557620003038183620004b3565b505f620001df565b88513d87823e3d90fd5b6200036e90853d87116200031557620003038183620004b3565b505f620001ad565b8a513d89823e3d90fd5b6200039a90893d8b116200031557620003038183620004b3565b505f62000178565b9097508581813d8311620003dd575b620003bd8183620004b3565b81010312620003d957620003d190620004eb565b965f6200013d565b8380fd5b503d620003b1565b87513d86823e3d90fd5b855162461bcd60e51b8152600481018690526008602482015267189859081c1bdbdb60c21b6044820152606490fd5b855162461bcd60e51b815260048101869052600c60248201526b62616420616461707465727360a01b6044820152606490fd5b508181161515620000f7565b62461bcd60e51b81526004810187905260096024820152683d32b9379030b2323960b91b6044820152606490fd5b508382161515620000db565b8551631e4fbdf760e01b815260048101849052602490fd5b5f80fd5b601f909101601f19168101906001600160401b03821190821017620004d757604052565b634e487b7160e01b5f52604160045260245ffd5b51906001600160a01b0382168203620004af57565b90816020910312620004af57518015158103620004af579056fe6080806040526004361015610012575f80fd5b5f803560e01c91826301e1d114146113a7575081631fc170b614611363578163218fa0ac146113465781632e1a7d4d14610e9c57816338d52e0f14610c5f5781633bcfc4b814610dc7578163411557d1146100ef5781634641257d14610c645781634800d97f14610c5f57816355af853514610b65578163611e6f1a14610b21578163715018a614610ac55781637535d24614610a815781638da5cb5b14610a59578163b6b55f251461053c578163ba62fbe4146101cf578163d8d908c41461018b578163f2fde38b146100f4575063fbfa77cf146100ef575f80fd5b61148b565b34610188576020366003190112610188576004356001600160a01b0381811691829003610184576101236114cf565b811561016b57600154826bffffffffffffffffffffffff60a01b821617600155167f8be0079c531659141344cd1fd0a4f28419497f9722a3daafe3b4186f6b6457e05f80a380f35b604051631e4fbdf760e01b815260048101849052602490fd5b8280fd5b80fd5b346101885780600319360112610188576040517f00000000000000000000000000000000000000000000000000000000000000006001600160a01b03168152602090f35b34610188578060031936011261018857604051906101ec8261152b565b60028252805b604081106104fb57506040516102078161150f565b6003815260018060a01b037f00000000000000000000000000000000000000000000000000000000000000001660208201528160408201528160608201528160808201528160a082015260405161025d81611547565b82815260c082015261026e8361161f565b526102788261161f565b5060405163a8ea687560e01b81526001600160a01b037f0000000000000000000000000000000000000000000000000000000000000000811660048301819052917f000000000000000000000000000000000000000000000000000000000000000090911690602081602481855afa9081156104f05784916104c1575b5060409492939451916103078361150f565b6005835260208301526001600160a01b037f0000000000000000000000000000000000000000000000000000000000000000811660408085018290527f0000000000000000000000000000000000000000000000000000000000000000831660608601526080850196909652911660a0830152925161038581611547565b84815260c082015261039682611640565b526103a081611640565b506040519160608301908352600160208401526060604084015281518091526080830193602060808360051b860101930194815b8383106103e15785850386f35b90919293607f198682030183528651805160078110156104ad5782526020808201516001600160a01b039081169184019190915260408083015182169084015260608083015182169084015260808083015182169084015260a0808301519091169083015260c09081015160e09183018290528051918301829052909190835b838110610496575050808201610100908101849052602098890198601f909301601f19169091010194936001019201906103d4565b806020809284010151610100828601015201610461565b634e487b7160e01b84526021600452602484fd5b6104e3915060203d6020116104e9575b6104db8183611563565b8101906115df565b856102f5565b503d6104d1565b6040513d86823e3d90fd5b60209060405161050a8161150f565b838152828481830152846040830152606085818401528560808401528560a084015260c08301528286010152016101f2565b346101885760209081600319360112610188576001600160a01b039160043590610589337f0000000000000000000000000000000000000000000000000000000000000000861614611585565b6105916115fe565b8115610a26576040516370a0823160e01b81523060048201527f000000000000000000000000000000000000000000000000000000000000000085169160249181818481875afa90811561095f5790859187916109f5575b50106109be578360011c9160405192636cdea07b60e01b8452806004850152828483818a8c7f0000000000000000000000000000000000000000000000000000000000000000165af19384156108e557879461098f575b50850394851161097d5761065483866115be565b96605f880297808904605f149015171561096a5760648798829897987f000000000000000000000000000000000000000000000000000000000000000016956040519963d875c70f60e01b8b52847f000000000000000000000000000000000000000000000000000000000000000016988960048d0152868c0152847f00000000000000000000000000000000000000000000000000000000000000001660448c0152838b015260848a01520460a4880152828760c48189885af196871561095f57869761092c575b5060405163a8ea687560e01b8152600481018690529483868481885afa9586156108e557879661090d575b506040519063038941b960e51b8252600482015283818481885afa9081156108e55787916108f0575b5016604051636eb1769f60e11b815230600482015284838201528381604481855afa9081156108e55787916108a8575b5090869392911561082f575b50505050803b15610184576040516361c1200160e11b81526001600160a01b039290921660048301526024820184905282908290604490829084905af180156108245761080c575b50610802826002546115be565b6002556001815580f35b610815906114fb565b6108205781836107f5565b5080fd5b6040513d84823e3d90fd5b60448392604051958693849263095ea7b360e01b84528960048501525f19908401525af1801561089d57610866575b8085926107ad565b81813d8311610896575b61087a8183611563565b8101031261089257518015150361018457858061085e565b8380fd5b503d610870565b6040513d87823e3d90fd5b848094939850819592503d83116108de575b6108c48183611563565b810103126108da578795869351909192936107a1565b5f80fd5b503d6108ba565b6040513d89823e3d90fd5b6109079150843d86116104e9576104db8183611563565b89610771565b610925919650843d86116104e9576104db8183611563565b9489610748565b83809298508197503d8311610958575b6109468183611563565b810103126108da57869451958861071d565b503d61093c565b6040513d88823e3d90fd5b50634e487b7160e01b8652601160045285fd5b634e487b7160e01b8652601160045285fd5b9093508281813d83116109b7575b6109a78183611563565b810103126108da57519288610640565b503d61099d565b60126064926040519262461bcd60e51b8452600484015282015271696e73756666696369656e742066756e647360701b6044820152fd5b809250838092503d8311610a1f575b610a0e8183611563565b810103126108da57849051886105e9565b503d610a04565b6064906040519062461bcd60e51b82526004820152600c60248201526b1e995c9bc819195c1bdcda5d60a21b6044820152fd5b346101885780600319360112610188576001546040516001600160a01b039091168152602090f35b346101885780600319360112610188576040517f00000000000000000000000000000000000000000000000000000000000000006001600160a01b03168152602090f35b34610188578060031936011261018857610add6114cf565b600180546001600160a01b031981169091555f906001600160a01b03167f8be0079c531659141344cd1fd0a4f28419497f9722a3daafe3b4186f6b6457e08280a380f35b346101885780600319360112610188576040517f00000000000000000000000000000000000000000000000000000000000000006001600160a01b03168152602090f35b3461018857602036600319011261018857610b7e6114cf565b808060405160208101906307983f4560e21b8252600435602482015260248152610ba78161152b565b51908273dc2b0d2dd2b7759d97d50db4eabdc369731108305af13d15610c5a573d67ffffffffffffffff8111610c465760405190610bef601f8201601f191660200183611563565b81528260203d92013e5b15610c015780f35b60405162461bcd60e51b815260206004820152601860248201527f4665654d20726567697374726174696f6e206661696c656400000000000000006044820152606490fd5b634e487b7160e01b5f52604160045260245ffd5b610bf9565b611447565b346101885780600319360112610188576001600160a01b0390610caa337f0000000000000000000000000000000000000000000000000000000000000000841614611585565b610cb26115fe565b60405163a8ea687560e01b81527f0000000000000000000000000000000000000000000000000000000000000000831660048201526020927f0000000000000000000000000000000000000000000000000000000000000000811692918481602481875afa908115610dbc578592916024918591610d9f575b5084604051968794859363515ce51760e01b85521660048401525af1918215610d92578192610d62575b5060019055604051908152f35b9091508281813d8311610d8b575b610d7a8183611563565b810103126108da5751906001610d55565b503d610d70565b50604051903d90823e3d90fd5b610db69150843d86116104e9576104db8183611563565b87610d2b565b6040513d85823e3d90fd5b346101885780600319360112610188576040519063a7533e0960e01b825260208260248160018060a01b03807f00000000000000000000000000000000000000000000000000000000000000001660048301527f0000000000000000000000000000000000000000000000000000000000000000165afa908115610e905790610e5e575b602090655af3107a400060405191048152f35b506020813d8211610e88575b81610e7760209383611563565b810103126108da5760209051610e4b565b3d9150610e6a565b604051903d90823e3d90fd5b3461018857602080600319360112610820576001600160a01b0390600435907f0000000000000000000000000000000000000000000000000000000000000000610ee93385831614611585565b610ef16115fe565b8215611311577f00000000000000000000000000000000000000000000000000000000000000009084821693604051956370a0823160e01b9081885230600489015260249786818a818b5afa80156113065784918b916112d1575b5010611081575b5060405190815230600482015284818881895afa80156110765782918991611045575b5010611001576040805163a9059cbb60e01b8682019081526001600160a01b039094168882019081526020810193909352889493928592610fc29183910103601f198101835282611563565b51925af1156108245782513d610ff85750803b155b610fe357826001815580f35b60405190635274afe760e01b82526004820152fd5b60011415610fd7565b60405162461bcd60e51b8152600481018590526017818801527f696e73756666696369656e7420616674657220657869740000000000000000006044820152606490fd5b809250868092503d831161106f575b61105e8183611563565b810103126108da5781905189610f76565b503d611054565b6040513d8a823e3d90fd5b6002549081611091575b50610f53565b60405163a8ea687560e01b81527f0000000000000000000000000000000000000000000000000000000000000000821660048201819052907f000000000000000000000000000000000000000000000000000000000000000083169089818d81855afa9081156112a9578d916112b4575b508c823b15610188576040516288951f60e11b81526001600160a01b03929092166004830152602482018690528160448183865af180156112a957611288575b508a60c48d959493866040948e82600255865198899687956384ef21bd60e01b875260048701528501526044840152867f00000000000000000000000000000000000000000000000000000000000000001660648401528160848401528160a48401525af1918215610dbc5788928b91859161124f575b50806111c8575b50505061108b565b60405194859384926359e19dc560e11b845260048401527f0000000000000000000000000000000000000000000000000000000000000000165af190811561124457869161121b575b9081898b936111c0565b813d831161123d575b61122e8183611563565b810103126108da578489611211565b503d611224565b6040513d8b823e3d90fd5b935050506040823d604011611280575b8161126c60409383611563565b81010312610184578988809301518d6111b9565b3d915061125f565b60c46040929594938c9e61129c8f946114fb565b9e50939495925050611142565b6040513d8f823e3d90fd5b6112cb91508a3d8c116104e9576104db8183611563565b8d611102565b809250888092503d83116112ff575b6112ea8183611563565b810103126112fb578390518b610f4c565b8980fd5b503d6112e0565b6040513d8c823e3d90fd5b60405162461bcd60e51b815260048101839052600d60248201526c7a65726f20776974686472617760981b6044820152606490fd5b346101885780600319360112610188576020600254604051908152f35b346101885780600319360112610188576040517f00000000000000000000000000000000000000000000000000000000000000006001600160a01b03168152602090f35b346108205781600319360112610820576370a0823160e01b81523060048201526020816024817f00000000000000000000000000000000000000000000000000000000000000006001600160a01b03165afa908115610824578291611412575b602082604051908152f35b90506020813d821161143f575b8161142c60209383611563565b8101031261082057602091505182611407565b3d915061141f565b346108da575f3660031901126108da576040517f00000000000000000000000000000000000000000000000000000000000000006001600160a01b03168152602090f35b346108da575f3660031901126108da576040517f00000000000000000000000000000000000000000000000000000000000000006001600160a01b03168152602090f35b6001546001600160a01b031633036114e357565b60405163118cdaa760e01b8152336004820152602490fd5b67ffffffffffffffff8111610c4657604052565b60e0810190811067ffffffffffffffff821117610c4657604052565b6060810190811067ffffffffffffffff821117610c4657604052565b6020810190811067ffffffffffffffff821117610c4657604052565b90601f8019910116810190811067ffffffffffffffff821117610c4657604052565b1561158c57565b60405162461bcd60e51b815260206004820152600a60248201526913db9b1e481d985d5b1d60b21b6044820152606490fd5b919082018092116115cb57565b634e487b7160e01b5f52601160045260245ffd5b908160209103126108da57516001600160a01b03811681036108da5790565b60025f541461160d5760025f55565b604051633ee5aeb560e01b8152600490fd5b80511561162c5760200190565b634e487b7160e01b5f52603260045260245ffd5b80516001101561162c576040019056fea264697066735822122016fa4fe7e52f5a73aafd9bbfac7c289e2dca697b4bb2873e0d60aa830f673d9064736f6c63430008140033","linkReferences":{}},"methodIdentifiers":{"ASSET()":"4800d97f","BEETS()":"d8d908c4","POOL()":"7535d246","STS()":"611e6f1a","STS_TOKEN()":"1fc170b6","VAULT()":"411557d1","apy()":"3bcfc4b8","asset()":"38d52e0f","components()":"ba62fbe4","deposit(uint256)":"b6b55f25","harvest()":"4641257d","owner()":"8da5cb5b","registerMe(uint256)":"55af8535","renounceOwnership()":"715018a6","stakedLp()":"218fa0ac","totalAssets()":"01e1d114","transferOwnership(address)":"f2fde38b","vault()":"fbfa77cf","withdraw(uint256)":"2e1a7d4d"},"id":70}