{"abi":[{"type":"constructor","inputs":[{"name":"_sToken","type":"address","internalType":"address"},{"name":"_vault","type":"address","internalType":"address"},{"name":"_stsAdapter","type":"address","internalType":"address"},{"name":"_beetsAdapter","type":"address","internalType":"address"},{"name":"_pool","type":"address","internalType":"address"}],"stateMutability":"nonpayable"},{"type":"function","name":"ASSET","inputs":[],"outputs":[{"name":"","type":"address","internalType":"contract IERC20"}],"stateMutability":"view"},{"type":"function","name":"BEETS","inputs":[],"outputs":[{"name":"","type":"address","internalType":"contract IBeetsAdapter"}],"stateMutability":"view"},{"type":"function","name":"POOL","inputs":[],"outputs":[{"name":"","type":"address","internalType":"address"}],"stateMutability":"view"},{"type":"function","name":"STS","inputs":[],"outputs":[{"name":"","type":"address","internalType":"contract IStSAdapter"}],"stateMutability":"view"},{"type":"function","name":"STS_TOKEN","inputs":[],"outputs":[{"name":"","type":"address","internalType":"address"}],"stateMutability":"view"},{"type":"function","name":"VAULT","inputs":[],"outputs":[{"name":"","type":"address","internalType":"address"}],"stateMutability":"view"},{"type":"function","name":"apy","inputs":[],"outputs":[{"name":"","type":"uint256","internalType":"uint256"}],"stateMutability":"view"},{"type":"function","name":"asset","inputs":[],"outputs":[{"name":"","type":"address","internalType":"contract IERC20"}],"stateMutability":"view"},{"type":"function","name":"components","inputs":[],"outputs":[{"name":"asset","type":"address","internalType":"address"},{"name":"schemaVersion","type":"uint8","internalType":"uint8"},{"name":"comps","type":"tuple[]","internalType":"struct IStrategyIntrospection.Component[]","components":[{"name":"kind","type":"uint8","internalType":"enum IStrategyIntrospection.ComponentKind"},{"name":"adapter","type":"address","internalType":"address"},{"name":"token0","type":"address","internalType":"address"},{"name":"token1","type":"address","internalType":"address"},{"name":"pool","type":"address","internalType":"address"},{"name":"gauge","type":"address","internalType":"address"},{"name":"extra","type":"bytes","internalType":"bytes"}]}],"stateMutability":"view"},{"type":"function","name":"deposit","inputs":[{"name":"amount","type":"uint256","internalType":"uint256"}],"outputs":[],"stateMutability":"nonpayable"},{"type":"function","name":"harvest","inputs":[],"outputs":[{"name":"harvested","type":"uint256","internalType":"uint256"}],"stateMutability":"nonpayable"},{"type":"function","name":"owner","inputs":[],"outputs":[{"name":"","type":"address","internalType":"address"}],"stateMutability":"view"},{"type":"function","name":"renounceOwnership","inputs":[],"outputs":[],"stateMutability":"nonpayable"},{"type":"function","name":"stakedLp","inputs":[],"outputs":[{"name":"","type":"uint256","internalType":"uint256"}],"stateMutability":"view"},{"type":"function","name":"totalAssets","inputs":[],"outputs":[{"name":"","type":"uint256","internalType":"uint256"}],"stateMutability":"view"},{"type":"function","name":"transferOwnership","inputs":[{"name":"newOwner","type":"address","internalType":"address"}],"outputs":[],"stateMutability":"nonpayable"},{"type":"function","name":"vault","inputs":[],"outputs":[{"name":"","type":"address","internalType":"address"}],"stateMutability":"view"},{"type":"function","name":"withdraw","inputs":[{"name":"amount","type":"uint256","internalType":"uint256"}],"outputs":[],"stateMutability":"nonpayable"},{"type":"event","name":"OwnershipTransferred","inputs":[{"name":"previousOwner","type":"address","indexed":true,"internalType":"address"},{"name":"newOwner","type":"address","indexed":true,"internalType":"address"}],"anonymous":false},{"type":"event","name":"StrategyComponent","inputs":[{"name":"strategy","type":"address","indexed":true,"internalType":"address"},{"name":"kind","type":"uint8","indexed":false,"internalType":"enum IStrategyIntrospection.ComponentKind"},{"name":"adapter","type":"address","indexed":false,"internalType":"address"},{"name":"token0","type":"address","indexed":false,"internalType":"address"},{"name":"token1","type":"address","indexed":false,"internalType":"address"},{"name":"pool","type":"address","indexed":false,"internalType":"address"},{"name":"gauge","type":"address","indexed":false,"internalType":"address"},{"name":"extra","type":"bytes","indexed":false,"internalType":"bytes"}],"anonymous":false},{"type":"event","name":"StrategyConfigured","inputs":[{"name":"strategy","type":"address","indexed":true,"internalType":"address"},{"name":"asset","type":"address","indexed":false,"internalType":"address"},{"name":"schemaVersion","type":"uint8","indexed":false,"internalType":"uint8"}],"anonymous":false},{"type":"error","name":"OwnableInvalidOwner","inputs":[{"name":"owner","type":"address","internalType":"address"}]},{"type":"error","name":"OwnableUnauthorizedAccount","inputs":[{"name":"account","type":"address","internalType":"address"}]},{"type":"error","name":"ReentrancyGuardReentrantCall","inputs":[]},{"type":"error","name":"SafeERC20FailedOperation","inputs":[{"name":"token","type":"address","internalType":"address"}]}],"bytecode":{"object":"0x61014060409080825234620004af5760a08162001aa68038038091620000268285620004b3565b833981010312620004af576200003c81620004eb565b9160206200004c818401620004eb565b926200005a838201620004eb565b6200007660806200006e60608501620004eb565b9301620004eb565b955f91600183553315620004975760018054336001600160a01b0319821681179092558751986001600160a01b03949092859283167f8be0079c531659141344cd1fd0a4f28419497f9722a3daafe3b4186f6b6457e08880a31697881515806200048b575b156200045d5750608088905260a0528116928315158062000451575b156200041e5781881615620003ef5781908460c05216908160e05261010097885285519663065a291b60e31b88528588600481885afa978815620003e5578498620003a2575b5061012097885286519463095ea7b360e01b928387528160048801525f199687602482015288816044818a885af18015620003765762000380575b508588828c511660448c51809481938a83528b60048401528d60248401525af180156200037657899288949260449262000354575b508c5116918b51948593849289845260048401528b60248401525af180156200034a5760449288959492879262000328575b50895197889586948552600485015260248401525af19081156200031d5750620002e8575b5050519061158b92836200051b8439608051838181610320015281816105c701528181610e1a015281816112f0015261137d015260a05183818161057d01528181610ba401528181610dde01526113c1015260c05183818161021a0152818161062b01528181610b510152611102015260e051838181610195015281816102c10152818161068d01528181610c0d01528181610d3d0152610fec015251828181610296015281816106bf01528181610ab101528181610be201528181610d160152610fc101525181818161034b015281816106ed0152818161109501526112990152f35b816200030c92903d1062000315575b620003038183620004b3565b81019062000500565b505f8062000204565b503d620002f7565b8451903d90823e3d90fd5b6200034290873d89116200031557620003038183620004b3565b505f620001df565b88513d87823e3d90fd5b6200036e90853d87116200031557620003038183620004b3565b505f620001ad565b8a513d89823e3d90fd5b6200039a90893d8b116200031557620003038183620004b3565b505f62000178565b9097508581813d8311620003dd575b620003bd8183620004b3565b81010312620003d957620003d190620004eb565b965f6200013d565b8380fd5b503d620003b1565b87513d86823e3d90fd5b855162461bcd60e51b8152600481018690526008602482015267189859081c1bdbdb60c21b6044820152606490fd5b855162461bcd60e51b815260048101869052600c60248201526b62616420616461707465727360a01b6044820152606490fd5b508181161515620000f7565b62461bcd60e51b81526004810187905260096024820152683d32b9379030b2323960b91b6044820152606490fd5b508382161515620000db565b8551631e4fbdf760e01b815260048101849052602490fd5b5f80fd5b601f909101601f19168101906001600160401b03821190821017620004d757604052565b634e487b7160e01b5f52604160045260245ffd5b51906001600160a01b0382168203620004af57565b90816020910312620004af57518015158103620004af579056fe6080806040526004361015610012575f80fd5b5f803560e01c91826301e1d114146112c8575081631fc170b614611284578163218fa0ac146112675781632e1a7d4d14610dbd57816338d52e0f14610b805781633bcfc4b814610ce8578163411557d1146100e45781634641257d14610b855781634800d97f14610b80578163611e6f1a14610b3c578163715018a614610ae05781637535d24614610a9c5781638da5cb5b14610a74578163b6b55f2514610557578163ba62fbe4146101c4578163d8d908c414610180578163f2fde38b146100e9575063fbfa77cf146100e4575f80fd5b6113ac565b3461017d57602036600319011261017d576004356001600160a01b0381811691829003610179576101186113f0565b811561016057600154826bffffffffffffffffffffffff60a01b821617600155167f8be0079c531659141344cd1fd0a4f28419497f9722a3daafe3b4186f6b6457e05f80a380f35b604051631e4fbdf760e01b815260048101849052602490fd5b8280fd5b80fd5b3461017d578060031936011261017d576040517f00000000000000000000000000000000000000000000000000000000000000006001600160a01b03168152602090f35b3461017d578060031936011261017d57604051906060820182811067ffffffffffffffff8211176105435760405260028252805b60408110610501575060405161020d81611469565b6003815260018060a01b037f00000000000000000000000000000000000000000000000000000000000000001660208201528160408201528160608201528160808201528160a082015260405161026381611485565b5f815260c082015261027483611524565b5261027e82611524565b5060405163a8ea687560e01b81526001600160a01b037f0000000000000000000000000000000000000000000000000000000000000000811660048301819052917f000000000000000000000000000000000000000000000000000000000000000090911690602081602481855afa9081156104f65784916104c7575b50604094929394519161030d83611469565b6005835260208301526001600160a01b037f0000000000000000000000000000000000000000000000000000000000000000811660408085018290527f0000000000000000000000000000000000000000000000000000000000000000831660608601526080850196909652911660a0830152925161038b81611485565b5f815260c082015261039c82611545565b526103a681611545565b506040519160608301908352600160208401526060604084015281518091526080830193602060808360051b860101930194815b8383106103e75785850386f35b90919293607f198682030183528651805160078110156104b35782526020808201516001600160a01b039081169184019190915260408083015182169084015260608083015182169084015260808083015182169084015260a0808301519091169083015260c09081015160e09183018290528051918301829052909190835b83811061049c575050808201610100908101849052602098890198601f909301601f19169091010194936001019201906103da565b806020809284010151610100828601015201610467565b634e487b7160e01b84526021600452602484fd5b6104e9915060203d6020116104ef575b6104e181836114a1565b8101906114e4565b856102fb565b503d6104d7565b6040513d86823e3d90fd5b60209060405161051081611469565b8381528284818301528460408301528460608301528460808301528460a0830152606060c08301528286010152016101f8565b634e487b7160e01b5f52604160045260245ffd5b3461017d576020908160031936011261017d576001600160a01b0391600435906105a4337f000000000000000000000000000000000000000000000000000000000000000086161461141c565b6105ac611503565b8115610a41576040516370a0823160e01b81523060048201527f000000000000000000000000000000000000000000000000000000000000000085169160249181818481875afa90811561097a579085918791610a10575b50106109d9578360011c9160405192636cdea07b60e01b8452806004850152828483818a8c7f0000000000000000000000000000000000000000000000000000000000000000165af19384156109005787946109aa575b5085039485116109985761066f83866114c3565b96605f880297808904605f14901517156109855760648798829897987f000000000000000000000000000000000000000000000000000000000000000016956040519963d875c70f60e01b8b52847f000000000000000000000000000000000000000000000000000000000000000016988960048d0152868c0152847f00000000000000000000000000000000000000000000000000000000000000001660448c0152838b015260848a01520460a4880152828760c48189885af196871561097a578697610947575b5060405163a8ea687560e01b8152600481018690529483868481885afa958615610900578796610928575b506040519063038941b960e51b8252600482015283818481885afa90811561090057879161090b575b5016604051636eb1769f60e11b815230600482015284838201528381604481855afa9081156109005787916108c3575b5090869392911561084a575b50505050803b15610179576040516361c1200160e11b81526001600160a01b039290921660048301526024820184905282908290604490829084905af1801561083f57610827575b5061081d826002546114c3565b6002556001815580f35b61083090611455565b61083b578183610810565b5080fd5b6040513d84823e3d90fd5b60448392604051958693849263095ea7b360e01b84528960048501525f19908401525af180156108b857610881575b8085926107c8565b81813d83116108b1575b61089581836114a1565b810103126108ad575180151503610179578580610879565b8380fd5b503d61088b565b6040513d87823e3d90fd5b848094939850819592503d83116108f9575b6108df81836114a1565b810103126108f5578795869351909192936107bc565b5f80fd5b503d6108d5565b6040513d89823e3d90fd5b6109229150843d86116104ef576104e181836114a1565b8961078c565b610940919650843d86116104ef576104e181836114a1565b9489610763565b83809298508197503d8311610973575b61096181836114a1565b810103126108f5578694519588610738565b503d610957565b6040513d88823e3d90fd5b50634e487b7160e01b8652601160045285fd5b634e487b7160e01b8652601160045285fd5b9093508281813d83116109d2575b6109c281836114a1565b810103126108f55751928861065b565b503d6109b8565b60126064926040519262461bcd60e51b8452600484015282015271696e73756666696369656e742066756e647360701b6044820152fd5b809250838092503d8311610a3a575b610a2981836114a1565b810103126108f55784905188610604565b503d610a1f565b6064906040519062461bcd60e51b82526004820152600c60248201526b1e995c9bc819195c1bdcda5d60a21b6044820152fd5b3461017d578060031936011261017d576001546040516001600160a01b039091168152602090f35b3461017d578060031936011261017d576040517f00000000000000000000000000000000000000000000000000000000000000006001600160a01b03168152602090f35b3461017d578060031936011261017d57610af86113f0565b600180546001600160a01b031981169091555f906001600160a01b03167f8be0079c531659141344cd1fd0a4f28419497f9722a3daafe3b4186f6b6457e08280a380f35b3461017d578060031936011261017d576040517f00000000000000000000000000000000000000000000000000000000000000006001600160a01b03168152602090f35b611368565b3461017d578060031936011261017d576001600160a01b0390610bcb337f000000000000000000000000000000000000000000000000000000000000000084161461141c565b610bd3611503565b60405163a8ea687560e01b81527f0000000000000000000000000000000000000000000000000000000000000000831660048201526020927f0000000000000000000000000000000000000000000000000000000000000000811692918481602481875afa908115610cdd578592916024918591610cc0575b5084604051968794859363515ce51760e01b85521660048401525af1918215610cb3578192610c83575b5060019055604051908152f35b9091508281813d8311610cac575b610c9b81836114a1565b810103126108f55751906001610c76565b503d610c91565b50604051903d90823e3d90fd5b610cd79150843d86116104ef576104e181836114a1565b87610c4c565b6040513d85823e3d90fd5b3461017d578060031936011261017d576040519063a7533e0960e01b825260208260248160018060a01b03807f00000000000000000000000000000000000000000000000000000000000000001660048301527f0000000000000000000000000000000000000000000000000000000000000000165afa908115610db15790610d7f575b602090655af3107a400060405191048152f35b506020813d8211610da9575b81610d98602093836114a1565b810103126108f55760209051610d6c565b3d9150610d8b565b604051903d90823e3d90fd5b3461017d5760208060031936011261083b576001600160a01b0390600435907f0000000000000000000000000000000000000000000000000000000000000000610e0a338583161461141c565b610e12611503565b8215611232577f00000000000000000000000000000000000000000000000000000000000000009084821693604051956370a0823160e01b9081885230600489015260249786818a818b5afa80156112275784918b916111f2575b5010610fa2575b5060405190815230600482015284818881895afa8015610f975782918991610f66575b5010610f22576040805163a9059cbb60e01b8682019081526001600160a01b039094168882019081526020810193909352889493928592610ee39183910103601f1981018352826114a1565b51925af11561083f5782513d610f195750803b155b610f0457826001815580f35b60405190635274afe760e01b82526004820152fd5b60011415610ef8565b60405162461bcd60e51b8152600481018590526017818801527f696e73756666696369656e7420616674657220657869740000000000000000006044820152606490fd5b809250868092503d8311610f90575b610f7f81836114a1565b810103126108f55781905189610e97565b503d610f75565b6040513d8a823e3d90fd5b6002549081610fb2575b50610e74565b60405163a8ea687560e01b81527f0000000000000000000000000000000000000000000000000000000000000000821660048201819052907f000000000000000000000000000000000000000000000000000000000000000083169089818d81855afa9081156111ca578d916111d5575b508c823b1561017d576040516288951f60e11b81526001600160a01b03929092166004830152602482018690528160448183865af180156111ca576111a9575b508a60c48d959493866040948e82600255865198899687956384ef21bd60e01b875260048701528501526044840152867f00000000000000000000000000000000000000000000000000000000000000001660648401528160848401528160a48401525af1918215610cdd5788928b918591611170575b50806110e9575b505050610fac565b60405194859384926359e19dc560e11b845260048401527f0000000000000000000000000000000000000000000000000000000000000000165af190811561116557869161113c575b9081898b936110e1565b813d831161115e575b61114f81836114a1565b810103126108f5578489611132565b503d611145565b6040513d8b823e3d90fd5b935050506040823d6040116111a1575b8161118d604093836114a1565b81010312610179578988809301518d6110da565b3d9150611180565b60c46040929594938c9e6111bd8f94611455565b9e50939495925050611063565b6040513d8f823e3d90fd5b6111ec91508a3d8c116104ef576104e181836114a1565b8d611023565b809250888092503d8311611220575b61120b81836114a1565b8101031261121c578390518b610e6d565b8980fd5b503d611201565b6040513d8c823e3d90fd5b60405162461bcd60e51b815260048101839052600d60248201526c7a65726f20776974686472617760981b6044820152606490fd5b3461017d578060031936011261017d576020600254604051908152f35b3461017d578060031936011261017d576040517f00000000000000000000000000000000000000000000000000000000000000006001600160a01b03168152602090f35b3461083b578160031936011261083b576370a0823160e01b81523060048201526020816024817f00000000000000000000000000000000000000000000000000000000000000006001600160a01b03165afa90811561083f578291611333575b602082604051908152f35b90506020813d8211611360575b8161134d602093836114a1565b8101031261083b57602091505182611328565b3d9150611340565b346108f5575f3660031901126108f5576040517f00000000000000000000000000000000000000000000000000000000000000006001600160a01b03168152602090f35b346108f5575f3660031901126108f5576040517f00000000000000000000000000000000000000000000000000000000000000006001600160a01b03168152602090f35b6001546001600160a01b0316330361140457565b60405163118cdaa760e01b8152336004820152602490fd5b1561142357565b60405162461bcd60e51b815260206004820152600a60248201526913db9b1e481d985d5b1d60b21b6044820152606490fd5b67ffffffffffffffff811161054357604052565b60e0810190811067ffffffffffffffff82111761054357604052565b6020810190811067ffffffffffffffff82111761054357604052565b90601f8019910116810190811067ffffffffffffffff82111761054357604052565b919082018092116114d057565b634e487b7160e01b5f52601160045260245ffd5b908160209103126108f557516001600160a01b03811681036108f55790565b60025f54146115125760025f55565b604051633ee5aeb560e01b8152600490fd5b8051156115315760200190565b634e487b7160e01b5f52603260045260245ffd5b805160011015611531576040019056fea2646970667358221220493a9e06cb4892f4d4ebe07e9848ffdad8f8166f43a7a778d87319078a68fb1b64736f6c63430008140033","linkReferences":{}},"methodIdentifiers":{"ASSET()":"4800d97f","BEETS()":"d8d908c4","POOL()":"7535d246","STS()":"611e6f1a","STS_TOKEN()":"1fc170b6","VAULT()":"411557d1","apy()":"3bcfc4b8","asset()":"38d52e0f","components()":"ba62fbe4","deposit(uint256)":"b6b55f25","harvest()":"4641257d","owner()":"8da5cb5b","renounceOwnership()":"715018a6","stakedLp()":"218fa0ac","totalAssets()":"01e1d114","transferOwnership(address)":"f2fde38b","vault()":"fbfa77cf","withdraw(uint256)":"2e1a7d4d"},"id":58}