{"abi":[{"type":"constructor","inputs":[{"name":"_sToken","type":"address","internalType":"address"},{"name":"_vault","type":"address","internalType":"address"},{"name":"_swapXAdapter","type":"address","internalType":"address"},{"name":"_stsAdapter","type":"address","internalType":"address"},{"name":"_pool","type":"address","internalType":"address"},{"name":"_gauge","type":"address","internalType":"address"}],"stateMutability":"nonpayable"},{"type":"function","name":"ASSET","inputs":[],"outputs":[{"name":"","type":"address","internalType":"contract IERC20"}],"stateMutability":"view"},{"type":"function","name":"GAUGE","inputs":[],"outputs":[{"name":"","type":"address","internalType":"address"}],"stateMutability":"view"},{"type":"function","name":"POOL","inputs":[],"outputs":[{"name":"","type":"address","internalType":"address"}],"stateMutability":"view"},{"type":"function","name":"STS","inputs":[],"outputs":[{"name":"","type":"address","internalType":"contract IStSAdapter"}],"stateMutability":"view"},{"type":"function","name":"STS_TOKEN","inputs":[],"outputs":[{"name":"","type":"address","internalType":"address"}],"stateMutability":"view"},{"type":"function","name":"SWAPX","inputs":[],"outputs":[{"name":"","type":"address","internalType":"contract ISwapXAdapter"}],"stateMutability":"view"},{"type":"function","name":"VAULT","inputs":[],"outputs":[{"name":"","type":"address","internalType":"address"}],"stateMutability":"view"},{"type":"function","name":"apy","inputs":[],"outputs":[{"name":"","type":"uint256","internalType":"uint256"}],"stateMutability":"view"},{"type":"function","name":"asset","inputs":[],"outputs":[{"name":"","type":"address","internalType":"contract IERC20"}],"stateMutability":"view"},{"type":"function","name":"components","inputs":[],"outputs":[{"name":"asset","type":"address","internalType":"address"},{"name":"schemaVersion","type":"uint8","internalType":"uint8"},{"name":"comps","type":"tuple[]","internalType":"struct IStrategyIntrospection.Component[]","components":[{"name":"kind","type":"uint8","internalType":"enum IStrategyIntrospection.ComponentKind"},{"name":"adapter","type":"address","internalType":"address"},{"name":"token0","type":"address","internalType":"address"},{"name":"token1","type":"address","internalType":"address"},{"name":"pool","type":"address","internalType":"address"},{"name":"gauge","type":"address","internalType":"address"},{"name":"extra","type":"bytes","internalType":"bytes"}]}],"stateMutability":"view"},{"type":"function","name":"deposit","inputs":[{"name":"amount","type":"uint256","internalType":"uint256"}],"outputs":[],"stateMutability":"nonpayable"},{"type":"function","name":"harvest","inputs":[],"outputs":[{"name":"harvested","type":"uint256","internalType":"uint256"}],"stateMutability":"nonpayable"},{"type":"function","name":"owner","inputs":[],"outputs":[{"name":"","type":"address","internalType":"address"}],"stateMutability":"view"},{"type":"function","name":"renounceOwnership","inputs":[],"outputs":[],"stateMutability":"nonpayable"},{"type":"function","name":"stakedLp","inputs":[],"outputs":[{"name":"","type":"uint256","internalType":"uint256"}],"stateMutability":"view"},{"type":"function","name":"totalAssets","inputs":[],"outputs":[{"name":"","type":"uint256","internalType":"uint256"}],"stateMutability":"view"},{"type":"function","name":"transferOwnership","inputs":[{"name":"newOwner","type":"address","internalType":"address"}],"outputs":[],"stateMutability":"nonpayable"},{"type":"function","name":"vault","inputs":[],"outputs":[{"name":"","type":"address","internalType":"address"}],"stateMutability":"view"},{"type":"function","name":"withdraw","inputs":[{"name":"amount","type":"uint256","internalType":"uint256"}],"outputs":[],"stateMutability":"nonpayable"},{"type":"event","name":"OwnershipTransferred","inputs":[{"name":"previousOwner","type":"address","indexed":true,"internalType":"address"},{"name":"newOwner","type":"address","indexed":true,"internalType":"address"}],"anonymous":false},{"type":"event","name":"StrategyComponent","inputs":[{"name":"strategy","type":"address","indexed":true,"internalType":"address"},{"name":"kind","type":"uint8","indexed":false,"internalType":"enum IStrategyIntrospection.ComponentKind"},{"name":"adapter","type":"address","indexed":false,"internalType":"address"},{"name":"token0","type":"address","indexed":false,"internalType":"address"},{"name":"token1","type":"address","indexed":false,"internalType":"address"},{"name":"pool","type":"address","indexed":false,"internalType":"address"},{"name":"gauge","type":"address","indexed":false,"internalType":"address"},{"name":"extra","type":"bytes","indexed":false,"internalType":"bytes"}],"anonymous":false},{"type":"event","name":"StrategyConfigured","inputs":[{"name":"strategy","type":"address","indexed":true,"internalType":"address"},{"name":"asset","type":"address","indexed":false,"internalType":"address"},{"name":"schemaVersion","type":"uint8","indexed":false,"internalType":"uint8"}],"anonymous":false},{"type":"error","name":"OwnableInvalidOwner","inputs":[{"name":"owner","type":"address","internalType":"address"}]},{"type":"error","name":"OwnableUnauthorizedAccount","inputs":[{"name":"account","type":"address","internalType":"address"}]},{"type":"error","name":"ReentrancyGuardReentrantCall","inputs":[]},{"type":"error","name":"SafeERC20FailedOperation","inputs":[{"name":"token","type":"address","internalType":"address"}]}],"bytecode":{"object":"0x610160604081815234620005015760c08262001a60803803809162000025828562000505565b83398101031262000501576200003b826200053d565b6020916200004b8385016200053d565b92620000598286016200053d565b9362000068606087016200053d565b946200008560a06200007d60808a016200053d565b98016200053d565b955f91600183553315620004e95760018054336001600160a01b03198216811790925587516001600160a01b03999096928a9283167f8be0079c531659141344cd1fd0a4f28419497f9722a3daafe3b4186f6b6457e08880a3169485151580620004dd575b15620004af5750608085905260a05286169081151580620004a3575b15620004705786891615158062000464575b15620004355760c0829052861660e0819052610100988952610120978852855163065a291b60e31b8152968588600481855afa9788156200042b578498620003e8575b5061014097885286519463095ea7b360e01b928387528060048801525f199687602482015288816044818a875af18015620003de579189918893620003bc575b506044858d5116918c5194859384928a845260048401528c60248401525af18015620003b257918891879362000390575b5060448a51809481938883528960048401528b60248401525af18015620003865760449288959492879262000364575b508a5116895197889586948552600485015260248401525af190811562000359575062000324575b505051916114f393846200056d85396080518481816101a10152818161053e01528181610dbf015281816112770152611304015260a0518481816104f401528181610ba101528181610d830152611348015260c05184818161028b0152818161060701528181610b4c01528181610c0d01528181610ce20152610f59015260e05184818161020c015281816105a401528181610b0801526110970152518381816102e30152818161063901528181610a6801528181610cbb0152610ffa01525182818161030b0152818161073301528181610a2401528181610be60152610f8e0152518181816102bb015281816106670152818161102a01526112200152f35b816200034892903d1062000351575b6200033f818362000505565b81019062000552565b505f8062000224565b503d62000333565b8451903d90823e3d90fd5b6200037e90873d891162000351576200033f818362000505565b505f620001fc565b88513d87823e3d90fd5b620003aa90833d851162000351576200033f818362000505565b505f620001cc565b89513d88823e3d90fd5b620003d690833d851162000351576200033f818362000505565b505f6200019b565b8a513d89823e3d90fd5b9097508581813d831162000423575b62000403818362000505565b810103126200041f5762000417906200053d565b965f6200015b565b8380fd5b503d620003f7565b87513d86823e3d90fd5b855162461bcd60e51b8152600481018690526008602482015267189859081c1bdbdb60c21b6044820152606490fd5b50868816151562000118565b855162461bcd60e51b815260048101869052600c60248201526b62616420616461707465727360a01b6044820152606490fd5b50868116151562000106565b62461bcd60e51b81526004810187905260096024820152683d32b9379030b2323960b91b6044820152606490fd5b508882161515620000ea565b8551631e4fbdf760e01b815260048101849052602490fd5b5f80fd5b601f909101601f19168101906001600160401b038211908210176200052957604052565b634e487b7160e01b5f52604160045260245ffd5b51906001600160a01b03821682036200050157565b90816020910312620005015751801515810362000501579056fe6080806040526004361015610012575f80fd5b5f803560e01c91826301e1d1141461124f575081631fc170b61461120b578163218fa0ac146111ee5781632e1a7d4d14610d6257816338d52e0f14610b7b5781633bcfc4b814610c8d578163411557d1146100ef5781634641257d14610b805781634800d97f14610b7b57816355bafc8114610b37578163611e6f1a14610af3578163715018a614610a975781637535d24614610a535781637651b1e614610a0f5781638da5cb5b146109e7578163b6b55f25146104ce578163ba62fbe41461018b578163f2fde38b146100f4575063fbfa77cf146100ef575f80fd5b611333565b34610188576020366003190112610188576004356001600160a01b038181169182900361018457610123611377565b811561016b57600154826bffffffffffffffffffffffff60a01b821617600155167f8be0079c531659141344cd1fd0a4f28419497f9722a3daafe3b4186f6b6457e05f80a380f35b604051631e4fbdf760e01b815260048101849052602490fd5b8280fd5b80fd5b34610188578060031936011261018857604051907f00000000000000000000000000000000000000000000000000000000000000006001600160a01b03166060830167ffffffffffffffff8111848210176104ba5760405260028352815b604081106104785750826040516101ff816113f0565b6003815260018060a01b037f00000000000000000000000000000000000000000000000000000000000000001660208201528360408201528360608201528360808201528360a08201526040516102558161140c565b5f815260c08201526102668261148c565b526102708161148c565b5060405161027d816113f0565b600581526001600160a01b037f00000000000000000000000000000000000000000000000000000000000000008116602083015260408083018590527f0000000000000000000000000000000000000000000000000000000000000000821660608401527f0000000000000000000000000000000000000000000000000000000000000000821660808401527f000000000000000000000000000000000000000000000000000000000000000090911660a08301525161033c8161140c565b5f815260c082015261034d826114ad565b52610357816114ad565b506040519160608301908352600160208401526060604084015281518091526080830193602060808360051b860101930194815b8383106103985785850386f35b90919293607f198682030183528651805160078110156104645782526020808201516001600160a01b039081169184019190915260408083015182169084015260608083015182169084015260808083015182169084015260a0808301519091169083015260c09081015160e09183018290528051918301829052909190835b83811061044d575050808201610100908101849052602098890198601f909301601f191690910101949360010192019061038b565b806020809284010151610100828601015201610418565b634e487b7160e01b84526021600452602484fd5b602090604051610487816113f0565b8481528285818301528560408301528560608301528560808301528560a0830152606060c08301528287010152016101e9565b634e487b7160e01b5f52604160045260245ffd5b346101885760209081600319360112610188576001600160a01b03916004359061051b337f00000000000000000000000000000000000000000000000000000000000000008616146113a3565b61052361146b565b81156109b4576040516370a0823160e01b81523060048201527f00000000000000000000000000000000000000000000000000000000000000008516946024929091818185818a5afa9081156109a9579085918791610978575b5010610940578360011c9160405192636cdea07b60e01b8452806004850152828486818a867f0000000000000000000000000000000000000000000000000000000000000000165af1938415610935578794610906575b5085039485116108f3576105e8838661144a565b96605f880297808904605f14901517156108e0576064879883989697987f000000000000000000000000000000000000000000000000000000000000000016956040519963d875c70f60e01b8b52857f000000000000000000000000000000000000000000000000000000000000000016948560048d01528a8c0152857f00000000000000000000000000000000000000000000000000000000000000001660448c0152838b015260848a01520460a4880152828760c48188885af19687156108685785976108ad575b506040519063038941b960e51b8252600482015282818781875afa908115610868578591610873575b501693604051636eb1769f60e11b815230600482015283828201528281604481895afa90811561086857859161082f575b50948495949394156107ba575b50505050803b156107ab576040516361c1200160e11b81527f00000000000000000000000000000000000000000000000000000000000000006001600160a01b03166004820152602481018490529082908290604490829084905af180156107af57610797575b5061078d8260025461144a565b6002556001815580f35b6107a0906113dc565b6107ab578183610780565b5080fd5b6040513d84823e3d90fd5b60448392604051958693849263095ea7b360e01b84528960048501525f19908401525af18015610824576107f1575b808492610719565b81813d831161081d575b6108058183611428565b810103126101845751801515036107ab5784806107e9565b503d6107fb565b6040513d86823e3d90fd5b80949550838092503d8311610861575b6108498183611428565b8101031261085d579151869392908461070c565b5f80fd5b503d61083f565b6040513d87823e3d90fd5b90508281813d83116108a6575b61088a8183611428565b810103126108a2575181811681036108a257886106db565b8480fd5b503d610880565b83809298508196503d83116108d9575b6108c78183611428565b8101031261085d5786935195886106b2565b503d6108bd565b634e487b7160e01b875260116004528487fd5b634e487b7160e01b865260116004528386fd5b9093508281813d831161092e575b61091e8183611428565b8101031261085d575192886105d4565b503d610914565b6040513d89823e3d90fd5b6064906012846040519262461bcd60e51b8452600484015282015271696e73756666696369656e742066756e647360701b6044820152fd5b809250838092503d83116109a2575b6109918183611428565b8101031261085d578490518861057d565b503d610987565b6040513d88823e3d90fd5b6064906040519062461bcd60e51b82526004820152600c60248201526b1e995c9bc819195c1bdcda5d60a21b6044820152fd5b346101885780600319360112610188576001546040516001600160a01b039091168152602090f35b346101885780600319360112610188576040517f00000000000000000000000000000000000000000000000000000000000000006001600160a01b03168152602090f35b346101885780600319360112610188576040517f00000000000000000000000000000000000000000000000000000000000000006001600160a01b03168152602090f35b34610188578060031936011261018857610aaf611377565b600180546001600160a01b031981169091555f906001600160a01b03167f8be0079c531659141344cd1fd0a4f28419497f9722a3daafe3b4186f6b6457e08280a380f35b346101885780600319360112610188576040517f00000000000000000000000000000000000000000000000000000000000000006001600160a01b03168152602090f35b346101885780600319360112610188576040517f00000000000000000000000000000000000000000000000000000000000000006001600160a01b03168152602090f35b6112ef565b346101885780600319360112610188578060206001600160a01b03610bc8337f00000000000000000000000000000000000000000000000000000000000000008316146113a3565b610bd061146b565b60246040518095819363515ce51760e01b8352807f00000000000000000000000000000000000000000000000000000000000000001660048401527f0000000000000000000000000000000000000000000000000000000000000000165af1918215610c80578192610c4c575b60208360018455604051908152f35b91506020823d8211610c78575b81610c6660209383611428565b8101031261085d579051906001610c3d565b3d9150610c59565b50604051903d90823e3d90fd5b346101885780600319360112610188576040519063a7533e0960e01b825260208260248160018060a01b03807f00000000000000000000000000000000000000000000000000000000000000001660048301527f0000000000000000000000000000000000000000000000000000000000000000165afa908115610d565790610d24575b602090655af3107a400060405191048152f35b506020813d8211610d4e575b81610d3d60209383611428565b8101031261085d5760209051610d11565b3d9150610d30565b604051903d90823e3d90fd5b34610188576020806003193601126107ab576001600160a01b0390600435907f0000000000000000000000000000000000000000000000000000000000000000610daf33858316146113a3565b610db761146b565b82156111b9577f00000000000000000000000000000000000000000000000000000000000000009084821693604051956370a0823160e01b9081885230600489015260249786818a818b5afa80156111ae5784918b91611179575b5010610f47575b5060405190815230600482015284818881895afa8015610f3c5782918991610f0b575b5010610ec7576040805163a9059cbb60e01b8682019081526001600160a01b039094168882019081526020810193909352889493928592610e889183910103601f198101835282611428565b51925af1156107af5782513d610ebe5750803b155b610ea957826001815580f35b60405190635274afe760e01b82526004820152fd5b60011415610e9d565b60405162461bcd60e51b8152600481018590526017818801527f696e73756666696369656e7420616674657220657869740000000000000000006044820152606490fd5b809250868092503d8311610f35575b610f248183611428565b8101031261085d5781905189610e3c565b503d610f1a565b6040513d8a823e3d90fd5b60025480610f56575b50610e19565b817f000000000000000000000000000000000000000000000000000000000000000016803b15611175576040516288951f60e11b81527f00000000000000000000000000000000000000000000000000000000000000006001600160a01b03166004820152602481018390528b8160448183865af1801561116a57611149575b50916040899260c48c8e809781600255855197889586946384ef21bd60e01b8652897f00000000000000000000000000000000000000000000000000000000000000001660048701528501526044840152867f00000000000000000000000000000000000000000000000000000000000000001660648401528160848401528160a48401525af191821561113e5788928b918591611105575b508061107e575b505050610f50565b60405194859384926359e19dc560e11b845260048401527f0000000000000000000000000000000000000000000000000000000000000000165af19081156110fa5786916110d1575b9081898b93611076565b813d83116110f3575b6110e48183611428565b8101031261085d5784896110c7565b503d6110da565b6040513d8b823e3d90fd5b935050506040823d604011611136575b8161112260409383611428565b81010312610184578988809301518d61106f565b3d9150611115565b6040513d85823e3d90fd5b899260c48c9d61115d6040949795976113dc565b9d50509250929092610fd6565b6040513d8e823e3d90fd5b8a80fd5b809250888092503d83116111a7575b6111928183611428565b810103126111a3578390518b610e12565b8980fd5b503d611188565b6040513d8c823e3d90fd5b60405162461bcd60e51b815260048101839052600d60248201526c7a65726f20776974686472617760981b6044820152606490fd5b346101885780600319360112610188576020600254604051908152f35b346101885780600319360112610188576040517f00000000000000000000000000000000000000000000000000000000000000006001600160a01b03168152602090f35b346107ab57816003193601126107ab576370a0823160e01b81523060048201526020816024817f00000000000000000000000000000000000000000000000000000000000000006001600160a01b03165afa9081156107af5782916112ba575b602082604051908152f35b90506020813d82116112e7575b816112d460209383611428565b810103126107ab576020915051826112af565b3d91506112c7565b3461085d575f36600319011261085d576040517f00000000000000000000000000000000000000000000000000000000000000006001600160a01b03168152602090f35b3461085d575f36600319011261085d576040517f00000000000000000000000000000000000000000000000000000000000000006001600160a01b03168152602090f35b6001546001600160a01b0316330361138b57565b60405163118cdaa760e01b8152336004820152602490fd5b156113aa57565b60405162461bcd60e51b815260206004820152600a60248201526913db9b1e481d985d5b1d60b21b6044820152606490fd5b67ffffffffffffffff81116104ba57604052565b60e0810190811067ffffffffffffffff8211176104ba57604052565b6020810190811067ffffffffffffffff8211176104ba57604052565b90601f8019910116810190811067ffffffffffffffff8211176104ba57604052565b9190820180921161145757565b634e487b7160e01b5f52601160045260245ffd5b60025f541461147a5760025f55565b604051633ee5aeb560e01b8152600490fd5b8051156114995760200190565b634e487b7160e01b5f52603260045260245ffd5b805160011015611499576040019056fea26469706673582212208abd8ecf0172127467a54517656da7b681ce4c33f86f70f5e9daec6ca528f8dd64736f6c63430008140033","linkReferences":{}},"methodIdentifiers":{"ASSET()":"4800d97f","GAUGE()":"7651b1e6","POOL()":"7535d246","STS()":"611e6f1a","STS_TOKEN()":"1fc170b6","SWAPX()":"55bafc81","VAULT()":"411557d1","apy()":"3bcfc4b8","asset()":"38d52e0f","components()":"ba62fbe4","deposit(uint256)":"b6b55f25","harvest()":"4641257d","owner()":"8da5cb5b","renounceOwnership()":"715018a6","stakedLp()":"218fa0ac","totalAssets()":"01e1d114","transferOwnership(address)":"f2fde38b","vault()":"fbfa77cf","withdraw(uint256)":"2e1a7d4d"},"id":59}