{"abi":[{"type":"constructor","inputs":[{"name":"_sToken","type":"address","internalType":"address"},{"name":"_vault","type":"address","internalType":"address"},{"name":"_swapXAdapter","type":"address","internalType":"address"},{"name":"_stsAdapter","type":"address","internalType":"address"},{"name":"_pool","type":"address","internalType":"address"},{"name":"_gauge","type":"address","internalType":"address"}],"stateMutability":"nonpayable"},{"type":"function","name":"ASSET","inputs":[],"outputs":[{"name":"","type":"address","internalType":"contract IERC20"}],"stateMutability":"view"},{"type":"function","name":"GAUGE","inputs":[],"outputs":[{"name":"","type":"address","internalType":"address"}],"stateMutability":"view"},{"type":"function","name":"POOL","inputs":[],"outputs":[{"name":"","type":"address","internalType":"address"}],"stateMutability":"view"},{"type":"function","name":"STS","inputs":[],"outputs":[{"name":"","type":"address","internalType":"contract IStSAdapter"}],"stateMutability":"view"},{"type":"function","name":"STS_TOKEN","inputs":[],"outputs":[{"name":"","type":"address","internalType":"address"}],"stateMutability":"view"},{"type":"function","name":"SWAPX","inputs":[],"outputs":[{"name":"","type":"address","internalType":"contract ISwapXAdapter"}],"stateMutability":"view"},{"type":"function","name":"VAULT","inputs":[],"outputs":[{"name":"","type":"address","internalType":"address"}],"stateMutability":"view"},{"type":"function","name":"apy","inputs":[],"outputs":[{"name":"","type":"uint256","internalType":"uint256"}],"stateMutability":"view"},{"type":"function","name":"asset","inputs":[],"outputs":[{"name":"","type":"address","internalType":"contract IERC20"}],"stateMutability":"view"},{"type":"function","name":"components","inputs":[],"outputs":[{"name":"asset","type":"address","internalType":"address"},{"name":"schemaVersion","type":"uint8","internalType":"uint8"},{"name":"comps","type":"tuple[]","internalType":"struct IStrategyIntrospection.Component[]","components":[{"name":"kind","type":"uint8","internalType":"enum IStrategyIntrospection.ComponentKind"},{"name":"adapter","type":"address","internalType":"address"},{"name":"token0","type":"address","internalType":"address"},{"name":"token1","type":"address","internalType":"address"},{"name":"pool","type":"address","internalType":"address"},{"name":"gauge","type":"address","internalType":"address"},{"name":"extra","type":"bytes","internalType":"bytes"}]}],"stateMutability":"view"},{"type":"function","name":"deposit","inputs":[{"name":"amount","type":"uint256","internalType":"uint256"}],"outputs":[],"stateMutability":"nonpayable"},{"type":"function","name":"harvest","inputs":[],"outputs":[{"name":"harvested","type":"uint256","internalType":"uint256"}],"stateMutability":"nonpayable"},{"type":"function","name":"owner","inputs":[],"outputs":[{"name":"","type":"address","internalType":"address"}],"stateMutability":"view"},{"type":"function","name":"registerMe","inputs":[{"name":"projectId","type":"uint256","internalType":"uint256"}],"outputs":[],"stateMutability":"nonpayable"},{"type":"function","name":"renounceOwnership","inputs":[],"outputs":[],"stateMutability":"nonpayable"},{"type":"function","name":"stakedLp","inputs":[],"outputs":[{"name":"","type":"uint256","internalType":"uint256"}],"stateMutability":"view"},{"type":"function","name":"totalAssets","inputs":[],"outputs":[{"name":"","type":"uint256","internalType":"uint256"}],"stateMutability":"view"},{"type":"function","name":"transferOwnership","inputs":[{"name":"newOwner","type":"address","internalType":"address"}],"outputs":[],"stateMutability":"nonpayable"},{"type":"function","name":"vault","inputs":[],"outputs":[{"name":"","type":"address","internalType":"address"}],"stateMutability":"view"},{"type":"function","name":"withdraw","inputs":[{"name":"amount","type":"uint256","internalType":"uint256"}],"outputs":[],"stateMutability":"nonpayable"},{"type":"event","name":"OwnershipTransferred","inputs":[{"name":"previousOwner","type":"address","indexed":true,"internalType":"address"},{"name":"newOwner","type":"address","indexed":true,"internalType":"address"}],"anonymous":false},{"type":"event","name":"StrategyComponent","inputs":[{"name":"strategy","type":"address","indexed":true,"internalType":"address"},{"name":"kind","type":"uint8","indexed":false,"internalType":"enum IStrategyIntrospection.ComponentKind"},{"name":"adapter","type":"address","indexed":false,"internalType":"address"},{"name":"token0","type":"address","indexed":false,"internalType":"address"},{"name":"token1","type":"address","indexed":false,"internalType":"address"},{"name":"pool","type":"address","indexed":false,"internalType":"address"},{"name":"gauge","type":"address","indexed":false,"internalType":"address"},{"name":"extra","type":"bytes","indexed":false,"internalType":"bytes"}],"anonymous":false},{"type":"event","name":"StrategyConfigured","inputs":[{"name":"strategy","type":"address","indexed":true,"internalType":"address"},{"name":"asset","type":"address","indexed":false,"internalType":"address"},{"name":"schemaVersion","type":"uint8","indexed":false,"internalType":"uint8"}],"anonymous":false},{"type":"error","name":"OwnableInvalidOwner","inputs":[{"name":"owner","type":"address","internalType":"address"}]},{"type":"error","name":"OwnableUnauthorizedAccount","inputs":[{"name":"account","type":"address","internalType":"address"}]},{"type":"error","name":"ReentrancyGuardReentrantCall","inputs":[]},{"type":"error","name":"SafeERC20FailedOperation","inputs":[{"name":"token","type":"address","internalType":"address"}]}],"bytecode":{"object":"0x610160604081815234620005015760c08262001b5b803803809162000025828562000505565b83398101031262000501576200003b826200053d565b6020916200004b8385016200053d565b92620000598286016200053d565b9362000068606087016200053d565b946200008560a06200007d60808a016200053d565b98016200053d565b955f91600183553315620004e95760018054336001600160a01b03198216811790925587516001600160a01b03999096928a9283167f8be0079c531659141344cd1fd0a4f28419497f9722a3daafe3b4186f6b6457e08880a3169485151580620004dd575b15620004af5750608085905260a05286169081151580620004a3575b15620004705786891615158062000464575b15620004355760c0829052861660e0819052610100988952610120978852855163065a291b60e31b8152968588600481855afa9788156200042b578498620003e8575b5061014097885286519463095ea7b360e01b928387528060048801525f199687602482015288816044818a875af18015620003de579189918893620003bc575b506044858d5116918c5194859384928a845260048401528c60248401525af18015620003b257918891879362000390575b5060448a51809481938883528960048401528b60248401525af18015620003865760449288959492879262000364575b508a5116895197889586948552600485015260248401525af190811562000359575062000324575b505051916115ee93846200056d85396080518481816101ac0152818161052301528181610e9e0152818161135601526113e3015260a0518481816104d901528181610c8001528181610e620152611427015260c051848181610285015281816105ec01528181610b3101528181610cec01528181610dc10152611038015260e0518481816102060152818161058901528181610aed01526111760152518381816102dd0152818161061e01528181610a4d01528181610d9a01526110d90152518281816103050152818161071801528181610a0901528181610cc5015261106d0152518181816102b50152818161064c0152818161110901526112ff0152f35b816200034892903d1062000351575b6200033f818362000505565b81019062000552565b505f8062000224565b503d62000333565b8451903d90823e3d90fd5b6200037e90873d891162000351576200033f818362000505565b505f620001fc565b88513d87823e3d90fd5b620003aa90833d851162000351576200033f818362000505565b505f620001cc565b89513d88823e3d90fd5b620003d690833d851162000351576200033f818362000505565b505f6200019b565b8a513d89823e3d90fd5b9097508581813d831162000423575b62000403818362000505565b810103126200041f5762000417906200053d565b965f6200015b565b8380fd5b503d620003f7565b87513d86823e3d90fd5b855162461bcd60e51b8152600481018690526008602482015267189859081c1bdbdb60c21b6044820152606490fd5b50868816151562000118565b855162461bcd60e51b815260048101869052600c60248201526b62616420616461707465727360a01b6044820152606490fd5b50868116151562000106565b62461bcd60e51b81526004810187905260096024820152683d32b9379030b2323960b91b6044820152606490fd5b508882161515620000ea565b8551631e4fbdf760e01b815260048101849052602490fd5b5f80fd5b601f909101601f19168101906001600160401b038211908210176200052957604052565b634e487b7160e01b5f52604160045260245ffd5b51906001600160a01b03821682036200050157565b90816020910312620005015751801515810362000501579056fe6080806040526004361015610012575f80fd5b5f803560e01c91826301e1d1141461132e575081631fc170b6146112ea578163218fa0ac146112cd5781632e1a7d4d14610e4157816338d52e0f14610c5a5781633bcfc4b814610d6c578163411557d1146100fa5781634641257d14610c5f5781634800d97f14610c5a57816355af853514610b6057816355bafc8114610b1c578163611e6f1a14610ad8578163715018a614610a7c5781637535d24614610a385781637651b1e6146109f45781638da5cb5b146109cc578163b6b55f25146104b3578163ba62fbe414610196578163f2fde38b146100ff575063fbfa77cf146100fa575f80fd5b611412565b34610193576020366003190112610193576004356001600160a01b038181169182900361018f5761012e611456565b811561017657600154826bffffffffffffffffffffffff60a01b821617600155167f8be0079c531659141344cd1fd0a4f28419497f9722a3daafe3b4186f6b6457e05f80a380f35b604051631e4fbdf760e01b815260048101849052602490fd5b8280fd5b80fd5b34610193578060031936011261019357604051907f00000000000000000000000000000000000000000000000000000000000000006001600160a01b03166101dd836114b2565b60028352815b604081106104725750826040516101f981611496565b6003815260018060a01b037f00000000000000000000000000000000000000000000000000000000000000001660208201528360408201528360608201528360808201528360a082015260405161024f816114ce565b84815260c082015261026082611587565b5261026a81611587565b5060405161027781611496565b600581526001600160a01b037f00000000000000000000000000000000000000000000000000000000000000008116602083015260408083018590527f0000000000000000000000000000000000000000000000000000000000000000821660608401527f0000000000000000000000000000000000000000000000000000000000000000821660808401527f000000000000000000000000000000000000000000000000000000000000000090911660a083015251610336816114ce565b84815260c0820152610347826115a8565b52610351816115a8565b506040519160608301908352600160208401526060604084015281518091526080830193602060808360051b860101930194815b8383106103925785850386f35b90919293607f1986820301835286518051600781101561045e5782526020808201516001600160a01b039081169184019190915260408083015182169084015260608083015182169084015260808083015182169084015260a0808301519091169083015260c09081015160e09183018290528051918301829052909190835b838110610447575050808201610100908101849052602098890198601f909301601f1916909101019493600101920190610385565b806020809284010151610100828601015201610412565b634e487b7160e01b84526021600452602484fd5b60209060405161048181611496565b848152828581830152856040830152606086818401528660808401528660a084015260c08301528287010152016101e3565b346101935760209081600319360112610193576001600160a01b039160043590610500337f000000000000000000000000000000000000000000000000000000000000000086161461150c565b610508611566565b8115610999576040516370a0823160e01b81523060048201527f00000000000000000000000000000000000000000000000000000000000000008516946024929091818185818a5afa90811561098e57908591879161095d575b5010610925578360011c9160405192636cdea07b60e01b8452806004850152828486818a867f0000000000000000000000000000000000000000000000000000000000000000165af193841561091a5787946108eb575b5085039485116108d8576105cd8386611545565b96605f880297808904605f14901517156108c5576064879883989697987f000000000000000000000000000000000000000000000000000000000000000016956040519963d875c70f60e01b8b52857f000000000000000000000000000000000000000000000000000000000000000016948560048d01528a8c0152857f00000000000000000000000000000000000000000000000000000000000000001660448c0152838b015260848a01520460a4880152828760c48188885af196871561084d578597610892575b506040519063038941b960e51b8252600482015282818781875afa90811561084d578591610858575b501693604051636eb1769f60e11b815230600482015283828201528281604481895afa90811561084d578591610814575b509484959493941561079f575b50505050803b15610790576040516361c1200160e11b81527f00000000000000000000000000000000000000000000000000000000000000006001600160a01b03166004820152602481018490529082908290604490829084905af180156107945761077c575b5061077282600254611545565b6002556001815580f35b61078590611482565b610790578183610765565b5080fd5b6040513d84823e3d90fd5b60448392604051958693849263095ea7b360e01b84528960048501525f19908401525af18015610809576107d6575b8084926106fe565b81813d8311610802575b6107ea81836114ea565b8101031261018f5751801515036107905784806107ce565b503d6107e0565b6040513d86823e3d90fd5b80949550838092503d8311610846575b61082e81836114ea565b8101031261084257915186939290846106f1565b5f80fd5b503d610824565b6040513d87823e3d90fd5b90508281813d831161088b575b61086f81836114ea565b810103126108875751818116810361088757886106c0565b8480fd5b503d610865565b83809298508196503d83116108be575b6108ac81836114ea565b81010312610842578693519588610697565b503d6108a2565b634e487b7160e01b875260116004528487fd5b634e487b7160e01b865260116004528386fd5b9093508281813d8311610913575b61090381836114ea565b81010312610842575192886105b9565b503d6108f9565b6040513d89823e3d90fd5b6064906012846040519262461bcd60e51b8452600484015282015271696e73756666696369656e742066756e647360701b6044820152fd5b809250838092503d8311610987575b61097681836114ea565b810103126108425784905188610562565b503d61096c565b6040513d88823e3d90fd5b6064906040519062461bcd60e51b82526004820152600c60248201526b1e995c9bc819195c1bdcda5d60a21b6044820152fd5b346101935780600319360112610193576001546040516001600160a01b039091168152602090f35b346101935780600319360112610193576040517f00000000000000000000000000000000000000000000000000000000000000006001600160a01b03168152602090f35b346101935780600319360112610193576040517f00000000000000000000000000000000000000000000000000000000000000006001600160a01b03168152602090f35b34610193578060031936011261019357610a94611456565b600180546001600160a01b031981169091555f906001600160a01b03167f8be0079c531659141344cd1fd0a4f28419497f9722a3daafe3b4186f6b6457e08280a380f35b346101935780600319360112610193576040517f00000000000000000000000000000000000000000000000000000000000000006001600160a01b03168152602090f35b346101935780600319360112610193576040517f00000000000000000000000000000000000000000000000000000000000000006001600160a01b03168152602090f35b3461019357602036600319011261019357610b79611456565b808060405160208101906307983f4560e21b8252600435602482015260248152610ba2816114b2565b51908273dc2b0d2dd2b7759d97d50db4eabdc369731108305af13d15610c55573d67ffffffffffffffff8111610c415760405190610bea601f8201601f1916602001836114ea565b81528260203d92013e5b15610bfc5780f35b60405162461bcd60e51b815260206004820152601860248201527f4665654d20726567697374726174696f6e206661696c656400000000000000006044820152606490fd5b634e487b7160e01b5f52604160045260245ffd5b610bf4565b6113ce565b346101935780600319360112610193578060206001600160a01b03610ca7337f000000000000000000000000000000000000000000000000000000000000000083161461150c565b610caf611566565b60246040518095819363515ce51760e01b8352807f00000000000000000000000000000000000000000000000000000000000000001660048401527f0000000000000000000000000000000000000000000000000000000000000000165af1918215610d5f578192610d2b575b60208360018455604051908152f35b91506020823d8211610d57575b81610d45602093836114ea565b81010312610842579051906001610d1c565b3d9150610d38565b50604051903d90823e3d90fd5b346101935780600319360112610193576040519063a7533e0960e01b825260208260248160018060a01b03807f00000000000000000000000000000000000000000000000000000000000000001660048301527f0000000000000000000000000000000000000000000000000000000000000000165afa908115610e355790610e03575b602090655af3107a400060405191048152f35b506020813d8211610e2d575b81610e1c602093836114ea565b810103126108425760209051610df0565b3d9150610e0f565b604051903d90823e3d90fd5b3461019357602080600319360112610790576001600160a01b0390600435907f0000000000000000000000000000000000000000000000000000000000000000610e8e338583161461150c565b610e96611566565b8215611298577f00000000000000000000000000000000000000000000000000000000000000009084821693604051956370a0823160e01b9081885230600489015260249786818a818b5afa801561128d5784918b91611258575b5010611026575b5060405190815230600482015284818881895afa801561101b5782918991610fea575b5010610fa6576040805163a9059cbb60e01b8682019081526001600160a01b039094168882019081526020810193909352889493928592610f679183910103601f1981018352826114ea565b51925af1156107945782513d610f9d5750803b155b610f8857826001815580f35b60405190635274afe760e01b82526004820152fd5b60011415610f7c565b60405162461bcd60e51b8152600481018590526017818801527f696e73756666696369656e7420616674657220657869740000000000000000006044820152606490fd5b809250868092503d8311611014575b61100381836114ea565b810103126108425781905189610f1b565b503d610ff9565b6040513d8a823e3d90fd5b60025480611035575b50610ef8565b817f000000000000000000000000000000000000000000000000000000000000000016803b15611254576040516288951f60e11b81527f00000000000000000000000000000000000000000000000000000000000000006001600160a01b03166004820152602481018390528b8160448183865af1801561124957611228575b50916040899260c48c8e809781600255855197889586946384ef21bd60e01b8652897f00000000000000000000000000000000000000000000000000000000000000001660048701528501526044840152867f00000000000000000000000000000000000000000000000000000000000000001660648401528160848401528160a48401525af191821561121d5788928b9185916111e4575b508061115d575b50505061102f565b60405194859384926359e19dc560e11b845260048401527f0000000000000000000000000000000000000000000000000000000000000000165af19081156111d95786916111b0575b9081898b93611155565b813d83116111d2575b6111c381836114ea565b810103126108425784896111a6565b503d6111b9565b6040513d8b823e3d90fd5b935050506040823d604011611215575b81611201604093836114ea565b8101031261018f578988809301518d61114e565b3d91506111f4565b6040513d85823e3d90fd5b899260c48c9d61123c604094979597611482565b9d505092509290926110b5565b6040513d8e823e3d90fd5b8a80fd5b809250888092503d8311611286575b61127181836114ea565b81010312611282578390518b610ef1565b8980fd5b503d611267565b6040513d8c823e3d90fd5b60405162461bcd60e51b815260048101839052600d60248201526c7a65726f20776974686472617760981b6044820152606490fd5b346101935780600319360112610193576020600254604051908152f35b346101935780600319360112610193576040517f00000000000000000000000000000000000000000000000000000000000000006001600160a01b03168152602090f35b346107905781600319360112610790576370a0823160e01b81523060048201526020816024817f00000000000000000000000000000000000000000000000000000000000000006001600160a01b03165afa908115610794578291611399575b602082604051908152f35b90506020813d82116113c6575b816113b3602093836114ea565b810103126107905760209150518261138e565b3d91506113a6565b34610842575f366003190112610842576040517f00000000000000000000000000000000000000000000000000000000000000006001600160a01b03168152602090f35b34610842575f366003190112610842576040517f00000000000000000000000000000000000000000000000000000000000000006001600160a01b03168152602090f35b6001546001600160a01b0316330361146a57565b60405163118cdaa760e01b8152336004820152602490fd5b67ffffffffffffffff8111610c4157604052565b60e0810190811067ffffffffffffffff821117610c4157604052565b6060810190811067ffffffffffffffff821117610c4157604052565b6020810190811067ffffffffffffffff821117610c4157604052565b90601f8019910116810190811067ffffffffffffffff821117610c4157604052565b1561151357565b60405162461bcd60e51b815260206004820152600a60248201526913db9b1e481d985d5b1d60b21b6044820152606490fd5b9190820180921161155257565b634e487b7160e01b5f52601160045260245ffd5b60025f54146115755760025f55565b604051633ee5aeb560e01b8152600490fd5b8051156115945760200190565b634e487b7160e01b5f52603260045260245ffd5b805160011015611594576040019056fea2646970667358221220de17aa2d3908ac332fbc5242a163fbfe3a9b50d8368aeb94cabe1d44b5da6e2664736f6c63430008140033","linkReferences":{}},"methodIdentifiers":{"ASSET()":"4800d97f","GAUGE()":"7651b1e6","POOL()":"7535d246","STS()":"611e6f1a","STS_TOKEN()":"1fc170b6","SWAPX()":"55bafc81","VAULT()":"411557d1","apy()":"3bcfc4b8","asset()":"38d52e0f","components()":"ba62fbe4","deposit(uint256)":"b6b55f25","harvest()":"4641257d","owner()":"8da5cb5b","registerMe(uint256)":"55af8535","renounceOwnership()":"715018a6","stakedLp()":"218fa0ac","totalAssets()":"01e1d114","transferOwnership(address)":"f2fde38b","vault()":"fbfa77cf","withdraw(uint256)":"2e1a7d4d"},"id":71}