{"abi":[{"type":"constructor","inputs":[{"name":"_asset","type":"address","internalType":"contract IERC20"},{"name":"_name","type":"string","internalType":"string"},{"name":"_symbol","type":"string","internalType":"string"},{"name":"_strategyManager","type":"address","internalType":"address"}],"stateMutability":"nonpayable"},{"type":"function","name":"MAX_STRATEGIES","inputs":[],"outputs":[{"name":"","type":"uint256","internalType":"uint256"}],"stateMutability":"view"},{"type":"function","name":"addStrategy","inputs":[{"name":"strategy","type":"address","internalType":"contract IYieldStrategy"},{"name":"allocation","type":"uint256","internalType":"uint256"}],"outputs":[],"stateMutability":"nonpayable"},{"type":"function","name":"allocations","inputs":[{"name":"","type":"address","internalType":"contract IYieldStrategy"}],"outputs":[{"name":"","type":"uint256","internalType":"uint256"}],"stateMutability":"view"},{"type":"function","name":"allowance","inputs":[{"name":"owner","type":"address","internalType":"address"},{"name":"spender","type":"address","internalType":"address"}],"outputs":[{"name":"","type":"uint256","internalType":"uint256"}],"stateMutability":"view"},{"type":"function","name":"approve","inputs":[{"name":"spender","type":"address","internalType":"address"},{"name":"value","type":"uint256","internalType":"uint256"}],"outputs":[{"name":"","type":"bool","internalType":"bool"}],"stateMutability":"nonpayable"},{"type":"function","name":"asset","inputs":[],"outputs":[{"name":"","type":"address","internalType":"address"}],"stateMutability":"view"},{"type":"function","name":"balanceOf","inputs":[{"name":"account","type":"address","internalType":"address"}],"outputs":[{"name":"","type":"uint256","internalType":"uint256"}],"stateMutability":"view"},{"type":"function","name":"convertToAssets","inputs":[{"name":"shares","type":"uint256","internalType":"uint256"}],"outputs":[{"name":"","type":"uint256","internalType":"uint256"}],"stateMutability":"view"},{"type":"function","name":"convertToShares","inputs":[{"name":"assets","type":"uint256","internalType":"uint256"}],"outputs":[{"name":"","type":"uint256","internalType":"uint256"}],"stateMutability":"view"},{"type":"function","name":"decimals","inputs":[],"outputs":[{"name":"","type":"uint8","internalType":"uint8"}],"stateMutability":"view"},{"type":"function","name":"deposit","inputs":[{"name":"assets","type":"uint256","internalType":"uint256"},{"name":"receiver","type":"address","internalType":"address"}],"outputs":[{"name":"","type":"uint256","internalType":"uint256"}],"stateMutability":"nonpayable"},{"type":"function","name":"emergencyPause","inputs":[],"outputs":[],"stateMutability":"nonpayable"},{"type":"function","name":"emergencyPaused","inputs":[],"outputs":[{"name":"","type":"bool","internalType":"bool"}],"stateMutability":"view"},{"type":"function","name":"harvestYield","inputs":[],"outputs":[],"stateMutability":"nonpayable"},{"type":"function","name":"maxDeposit","inputs":[{"name":"","type":"address","internalType":"address"}],"outputs":[{"name":"","type":"uint256","internalType":"uint256"}],"stateMutability":"view"},{"type":"function","name":"maxMint","inputs":[{"name":"","type":"address","internalType":"address"}],"outputs":[{"name":"","type":"uint256","internalType":"uint256"}],"stateMutability":"view"},{"type":"function","name":"maxRedeem","inputs":[{"name":"owner","type":"address","internalType":"address"}],"outputs":[{"name":"","type":"uint256","internalType":"uint256"}],"stateMutability":"view"},{"type":"function","name":"maxWithdraw","inputs":[{"name":"owner","type":"address","internalType":"address"}],"outputs":[{"name":"","type":"uint256","internalType":"uint256"}],"stateMutability":"view"},{"type":"function","name":"mint","inputs":[{"name":"shares","type":"uint256","internalType":"uint256"},{"name":"receiver","type":"address","internalType":"address"}],"outputs":[{"name":"","type":"uint256","internalType":"uint256"}],"stateMutability":"nonpayable"},{"type":"function","name":"name","inputs":[],"outputs":[{"name":"","type":"string","internalType":"string"}],"stateMutability":"view"},{"type":"function","name":"owner","inputs":[],"outputs":[{"name":"","type":"address","internalType":"address"}],"stateMutability":"view"},{"type":"function","name":"previewDeposit","inputs":[{"name":"assets","type":"uint256","internalType":"uint256"}],"outputs":[{"name":"","type":"uint256","internalType":"uint256"}],"stateMutability":"view"},{"type":"function","name":"previewMint","inputs":[{"name":"shares","type":"uint256","internalType":"uint256"}],"outputs":[{"name":"","type":"uint256","internalType":"uint256"}],"stateMutability":"view"},{"type":"function","name":"previewRedeem","inputs":[{"name":"shares","type":"uint256","internalType":"uint256"}],"outputs":[{"name":"","type":"uint256","internalType":"uint256"}],"stateMutability":"view"},{"type":"function","name":"previewWithdraw","inputs":[{"name":"assets","type":"uint256","internalType":"uint256"}],"outputs":[{"name":"","type":"uint256","internalType":"uint256"}],"stateMutability":"view"},{"type":"function","name":"rebalance","inputs":[{"name":"newAllocations","type":"uint256[]","internalType":"uint256[]"}],"outputs":[],"stateMutability":"nonpayable"},{"type":"function","name":"redeem","inputs":[{"name":"shares","type":"uint256","internalType":"uint256"},{"name":"receiver","type":"address","internalType":"address"},{"name":"owner","type":"address","internalType":"address"}],"outputs":[{"name":"","type":"uint256","internalType":"uint256"}],"stateMutability":"nonpayable"},{"type":"function","name":"registerMe","inputs":[{"name":"projectId","type":"uint256","internalType":"uint256"}],"outputs":[],"stateMutability":"nonpayable"},{"type":"function","name":"renounceOwnership","inputs":[],"outputs":[],"stateMutability":"nonpayable"},{"type":"function","name":"setStrategyManager","inputs":[{"name":"newManager","type":"address","internalType":"address"}],"outputs":[],"stateMutability":"nonpayable"},{"type":"function","name":"strategies","inputs":[{"name":"","type":"uint256","internalType":"uint256"}],"outputs":[{"name":"","type":"address","internalType":"contract IYieldStrategy"}],"stateMutability":"view"},{"type":"function","name":"strategyManager","inputs":[],"outputs":[{"name":"","type":"address","internalType":"address"}],"stateMutability":"view"},{"type":"function","name":"symbol","inputs":[],"outputs":[{"name":"","type":"string","internalType":"string"}],"stateMutability":"view"},{"type":"function","name":"totalAllocation","inputs":[],"outputs":[{"name":"","type":"uint256","internalType":"uint256"}],"stateMutability":"view"},{"type":"function","name":"totalAssets","inputs":[],"outputs":[{"name":"","type":"uint256","internalType":"uint256"}],"stateMutability":"view"},{"type":"function","name":"totalSupply","inputs":[],"outputs":[{"name":"","type":"uint256","internalType":"uint256"}],"stateMutability":"view"},{"type":"function","name":"transfer","inputs":[{"name":"to","type":"address","internalType":"address"},{"name":"value","type":"uint256","internalType":"uint256"}],"outputs":[{"name":"","type":"bool","internalType":"bool"}],"stateMutability":"nonpayable"},{"type":"function","name":"transferFrom","inputs":[{"name":"from","type":"address","internalType":"address"},{"name":"to","type":"address","internalType":"address"},{"name":"value","type":"uint256","internalType":"uint256"}],"outputs":[{"name":"","type":"bool","internalType":"bool"}],"stateMutability":"nonpayable"},{"type":"function","name":"transferOwnership","inputs":[{"name":"newOwner","type":"address","internalType":"address"}],"outputs":[],"stateMutability":"nonpayable"},{"type":"function","name":"unpause","inputs":[],"outputs":[],"stateMutability":"nonpayable"},{"type":"function","name":"withdraw","inputs":[{"name":"assets","type":"uint256","internalType":"uint256"},{"name":"receiver","type":"address","internalType":"address"},{"name":"owner","type":"address","internalType":"address"}],"outputs":[{"name":"","type":"uint256","internalType":"uint256"}],"stateMutability":"nonpayable"},{"type":"event","name":"Approval","inputs":[{"name":"owner","type":"address","indexed":true,"internalType":"address"},{"name":"spender","type":"address","indexed":true,"internalType":"address"},{"name":"value","type":"uint256","indexed":false,"internalType":"uint256"}],"anonymous":false},{"type":"event","name":"Deposit","inputs":[{"name":"sender","type":"address","indexed":true,"internalType":"address"},{"name":"owner","type":"address","indexed":true,"internalType":"address"},{"name":"assets","type":"uint256","indexed":false,"internalType":"uint256"},{"name":"shares","type":"uint256","indexed":false,"internalType":"uint256"}],"anonymous":false},{"type":"event","name":"OwnershipTransferred","inputs":[{"name":"previousOwner","type":"address","indexed":true,"internalType":"address"},{"name":"newOwner","type":"address","indexed":true,"internalType":"address"}],"anonymous":false},{"type":"event","name":"RebalanceExecuted","inputs":[{"name":"strategies","type":"address[]","indexed":false,"internalType":"address[]"},{"name":"allocations","type":"uint256[]","indexed":false,"internalType":"uint256[]"}],"anonymous":false},{"type":"event","name":"StrategyAllocated","inputs":[{"name":"strategy","type":"address","indexed":true,"internalType":"address"},{"name":"amount","type":"uint256","indexed":false,"internalType":"uint256"}],"anonymous":false},{"type":"event","name":"StrategyAllocationUpdated","inputs":[{"name":"strategy","type":"address","indexed":true,"internalType":"address"},{"name":"bps","type":"uint256","indexed":false,"internalType":"uint256"}],"anonymous":false},{"type":"event","name":"StrategyDeposit","inputs":[{"name":"strategy","type":"address","indexed":true,"internalType":"address"},{"name":"assets","type":"uint256","indexed":false,"internalType":"uint256"}],"anonymous":false},{"type":"event","name":"StrategyWithdrawal","inputs":[{"name":"strategy","type":"address","indexed":true,"internalType":"address"},{"name":"assets","type":"uint256","indexed":false,"internalType":"uint256"}],"anonymous":false},{"type":"event","name":"StrategyWithdrawn","inputs":[{"name":"strategy","type":"address","indexed":true,"internalType":"address"},{"name":"amount","type":"uint256","indexed":false,"internalType":"uint256"}],"anonymous":false},{"type":"event","name":"Transfer","inputs":[{"name":"from","type":"address","indexed":true,"internalType":"address"},{"name":"to","type":"address","indexed":true,"internalType":"address"},{"name":"value","type":"uint256","indexed":false,"internalType":"uint256"}],"anonymous":false},{"type":"event","name":"Withdraw","inputs":[{"name":"sender","type":"address","indexed":true,"internalType":"address"},{"name":"receiver","type":"address","indexed":true,"internalType":"address"},{"name":"owner","type":"address","indexed":true,"internalType":"address"},{"name":"assets","type":"uint256","indexed":false,"internalType":"uint256"},{"name":"shares","type":"uint256","indexed":false,"internalType":"uint256"}],"anonymous":false},{"type":"event","name":"YieldHarvested","inputs":[{"name":"totalYield","type":"uint256","indexed":false,"internalType":"uint256"}],"anonymous":false},{"type":"error","name":"ERC20InsufficientAllowance","inputs":[{"name":"spender","type":"address","internalType":"address"},{"name":"allowance","type":"uint256","internalType":"uint256"},{"name":"needed","type":"uint256","internalType":"uint256"}]},{"type":"error","name":"ERC20InsufficientBalance","inputs":[{"name":"sender","type":"address","internalType":"address"},{"name":"balance","type":"uint256","internalType":"uint256"},{"name":"needed","type":"uint256","internalType":"uint256"}]},{"type":"error","name":"ERC20InvalidApprover","inputs":[{"name":"approver","type":"address","internalType":"address"}]},{"type":"error","name":"ERC20InvalidReceiver","inputs":[{"name":"receiver","type":"address","internalType":"address"}]},{"type":"error","name":"ERC20InvalidSender","inputs":[{"name":"sender","type":"address","internalType":"address"}]},{"type":"error","name":"ERC20InvalidSpender","inputs":[{"name":"spender","type":"address","internalType":"address"}]},{"type":"error","name":"ERC4626ExceededMaxDeposit","inputs":[{"name":"receiver","type":"address","internalType":"address"},{"name":"assets","type":"uint256","internalType":"uint256"},{"name":"max","type":"uint256","internalType":"uint256"}]},{"type":"error","name":"ERC4626ExceededMaxMint","inputs":[{"name":"receiver","type":"address","internalType":"address"},{"name":"shares","type":"uint256","internalType":"uint256"},{"name":"max","type":"uint256","internalType":"uint256"}]},{"type":"error","name":"ERC4626ExceededMaxRedeem","inputs":[{"name":"owner","type":"address","internalType":"address"},{"name":"shares","type":"uint256","internalType":"uint256"},{"name":"max","type":"uint256","internalType":"uint256"}]},{"type":"error","name":"ERC4626ExceededMaxWithdraw","inputs":[{"name":"owner","type":"address","internalType":"address"},{"name":"assets","type":"uint256","internalType":"uint256"},{"name":"max","type":"uint256","internalType":"uint256"}]},{"type":"error","name":"OwnableInvalidOwner","inputs":[{"name":"owner","type":"address","internalType":"address"}]},{"type":"error","name":"OwnableUnauthorizedAccount","inputs":[{"name":"account","type":"address","internalType":"address"}]},{"type":"error","name":"ReentrancyGuardReentrantCall","inputs":[]},{"type":"error","name":"SafeERC20FailedOperation","inputs":[{"name":"token","type":"address","internalType":"address"}]}],"bytecode":{"object":"0x60c080604052346200040d5762002bab803803809162000020828562000411565b83398101906080818303126200040d5780516001600160a01b039283821682036200040d576020838101519092906001600160401b03908181116200040d57836200006d91870162000451565b9260408601518281116200040d576060916200008b91880162000451565b950151948686168096036200040d57835182811162000318576003918254916001968784811c9416801562000402575b89851014620003ee578190601f948581116200039b575b50899085831160011462000338575f926200032c575b50505f1982861b1c191690871b1783555b8051938411620003185760049687548781811c911680156200030d575b82821014620002fa57908184879695949311620002a1575b50809285116001146200023757505f936200022b575b505082851b925f19911b1c19161783555b6200016081620004b9565b901562000222575b60a05260805260055533156200020b575060068054336001600160a01b03198083168217909355604051949091167f8be0079c531659141344cd1fd0a4f28419497f9722a3daafe3b4186f6b6457e05f80a3600754161760075561262c90816200057f82396080518181816108c901528181610e300152818161122301528181611c2101528181611dcf01528181611eb401526121b7015260a051816112690152f35b6024905f60405191631e4fbdf760e01b8352820152fd5b50601262000168565b015191505f8062000144565b929190879550601f198516895f52845f20945f905b8282106200028757505085116200026d575b50505050811b01835562000155565b01519060f8845f19921b161c191690555f8080806200025e565b8484015187558a989096019593840193908101906200024c565b909192939450885f52815f208480880160051c820192848910620002f0575b918a91899897969594930160051c01915b828110620002e15750506200012e565b5f81558897508a9101620002d1565b92508192620002c0565b602289634e487b7160e01b5f525260245ffd5b90607f169062000116565b634e487b7160e01b5f52604160045260245ffd5b015190505f80620000e8565b90899350601f19831691875f528b5f20925f5b8d8282106200038457505084116200036c575b505050811b018355620000f9565b01515f1983881b60f8161c191690555f80806200035e565b8385015186558d979095019493840193016200034b565b909150855f52895f208580850160051c8201928c8610620003e4575b918b91869594930160051c01915b828110620003d5575050620000d2565b5f81558594508b9101620003c5565b92508192620003b7565b634e487b7160e01b5f52602260045260245ffd5b93607f1693620000bb565b5f80fd5b601f909101601f19168101906001600160401b038211908210176200031857604052565b6001600160401b0381116200031857601f01601f191660200190565b919080601f840112156200040d578251906200046d8262000435565b916200047d604051938462000411565b8083526020918282870101116200040d575f5b818110620004a55750825f9394955001015290565b858101830151848201840152820162000490565b6040805163313ce56760e01b60208201908152600482529293929181016001600160401b038111828210176200031857604052515f9384928392916001600160a01b03165afa3d1562000575573d90620005138262000435565b9162000523604051938462000411565b82523d84602084013e5b8062000568575b6200053f575b508190565b60208180518101031262000564576020015160ff81116200053a576001925060ff1690565b8280fd5b5060208151101562000534565b6060906200052d56fe60406080815260049081361015610014575f80fd5b5f91823560e01c806301e1d114146114ec57806306fdde03146113f857806307a2d13a146111ba578063095ea7b31461134f5780630a28a4771461132f57806318160ddd1461131057806323b872dd146112d357806327c830a9146112af578063313ce5671461125257806338d52e0f1461120e57806339b70e38146111e55780633f4ba83a146111bf578063402d267d146106175780634cdad506146111ba57806351858e271461119157806352a9039c1461115957806355af8535146110415780635c96664614610ffc5780636e553f6514610def57806370a08231146103cd578063715018a614610d92578063767f06ae14610d76578063780d571014610afc57806379203dc414610add5780638da5cb5b14610ab457806394bf804d1461088757806395d89b4114610783578063a9059cbb14610752578063b3d7f6b914610732578063b460af94146106a5578063ba0876521461061c578063c63d75b614610617578063c6e6f59214610273578063c9411e221461048b578063ce96cb7714610452578063d574ea3d1461040f578063d905777e146103cd578063dd62ed3e14610384578063e8d991d114610278578063ef8b30f7146102735763f2fde38b146101e1575f80fd5b3461026f57602036600319011261026f576101fa61157a565b90610203611667565b6001600160a01b03918216928315610259575050600654826bffffffffffffffffffffffff60a01b821617600655167f8be0079c531659141344cd1fd0a4f28419497f9722a3daafe3b4186f6b6457e08380a380f35b51631e4fbdf760e01b8152908101849052602490fd5b8280fd5b611600565b509190346103805781600319360112610380576007546001600160a01b0392906102a59084163314611afc565b6102ad611bd0565b809381945b60085486101561034d576102c58661161e565b905490855190634641257d60e01b8252818581888b602097889660031b1c165af191821561034357859261030f575b505061030390610309926117d4565b95611b86565b946102b2565b90809250813d831161033c575b61032681836116d7565b810103126103385751816103036102f4565b8380fd5b503d61031c565b86513d87823e3d90fd5b7feb2d114a827fe0da3db4c0e374010959cf461f7ed76987aeff51666dea9add9b602084928651908152a1600160055580f35b5080fd5b505034610380578060031936011261038057806020926103a261157a565b6103aa611590565b6001600160a01b0391821683526001865283832091168252845220549051908152f35b505034610380576020366003190112610380576020906104086103ee61157a565b6001600160a01b03165f9081526020819052604090205490565b9051908152f35b503461026f57602036600319011261026f57359160085483101561044f575061043960209261161e565b905491519160018060a01b039160031b1c168152f35b80fd5b505034610380576020366003190112610380576020916104089082906001600160a01b0361047e61157a565b16815280855220546119b7565b503461026f578160031936011261026f576104a461157a565b91602435916104b1611667565b60085490600a8210156105db576127108085116105a2576104df906104d886600a546117d4565b1115611ab0565b6801000000000000000082101561058f5750916020916105268460017feda1127dbe257a768246136b79de9d901a2a66b37e0197435f9b4c2e499095c4960160085561161e565b9560018060a01b038091169682549060031b9188831b921b191617905584865260098352818187205561055b82600a546117d4565b600a55847fe0891f411f6f2912bfe7f0d8ce9304c1017fc1a451848763f197c95a89d45dc0848351858152a251908152a280f35b634e487b7160e01b865260419052602485fd5b835162461bcd60e51b81526020818401526013602482015272082d8d8dec6c2e8d2dedc40e8dede40d0d2ced606b1b6044820152606490fd5b606490602084519162461bcd60e51b8352820152601660248201527513585e081cdd1c985d1959da595cc81c995858da195960521b6044820152fd5b6115a6565b50823461044f57829061062e366115cb565b6001600160a01b038116845260208490529590922054909493908086116106705750508361066a916106616020966119b7565b94859133611db0565b51908152f35b9251632e52afbb60e21b81526001600160a01b0390941690840190815260208101949094525060408301529081906060010390fd5b50829034610380576106db9183916106bc366115cb565b6001600160a01b038116855260208590529690932054909594906119b7565b8086116106fd57505061066a90846106f4602096611933565b94859233611db0565b9251633fa733bb60e21b81526001600160a01b0390941690840190815260208101949094525060408301529081906060010390fd5b50913461044f57602036600319011261044f57506104086020923561198c565b50503461038057806003193601126103805760209061077c61077261157a565b60243590336116f9565b5160018152f35b50919034610380578160031936011261038057805191809380549160019083821c9282851694851561087d575b602095868610811461086a5785895290811561084657506001146107ee575b6107ea87876107e0828c03836116d7565b5191829182611509565b0390f35b81529295507f8a35acfbc15ff81a39ae7d344fd709f28e8600b4aa8c65c6b64bfe7fe36bd19b5b82841061083357505050826107ea946107e092820101945f806107cf565b8054868501880152928601928101610815565b60ff19168887015250505050151560051b83010192506107e0826107ea5f806107cf565b634e487b7160e01b845260228352602484fd5b93607f16936107b0565b50903461026f578060031936011261026f578135926108a4611590565b906108ae8561198c565b936108be60ff600b541615611b48565b60018060a01b0391827f000000000000000000000000000000000000000000000000000000000000000016938551906020986323b872dd60e01b8a84015261092660249333858201523060448201528a606482015260648152610920816116bb565b88611d3e565b858216918215610a9e578161093a916117f5565b8751908982528a8201527fdcbc1c05240f31ff3ad067ef1ee35ce4997762752e3a095284754544f4c709d7883392a3815b600854811015610a95578461097f8261161e565b919054600392831b1c1684526009808b52888520546109a9575b50506109a490611b86565b61096b565b866109b38461161e565b905490841b1c1685528a526127106109ce898620548b612150565b04908115610999576109f182886109e48661161e565b905490851b1c168a6120fe565b866109fb8461161e565b905490831b1c16803b15610a9157858091868c518094819363b6b55f2560e01b8352888d8401525af18015610a8757886109a49594937fc6f6f91a48277d76f232cc08a9a30f6b05b3fd9b92c3180c25936e17a22a1025938f93610a78575b50610a648661161e565b9054911b1c16928b51908152a2905f610999565b610a8190611693565b5f610a5a565b8a513d88823e3d90fd5b8580fd5b88888851908152f35b885163ec442f0560e01b81528087018690528490fd5b50503461038057816003193601126103805760065490516001600160a01b039091168152602090f35b505034610380578160031936011261038057602090600a549051908152f35b503461026f576020806003193601126103385767ffffffffffffffff8235818111610a915736602382011215610a915780840135918211610a915760248101918060051b916024833692010111610d72576007546001600160a01b039590610b679087163314611afc565b610b7660ff600b541615611b48565b610b7e611bd0565b6008548203610d2f575086875b828110610c9c5750610ba1612710821115611ab0565b600a55610bac612195565b60085495610bb987611ba4565b95610bc6825197886116d7565b878752610bd288611ba4565b8787019890601f1901368a37895b818110610c71575050908051968188019188525180915260608701979189905b828210610c585750505050848603848601528086526001600160fb1b0310610a915784818593857ffb313b5f9090e84f3108863e50c8eff725890aec80ef976d0cc80699bfc5923f98013701030190a1600160055580f35b835181168a529887019892870192600190910190610c00565b8083610c7f610c979361161e565b90549060031b1c16610c91828c611bbc565b52611b86565b610be0565b90610cb6610d2a91610caf848689611b94565b35906117d4565b918780610cc483878a611b94565b35610cce8461161e565b929054600393841b1c168d5260098a528b8d2055610ceb8361161e565b9054911b1c167feda1127dbe257a768246136b79de9d901a2a66b37e0197435f9b4c2e499095c488610d1e84888b611b94565b358c51908152a2611b86565b610b8b565b865162461bcd60e51b8152908101859052601a60248201527f496e76616c696420616c6c6f636174696f6e73206c656e6774680000000000006044820152606490fd5b8680fd5b50503461038057816003193601126103805760209051600a8152f35b833461044f578060031936011261044f57610dab611667565b600680546001600160a01b0319811690915581906001600160a01b03167f8be0079c531659141344cd1fd0a4f28419497f9722a3daafe3b4186f6b6457e08280a380f35b50903461026f578060031936011261026f578135610e0b611590565b93610e1582611961565b93610e2560ff600b541615611b48565b60018060a01b0391827f000000000000000000000000000000000000000000000000000000000000000016938551906020986323b872dd60e01b8a840152610e87602493338582015230604482015283606482015260648152610920816116bb565b858116908115610a9e5789610e9b916117f5565b8751828152898b8201527fdcbc1c05240f31ff3ad067ef1ee35ce4997762752e3a095284754544f4c709d7893392a3825b600854811015610ff35785610ee08261161e565b919054600392831b1c1685526009808c5289862054610f0a575b5050610f0590611b86565b610ecc565b87610f148461161e565b905490841b1c1686528b52612710610f2f8a87205485612150565b04908115610efa57610f528289610f458661161e565b905490851b1c168b6120fe565b87610f5c8461161e565b905490831b1c16803b15610d72578683878a838f51958694859363b6b55f2560e01b85528401525af18015610fe95789610f059594938f92937fc6f6f91a48277d76f232cc08a9a30f6b05b3fd9b92c3180c25936e17a22a102594610fda575b50610fc68661161e565b9054911b1c16928c51908152a2905f610efa565b610fe390611693565b5f610fbc565b8b513d89823e3d90fd5b89898951908152f35b833461044f57602036600319011261044f5761101661157a565b61101e611667565b60018060a01b03166bffffffffffffffffffffffff60a01b600754161760075580f35b50903461026f57602036600319011261026f5761105c611667565b8051602081016307983f4560e21b81528335602483015260248252606082019167ffffffffffffffff92818110848211176111465784525185918291908273dc2b0d2dd2b7759d97d50db4eabdc369731108305af1903d15611140573d90811161112d578251906110d7601f8201601f1916602001836116d7565b81528460203d92013e5b156110ea578280f35b906020606492519162461bcd60e51b8352820152601860248201527f4665654d20726567697374726174696f6e206661696c656400000000000000006044820152fd5b634e487b7160e01b855260418452602485fd5b506110e1565b634e487b7160e01b875260418652602487fd5b5050346103805760203660031901126103805760209181906001600160a01b0361118161157a565b1681526009845220549051908152f35b833461044f578060031936011261044f576111aa611667565b600160ff19600b541617600b5580f35b611550565b833461044f578060031936011261044f576111d8611667565b60ff19600b5416600b5580f35b50503461038057816003193601126103805760075490516001600160a01b039091168152602090f35b505034610380578160031936011261038057517f00000000000000000000000000000000000000000000000000000000000000006001600160a01b03168152602090f35b5091903461038057816003193601126103805760ff7f0000000000000000000000000000000000000000000000000000000000000000169160ff831161129c576020838351908152f35b634e487b7160e01b815260118452602490fd5b50503461038057816003193601126103805760209060ff600b541690519015158152f35b5050346103805760603660031901126103805760209061077c6112f461157a565b6112fc611590565b6044359161130b833383611862565b6116f9565b5050346103805781600319360112610380576020906002549051908152f35b50913461044f57602036600319011261044f575061040860209235611933565b503461026f578160031936011261026f5761136861157a565b6024359033156113e1576001600160a01b03169182156113ca57508083602095338152600187528181208582528752205582519081527f8c5be1e5ebec7d5bd14f71427d1e84f3dd0314c0f7b2291e5b200ac8c7c3b925843392a35160018152f35b8351634a1406b160e11b8152908101859052602490fd5b835163e602df0560e01b8152808401869052602490fd5b50903461026f578260031936011261026f57805191836003549060019082821c9282811680156114e2575b60209586861082146114cf57508488529081156114ad5750600114611454575b6107ea86866107e0828b03836116d7565b929550600383527fc2575a0e9e593c00f959f8c92f12db2869c3395a3b0502d05e2516446f71f85b5b82841061149a57505050826107ea946107e092820101945f611443565b805486850188015292860192810161147d565b60ff191687860152505050151560051b83010192506107e0826107ea5f611443565b634e487b7160e01b845260229052602483fd5b93607f1693611423565b505034610380578160031936011261038057602090610408611bf3565b602080825282518183018190529093925f5b82811061153c57505060409293505f838284010152601f8019910116010190565b81810186015184820160400152850161151b565b3461157657602036600319011261157657602061156e6004356119b7565b604051908152f35b5f80fd5b600435906001600160a01b038216820361157657565b602435906001600160a01b038216820361157657565b34611576576020366003190112611576576115bf61157a565b5060206040515f198152f35b606090600319011261157657600435906001600160a01b03906024358281168103611576579160443590811681036115765790565b3461157657602036600319011261157657602061156e600435611961565b6008548110156116535760085f527ff3f7a9fe364faab93b216da50a3214154f22a0a2b415b23a84c8169e8b636ee301905f90565b634e487b7160e01b5f52603260045260245ffd5b6006546001600160a01b0316330361167b57565b60405163118cdaa760e01b8152336004820152602490fd5b67ffffffffffffffff81116116a757604052565b634e487b7160e01b5f52604160045260245ffd5b60a0810190811067ffffffffffffffff8211176116a757604052565b90601f8019910116810190811067ffffffffffffffff8211176116a757604052565b916001600160a01b038084169283156117bc57169283156117a4575f9083825281602052604082205490838210611772575091604082827fddf252ad1be2c89b69c2b068fc378daa952ba7f163c4a11628f55a4df523b3ef958760209652828652038282205586815220818154019055604051908152a3565b60405163391434e360e21b81526001600160a01b03919091166004820152602481019190915260448101839052606490fd5b60405163ec442f0560e01b81525f6004820152602490fd5b604051634b637e8f60e11b81525f6004820152602490fd5b919082018092116117e157565b634e487b7160e01b5f52601160045260245ffd5b7fddf252ad1be2c89b69c2b068fc378daa952ba7f163c4a11628f55a4df523b3ef60205f92611826856002546117d4565b6002556001600160a01b0316938415841461184d5780600254036002555b604051908152a3565b84845283825260408420818154019055611844565b9160018060a01b03809316915f9383855260016020526040938486209183169182875260205284862054925f19841061189f575b50505050505050565b848410611903575080156118eb5781156118d35785526001602052838520908552602052039120555f808080808080611896565b8451634a1406b160e11b815260048101879052602490fd5b845163e602df0560e01b815260048101879052602490fd5b8551637dc7a0d960e11b81526001600160a01b039190911660048201526024810184905260448101859052606490fd5b600254600181018091116117e157611949611bf3565b90600182018092116117e15761195e926119e2565b90565b600254600181018091116117e157611977611bf3565b90600182018092116117e15761195e92611a16565b611994611bf3565b600181018091116117e15760025490600182018092116117e15761195e926119e2565b6119bf611bf3565b600181018091116117e15760025490600182018092116117e15761195e92611a16565b916119ee818385611a16565b918115611a025761195e93091515906117d4565b634e487b7160e01b5f52601260045260245ffd5b90915f198383099280830292838086109503948086039514611aa25784831115611a8a5790829109815f038216809204600280826003021880830282030280830282030280830282030280830282030280830282030280920290030293600183805f03040190848311900302920304170290565b82634e487b715f52156003026011186020526024601cfd5b505080925015611a02570490565b15611ab757565b60405162461bcd60e51b815260206004820152601960248201527f546f74616c20616c6c6f636174696f6e206578636565646564000000000000006044820152606490fd5b15611b0357565b60405162461bcd60e51b815260206004820152601f60248201527f4e6f7420617574686f72697a6564207374726174656779206d616e61676572006044820152606490fd5b15611b4f57565b60405162461bcd60e51b815260206004820152600f60248201526e15985d5b1d081a5cc81c185d5cd959608a1b6044820152606490fd5b5f1981146117e15760010190565b91908110156116535760051b0190565b67ffffffffffffffff81116116a75760051b60200190565b80518210156116535760209160051b010190565b600260055414611be1576002600555565b604051633ee5aeb560e01b8152600490fd5b604080516370a0823160e01b81523060048083019190915292916001600160a01b03919060209081836024817f000000000000000000000000000000000000000000000000000000000000000088165afa928315611d34575f93611d05575b5092905f938492600854925b838510611c7557505050505061195e9293506117d4565b909192939582828a611c868a61161e565b91905491885194859384926278744560e21b845260031b1c165afa908115611cfb575f91611ccc575b50611cbd90611cc3926117d4565b96611b86565b93929190611c5e565b908382813d8311611cf4575b611ce281836116d7565b8101031261044f575051611cc3611caf565b503d611cd8565b85513d5f823e3d90fd5b90928282813d8311611d2d575b611d1c81836116d7565b8101031261044f575051915f611c52565b503d611d12565b50513d5f823e3d90fd5b905f602091828151910182855af115611d98575f513d611d8f57506001600160a01b0381163b155b611d6d5750565b604051635274afe760e01b81526001600160a01b039091166004820152602490fd5b60011415611d66565b6040513d5f823e3d90fd5b919082039182116117e157565b6040516370a0823160e01b8152306004820152929490926020816024817f00000000000000000000000000000000000000000000000000000000000000006001600160a01b03165afa908115611d98575f916120cc575b50808511611f3b575b506001600160a01b03858116959084169382878603611f2a575b505085156117bc57855f525f60205260405f205490828210611ef8575091816040927ffbde797d201c681b91056529119e0b02407c7bb96a4a2c75c01fc9667232c8db94885f525f60205203835f205580600254036002555f877fddf252ad1be2c89b69c2b068fc378daa952ba7f163c4a11628f55a4df523b3ef60208651858152a3611ee186837f00000000000000000000000000000000000000000000000000000000000000006001600160a01b03166120fe565b825195865260208601526001600160a01b031693a4565b60405163391434e360e21b81526001600160a01b03919091166004820152602481019190915260448101829052606490fd5b611f349183611862565b5f82611e2a565b611f4c908593979596949296611da3565b955f5b6008548110806120c3575b156120b6576020611f6a8261161e565b90546040516278744560e21b815292918391600491839160039190911b1c6001600160a01b03165afa908115611d98575f91612084575b5080611fb7575b50611fb290611b86565b611f4f565b9097908082111561207c57975b611fcd8161161e565b905460039190911b1c6001600160a01b0316803b15611576575f809160248c6040519485938492632e1a7d4d60e01b845260048401525af18015611d9857611fb293612020928c9261206d575b50611da3565b987fd5ad0f046bd35f48b421a3e575435de38cea1980177b1c6da935d2f26049f3fa602061204d8461161e565b905460405194855260039190911b1c6001600160a01b031692a290611fa8565b61207690611693565b5f61201a565b508097611fc4565b906020823d6020116120ae575b8161209e602093836116d7565b8101031261044f5750515f611fa1565b3d9150612091565b509193955091935f611e10565b50871515611f5a565b906020823d6020116120f6575b816120e6602093836116d7565b8101031261044f5750515f611e07565b3d91506120d9565b60405163a9059cbb60e01b60208201526001600160a01b039092166024830152604480830193909352918152608081019167ffffffffffffffff8311828410176116a75761214e92604052611d3e565b565b818102929181159184041417156117e157565b9061216d82611ba4565b61217a60405191826116d7565b828152809261218b601f1991611ba4565b0190602036910137565b604080516370a0823160e01b8152306004808301919091526001600160a01b037f0000000000000000000000000000000000000000000000000000000000000000811694939260209260249291848185818b5afa9081156125ec575f916125bf575b5080916008549788156125b35761220d89612163565b925f80915b8b83106125245761222392506117d4565b908115612517576122338a612163565b915f5b8b81106124db5750505f5b8a81106123c957505f5b8a8110806123c0575b156123b2576122638186611bbc565b5161226e8285611bbc565b5111612283575b61227e90611b86565b61224b565b866122a36122918386611bbc565b5161229c8489611bbc565b5190611da3565b8781116123ab575b8d816122ba575b505050612275565b816122dc916122cc869b94959b61161e565b9b905460039c8d1b1c16906120fe565b886122e68461161e565b9054908a1b1c16803b15611576575f80918c8f518094819363b6b55f2560e01b8352888d8401525af180156123a157838b8f948f9396612372917fc6f6f91a48277d76f232cc08a9a30f6b05b3fd9b92c3180c25936e17a22a10259661227e9a99612392575b508d61236c8a612366856123608386611bbc565b516117d4565b92611bbc565b52611da3565b9b61237c8761161e565b9054911b1c169351908152a29050865f8d6122b2565b61239b90611693565b5f61234c565b8d513d5f823e3d90fd5b50866122ab565b509950505050505050505050565b50851515612254565b6123d38186611bbc565b516123de8285611bbc565b51106123f3575b6123ee90611b86565b612241565b8661240c6124018388611bbc565b5161229c8487611bbc565b80612419575b50506123e5565b90966124248361161e565b9890546003998a1b1c16803b15611576575f80918c8f5180948193632e1a7d4d60e01b8352888d8401525af180156123a157838b8f948f93966124ad917fd5ad0f046bd35f48b421a3e575435de38cea1980177b1c6da935d2f26049f3fa966123ee9a996124cc575b508d6124a78a612366856124a18386611bbc565b51611da3565b526117d4565b9b6124b78761161e565b9054911b1c169351908152a29050865f612412565b6124d590611693565b5f61248d565b80886124e96125129361161e565b90549060031b1c165f5260098b526127106125078d5f205485612150565b04610c918287611bbc565b612236565b9950505050505050505050565b90878a8c876125328761161e565b905492516278744560e21b8152948593849260031b1c165afa9081156125a9575f9161257a575b50806125739261256d926124a7878b611bbc565b92611b86565b9190612212565b908b82813d83116125a2575b61259081836116d7565b8101031261044f575051612573612559565b503d612586565b8c513d5f823e3d90fd5b98505050505050505050565b908582813d83116125e5575b6125d581836116d7565b8101031261044f5750515f6121f7565b503d6125cb565b86513d5f823e3d90fdfea2646970667358221220e8335ce1416fd808b8df84825ff8a4da6b17d286a64ba7685e83cdaab7eab1b064736f6c63430008140033","linkReferences":{}},"methodIdentifiers":{"MAX_STRATEGIES()":"767f06ae","addStrategy(address,uint256)":"c9411e22","allocations(address)":"52a9039c","allowance(address,address)":"dd62ed3e","approve(address,uint256)":"095ea7b3","asset()":"38d52e0f","balanceOf(address)":"70a08231","convertToAssets(uint256)":"07a2d13a","convertToShares(uint256)":"c6e6f592","decimals()":"313ce567","deposit(uint256,address)":"6e553f65","emergencyPause()":"51858e27","emergencyPaused()":"27c830a9","harvestYield()":"e8d991d1","maxDeposit(address)":"402d267d","maxMint(address)":"c63d75b6","maxRedeem(address)":"d905777e","maxWithdraw(address)":"ce96cb77","mint(uint256,address)":"94bf804d","name()":"06fdde03","owner()":"8da5cb5b","previewDeposit(uint256)":"ef8b30f7","previewMint(uint256)":"b3d7f6b9","previewRedeem(uint256)":"4cdad506","previewWithdraw(uint256)":"0a28a477","rebalance(uint256[])":"780d5710","redeem(uint256,address,address)":"ba087652","registerMe(uint256)":"55af8535","renounceOwnership()":"715018a6","setStrategyManager(address)":"5c966646","strategies(uint256)":"d574ea3d","strategyManager()":"39b70e38","symbol()":"95d89b41","totalAllocation()":"79203dc4","totalAssets()":"01e1d114","totalSupply()":"18160ddd","transfer(address,uint256)":"a9059cbb","transferFrom(address,address,uint256)":"23b872dd","transferOwnership(address)":"f2fde38b","unpause()":"3f4ba83a","withdraw(uint256,address,address)":"b460af94"},"id":45}