{"abi":[{"type":"constructor","inputs":[{"name":"_wSToken","type":"address","internalType":"address"},{"name":"_vault","type":"address","internalType":"address"},{"name":"_lendingAdapter","type":"address","internalType":"address"},{"name":"_ringsAdapter","type":"address","internalType":"address"},{"name":"_usdc","type":"address","internalType":"address"},{"name":"_borrowRatio","type":"uint256","internalType":"uint256"}],"stateMutability":"nonpayable"},{"type":"function","name":"ASSET","inputs":[],"outputs":[{"name":"","type":"address","internalType":"contract IERC20"}],"stateMutability":"view"},{"type":"function","name":"BORROW_RATIO","inputs":[],"outputs":[{"name":"","type":"uint256","internalType":"uint256"}],"stateMutability":"view"},{"type":"function","name":"LENDING","inputs":[],"outputs":[{"name":"","type":"address","internalType":"contract ILendingAdapter"}],"stateMutability":"view"},{"type":"function","name":"RINGS","inputs":[],"outputs":[{"name":"","type":"address","internalType":"contract IRingsAdapter"}],"stateMutability":"view"},{"type":"function","name":"SC_USD","inputs":[],"outputs":[{"name":"","type":"address","internalType":"address"}],"stateMutability":"view"},{"type":"function","name":"USDC","inputs":[],"outputs":[{"name":"","type":"address","internalType":"address"}],"stateMutability":"view"},{"type":"function","name":"VAULT","inputs":[],"outputs":[{"name":"","type":"address","internalType":"address"}],"stateMutability":"view"},{"type":"function","name":"apy","inputs":[],"outputs":[{"name":"","type":"uint256","internalType":"uint256"}],"stateMutability":"view"},{"type":"function","name":"asset","inputs":[],"outputs":[{"name":"","type":"address","internalType":"contract IERC20"}],"stateMutability":"view"},{"type":"function","name":"deposit","inputs":[{"name":"amount","type":"uint256","internalType":"uint256"}],"outputs":[],"stateMutability":"nonpayable"},{"type":"function","name":"harvest","inputs":[],"outputs":[{"name":"","type":"uint256","internalType":"uint256"}],"stateMutability":"nonpayable"},{"type":"function","name":"owner","inputs":[],"outputs":[{"name":"","type":"address","internalType":"address"}],"stateMutability":"view"},{"type":"function","name":"renounceOwnership","inputs":[],"outputs":[],"stateMutability":"nonpayable"},{"type":"function","name":"totalAssets","inputs":[],"outputs":[{"name":"","type":"uint256","internalType":"uint256"}],"stateMutability":"view"},{"type":"function","name":"transferOwnership","inputs":[{"name":"newOwner","type":"address","internalType":"address"}],"outputs":[],"stateMutability":"nonpayable"},{"type":"function","name":"vault","inputs":[],"outputs":[{"name":"","type":"address","internalType":"address"}],"stateMutability":"view"},{"type":"function","name":"withdraw","inputs":[{"name":"amount","type":"uint256","internalType":"uint256"}],"outputs":[],"stateMutability":"nonpayable"},{"type":"event","name":"OwnershipTransferred","inputs":[{"name":"previousOwner","type":"address","indexed":true,"internalType":"address"},{"name":"newOwner","type":"address","indexed":true,"internalType":"address"}],"anonymous":false},{"type":"error","name":"OwnableInvalidOwner","inputs":[{"name":"owner","type":"address","internalType":"address"}]},{"type":"error","name":"OwnableUnauthorizedAccount","inputs":[{"name":"account","type":"address","internalType":"address"}]},{"type":"error","name":"ReentrancyGuardReentrantCall","inputs":[]},{"type":"error","name":"SafeERC20FailedOperation","inputs":[{"name":"token","type":"address","internalType":"address"}]}],"bytecode":{"object":"0x61016060405234801562000011575f80fd5b5060405162002aec38038062002aec83398181016040528101906200003791906200080d565b85853360015f819055505f73ffffffffffffffffffffffffffffffffffffffff168173ffffffffffffffffffffffffffffffffffffffff1603620000b4575f6040517f1e4fbdf7000000000000000000000000000000000000000000000000000000008152600401620000ab9190620008b6565b60405180910390fd5b620000c581620006ad60201b60201c565b505f73ffffffffffffffffffffffffffffffffffffffff168273ffffffffffffffffffffffffffffffffffffffff16141580156200012f57505f73ffffffffffffffffffffffffffffffffffffffff168173ffffffffffffffffffffffffffffffffffffffff1614155b62000171576040517f08c379a000000000000000000000000000000000000000000000000000000000815260040162000168906200092f565b60405180910390fd5b8173ffffffffffffffffffffffffffffffffffffffff1660808173ffffffffffffffffffffffffffffffffffffffff16815250508073ffffffffffffffffffffffffffffffffffffffff1660a08173ffffffffffffffffffffffffffffffffffffffff168152505050505f73ffffffffffffffffffffffffffffffffffffffff168473ffffffffffffffffffffffffffffffffffffffff16141580156200024457505f73ffffffffffffffffffffffffffffffffffffffff168373ffffffffffffffffffffffffffffffffffffffff1614155b62000286576040517f08c379a00000000000000000000000000000000000000000000000000000000081526004016200027d906200099d565b60405180910390fd5b612710811115620002ce576040517f08c379a0000000000000000000000000000000000000000000000000000000008152600401620002c59062000a0b565b60405180910390fd5b8373ffffffffffffffffffffffffffffffffffffffff1660c08173ffffffffffffffffffffffffffffffffffffffff16815250508273ffffffffffffffffffffffffffffffffffffffff1660e08173ffffffffffffffffffffffffffffffffffffffff16815250508173ffffffffffffffffffffffffffffffffffffffff166101008173ffffffffffffffffffffffffffffffffffffffff168152505060e05173ffffffffffffffffffffffffffffffffffffffff16638d24974f6040518163ffffffff1660e01b8152600401602060405180830381865afa158015620003b7573d5f803e3d5ffd5b505050506040513d601f19601f82011682018060405250810190620003dd919062000a2b565b73ffffffffffffffffffffffffffffffffffffffff166101208173ffffffffffffffffffffffffffffffffffffffff16815250508061014081815250508573ffffffffffffffffffffffffffffffffffffffff1663095ea7b3857fffffffffffffffffffffffffffffffffffffffffffffffffffffffffffffffff6040518363ffffffff1660e01b81526004016200047792919062000a6c565b6020604051808303815f875af115801562000494573d5f803e3d5ffd5b505050506040513d601f19601f82011682018060405250810190620004ba919062000ad1565b508173ffffffffffffffffffffffffffffffffffffffff1663095ea7b3847fffffffffffffffffffffffffffffffffffffffffffffffffffffffffffffffff6040518363ffffffff1660e01b81526004016200051892919062000a6c565b6020604051808303815f875af115801562000535573d5f803e3d5ffd5b505050506040513d601f19601f820116820180604052508101906200055b919062000ad1565b508173ffffffffffffffffffffffffffffffffffffffff1663095ea7b3857fffffffffffffffffffffffffffffffffffffffffffffffffffffffffffffffff6040518363ffffffff1660e01b8152600401620005b992919062000a6c565b6020604051808303815f875af1158015620005d6573d5f803e3d5ffd5b505050506040513d601f19601f82011682018060405250810190620005fc919062000ad1565b506101205173ffffffffffffffffffffffffffffffffffffffff1663095ea7b3847fffffffffffffffffffffffffffffffffffffffffffffffffffffffffffffffff6040518363ffffffff1660e01b81526004016200065d92919062000a6c565b6020604051808303815f875af11580156200067a573d5f803e3d5ffd5b505050506040513d601f19601f82011682018060405250810190620006a0919062000ad1565b5050505050505062000b01565b5f60015f9054906101000a900473ffffffffffffffffffffffffffffffffffffffff1690508160015f6101000a81548173ffffffffffffffffffffffffffffffffffffffff021916908373ffffffffffffffffffffffffffffffffffffffff1602179055508173ffffffffffffffffffffffffffffffffffffffff168173ffffffffffffffffffffffffffffffffffffffff167f8be0079c531659141344cd1fd0a4f28419497f9722a3daafe3b4186f6b6457e060405160405180910390a35050565b5f80fd5b5f73ffffffffffffffffffffffffffffffffffffffff82169050919050565b5f6200079f8262000774565b9050919050565b620007b18162000793565b8114620007bc575f80fd5b50565b5f81519050620007cf81620007a6565b92915050565b5f819050919050565b620007e981620007d5565b8114620007f4575f80fd5b50565b5f815190506200080781620007de565b92915050565b5f805f805f8060c087890312156200082a576200082962000770565b5b5f6200083989828a01620007bf565b96505060206200084c89828a01620007bf565b95505060406200085f89828a01620007bf565b94505060606200087289828a01620007bf565b93505060806200088589828a01620007bf565b92505060a06200089889828a01620007f7565b9150509295509295509295565b620008b08162000793565b82525050565b5f602082019050620008cb5f830184620008a5565b92915050565b5f82825260208201905092915050565b7f7a65726f206164647200000000000000000000000000000000000000000000005f82015250565b5f62000917600983620008d1565b91506200092482620008e1565b602082019050919050565b5f6020820190508181035f830152620009488162000909565b9050919050565b7f62616420616461707465727300000000000000000000000000000000000000005f82015250565b5f62000985600c83620008d1565b915062000992826200094f565b602082019050919050565b5f6020820190508181035f830152620009b68162000977565b9050919050565b7f62616420726174696f00000000000000000000000000000000000000000000005f82015250565b5f620009f3600983620008d1565b915062000a0082620009bd565b602082019050919050565b5f6020820190508181035f83015262000a2481620009e5565b9050919050565b5f6020828403121562000a435762000a4262000770565b5b5f62000a5284828501620007bf565b91505092915050565b62000a6681620007d5565b82525050565b5f60408201905062000a815f830185620008a5565b62000a90602083018462000a5b565b9392505050565b5f8115159050919050565b62000aad8162000a97565b811462000ab8575f80fd5b50565b5f8151905062000acb8162000aa2565b92915050565b5f6020828403121562000ae95762000ae862000770565b5b5f62000af88482850162000abb565b91505092915050565b60805160a05160c05160e051610100516101205161014051611e8862000c645f395f818161054b01528181610d4401528181610d80015261143e01525f818161046f0152818161070d01528181610e97015261115901525f81816103ef015281816106850152818161084b0152818161093b01528181610cc201528181610f6f0152818161119001526114ba01525f81816107af01528181610bf60152818161103401528181611135015261152601525f81816102f5015281816103b201528181610648015281816108ff015281816109c101528181610a9701528181610c8601528181610f320152818161111101528181611392015261147e01525f818161056f01528181610b5601528181610ddb01528181610e00015281816111dc015261165301525f8181610332015281816109fe01528181610ad301528181610b7801528181610bce015281816110ed015281816112b501526113ce0152611e885ff3fe608060405234801561000f575f80fd5b5060043610610109575f3560e01c806348fb27b8116100a057806389a302711161006f57806389a302711461025f5780638da5cb5b1461027d578063b6b55f251461029b578063f2fde38b146102b7578063fbfa77cf146102d357610109565b806348fb27b8146101fb5780635acfc85a146102195780636ebb16ea14610237578063715018a61461025557610109565b80633bcfc4b8116100dc5780633bcfc4b814610183578063411557d1146101a15780634641257d146101bf5780634800d97f146101dd57610109565b806301e1d1141461010d5780632022ce1e1461012b5780632e1a7d4d1461014957806338d52e0f14610165575b5f80fd5b6101156102f1565b6040516101229190611947565b60405180910390f35b610133610549565b6040516101409190611947565b60405180910390f35b610163600480360381019061015e919061198e565b61056d565b005b61016d610bcb565b60405161017a9190611a33565b60405180910390f35b61018b610bf2565b6040516101989190611947565b60405180910390f35b6101a9610dd9565b6040516101b69190611a6c565b60405180910390f35b6101c7610dfd565b6040516101d49190611947565b60405180910390f35b6101e56110eb565b6040516101f29190611a33565b60405180910390f35b61020361110f565b6040516102109190611aa5565b60405180910390f35b610221611133565b60405161022e9190611ade565b60405180910390f35b61023f611157565b60405161024c9190611a6c565b60405180910390f35b61025d61117b565b005b61026761118e565b6040516102749190611a6c565b60405180910390f35b6102856111b2565b6040516102929190611a6c565b60405180910390f35b6102b560048036038101906102b0919061198e565b6111da565b005b6102d160048036038101906102cc9190611b21565b6115cc565b005b6102db611650565b6040516102e89190611a6c565b60405180910390f35b5f807f000000000000000000000000000000000000000000000000000000000000000073ffffffffffffffffffffffffffffffffffffffff1663d8b7575d307f00000000000000000000000000000000000000000000000000000000000000006040518363ffffffff1660e01b815260040161036e929190611b4c565b602060405180830381865afa158015610389573d5f803e3d5ffd5b505050506040513d601f19601f820116820180604052508101906103ad9190611b87565b90505f7f000000000000000000000000000000000000000000000000000000000000000073ffffffffffffffffffffffffffffffffffffffff16634c4ab169307f00000000000000000000000000000000000000000000000000000000000000006040518363ffffffff1660e01b815260040161042b929190611b4c565b602060405180830381865afa158015610446573d5f803e3d5ffd5b505050506040513d601f19601f8201168201806040525081019061046a9190611b87565b90505f7f000000000000000000000000000000000000000000000000000000000000000073ffffffffffffffffffffffffffffffffffffffff166370a08231306040518263ffffffff1660e01b81526004016104c69190611a6c565b602060405180830381865afa1580156104e1573d5f803e3d5ffd5b505050506040513d601f19601f820116820180604052508101906105059190611b87565b90505f8190505f83905080828661051c9190611bdf565b11610527575f61053f565b8082866105349190611bdf565b61053e9190611c12565b5b9550505050505090565b7f000000000000000000000000000000000000000000000000000000000000000081565b7f000000000000000000000000000000000000000000000000000000000000000073ffffffffffffffffffffffffffffffffffffffff163373ffffffffffffffffffffffffffffffffffffffff16146105fb576040517f08c379a00000000000000000000000000000000000000000000000000000000081526004016105f290611c9f565b60405180910390fd5b610603611677565b5f8111610645576040517f08c379a000000000000000000000000000000000000000000000000000000000815260040161063c90611d07565b60405180910390fd5b5f7f000000000000000000000000000000000000000000000000000000000000000073ffffffffffffffffffffffffffffffffffffffff16634c4ab169307f00000000000000000000000000000000000000000000000000000000000000006040518363ffffffff1660e01b81526004016106c1929190611b4c565b602060405180830381865afa1580156106dc573d5f803e3d5ffd5b505050506040513d601f19601f820116820180604052508101906107009190611b87565b90505f8111156109be575f7f000000000000000000000000000000000000000000000000000000000000000073ffffffffffffffffffffffffffffffffffffffff166370a08231306040518263ffffffff1660e01b81526004016107649190611a6c565b602060405180830381865afa15801561077f573d5f803e3d5ffd5b505050506040513d601f19601f820116820180604052508101906107a39190611b87565b90505f811115610848577f000000000000000000000000000000000000000000000000000000000000000073ffffffffffffffffffffffffffffffffffffffff1663ca9d0200826040518263ffffffff1660e01b81526004016108069190611947565b6020604051808303815f875af1158015610822573d5f803e3d5ffd5b505050506040513d601f19601f820116820180604052508101906108469190611b87565b505b5f7f000000000000000000000000000000000000000000000000000000000000000073ffffffffffffffffffffffffffffffffffffffff166370a08231306040518263ffffffff1660e01b81526004016108a29190611a6c565b602060405180830381865afa1580156108bd573d5f803e3d5ffd5b505050506040513d601f19601f820116820180604052508101906108e19190611b87565b90505f8382116108f157816108f3565b835b90505f8111156109ba577f000000000000000000000000000000000000000000000000000000000000000073ffffffffffffffffffffffffffffffffffffffff166322867d787f0000000000000000000000000000000000000000000000000000000000000000836040518363ffffffff1660e01b8152600401610978929190611d25565b6020604051808303815f875af1158015610994573d5f803e3d5ffd5b505050506040513d601f19601f820116820180604052508101906109b89190611b87565b505b5050505b5f7f000000000000000000000000000000000000000000000000000000000000000073ffffffffffffffffffffffffffffffffffffffff1663d8b7575d307f00000000000000000000000000000000000000000000000000000000000000006040518363ffffffff1660e01b8152600401610a3a929190611b4c565b602060405180830381865afa158015610a55573d5f803e3d5ffd5b505050506040513d601f19601f82011682018060405250810190610a799190611b87565b90505f818411610a895783610a8b565b815b90505f811115610bbd577f000000000000000000000000000000000000000000000000000000000000000073ffffffffffffffffffffffffffffffffffffffff1663f3fef3a37f0000000000000000000000000000000000000000000000000000000000000000836040518363ffffffff1660e01b8152600401610b10929190611d25565b6020604051808303815f875af1158015610b2c573d5f803e3d5ffd5b505050506040513d601f19601f82011682018060405250810190610b509190611b87565b50610bbc7f0000000000000000000000000000000000000000000000000000000000000000827f000000000000000000000000000000000000000000000000000000000000000073ffffffffffffffffffffffffffffffffffffffff166116bb9092919063ffffffff16565b5b505050610bc861173a565b50565b5f7f0000000000000000000000000000000000000000000000000000000000000000905090565b5f807f000000000000000000000000000000000000000000000000000000000000000073ffffffffffffffffffffffffffffffffffffffff16631fb922e06040518163ffffffff1660e01b8152600401602060405180830381865afa158015610c5d573d5f803e3d5ffd5b505050506040513d601f19601f82011682018060405250810190610c819190611b87565b90505f7f000000000000000000000000000000000000000000000000000000000000000073ffffffffffffffffffffffffffffffffffffffff16637e27b0337f00000000000000000000000000000000000000000000000000000000000000006040518263ffffffff1660e01b8152600401610cfd9190611a6c565b602060405180830381865afa158015610d18573d5f803e3d5ffd5b505050506040513d601f19601f82011682018060405250810190610d3c9190611b87565b90505f6127107f000000000000000000000000000000000000000000000000000000000000000084610d6e9190611d4c565b610d789190611dba565b90505f6127107f000000000000000000000000000000000000000000000000000000000000000084610daa9190611d4c565b610db49190611dba565b9050808211610dc3575f610dd0565b8082610dcf9190611c12565b5b94505050505090565b7f000000000000000000000000000000000000000000000000000000000000000081565b5f7f000000000000000000000000000000000000000000000000000000000000000073ffffffffffffffffffffffffffffffffffffffff163373ffffffffffffffffffffffffffffffffffffffff1614610e8c576040517f08c379a0000000000000000000000000000000000000000000000000000000008152600401610e8390611c9f565b60405180910390fd5b610e94611677565b5f7f000000000000000000000000000000000000000000000000000000000000000073ffffffffffffffffffffffffffffffffffffffff166370a08231306040518263ffffffff1660e01b8152600401610eee9190611a6c565b602060405180830381865afa158015610f09573d5f803e3d5ffd5b505050506040513d601f19601f82011682018060405250810190610f2d9190611b87565b90505f7f000000000000000000000000000000000000000000000000000000000000000073ffffffffffffffffffffffffffffffffffffffff16634c4ab169307f00000000000000000000000000000000000000000000000000000000000000006040518363ffffffff1660e01b8152600401610fab929190611b4c565b602060405180830381865afa158015610fc6573d5f803e3d5ffd5b505050506040513d601f19601f82011682018060405250810190610fea9190611b87565b9050808211156110da575f81836110019190611c12565b9050600a826110109190611dba565b8111156110d8575f600a836110259190611dba565b826110309190611c12565b90507f000000000000000000000000000000000000000000000000000000000000000073ffffffffffffffffffffffffffffffffffffffff1663ca9d0200826040518263ffffffff1660e01b815260040161108b9190611947565b6020604051808303815f875af11580156110a7573d5f803e3d5ffd5b505050506040513d601f19601f820116820180604052508101906110cb9190611b87565b50809450505050506110e0565b505b5f925050505b6110e861173a565b90565b7f000000000000000000000000000000000000000000000000000000000000000081565b7f000000000000000000000000000000000000000000000000000000000000000081565b7f000000000000000000000000000000000000000000000000000000000000000081565b7f000000000000000000000000000000000000000000000000000000000000000081565b611183611743565b61118c5f6117ca565b565b7f000000000000000000000000000000000000000000000000000000000000000081565b5f60015f9054906101000a900473ffffffffffffffffffffffffffffffffffffffff16905090565b7f000000000000000000000000000000000000000000000000000000000000000073ffffffffffffffffffffffffffffffffffffffff163373ffffffffffffffffffffffffffffffffffffffff1614611268576040517f08c379a000000000000000000000000000000000000000000000000000000000815260040161125f90611c9f565b60405180910390fd5b611270611677565b5f81116112b2576040517f08c379a00000000000000000000000000000000000000000000000000000000081526004016112a990611d07565b60405180910390fd5b5f7f000000000000000000000000000000000000000000000000000000000000000073ffffffffffffffffffffffffffffffffffffffff166370a08231306040518263ffffffff1660e01b815260040161130c9190611a6c565b602060405180830381865afa158015611327573d5f803e3d5ffd5b505050506040513d601f19601f8201168201806040525081019061134b9190611b87565b905081811015611390576040517f08c379a000000000000000000000000000000000000000000000000000000000815260040161138790611e34565b60405180910390fd5b7f000000000000000000000000000000000000000000000000000000000000000073ffffffffffffffffffffffffffffffffffffffff166347e7ef247f0000000000000000000000000000000000000000000000000000000000000000846040518363ffffffff1660e01b815260040161140b929190611d25565b5f604051808303815f87803b158015611422575f80fd5b505af1158015611434573d5f803e3d5ffd5b505050505f6127107f0000000000000000000000000000000000000000000000000000000000000000846114689190611d4c565b6114729190611dba565b90505f8111156115bf577f000000000000000000000000000000000000000000000000000000000000000073ffffffffffffffffffffffffffffffffffffffff16634b8a35297f0000000000000000000000000000000000000000000000000000000000000000836040518363ffffffff1660e01b81526004016114f7929190611d25565b5f604051808303815f87803b15801561150e575f80fd5b505af1158015611520573d5f803e3d5ffd5b505050507f000000000000000000000000000000000000000000000000000000000000000073ffffffffffffffffffffffffffffffffffffffff166382e7c3f5826040518263ffffffff1660e01b815260040161157d9190611947565b6020604051808303815f875af1158015611599573d5f803e3d5ffd5b505050506040513d601f19601f820116820180604052508101906115bd9190611b87565b505b50506115c961173a565b50565b6115d4611743565b5f73ffffffffffffffffffffffffffffffffffffffff168173ffffffffffffffffffffffffffffffffffffffff1603611644575f6040517f1e4fbdf700000000000000000000000000000000000000000000000000000000815260040161163b9190611a6c565b60405180910390fd5b61164d816117ca565b50565b5f7f0000000000000000000000000000000000000000000000000000000000000000905090565b60025f54036116b2576040517f3ee5aeb500000000000000000000000000000000000000000000000000000000815260040160405180910390fd5b60025f81905550565b611735838473ffffffffffffffffffffffffffffffffffffffff1663a9059cbb85856040516024016116ee929190611d25565b604051602081830303815290604052915060e01b6020820180517bffffffffffffffffffffffffffffffffffffffffffffffffffffffff838183161783525050505061188d565b505050565b60015f81905550565b61174b611928565b73ffffffffffffffffffffffffffffffffffffffff166117696111b2565b73ffffffffffffffffffffffffffffffffffffffff16146117c85761178c611928565b6040517f118cdaa70000000000000000000000000000000000000000000000000000000081526004016117bf9190611a6c565b60405180910390fd5b565b5f60015f9054906101000a900473ffffffffffffffffffffffffffffffffffffffff1690508160015f6101000a81548173ffffffffffffffffffffffffffffffffffffffff021916908373ffffffffffffffffffffffffffffffffffffffff1602179055508173ffffffffffffffffffffffffffffffffffffffff168173ffffffffffffffffffffffffffffffffffffffff167f8be0079c531659141344cd1fd0a4f28419497f9722a3daafe3b4186f6b6457e060405160405180910390a35050565b5f8060205f8451602086015f885af1806118ac576040513d5f823e3d81fd5b3d92505f519150505f82146118c55760018114156118e0565b5f8473ffffffffffffffffffffffffffffffffffffffff163b145b1561192257836040517f5274afe70000000000000000000000000000000000000000000000000000000081526004016119199190611a6c565b60405180910390fd5b50505050565b5f33905090565b5f819050919050565b6119418161192f565b82525050565b5f60208201905061195a5f830184611938565b92915050565b5f80fd5b61196d8161192f565b8114611977575f80fd5b50565b5f8135905061198881611964565b92915050565b5f602082840312156119a3576119a2611960565b5b5f6119b08482850161197a565b91505092915050565b5f73ffffffffffffffffffffffffffffffffffffffff82169050919050565b5f819050919050565b5f6119fb6119f66119f1846119b9565b6119d8565b6119b9565b9050919050565b5f611a0c826119e1565b9050919050565b5f611a1d82611a02565b9050919050565b611a2d81611a13565b82525050565b5f602082019050611a465f830184611a24565b92915050565b5f611a56826119b9565b9050919050565b611a6681611a4c565b82525050565b5f602082019050611a7f5f830184611a5d565b92915050565b5f611a8f82611a02565b9050919050565b611a9f81611a85565b82525050565b5f602082019050611ab85f830184611a96565b92915050565b5f611ac882611a02565b9050919050565b611ad881611abe565b82525050565b5f602082019050611af15f830184611acf565b92915050565b611b0081611a4c565b8114611b0a575f80fd5b50565b5f81359050611b1b81611af7565b92915050565b5f60208284031215611b3657611b35611960565b5b5f611b4384828501611b0d565b91505092915050565b5f604082019050611b5f5f830185611a5d565b611b6c6020830184611a5d565b9392505050565b5f81519050611b8181611964565b92915050565b5f60208284031215611b9c57611b9b611960565b5b5f611ba984828501611b73565b91505092915050565b7f4e487b71000000000000000000000000000000000000000000000000000000005f52601160045260245ffd5b5f611be98261192f565b9150611bf48361192f565b9250828201905080821115611c0c57611c0b611bb2565b5b92915050565b5f611c1c8261192f565b9150611c278361192f565b9250828203905081811115611c3f57611c3e611bb2565b5b92915050565b5f82825260208201905092915050565b7f4f6e6c79207661756c74000000000000000000000000000000000000000000005f82015250565b5f611c89600a83611c45565b9150611c9482611c55565b602082019050919050565b5f6020820190508181035f830152611cb681611c7d565b9050919050565b7f7a65726f20616d6f756e740000000000000000000000000000000000000000005f82015250565b5f611cf1600b83611c45565b9150611cfc82611cbd565b602082019050919050565b5f6020820190508181035f830152611d1e81611ce5565b9050919050565b5f604082019050611d385f830185611a5d565b611d456020830184611938565b9392505050565b5f611d568261192f565b9150611d618361192f565b9250828202611d6f8161192f565b91508282048414831517611d8657611d85611bb2565b5b5092915050565b7f4e487b71000000000000000000000000000000000000000000000000000000005f52601260045260245ffd5b5f611dc48261192f565b9150611dcf8361192f565b925082611ddf57611dde611d8d565b5b828204905092915050565b7f696e73756666696369656e7420775300000000000000000000000000000000005f82015250565b5f611e1e600f83611c45565b9150611e2982611dea565b602082019050919050565b5f6020820190508181035f830152611e4b81611e12565b905091905056fea26469706673582212203713b6c2662da87de969660b3311c15d246bbf8ef30e9cbaedd9748e540b19ed64736f6c63430008140033","linkReferences":{}},"methodIdentifiers":{"ASSET()":"4800d97f","BORROW_RATIO()":"2022ce1e","LENDING()":"48fb27b8","RINGS()":"5acfc85a","SC_USD()":"6ebb16ea","USDC()":"89a30271","VAULT()":"411557d1","apy()":"3bcfc4b8","asset()":"38d52e0f","deposit(uint256)":"b6b55f25","harvest()":"4641257d","owner()":"8da5cb5b","renounceOwnership()":"715018a6","totalAssets()":"01e1d114","transferOwnership(address)":"f2fde38b","vault()":"fbfa77cf","withdraw(uint256)":"2e1a7d4d"},"id":54}