{"abi":[{"type":"constructor","inputs":[{"name":"_wSToken","type":"address","internalType":"address"},{"name":"_vault","type":"address","internalType":"address"},{"name":"_lendingAdapter","type":"address","internalType":"address"},{"name":"_ringsAdapter","type":"address","internalType":"address"},{"name":"_usdc","type":"address","internalType":"address"},{"name":"_borrowRatio","type":"uint256","internalType":"uint256"}],"stateMutability":"nonpayable"},{"type":"function","name":"ASSET","inputs":[],"outputs":[{"name":"","type":"address","internalType":"contract IERC20"}],"stateMutability":"view"},{"type":"function","name":"BORROW_RATIO","inputs":[],"outputs":[{"name":"","type":"uint256","internalType":"uint256"}],"stateMutability":"view"},{"type":"function","name":"LENDING","inputs":[],"outputs":[{"name":"","type":"address","internalType":"contract ILendingAdapter"}],"stateMutability":"view"},{"type":"function","name":"RINGS","inputs":[],"outputs":[{"name":"","type":"address","internalType":"contract IRingsAdapter"}],"stateMutability":"view"},{"type":"function","name":"SC_USD","inputs":[],"outputs":[{"name":"","type":"address","internalType":"address"}],"stateMutability":"view"},{"type":"function","name":"USDC","inputs":[],"outputs":[{"name":"","type":"address","internalType":"address"}],"stateMutability":"view"},{"type":"function","name":"VAULT","inputs":[],"outputs":[{"name":"","type":"address","internalType":"address"}],"stateMutability":"view"},{"type":"function","name":"apy","inputs":[],"outputs":[{"name":"","type":"uint256","internalType":"uint256"}],"stateMutability":"view"},{"type":"function","name":"asset","inputs":[],"outputs":[{"name":"","type":"address","internalType":"contract IERC20"}],"stateMutability":"view"},{"type":"function","name":"components","inputs":[],"outputs":[{"name":"asset","type":"address","internalType":"address"},{"name":"schemaVersion","type":"uint8","internalType":"uint8"},{"name":"comps","type":"tuple[]","internalType":"struct IStrategyIntrospection.Component[]","components":[{"name":"kind","type":"uint8","internalType":"enum IStrategyIntrospection.ComponentKind"},{"name":"adapter","type":"address","internalType":"address"},{"name":"token0","type":"address","internalType":"address"},{"name":"token1","type":"address","internalType":"address"},{"name":"pool","type":"address","internalType":"address"},{"name":"gauge","type":"address","internalType":"address"},{"name":"extra","type":"bytes","internalType":"bytes"}]}],"stateMutability":"view"},{"type":"function","name":"deposit","inputs":[{"name":"amount","type":"uint256","internalType":"uint256"}],"outputs":[],"stateMutability":"nonpayable"},{"type":"function","name":"harvest","inputs":[],"outputs":[{"name":"","type":"uint256","internalType":"uint256"}],"stateMutability":"nonpayable"},{"type":"function","name":"owner","inputs":[],"outputs":[{"name":"","type":"address","internalType":"address"}],"stateMutability":"view"},{"type":"function","name":"registerMe","inputs":[{"name":"projectId","type":"uint256","internalType":"uint256"}],"outputs":[],"stateMutability":"nonpayable"},{"type":"function","name":"renounceOwnership","inputs":[],"outputs":[],"stateMutability":"nonpayable"},{"type":"function","name":"totalAssets","inputs":[],"outputs":[{"name":"","type":"uint256","internalType":"uint256"}],"stateMutability":"view"},{"type":"function","name":"transferOwnership","inputs":[{"name":"newOwner","type":"address","internalType":"address"}],"outputs":[],"stateMutability":"nonpayable"},{"type":"function","name":"vault","inputs":[],"outputs":[{"name":"","type":"address","internalType":"address"}],"stateMutability":"view"},{"type":"function","name":"withdraw","inputs":[{"name":"amount","type":"uint256","internalType":"uint256"}],"outputs":[],"stateMutability":"nonpayable"},{"type":"event","name":"OwnershipTransferred","inputs":[{"name":"previousOwner","type":"address","indexed":true,"internalType":"address"},{"name":"newOwner","type":"address","indexed":true,"internalType":"address"}],"anonymous":false},{"type":"event","name":"StrategyComponent","inputs":[{"name":"strategy","type":"address","indexed":true,"internalType":"address"},{"name":"kind","type":"uint8","indexed":false,"internalType":"enum IStrategyIntrospection.ComponentKind"},{"name":"adapter","type":"address","indexed":false,"internalType":"address"},{"name":"token0","type":"address","indexed":false,"internalType":"address"},{"name":"token1","type":"address","indexed":false,"internalType":"address"},{"name":"pool","type":"address","indexed":false,"internalType":"address"},{"name":"gauge","type":"address","indexed":false,"internalType":"address"},{"name":"extra","type":"bytes","indexed":false,"internalType":"bytes"}],"anonymous":false},{"type":"event","name":"StrategyConfigured","inputs":[{"name":"strategy","type":"address","indexed":true,"internalType":"address"},{"name":"asset","type":"address","indexed":false,"internalType":"address"},{"name":"schemaVersion","type":"uint8","indexed":false,"internalType":"uint8"}],"anonymous":false},{"type":"error","name":"OwnableInvalidOwner","inputs":[{"name":"owner","type":"address","internalType":"address"}]},{"type":"error","name":"OwnableUnauthorizedAccount","inputs":[{"name":"account","type":"address","internalType":"address"}]},{"type":"error","name":"ReentrancyGuardReentrantCall","inputs":[]},{"type":"error","name":"SafeERC20FailedOperation","inputs":[{"name":"token","type":"address","internalType":"address"}]}],"bytecode":{"object":"0x610160604081815234620004e55760c08262001cba8038038091620000258285620004e9565b833981010312620004e5576200003b8262000521565b916020916200004c83830162000521565b926200005a82840162000521565b93620000696060850162000521565b9460a06200007a6080870162000521565b950151945f91600183553315620004cd5760018054336001600160a01b03198216811790925587516001600160a01b039b9096928c9283167f8be0079c531659141344cd1fd0a4f28419497f9722a3daafe3b4186f6b6457e08880a3169485151580620004c1575b15620004935750608085905260a0528816968715158062000487575b1562000454576127108711620004245788908860c05216908160e05261010098818a52865198638d24974f60e01b8a52868a600481875afa998a156200038957859a620003e1575b50610120998a5261014098895287519263095ea7b360e01b9384815282600482015288816044818a5f199c8d60248401525af18015620003b55790849291620003bf575b501690885184815285600482015287602482015288816044818a875af18015620003b557899288949260449262000393575b508b51948593849289845260048401528b60248401525af18015620003895760449288959492879262000367575b508b5116895197889586948552600485015260248401525af19081156200035c575062000327575b5050519161176993846200055185396080518481816101a1015281816104d901528181610cee0152818161111b01526112fb015260a05184818161048a01528181610a1a01528181610c14015261133f015260c0518481816101fb0152818161051e015281816109cd01528181610b0701528181610c980152818161114601526115a3015260e05184818161029f015281816106460152818161088f01528181610a9401528181610feb015261162201525183818161022b015281816105d7015281816107ab01528181610ad701528181610c6801528181611194015261156e01525182818161084b01528181610ead015281816111fb015261152801525181818161058d01528181610b3d01526110ce0152f35b816200034b92903d1062000354575b620003428183620004e9565b81019062000536565b505f8062000212565b503d62000336565b8451903d90823e3d90fd5b6200038190873d89116200035457620003428183620004e9565b505f620001ea565b88513d87823e3d90fd5b620003ad90853d87116200035457620003428183620004e9565b505f620001bc565b8a513d89823e3d90fd5b620003d9908a3d8c116200035457620003428183620004e9565b505f6200018a565b9099508681813d83116200041c575b620003fc8183620004e9565b810103126200041857620004109062000521565b985f62000146565b8480fd5b503d620003f0565b855162461bcd60e51b815260048101869052600960248201526862616420726174696f60b81b6044820152606490fd5b855162461bcd60e51b815260048101869052600c60248201526b62616420616461707465727360a01b6044820152606490fd5b508881161515620000fe565b62461bcd60e51b81526004810187905260096024820152683d32b9379030b2323960b91b6044820152606490fd5b508a82161515620000e2565b8551631e4fbdf760e01b815260048101849052602490fd5b5f80fd5b601f909101601f19168101906001600160401b038211908210176200050d57604052565b634e487b7160e01b5f52604160045260245ffd5b51906001600160a01b0382168203620004e557565b90816020910312620004e557518015158103620004e5579056fe6080806040526004361015610012575f80fd5b5f803560e01c91826301e1d114146110f1575081632022ce1e146110b75781632e1a7d4d14610bf357816338d52e0f146109fc5781633bcfc4b814610a64578163411557d1146100ef5781634641257d14610a015781634800d97f146109fc57816348fb27b8146109b857816355af8535146108be5781635acfc85a1461087a5781636ebb16ea14610836578163715018a6146107da57816389a30271146107965781638da5cb5b1461076e578163b6b55f2514610465578163ba62fbe41461018b578163f2fde38b146100f4575063fbfa77cf146100ef575f80fd5b61132a565b34610188576020366003190112610188576004356001600160a01b03818116918290036101845761012361136e565b811561016b57600154826bffffffffffffffffffffffff60a01b821617600155167f8be0079c531659141344cd1fd0a4f28419497f9722a3daafe3b4186f6b6457e05f80a380f35b604051631e4fbdf760e01b815260048101849052602490fd5b8280fd5b80fd5b34610188578060031936011261018857604051907f00000000000000000000000000000000000000000000000000000000000000006001600160a01b03166101d283611451565b60028352815b604081106104245750826040516101ee81611435565b8381526001600160a01b037f00000000000000000000000000000000000000000000000000000000000000008116602083015260408083018590527f000000000000000000000000000000000000000000000000000000000000000090911660608301526080820185905260a082018590525161026a8161146d565b84815260c082015261027b82611702565b5261028581611702565b5060405161029281611435565b6002815260018060a01b037f00000000000000000000000000000000000000000000000000000000000000001660208201528360408201528360608201528360808201528360a08201526040516102e88161146d565b84815260c08201526102f982611723565b5261030381611723565b506040519160608301908352600160208401526060604084015281518091526080830193602060808360051b860101930194815b8383106103445785850386f35b90919293607f198682030183528651805160078110156104105782526020808201516001600160a01b039081169184019190915260408083015182169084015260608083015182169084015260808083015182169084015260a0808301519091169083015260c09081015160e09183018290528051918301829052909190835b8381106103f9575050808201610100908101849052602098890198601f909301601f1916909101019493600101920190610337565b8060208092840101516101008286010152016103c4565b634e487b7160e01b84526021600452602484fd5b60209060405161043381611435565b848152828581830152856040830152606086818401528660808401528660a084015260c08301528287010152016101d8565b34610188576020908160031936011261018857600435916001600160a01b036104b1337f000000000000000000000000000000000000000000000000000000000000000083161461139a565b6104b96114d2565b6104c48415156113d3565b6040516370a0823160e01b81523060048201527f0000000000000000000000000000000000000000000000000000000000000000821691908381602481865afa9081156106f757908691869161073d575b501061070657807f00000000000000000000000000000000000000000000000000000000000000001691823b15610702576040516311f9fbc960e21b81526001600160a01b0391909116600482015260248101869052848160448183875af180156106f7576106dc575b506127106105b285969594957f0000000000000000000000000000000000000000000000000000000000000000906114ab565b04806105c1575b836001815580f35b823b156106d857604051634b8a352960e01b81527f00000000000000000000000000000000000000000000000000000000000000006001600160a01b03166004820152602481018290529284908490604490829084905af180156106cd57859385916106b4575b505060249060405194859384926382e7c3f560e01b845260048401527f0000000000000000000000000000000000000000000000000000000000000000165af180156106a95761067c575b808084926105b9565b813d83116106a2575b61068f8183611489565b8101031261069e578180610673565b5f80fd5b503d610685565b6040513d85823e3d90fd5b6106c09192945061140d565b6101845783918387610628565b6040513d86823e3d90fd5b8380fd5b6105b29593946106ee6127109261140d565b9493955061057f565b6040513d87823e3d90fd5b8480fd5b60405162461bcd60e51b815260048101849052600f60248201526e696e73756666696369656e7420775360881b6044820152606490fd5b809250858092503d8311610767575b6107568183611489565b810103126107025785905187610515565b503d61074c565b346101885780600319360112610188576001546040516001600160a01b039091168152602090f35b346101885780600319360112610188576040517f00000000000000000000000000000000000000000000000000000000000000006001600160a01b03168152602090f35b346101885780600319360112610188576107f261136e565b600180546001600160a01b0319811690915581906001600160a01b03167f8be0079c531659141344cd1fd0a4f28419497f9722a3daafe3b4186f6b6457e08280a380f35b346101885780600319360112610188576040517f00000000000000000000000000000000000000000000000000000000000000006001600160a01b03168152602090f35b346101885780600319360112610188576040517f00000000000000000000000000000000000000000000000000000000000000006001600160a01b03168152602090f35b34610188576020366003190112610188576108d761136e565b808060405160208101906307983f4560e21b825260043560248201526024815261090081611451565b51908273dc2b0d2dd2b7759d97d50db4eabdc369731108305af13d156109b3573d67ffffffffffffffff811161099f5760405190610948601f8201601f191660200183611489565b81528260203d92013e5b1561095a5780f35b60405162461bcd60e51b815260206004820152601860248201527f4665654d20726567697374726174696f6e206661696c656400000000000000006044820152606490fd5b634e487b7160e01b83526041600452602483fd5b610952565b346101885780600319360112610188576040517f00000000000000000000000000000000000000000000000000000000000000006001600160a01b03168152602090f35b6112e6565b34610188578060031936011261018857602090610a48337f00000000000000000000000000000000000000000000000000000000000000006001600160a01b03161461139a565b610a506114d2565b6001610a5a611500565b9155604051908152f35b3461018857806003193601126101885760405162fdc91760e51b8152602091906001600160a01b039083816004817f000000000000000000000000000000000000000000000000000000000000000086165afa9081156106a95784908492610bc5575b50604051637e27b03360e01b81527f00000000000000000000000000000000000000000000000000000000000000008416600482015292839060249082907f0000000000000000000000000000000000000000000000000000000000000000165afa9182156106a9578392610b96575b50610b737f00000000000000000000000000000000000000000000000000000000000000008092610b6c6127109485926114ab565b04936114ab565b049081811115610b8f57610b8792506114f3565b604051908152f35b5050610b87565b9091508381813d8311610bbe575b610bae8183611489565b8101031261018457519084610b37565b503d610ba4565b809250813d8311610bec575b610bdb8183611489565b810103126101845751836024610ac7565b503d610bd1565b34610188576020806003193601126110b35760043590826001600160a01b037f0000000000000000000000000000000000000000000000000000000000000000610c40338383161461139a565b610c486114d2565b610c538515156113d3565b604051634c4ab16960e01b81523060048201527f00000000000000000000000000000000000000000000000000000000000000006001600160a01b03811660248301527f00000000000000000000000000000000000000000000000000000000000000008416918681604481865afa908115610e85578691611086575b5080610e90575b505060405163d8b7575d60e01b81523060048201527f00000000000000000000000000000000000000000000000000000000000000009384166001600160a01b0381166024830152968682604481865afa918215610e85578692610e52575b5081811115610e4b57505b80610d4f575b846001815580f35b60405163f3fef3a360e01b81526001600160a01b0388166004820152602481018290529186908390604490829089905af180156106f75785928791610e1c575b505060405163a9059cbb60e01b8782019081526001600160a01b03949094166024820152604480820192909252908152610dca606482611489565b51925af115610e0f5781513d610e065750803b155b610dee57808281808080610d47565b60249060405190635274afe760e01b82526004820152fd5b60011415610ddf565b50604051903d90823e3d90fd5b90809293503d8311610e44575b610e338183611489565b810103126106d85783908589610d8f565b503d610e29565b9050610d41565b9091508681813d8311610e7e575b610e6a8183611489565b81010312610e7a57519089610d36565b8580fd5b503d610e60565b6040513d88823e3d90fd5b6040516370a0823160e01b808252306004830152919088816024817f00000000000000000000000000000000000000000000000000000000000000008b165afa90811561104a578891611055575b5080610fd0575b5060405191825230600483015287826024818987165afa8015610fc55788928891610f92575b5081811115610f8b57505b80610f22575b50610cd7565b604051630450cfaf60e31b81526001600160a01b0393909316600484015260248301528160448188865af19081156106f7578691610f62575b8190610f1c565b813d8311610f84575b610f758183611489565b810103126106d8578488610f5b565b503d610f6b565b9050610f16565b83819492503d8311610fbe575b610fa98183611489565b81010312610fba578791518b610f0b565b8680fd5b503d610f9f565b6040513d89823e3d90fd5b6040519062654e8160e91b8252600482015288816024818b8b7f0000000000000000000000000000000000000000000000000000000000000000165af190811561104a578991611021575b50610ee5565b813d8311611043575b6110348183611489565b81010312610fba57878b61101b565b503d61102a565b6040513d8a823e3d90fd5b90508881813d831161107f575b61106c8183611489565b8101031261107b57518b610ede565b8780fd5b503d611062565b90508681813d83116110ac575b61109d8183611489565b81010312610e7a575189610cd0565b503d611093565b5080fd5b3461018857806003193601126101885760206040517f00000000000000000000000000000000000000000000000000000000000000008152f35b346110b357816003193601126110b35763d8b7575d60e01b81523060048201526001600160a01b037f0000000000000000000000000000000000000000000000000000000000000000811660248301526020917f00000000000000000000000000000000000000000000000000000000000000008216918382604481865afa9182156106f75785926112b7575b50604051634c4ab16960e01b81523060048201527f00000000000000000000000000000000000000000000000000000000000000006001600160a01b03166024820152928490849060449082905afa9283156106f7578593611288575b50938360249495604051958680926370a0823160e01b82523060048301527f0000000000000000000000000000000000000000000000000000000000000000165afa938415610e0f578194611259575b508261123785846116f5565b11156112505750610b879261124b916116f5565b6114f3565b92505050610b87565b9093508481813d8311611281575b6112718183611489565b810103126106d85751928561122b565b503d611267565b9092508381813d83116112b0575b6112a08183611489565b81010312610702575191836111db565b503d611296565b9091508381813d83116112df575b6112cf8183611489565b810103126107025751908561117e565b503d6112c5565b3461069e575f36600319011261069e576040517f00000000000000000000000000000000000000000000000000000000000000006001600160a01b03168152602090f35b3461069e575f36600319011261069e576040517f00000000000000000000000000000000000000000000000000000000000000006001600160a01b03168152602090f35b6001546001600160a01b0316330361138257565b60405163118cdaa760e01b8152336004820152602490fd5b156113a157565b60405162461bcd60e51b815260206004820152600a60248201526913db9b1e481d985d5b1d60b21b6044820152606490fd5b156113da57565b60405162461bcd60e51b815260206004820152600b60248201526a1e995c9bc8185b5bdd5b9d60aa1b6044820152606490fd5b67ffffffffffffffff811161142157604052565b634e487b7160e01b5f52604160045260245ffd5b60e0810190811067ffffffffffffffff82111761142157604052565b6060810190811067ffffffffffffffff82111761142157604052565b6020810190811067ffffffffffffffff82111761142157604052565b90601f8019910116810190811067ffffffffffffffff82111761142157604052565b818102929181159184041417156114be57565b634e487b7160e01b5f52601160045260245ffd5b60025f54146114e15760025f55565b604051633ee5aeb560e01b8152600490fd5b919082039182116114be57565b604080516370a0823160e01b81523060048201526001600160a01b03916020919082826024817f000000000000000000000000000000000000000000000000000000000000000088165afa9182156116eb575f926116bc575b508051634c4ab16960e01b81523060048201527f00000000000000000000000000000000000000000000000000000000000000006001600160a01b031660248201529183836044817f000000000000000000000000000000000000000000000000000000000000000089165afa9283156116b2575f93611683575b508281116115e6575b50505050505f90565b6115f283600a926114f3565b9204808311156115dd5761160884915f946114f3565b94602483518095819362654e8160e91b83528960048401527f0000000000000000000000000000000000000000000000000000000000000000165af190811561167a575061165557505090565b813d8311611673575b6116688183611489565b8101031261069e5790565b503d61165e565b513d5f823e3d90fd5b90928482813d83116116ab575b61169a8183611489565b81010312610188575051915f6115d4565b503d611690565b82513d5f823e3d90fd5b90918382813d83116116e4575b6116d38183611489565b81010312610188575051905f611559565b503d6116c9565b50513d5f823e3d90fd5b919082018092116114be57565b80511561170f5760200190565b634e487b7160e01b5f52603260045260245ffd5b80516001101561170f576040019056fea2646970667358221220745fbcea3d79a243899fb44d71e01884b472ba64e97b72956b726e000df0611f64736f6c63430008140033","linkReferences":{}},"methodIdentifiers":{"ASSET()":"4800d97f","BORROW_RATIO()":"2022ce1e","LENDING()":"48fb27b8","RINGS()":"5acfc85a","SC_USD()":"6ebb16ea","USDC()":"89a30271","VAULT()":"411557d1","apy()":"3bcfc4b8","asset()":"38d52e0f","components()":"ba62fbe4","deposit(uint256)":"b6b55f25","harvest()":"4641257d","owner()":"8da5cb5b","registerMe(uint256)":"55af8535","renounceOwnership()":"715018a6","totalAssets()":"01e1d114","transferOwnership(address)":"f2fde38b","vault()":"fbfa77cf","withdraw(uint256)":"2e1a7d4d"},"id":65}