{"abi":[{"type":"constructor","inputs":[{"name":"_wSToken","type":"address","internalType":"address"},{"name":"_vault","type":"address","internalType":"address"},{"name":"_lendingAdapter","type":"address","internalType":"address"},{"name":"_ringsAdapter","type":"address","internalType":"address"},{"name":"_usdc","type":"address","internalType":"address"},{"name":"_borrowRatio","type":"uint256","internalType":"uint256"}],"stateMutability":"nonpayable"},{"type":"function","name":"ASSET","inputs":[],"outputs":[{"name":"","type":"address","internalType":"contract IERC20"}],"stateMutability":"view"},{"type":"function","name":"BORROW_RATIO","inputs":[],"outputs":[{"name":"","type":"uint256","internalType":"uint256"}],"stateMutability":"view"},{"type":"function","name":"LENDING","inputs":[],"outputs":[{"name":"","type":"address","internalType":"contract ILendingAdapter"}],"stateMutability":"view"},{"type":"function","name":"RINGS","inputs":[],"outputs":[{"name":"","type":"address","internalType":"contract IRingsAdapter"}],"stateMutability":"view"},{"type":"function","name":"SC_USD","inputs":[],"outputs":[{"name":"","type":"address","internalType":"address"}],"stateMutability":"view"},{"type":"function","name":"USDC","inputs":[],"outputs":[{"name":"","type":"address","internalType":"address"}],"stateMutability":"view"},{"type":"function","name":"VAULT","inputs":[],"outputs":[{"name":"","type":"address","internalType":"address"}],"stateMutability":"view"},{"type":"function","name":"apy","inputs":[],"outputs":[{"name":"","type":"uint256","internalType":"uint256"}],"stateMutability":"view"},{"type":"function","name":"asset","inputs":[],"outputs":[{"name":"","type":"address","internalType":"contract IERC20"}],"stateMutability":"view"},{"type":"function","name":"deposit","inputs":[{"name":"amount","type":"uint256","internalType":"uint256"}],"outputs":[],"stateMutability":"nonpayable"},{"type":"function","name":"harvest","inputs":[],"outputs":[{"name":"","type":"uint256","internalType":"uint256"}],"stateMutability":"nonpayable"},{"type":"function","name":"introspect","inputs":[],"outputs":[{"name":"cfg","type":"tuple","internalType":"struct IStrategyIntrospection.StrategyConfig","components":[{"name":"asset","type":"address","internalType":"address"},{"name":"lending","type":"tuple","internalType":"struct IStrategyIntrospection.LendingConfig","components":[{"name":"adapter","type":"address","internalType":"address"},{"name":"supplyToken","type":"address","internalType":"address"},{"name":"borrowToken","type":"address","internalType":"address"}]},{"name":"eggs","type":"tuple","internalType":"struct IStrategyIntrospection.SimpleConfig","components":[{"name":"adapter","type":"address","internalType":"address"}]},{"name":"rings","type":"tuple","internalType":"struct IStrategyIntrospection.SimpleConfig","components":[{"name":"adapter","type":"address","internalType":"address"}]},{"name":"sts","type":"tuple","internalType":"struct IStrategyIntrospection.SimpleConfig","components":[{"name":"adapter","type":"address","internalType":"address"}]},{"name":"pendle","type":"tuple","internalType":"struct IStrategyIntrospection.SimpleConfig","components":[{"name":"adapter","type":"address","internalType":"address"}]},{"name":"beets","type":"tuple","internalType":"struct IStrategyIntrospection.DexConfig","components":[{"name":"adapter","type":"address","internalType":"address"},{"name":"pool","type":"address","internalType":"address"},{"name":"gauge","type":"address","internalType":"address"}]},{"name":"swapx","type":"tuple","internalType":"struct IStrategyIntrospection.DexConfig","components":[{"name":"adapter","type":"address","internalType":"address"},{"name":"pool","type":"address","internalType":"address"},{"name":"gauge","type":"address","internalType":"address"}]},{"name":"shadow","type":"tuple","internalType":"struct IStrategyIntrospection.DexConfig","components":[{"name":"adapter","type":"address","internalType":"address"},{"name":"pool","type":"address","internalType":"address"},{"name":"gauge","type":"address","internalType":"address"}]}]}],"stateMutability":"view"},{"type":"function","name":"owner","inputs":[],"outputs":[{"name":"","type":"address","internalType":"address"}],"stateMutability":"view"},{"type":"function","name":"renounceOwnership","inputs":[],"outputs":[],"stateMutability":"nonpayable"},{"type":"function","name":"totalAssets","inputs":[],"outputs":[{"name":"","type":"uint256","internalType":"uint256"}],"stateMutability":"view"},{"type":"function","name":"transferOwnership","inputs":[{"name":"newOwner","type":"address","internalType":"address"}],"outputs":[],"stateMutability":"nonpayable"},{"type":"function","name":"vault","inputs":[],"outputs":[{"name":"","type":"address","internalType":"address"}],"stateMutability":"view"},{"type":"function","name":"withdraw","inputs":[{"name":"amount","type":"uint256","internalType":"uint256"}],"outputs":[],"stateMutability":"nonpayable"},{"type":"event","name":"OwnershipTransferred","inputs":[{"name":"previousOwner","type":"address","indexed":true,"internalType":"address"},{"name":"newOwner","type":"address","indexed":true,"internalType":"address"}],"anonymous":false},{"type":"error","name":"OwnableInvalidOwner","inputs":[{"name":"owner","type":"address","internalType":"address"}]},{"type":"error","name":"OwnableUnauthorizedAccount","inputs":[{"name":"account","type":"address","internalType":"address"}]},{"type":"error","name":"ReentrancyGuardReentrantCall","inputs":[]},{"type":"error","name":"SafeERC20FailedOperation","inputs":[{"name":"token","type":"address","internalType":"address"}]}],"bytecode":{"object":"0x610160604081815234620004e55760c08262001b958038038091620000258285620004e9565b833981010312620004e5576200003b8262000521565b916020916200004c83830162000521565b926200005a82840162000521565b93620000696060850162000521565b9460a06200007a6080870162000521565b950151945f91600183553315620004cd5760018054336001600160a01b03198216811790925587516001600160a01b039b9096928c9283167f8be0079c531659141344cd1fd0a4f28419497f9722a3daafe3b4186f6b6457e08880a3169485151580620004c1575b15620004935750608085905260a0528816968715158062000487575b1562000454576127108711620004245788908860c05216908160e05261010098818a52865198638d24974f60e01b8a52868a600481875afa998a156200038957859a620003e1575b50610120998a5261014098895287519263095ea7b360e01b9384815282600482015288816044818a5f199c8d60248401525af18015620003b55790849291620003bf575b501690885184815285600482015287602482015288816044818a875af18015620003b557899288949260449262000393575b508b51948593849289845260048401528b60248401525af18015620003895760449288959492879262000367575b508b5116895197889586948552600485015260248401525af19081156200035c575062000327575b5050519161164493846200055185396080518481816101fa0152818161093f01528181610e2401528181610ffa0152611205015260a0518481816101ad015281816106510152818161085d0152611249015260c05184818161023f0152818161060101528181610738015281816108e101528181610e56015281816110290152611491015260e05184818161036e015281816105bd015281816106c801528181610c4e01528181610eb40152611510015251838181610301015281816104d801528181610712015281816108b101528181610e800152818161108a015261145c01525182818161057901528181610b08015281816110ec01526114160152518181816102af0152818161076e0152610d290152f35b816200034b92903d1062000354575b620003428183620004e9565b81019062000536565b505f8062000212565b503d62000336565b8451903d90823e3d90fd5b6200038190873d89116200035457620003428183620004e9565b505f620001ea565b88513d87823e3d90fd5b620003ad90853d87116200035457620003428183620004e9565b505f620001bc565b8a513d89823e3d90fd5b620003d9908a3d8c116200035457620003428183620004e9565b505f6200018a565b9099508681813d83116200041c575b620003fc8183620004e9565b810103126200041857620004109062000521565b985f62000146565b8480fd5b503d620003f0565b855162461bcd60e51b815260048101869052600960248201526862616420726174696f60b81b6044820152606490fd5b855162461bcd60e51b815260048101869052600c60248201526b62616420616461707465727360a01b6044820152606490fd5b508881161515620000fe565b62461bcd60e51b81526004810187905260096024820152683d32b9379030b2323960b91b6044820152606490fd5b508a82161515620000e2565b8551631e4fbdf760e01b815260048101849052602490fd5b5f80fd5b601f909101601f19168101906001600160401b038211908210176200050d57604052565b634e487b7160e01b5f52604160045260245ffd5b51906001600160a01b0382168203620004e557565b90816020910312620004e557518015158103620004e5579056fe60806040818152600480361015610014575f80fd5b5f91823560e01c93846301e1d11414610fce5750836308101b1e14610d4c5783632022ce1e14610d115783632e1a7d4d1461083c57836338d52e0f146106305783633bcfc4b814610699578363411557d1146100e95783634641257d146106355783634800d97f1461063057836348fb27b8146105ec5783635acfc85a146105a85783636ebb16ea14610564578363715018a61461050757836389a30271146104c35783638da5cb5b1461049a578363b6b55f2514610187578363f2fde38b146100ee5750505063fbfa77cf146100e9575f80fd5b611234565b34610183576020366003190112610183576001600160a01b0382358181169391929084900361017f5761011f611278565b8315610169575050600154826bffffffffffffffffffffffff60a01b821617600155167f8be0079c531659141344cd1fd0a4f28419497f9722a3daafe3b4186f6b6457e05f80a380f35b51631e4fbdf760e01b8152908101849052602490fd5b8480fd5b8280fd5b90346101835760209182600319360112610496576001600160a01b03918035906101d4337f00000000000000000000000000000000000000000000000000000000000000008616146112a4565b6101dc6113c0565b6101e78215156112dd565b82516370a0823160e01b815230828201527f0000000000000000000000000000000000000000000000000000000000000000851692908681602481875afa90811561041f579082918991610461575b501061042c57847f0000000000000000000000000000000000000000000000000000000000000000169287843b156104295785516311f9fbc960e21b81526001600160a01b039092168483019081526020810184905282908190604001038183885af1801561041f57610408575b506127106102d488927f000000000000000000000000000000000000000000000000000000000000000090611399565b0492836102e4575b506001815580f35b803b15610404578451634b8a352960e01b81526001600160a01b037f000000000000000000000000000000000000000000000000000000000000000016848201908152602081018690529091839183919082908490829060400103925af180156103fa579087949392916103dd575b5090602491855196879485936382e7c3f560e01b85528401527f0000000000000000000000000000000000000000000000000000000000000000165af19081156103d457506103a7575b80808085816102dc565b813d83116103cd575b6103ba8183611377565b810103126103c957818061039d565b5f80fd5b503d6103b0565b513d85823e3d90fd5b6103e991929450611363565b6103f65784918688610353565b8580fd5b85513d84823e3d90fd5b5080fd5b6102d49761041861271092611363565b97506102a4565b85513d8a823e3d90fd5b80fd5b835162461bcd60e51b8152808301879052600f60248201526e696e73756666696369656e7420775360881b6044820152606490fd5b809250888092503d831161048f575b61047a8183611377565b8101031261048b5781905189610236565b8780fd5b503d610470565b8380fd5b90503461040457816003193601126104045760015490516001600160a01b039091168152602090f35b905034610404578160031936011261040457517f00000000000000000000000000000000000000000000000000000000000000006001600160a01b03168152602090f35b8234610429578060031936011261042957610520611278565b600180546001600160a01b0319811690915581906001600160a01b03167f8be0079c531659141344cd1fd0a4f28419497f9722a3daafe3b4186f6b6457e08280a380f35b905034610404578160031936011261040457517f00000000000000000000000000000000000000000000000000000000000000006001600160a01b03168152602090f35b905034610404578160031936011261040457517f00000000000000000000000000000000000000000000000000000000000000006001600160a01b03168152602090f35b905034610404578160031936011261040457517f00000000000000000000000000000000000000000000000000000000000000006001600160a01b03168152602090f35b6111f0565b9050346104045781600319360112610404576020919061067f337f00000000000000000000000000000000000000000000000000000000000000006001600160a01b0316146112a4565b6106876113c0565b60016106916113ee565b925551908152f35b8234610429578060031936011261042957815162fdc91760e51b81526020936001600160a01b039190858282817f000000000000000000000000000000000000000000000000000000000000000087165afa918215610832579086918593610801575b506024865180958193637e27b03360e01b8352817f000000000000000000000000000000000000000000000000000000000000000016908301527f0000000000000000000000000000000000000000000000000000000000000000165afa9182156107f75783926107c8575b506107a47f0000000000000000000000000000000000000000000000000000000000000000809261079d612710948592611399565b0493611399565b0490818111156107c0576107b892506113e1565b905b51908152f35b5050906107ba565b9091508481813d83116107f0575b6107e08183611377565b8101031261018357519085610768565b503d6107d6565b84513d85823e3d90fd5b8281939294503d831161082b575b6108198183611377565b810103126104965785905191876106fc565b503d61080f565b85513d86823e3d90fd5b34610183576020908160031936011261049657823591846001600160a01b037f000000000000000000000000000000000000000000000000000000000000000061088933838316146112a4565b6108916113c0565b61089c8615156112dd565b8451634c4ab16960e01b8152308882019081527f00000000000000000000000000000000000000000000000000000000000000006001600160a01b03811660208301527f000000000000000000000000000000000000000000000000000000000000000085169290918790829081906040010381865afa908115610ae4578691610ce4575b5080610aee575b5050855163d8b7575d60e01b8152308982019081527f00000000000000000000000000000000000000000000000000000000000000009485166001600160a01b038116602083015298908790839081906040010381865afa918215610ae4578692610ab5575b5081811115610aad5750905b816109a8575b846001815580f35b865163f3fef3a360e01b81526001600160a01b038916818b01908152602081018490529091879183919082908990829060400103925af18015610aa3578592918791610a74575b5050865163a9059cbb60e01b8782019081526001600160a01b03949094166024820152604480820192909252908152610a29606482611377565b51925af115610a6b5783513d610a625750813b155b610a4d578084818080806109a0565b51635274afe760e01b81529182015260249150fd5b60011415610a3e565b513d84823e3d90fd5b90809293503d8311610a9c575b610a8b8183611377565b81010312610496578390858b6109ef565b503d610a81565b87513d87823e3d90fd5b90509061099a565b9091508681813d8311610add575b610acd8183611377565b810103126103f65751908b61098e565b503d610ac3565b88513d88823e3d90fd5b87516370a0823160e01b808252308c8301529088816024817f00000000000000000000000000000000000000000000000000000000000000008b165afa908115610cad578891610cb7575b5080610c35575b508851908152308b82015287816024818987165afa908115610c2b57908892918891610bf8575b5081811115610bf05750915b82610b7f575b50610928565b8851630450cfaf60e31b81526001600160a01b03909116818c0190815260208101939093529182908190604001038188865af18015610aa357908691610bc7575b8190610b79565b813d8311610be9575b610bda8183611377565b8101031261049657848a610bc0565b503d610bd0565b905091610b73565b83819492503d8311610c24575b610c0f8183611377565b81010312610c20578791518d610b67565b8680fd5b503d610c05565b89513d89823e3d90fd5b89519062654e8160e91b82528c82015288816024818b8b7f0000000000000000000000000000000000000000000000000000000000000000165af18015610cad57908991610c84575b50610b40565b813d8311610ca6575b610c978183611377565b81010312610c2057878d610c7e565b503d610c8d565b8a513d8a823e3d90fd5b90508881813d8311610cdd575b610cce8183611377565b8101031261048b57518d610b39565b503d610cc4565b90508681813d8311610d0a575b610cfb8183611377565b810103126103f657518b610921565b503d610cf1565b905034610404578160031936011261040457602090517f00000000000000000000000000000000000000000000000000000000000000008152f35b913461042957806003193601126104295782519161012083019083821067ffffffffffffffff831117610fbb575083528082526020820192610d8c6115f0565b8452808301938151610d9d81611317565b838152855260608401938251610db281611317565b848152855260808101938351610dc781611317565b8181528552835160a0830191610ddc82611317565b8152815260c0820192610ded6115f0565b845260e0830195610dfc6115f0565b87526101009586850198610e0e6115f0565b8a52600160a01b60019003809b819782968395847f000000000000000000000000000000000000000000000000000000000000000016808452815190610e5382611347565b867f00000000000000000000000000000000000000000000000000000000000000001682526020820152857f0000000000000000000000000000000000000000000000000000000000000000168282015282528051610eb181611317565b857f00000000000000000000000000000000000000000000000000000000000000001681528652519e8f92511682525190602001610f0f916040908160018060a01b0391828151168552826020820151166020860152015116910152565b51511660808c015251511660a08a015251511660c088015251511660e08601525180516001600160a01b03908116928601928352602080830151821690840152604091820151169101525180516001600160a01b0390811661016085015260208201518116610180850152604090910151166101a08301525180516001600160a01b039081166101c0840152602082015181166101e08401526040909101511661020082015261022090f35b634e487b7160e01b835260419052602482fd5b833461042957806003193601126104295763d8b7575d60e01b8252308483019081526001600160a01b037f000000000000000000000000000000000000000000000000000000000000000081166020808401919091529590937f000000000000000000000000000000000000000000000000000000000000000085169390929091908790849081906040010381875afa9283156111b75782936111c1575b508551634c4ab16960e01b8152308282019081526001600160a01b037f0000000000000000000000000000000000000000000000000000000000000000166020820152909488918691908290819060400103915afa9384156111b7579087918395611186575b5060248751809781936370a0823160e01b835230908301527f0000000000000000000000000000000000000000000000000000000000000000165afa93841561117a57819461114b575b508261112885846115e3565b111561114157506107b89261113c916115e3565b6113e1565b92505050906107ba565b9093508581813d8311611173575b6111638183611377565b810103126104965751928661111c565b503d611159565b508451903d90823e3d90fd5b8281939296503d83116111b0575b61119e8183611377565b810103126104045786905193886110d2565b503d611194565b86513d84823e3d90fd5b9092508681813d83116111e9575b6111d98183611377565b810103126104045751918761106c565b503d6111cf565b346103c9575f3660031901126103c9576040517f00000000000000000000000000000000000000000000000000000000000000006001600160a01b03168152602090f35b346103c9575f3660031901126103c9576040517f00000000000000000000000000000000000000000000000000000000000000006001600160a01b03168152602090f35b6001546001600160a01b0316330361128c57565b60405163118cdaa760e01b8152336004820152602490fd5b156112ab57565b60405162461bcd60e51b815260206004820152600a60248201526913db9b1e481d985d5b1d60b21b6044820152606490fd5b156112e457565b60405162461bcd60e51b815260206004820152600b60248201526a1e995c9bc8185b5bdd5b9d60aa1b6044820152606490fd5b6020810190811067ffffffffffffffff82111761133357604052565b634e487b7160e01b5f52604160045260245ffd5b6060810190811067ffffffffffffffff82111761133357604052565b67ffffffffffffffff811161133357604052565b90601f8019910116810190811067ffffffffffffffff82111761133357604052565b818102929181159184041417156113ac57565b634e487b7160e01b5f52601160045260245ffd5b60025f54146113cf5760025f55565b604051633ee5aeb560e01b8152600490fd5b919082039182116113ac57565b604080516370a0823160e01b81523060048201526001600160a01b03916020919082826024817f000000000000000000000000000000000000000000000000000000000000000088165afa9182156115d9575f926115aa575b508051634c4ab16960e01b81523060048201527f00000000000000000000000000000000000000000000000000000000000000006001600160a01b031660248201529183836044817f000000000000000000000000000000000000000000000000000000000000000089165afa9283156115a0575f93611571575b508281116114d4575b50505050505f90565b6114e083600a926113e1565b9204808311156114cb576114f684915f946113e1565b94602483518095819362654e8160e91b83528960048401527f0000000000000000000000000000000000000000000000000000000000000000165af1908115611568575061154357505090565b813d8311611561575b6115568183611377565b810103126103c95790565b503d61154c565b513d5f823e3d90fd5b90928482813d8311611599575b6115888183611377565b81010312610429575051915f6114c2565b503d61157e565b82513d5f823e3d90fd5b90918382813d83116115d2575b6115c18183611377565b81010312610429575051905f611447565b503d6115b7565b50513d5f823e3d90fd5b919082018092116113ac57565b604051906115fd82611347565b5f604083828152826020820152015256fea2646970667358221220748d2e36eb98b1664b8333917913c0f08dd2404fb2d04e5d9f362c53d3ed58d764736f6c63430008140033","linkReferences":{}},"methodIdentifiers":{"ASSET()":"4800d97f","BORROW_RATIO()":"2022ce1e","LENDING()":"48fb27b8","RINGS()":"5acfc85a","SC_USD()":"6ebb16ea","USDC()":"89a30271","VAULT()":"411557d1","apy()":"3bcfc4b8","asset()":"38d52e0f","deposit(uint256)":"b6b55f25","harvest()":"4641257d","introspect()":"08101b1e","owner()":"8da5cb5b","renounceOwnership()":"715018a6","totalAssets()":"01e1d114","transferOwnership(address)":"f2fde38b","vault()":"fbfa77cf","withdraw(uint256)":"2e1a7d4d"},"id":65}