{"abi":[{"type":"constructor","inputs":[{"name":"_wSToken","type":"address","internalType":"address"},{"name":"_vault","type":"address","internalType":"address"},{"name":"_lendingAdapter","type":"address","internalType":"address"},{"name":"_ringsAdapter","type":"address","internalType":"address"},{"name":"_usdc","type":"address","internalType":"address"},{"name":"_borrowRatio","type":"uint256","internalType":"uint256"},{"name":"_name","type":"string","internalType":"string"}],"stateMutability":"nonpayable"},{"type":"function","name":"ASSET","inputs":[],"outputs":[{"name":"","type":"address","internalType":"contract IERC20"}],"stateMutability":"view"},{"type":"function","name":"BORROW_RATIO","inputs":[],"outputs":[{"name":"","type":"uint256","internalType":"uint256"}],"stateMutability":"view"},{"type":"function","name":"LENDING","inputs":[],"outputs":[{"name":"","type":"address","internalType":"contract ILendingAdapter"}],"stateMutability":"view"},{"type":"function","name":"RINGS","inputs":[],"outputs":[{"name":"","type":"address","internalType":"contract IRingsAdapter"}],"stateMutability":"view"},{"type":"function","name":"SC_USD","inputs":[],"outputs":[{"name":"","type":"address","internalType":"address"}],"stateMutability":"view"},{"type":"function","name":"USDC","inputs":[],"outputs":[{"name":"","type":"address","internalType":"address"}],"stateMutability":"view"},{"type":"function","name":"VAULT","inputs":[],"outputs":[{"name":"","type":"address","internalType":"address"}],"stateMutability":"view"},{"type":"function","name":"apy","inputs":[],"outputs":[{"name":"","type":"uint256","internalType":"uint256"}],"stateMutability":"view"},{"type":"function","name":"asset","inputs":[],"outputs":[{"name":"","type":"address","internalType":"contract IERC20"}],"stateMutability":"view"},{"type":"function","name":"components","inputs":[],"outputs":[{"name":"asset","type":"address","internalType":"address"},{"name":"schemaVersion","type":"uint8","internalType":"uint8"},{"name":"comps","type":"tuple[]","internalType":"struct IStrategyIntrospection.Component[]","components":[{"name":"kind","type":"uint8","internalType":"enum IStrategyIntrospection.ComponentKind"},{"name":"adapter","type":"address","internalType":"address"},{"name":"token0","type":"address","internalType":"address"},{"name":"token1","type":"address","internalType":"address"},{"name":"pool","type":"address","internalType":"address"},{"name":"gauge","type":"address","internalType":"address"},{"name":"extra","type":"bytes","internalType":"bytes"},{"name":"name","type":"string","internalType":"string"}]}],"stateMutability":"view"},{"type":"function","name":"deposit","inputs":[{"name":"amount","type":"uint256","internalType":"uint256"}],"outputs":[],"stateMutability":"nonpayable"},{"type":"function","name":"harvest","inputs":[],"outputs":[{"name":"","type":"uint256","internalType":"uint256"}],"stateMutability":"nonpayable"},{"type":"function","name":"name","inputs":[],"outputs":[{"name":"","type":"string","internalType":"string"}],"stateMutability":"view"},{"type":"function","name":"owner","inputs":[],"outputs":[{"name":"","type":"address","internalType":"address"}],"stateMutability":"view"},{"type":"function","name":"registerMe","inputs":[{"name":"projectId","type":"uint256","internalType":"uint256"}],"outputs":[],"stateMutability":"nonpayable"},{"type":"function","name":"renounceOwnership","inputs":[],"outputs":[],"stateMutability":"nonpayable"},{"type":"function","name":"totalAssets","inputs":[],"outputs":[{"name":"","type":"uint256","internalType":"uint256"}],"stateMutability":"view"},{"type":"function","name":"transferOwnership","inputs":[{"name":"newOwner","type":"address","internalType":"address"}],"outputs":[],"stateMutability":"nonpayable"},{"type":"function","name":"vault","inputs":[],"outputs":[{"name":"","type":"address","internalType":"address"}],"stateMutability":"view"},{"type":"function","name":"withdraw","inputs":[{"name":"amount","type":"uint256","internalType":"uint256"}],"outputs":[],"stateMutability":"nonpayable"},{"type":"event","name":"OwnershipTransferred","inputs":[{"name":"previousOwner","type":"address","indexed":true,"internalType":"address"},{"name":"newOwner","type":"address","indexed":true,"internalType":"address"}],"anonymous":false},{"type":"event","name":"StrategyComponent","inputs":[{"name":"strategy","type":"address","indexed":true,"internalType":"address"},{"name":"kind","type":"uint8","indexed":false,"internalType":"enum IStrategyIntrospection.ComponentKind"},{"name":"adapter","type":"address","indexed":false,"internalType":"address"},{"name":"token0","type":"address","indexed":false,"internalType":"address"},{"name":"token1","type":"address","indexed":false,"internalType":"address"},{"name":"pool","type":"address","indexed":false,"internalType":"address"},{"name":"gauge","type":"address","indexed":false,"internalType":"address"},{"name":"extra","type":"bytes","indexed":false,"internalType":"bytes"}],"anonymous":false},{"type":"event","name":"StrategyConfigured","inputs":[{"name":"strategy","type":"address","indexed":true,"internalType":"address"},{"name":"asset","type":"address","indexed":false,"internalType":"address"},{"name":"schemaVersion","type":"uint8","indexed":false,"internalType":"uint8"}],"anonymous":false},{"type":"error","name":"OwnableInvalidOwner","inputs":[{"name":"owner","type":"address","internalType":"address"}]},{"type":"error","name":"OwnableUnauthorizedAccount","inputs":[{"name":"account","type":"address","internalType":"address"}]},{"type":"error","name":"ReentrancyGuardReentrantCall","inputs":[]},{"type":"error","name":"SafeERC20FailedOperation","inputs":[{"name":"token","type":"address","internalType":"address"}]}],"bytecode":{"object":"0x610160806040523462000714576200207c803803809162000021828562000718565b8339810160e08282031262000714576200003b826200073c565b62000049602084016200073c565b9062000058604085016200073c565b62000066606086016200073c565b9462000075608082016200073c565b9460a08201519460c083015160018060401b039384821162000714570190601f918383820112156200071457805190858211620006915760405194620000c5838601601f19166020018762000718565b8286526020838301011162000714575f5b828110620006fe57505060205f918501015260015f553315620006e65760018054336001600160a01b03198216811790925560405191906001600160a01b03167f8be0079c531659141344cd1fd0a4f28419497f9722a3daafe3b4186f6b6457e05f80a36001600160a01b038716151580620006d3575b15620006a557506001600160a01b03861660805260a0528151928311620006915760025491600183811c9316801562000686575b6020841014620006725782828594116200061b575b50602091831160011462000592575f9262000586575b50508160011b915f199060031b1c1916176002555b6001600160a01b0316938415158062000573575b156200053f5761271083116200050e578460c05260018060a01b0316938460e0526101009484865260405194638d24974f60e01b8652602086600481855afa95861562000454575f96620004c7575b506101209586526101409485526040519063095ea7b360e01b918281528460048201526020816044815f80199a8b602484015260018060a01b03165af180156200045457620004a3575b506040518281526004810184905260248101869052906001600160a01b03166020826044815f855af1801562000454575f9560209360449262000481575b50604051968793849287845260048401528960248401525af190811562000454576020936044926200045f575b505f60018060a01b0388511660405196879586948552600485015260248401525af1801562000454576200041e575b506040519161191093846200076c85396080518481816102030152818161051501528181610d2a015281816112670152611485015260a0518481816104c601528181610a5601528181610c5001526114c9015260c0518481816101db0152818161055a01528181610a0901528181610b4301528181610cd401528181611292015261174a015260e0518481816102cb01528181610682015281816108cb01528181610ad00152818161102701526117c901525183818161022e01528181610613015281816107e701528181610b1301528181610ca4015281816112e0015261171501525182818161088701528181610ee90152818161134701526116cf0152518181816105c901528181610b79015261110a0152f35b620004449060203d6020116200044c575b6200043b818362000718565b81019062000751565b505f62000308565b503d6200042f565b6040513d5f823e3d90fd5b6200047990853d87116200044c576200043b818362000718565b505f620002d9565b6200049b90853d87116200044c576200043b818362000718565b505f620002ac565b620004bf9060203d6020116200044c576200043b818362000718565b505f6200026e565b90956020823d60201162000505575b81620004e56020938362000718565b81010312620005025750620004fa906200073c565b945f62000224565b80fd5b3d9150620004d6565b60405162461bcd60e51b815260206004820152600960248201526862616420726174696f60b81b6044820152606490fd5b60405162461bcd60e51b815260206004820152600c60248201526b62616420616461707465727360a01b6044820152606490fd5b506001600160a01b0381161515620001d5565b015190505f80620001ac565b60025f9081527f405787fa12a823e0f2b7631cc41b3ba8828b3321ca811111fa75cd3aa3bb5ace9350601f198516905b818110620006025750908460019594939210620005e9575b505050811b01600255620001c1565b01515f1960f88460031b161c191690555f8080620005da565b92936020600181928786015181550195019301620005c2565b9091925060025f5260205f208380860160051c8201926020871062000668575b94869594939291940160051c01905b81811062000659575062000196565b5f81558594506001016200064a565b925081926200063b565b634e487b7160e01b5f52602260045260245ffd5b92607f169262000181565b634e487b7160e01b5f52604160045260245ffd5b62461bcd60e51b81526020600482015260096024820152683d32b9379030b2323960b91b6044820152606490fd5b506001600160a01b03821615156200014d565b604051631e4fbdf760e01b81525f6004820152602490fd5b80602080928401015182828901015201620000d6565b5f80fd5b601f909101601f19168101906001600160401b038211908210176200069157604052565b51906001600160a01b03821682036200071457565b90816020910312620007145751801515810362000714579056fe6080806040526004361015610012575f80fd5b5f803560e01c91826301e1d1141461123d5750816306fdde031461112d5781632022ce1e146110f35781632e1a7d4d14610c2f57816338d52e0f14610a385781633bcfc4b814610aa0578163411557d1146100fa5781634641257d14610a3d5781634800d97f14610a3857816348fb27b8146109f457816355af8535146108fa5781635acfc85a146108b65781636ebb16ea14610872578163715018a61461081657816389a30271146107d25781638da5cb5b146107aa578163b6b55f25146104a1578163ba62fbe414610196578163f2fde38b146100ff575063fbfa77cf146100fa575f80fd5b6114b4565b34610193576020366003190112610193576004356001600160a01b038181169182900361018f5761012e6114f8565b811561017657600154826bffffffffffffffffffffffff60a01b821617600155167f8be0079c531659141344cd1fd0a4f28419497f9722a3daafe3b4186f6b6457e05f80a380f35b604051631e4fbdf760e01b815260048101849052602490fd5b8280fd5b80fd5b346101935780600319360112610193576040516101b2816115dc565b60028152815b6040811061045a5750604051906101ce826115bf565b8282526001600160a01b037f0000000000000000000000000000000000000000000000000000000000000000811660208401527f0000000000000000000000000000000000000000000000000000000000000000811660408085018290527f000000000000000000000000000000000000000000000000000000000000000090921660608501526080840185905260a084018590529051909290610271816115f8565b84815260c082015260405161028581611614565b60078152664c656e64696e6760c81b602082015260e08201526102a7826118a9565b526102b1816118a9565b506040516102be816115bf565b6002815260018060a01b037f00000000000000000000000000000000000000000000000000000000000000001660208201528360408201528360608201528360808201528360a0820152604051610314816115f8565b84815260c082015260405161032881611614565b600581526452696e677360d81b602082015260e0820152610348826118ca565b52610352816118ca565b50604051928392835260016020840152606060408401526060830182518091526080840190602060808260051b870101940192805b8282106103945786860387f35b919395509193607f19878203018552855190815160078110156104465781526020808301516001600160a01b039081168284015260408085015182169084015260608085015182169084015260808085015182169084015260a0808501519091169083015260c0808401516101009184018290526001949293849361043693909260e0916104259190840190611432565b9201519060e0818403910152611432565b9701950192018695949391610387565b634e487b7160e01b84526021600452602484fd5b602090604051610469816115bf565b848152828581830152856040830152606086818401528660808401528660a08401528060c084015260e08301528285010152016101b8565b34610193576020908160031936011261019357600435916001600160a01b036104ed337f0000000000000000000000000000000000000000000000000000000000000000831614611524565b6104f5611679565b61050084151561155d565b6040516370a0823160e01b81523060048201527f0000000000000000000000000000000000000000000000000000000000000000821691908381602481865afa908115610733579086918691610779575b501061074257807f00000000000000000000000000000000000000000000000000000000000000001691823b1561073e576040516311f9fbc960e21b81526001600160a01b0391909116600482015260248101869052848160448183875af1801561073357610718575b506127106105ee85969594957f000000000000000000000000000000000000000000000000000000000000000090611652565b04806105fd575b836001815580f35b823b1561071457604051634b8a352960e01b81527f00000000000000000000000000000000000000000000000000000000000000006001600160a01b03166004820152602481018290529284908490604490829084905af1801561070957859385916106f0575b505060249060405194859384926382e7c3f560e01b845260048401527f0000000000000000000000000000000000000000000000000000000000000000165af180156106e5576106b8575b808084926105f5565b813d83116106de575b6106cb8183611630565b810103126106da5781806106af565b5f80fd5b503d6106c1565b6040513d85823e3d90fd5b6106fc91929450611597565b61018f5783918387610664565b6040513d86823e3d90fd5b8380fd5b6105ee95939461072a61271092611597565b949395506105bb565b6040513d87823e3d90fd5b8480fd5b60405162461bcd60e51b815260048101849052600f60248201526e696e73756666696369656e7420775360881b6044820152606490fd5b809250858092503d83116107a3575b6107928183611630565b8101031261073e5785905187610551565b503d610788565b346101935780600319360112610193576001546040516001600160a01b039091168152602090f35b346101935780600319360112610193576040517f00000000000000000000000000000000000000000000000000000000000000006001600160a01b03168152602090f35b3461019357806003193601126101935761082e6114f8565b600180546001600160a01b0319811690915581906001600160a01b03167f8be0079c531659141344cd1fd0a4f28419497f9722a3daafe3b4186f6b6457e08280a380f35b346101935780600319360112610193576040517f00000000000000000000000000000000000000000000000000000000000000006001600160a01b03168152602090f35b346101935780600319360112610193576040517f00000000000000000000000000000000000000000000000000000000000000006001600160a01b03168152602090f35b34610193576020366003190112610193576109136114f8565b808060405160208101906307983f4560e21b825260043560248201526024815261093c816115dc565b51908273dc2b0d2dd2b7759d97d50db4eabdc369731108305af13d156109ef573d67ffffffffffffffff81116109db5760405190610984601f8201601f191660200183611630565b81528260203d92013e5b156109965780f35b60405162461bcd60e51b815260206004820152601860248201527f4665654d20726567697374726174696f6e206661696c656400000000000000006044820152606490fd5b634e487b7160e01b83526041600452602483fd5b61098e565b346101935780600319360112610193576040517f00000000000000000000000000000000000000000000000000000000000000006001600160a01b03168152602090f35b611470565b34610193578060031936011261019357602090610a84337f00000000000000000000000000000000000000000000000000000000000000006001600160a01b031614611524565b610a8c611679565b6001610a966116a7565b9155604051908152f35b3461019357806003193601126101935760405162fdc91760e51b8152602091906001600160a01b039083816004817f000000000000000000000000000000000000000000000000000000000000000086165afa9081156106e55784908492610c01575b50604051637e27b03360e01b81527f00000000000000000000000000000000000000000000000000000000000000008416600482015292839060249082907f0000000000000000000000000000000000000000000000000000000000000000165afa9182156106e5578392610bd2575b50610baf7f00000000000000000000000000000000000000000000000000000000000000008092610ba8612710948592611652565b0493611652565b049081811115610bcb57610bc3925061169a565b604051908152f35b5050610bc3565b9091508381813d8311610bfa575b610bea8183611630565b8101031261018f57519084610b73565b503d610be0565b809250813d8311610c28575b610c178183611630565b8101031261018f5751836024610b03565b503d610c0d565b34610193576020806003193601126110ef5760043590826001600160a01b037f0000000000000000000000000000000000000000000000000000000000000000610c7c3383831614611524565b610c84611679565b610c8f85151561155d565b604051634c4ab16960e01b81523060048201527f00000000000000000000000000000000000000000000000000000000000000006001600160a01b03811660248301527f00000000000000000000000000000000000000000000000000000000000000008416918681604481865afa908115610ec15786916110c2575b5080610ecc575b505060405163d8b7575d60e01b81523060048201527f00000000000000000000000000000000000000000000000000000000000000009384166001600160a01b0381166024830152968682604481865afa918215610ec1578692610e8e575b5081811115610e8757505b80610d8b575b846001815580f35b60405163f3fef3a360e01b81526001600160a01b0388166004820152602481018290529186908390604490829089905af180156107335785928791610e58575b505060405163a9059cbb60e01b8782019081526001600160a01b03949094166024820152604480820192909252908152610e06606482611630565b51925af115610e4b5781513d610e425750803b155b610e2a57808281808080610d83565b60249060405190635274afe760e01b82526004820152fd5b60011415610e1b565b50604051903d90823e3d90fd5b90809293503d8311610e80575b610e6f8183611630565b810103126107145783908589610dcb565b503d610e65565b9050610d7d565b9091508681813d8311610eba575b610ea68183611630565b81010312610eb657519089610d72565b8580fd5b503d610e9c565b6040513d88823e3d90fd5b6040516370a0823160e01b808252306004830152919088816024817f00000000000000000000000000000000000000000000000000000000000000008b165afa908115611086578891611091575b508061100c575b5060405191825230600483015287826024818987165afa80156110015788928891610fce575b5081811115610fc757505b80610f5e575b50610d13565b604051630450cfaf60e31b81526001600160a01b0393909316600484015260248301528160448188865af1908115610733578691610f9e575b8190610f58565b813d8311610fc0575b610fb18183611630565b81010312610714578488610f97565b503d610fa7565b9050610f52565b83819492503d8311610ffa575b610fe58183611630565b81010312610ff6578791518b610f47565b8680fd5b503d610fdb565b6040513d89823e3d90fd5b6040519062654e8160e91b8252600482015288816024818b8b7f0000000000000000000000000000000000000000000000000000000000000000165af190811561108657899161105d575b50610f21565b813d831161107f575b6110708183611630565b81010312610ff657878b611057565b503d611066565b6040513d8a823e3d90fd5b90508881813d83116110bb575b6110a88183611630565b810103126110b757518b610f1a565b8780fd5b503d61109e565b90508681813d83116110e8575b6110d98183611630565b81010312610eb6575189610d0c565b503d6110cf565b5080fd5b3461019357806003193601126101935760206040517f00000000000000000000000000000000000000000000000000000000000000008152f35b34610193578060031936011261019357604051908060025491600183811c92818516948515611233575b602095868610811461121f578588528794939291879082156111fd5750506001146111a3575b505061118b92500383611630565b61119f604051928284938452830190611432565b0390f35b90859250600282527f405787fa12a823e0f2b7631cc41b3ba8828b3321ca811111fa75cd3aa3bb5ace5b8583106111e557505061118b9350820101858061117d565b805483890185015287945086939092019181016111cd565b925093505061118b94915060ff191682840152151560051b820101858061117d565b634e487b7160e01b83526022600452602483fd5b93607f1693611157565b346110ef57816003193601126110ef5763d8b7575d60e01b81523060048201526001600160a01b037f0000000000000000000000000000000000000000000000000000000000000000811660248301526020917f00000000000000000000000000000000000000000000000000000000000000008216918382604481865afa918215610733578592611403575b50604051634c4ab16960e01b81523060048201527f00000000000000000000000000000000000000000000000000000000000000006001600160a01b03166024820152928490849060449082905afa9283156107335785936113d4575b50938360249495604051958680926370a0823160e01b82523060048301527f0000000000000000000000000000000000000000000000000000000000000000165afa938415610e4b5781946113a5575b5082611383858461189c565b111561139c5750610bc3926113979161189c565b61169a565b92505050610bc3565b9093508481813d83116113cd575b6113bd8183611630565b8101031261071457519285611377565b503d6113b3565b9092508381813d83116113fc575b6113ec8183611630565b8101031261073e57519183611327565b503d6113e2565b9091508381813d831161142b575b61141b8183611630565b8101031261073e575190856112ca565b503d611411565b91908251928382525f5b84811061145c575050825f602080949584010152601f8019910116010190565b60208183018101518483018201520161143c565b346106da575f3660031901126106da576040517f00000000000000000000000000000000000000000000000000000000000000006001600160a01b03168152602090f35b346106da575f3660031901126106da576040517f00000000000000000000000000000000000000000000000000000000000000006001600160a01b03168152602090f35b6001546001600160a01b0316330361150c57565b60405163118cdaa760e01b8152336004820152602490fd5b1561152b57565b60405162461bcd60e51b815260206004820152600a60248201526913db9b1e481d985d5b1d60b21b6044820152606490fd5b1561156457565b60405162461bcd60e51b815260206004820152600b60248201526a1e995c9bc8185b5bdd5b9d60aa1b6044820152606490fd5b67ffffffffffffffff81116115ab57604052565b634e487b7160e01b5f52604160045260245ffd5b610100810190811067ffffffffffffffff8211176115ab57604052565b6060810190811067ffffffffffffffff8211176115ab57604052565b6020810190811067ffffffffffffffff8211176115ab57604052565b6040810190811067ffffffffffffffff8211176115ab57604052565b90601f8019910116810190811067ffffffffffffffff8211176115ab57604052565b8181029291811591840414171561166557565b634e487b7160e01b5f52601160045260245ffd5b60025f54146116885760025f55565b604051633ee5aeb560e01b8152600490fd5b9190820391821161166557565b604080516370a0823160e01b81523060048201526001600160a01b03916020919082826024817f000000000000000000000000000000000000000000000000000000000000000088165afa918215611892575f92611863575b508051634c4ab16960e01b81523060048201527f00000000000000000000000000000000000000000000000000000000000000006001600160a01b031660248201529183836044817f000000000000000000000000000000000000000000000000000000000000000089165afa928315611859575f9361182a575b5082811161178d575b50505050505f90565b61179983600a9261169a565b920480831115611784576117af84915f9461169a565b94602483518095819362654e8160e91b83528960048401527f0000000000000000000000000000000000000000000000000000000000000000165af190811561182157506117fc57505090565b813d831161181a575b61180f8183611630565b810103126106da5790565b503d611805565b513d5f823e3d90fd5b90928482813d8311611852575b6118418183611630565b81010312610193575051915f61177b565b503d611837565b82513d5f823e3d90fd5b90918382813d831161188b575b61187a8183611630565b81010312610193575051905f611700565b503d611870565b50513d5f823e3d90fd5b9190820180921161166557565b8051156118b65760200190565b634e487b7160e01b5f52603260045260245ffd5b8051600110156118b6576040019056fea2646970667358221220d4db7c07669e7a51a8547c1fe9b3819d2a731d55045b6e6a9fc4d331513a319464736f6c63430008140033","linkReferences":{}},"methodIdentifiers":{"ASSET()":"4800d97f","BORROW_RATIO()":"2022ce1e","LENDING()":"48fb27b8","RINGS()":"5acfc85a","SC_USD()":"6ebb16ea","USDC()":"89a30271","VAULT()":"411557d1","apy()":"3bcfc4b8","asset()":"38d52e0f","components()":"ba62fbe4","deposit(uint256)":"b6b55f25","harvest()":"4641257d","name()":"06fdde03","owner()":"8da5cb5b","registerMe(uint256)":"55af8535","renounceOwnership()":"715018a6","totalAssets()":"01e1d114","transferOwnership(address)":"f2fde38b","vault()":"fbfa77cf","withdraw(uint256)":"2e1a7d4d"},"id":53}