{"abi":[{"type":"constructor","inputs":[{"name":"_sToken","type":"address","internalType":"address"},{"name":"_vault","type":"address","internalType":"address"},{"name":"_eggsAdapter","type":"address","internalType":"address"},{"name":"_stSAdapter","type":"address","internalType":"address"},{"name":"_shadowAdapter","type":"address","internalType":"address"},{"name":"_pool","type":"address","internalType":"address"},{"name":"_gauge","type":"address","internalType":"address"},{"name":"_borrowRatio","type":"uint256","internalType":"uint256"},{"name":"_targetHf","type":"uint256","internalType":"uint256"},{"name":"_maxIter","type":"uint256","internalType":"uint256"}],"stateMutability":"nonpayable"},{"type":"function","name":"ASSET","inputs":[],"outputs":[{"name":"","type":"address","internalType":"contract IERC20"}],"stateMutability":"view"},{"type":"function","name":"BORROW_RATIO","inputs":[],"outputs":[{"name":"","type":"uint256","internalType":"uint256"}],"stateMutability":"view"},{"type":"function","name":"EGGS","inputs":[],"outputs":[{"name":"","type":"address","internalType":"contract IEggsAdapter"}],"stateMutability":"view"},{"type":"function","name":"GAUGE","inputs":[],"outputs":[{"name":"","type":"address","internalType":"address"}],"stateMutability":"view"},{"type":"function","name":"MAX_ITERATIONS","inputs":[],"outputs":[{"name":"","type":"uint256","internalType":"uint256"}],"stateMutability":"view"},{"type":"function","name":"POOL","inputs":[],"outputs":[{"name":"","type":"address","internalType":"address"}],"stateMutability":"view"},{"type":"function","name":"SHADOW","inputs":[],"outputs":[{"name":"","type":"address","internalType":"contract IShadowAdapter"}],"stateMutability":"view"},{"type":"function","name":"STS","inputs":[],"outputs":[{"name":"","type":"address","internalType":"contract IStSAdapter"}],"stateMutability":"view"},{"type":"function","name":"STS_TOKEN","inputs":[],"outputs":[{"name":"","type":"address","internalType":"address"}],"stateMutability":"view"},{"type":"function","name":"TARGET_HF","inputs":[],"outputs":[{"name":"","type":"uint256","internalType":"uint256"}],"stateMutability":"view"},{"type":"function","name":"VAULT","inputs":[],"outputs":[{"name":"","type":"address","internalType":"address"}],"stateMutability":"view"},{"type":"function","name":"apy","inputs":[],"outputs":[{"name":"","type":"uint256","internalType":"uint256"}],"stateMutability":"view"},{"type":"function","name":"asset","inputs":[],"outputs":[{"name":"","type":"address","internalType":"contract IERC20"}],"stateMutability":"view"},{"type":"function","name":"deposit","inputs":[{"name":"amount","type":"uint256","internalType":"uint256"}],"outputs":[],"stateMutability":"nonpayable"},{"type":"function","name":"harvest","inputs":[],"outputs":[{"name":"harvested","type":"uint256","internalType":"uint256"}],"stateMutability":"nonpayable"},{"type":"function","name":"introspect","inputs":[],"outputs":[{"name":"cfg","type":"tuple","internalType":"struct IStrategyIntrospection.StrategyConfig","components":[{"name":"asset","type":"address","internalType":"address"},{"name":"lending","type":"tuple","internalType":"struct IStrategyIntrospection.LendingConfig","components":[{"name":"adapter","type":"address","internalType":"address"},{"name":"supplyToken","type":"address","internalType":"address"},{"name":"borrowToken","type":"address","internalType":"address"}]},{"name":"eggs","type":"tuple","internalType":"struct IStrategyIntrospection.SimpleConfig","components":[{"name":"adapter","type":"address","internalType":"address"}]},{"name":"rings","type":"tuple","internalType":"struct IStrategyIntrospection.SimpleConfig","components":[{"name":"adapter","type":"address","internalType":"address"}]},{"name":"sts","type":"tuple","internalType":"struct IStrategyIntrospection.SimpleConfig","components":[{"name":"adapter","type":"address","internalType":"address"}]},{"name":"pendle","type":"tuple","internalType":"struct IStrategyIntrospection.SimpleConfig","components":[{"name":"adapter","type":"address","internalType":"address"}]},{"name":"beets","type":"tuple","internalType":"struct IStrategyIntrospection.DexConfig","components":[{"name":"adapter","type":"address","internalType":"address"},{"name":"pool","type":"address","internalType":"address"},{"name":"gauge","type":"address","internalType":"address"}]},{"name":"swapx","type":"tuple","internalType":"struct IStrategyIntrospection.DexConfig","components":[{"name":"adapter","type":"address","internalType":"address"},{"name":"pool","type":"address","internalType":"address"},{"name":"gauge","type":"address","internalType":"address"}]},{"name":"shadow","type":"tuple","internalType":"struct IStrategyIntrospection.DexConfig","components":[{"name":"adapter","type":"address","internalType":"address"},{"name":"pool","type":"address","internalType":"address"},{"name":"gauge","type":"address","internalType":"address"}]}]}],"stateMutability":"view"},{"type":"function","name":"owner","inputs":[],"outputs":[{"name":"","type":"address","internalType":"address"}],"stateMutability":"view"},{"type":"function","name":"renounceOwnership","inputs":[],"outputs":[],"stateMutability":"nonpayable"},{"type":"function","name":"stakedLp","inputs":[],"outputs":[{"name":"","type":"uint256","internalType":"uint256"}],"stateMutability":"view"},{"type":"function","name":"totalAssets","inputs":[],"outputs":[{"name":"","type":"uint256","internalType":"uint256"}],"stateMutability":"view"},{"type":"function","name":"transferOwnership","inputs":[{"name":"newOwner","type":"address","internalType":"address"}],"outputs":[],"stateMutability":"nonpayable"},{"type":"function","name":"vault","inputs":[],"outputs":[{"name":"","type":"address","internalType":"address"}],"stateMutability":"view"},{"type":"function","name":"withdraw","inputs":[{"name":"amount","type":"uint256","internalType":"uint256"}],"outputs":[],"stateMutability":"nonpayable"},{"type":"event","name":"OwnershipTransferred","inputs":[{"name":"previousOwner","type":"address","indexed":true,"internalType":"address"},{"name":"newOwner","type":"address","indexed":true,"internalType":"address"}],"anonymous":false},{"type":"error","name":"OwnableInvalidOwner","inputs":[{"name":"owner","type":"address","internalType":"address"}]},{"type":"error","name":"OwnableUnauthorizedAccount","inputs":[{"name":"account","type":"address","internalType":"address"}]},{"type":"error","name":"ReentrancyGuardReentrantCall","inputs":[]},{"type":"error","name":"SafeERC20FailedOperation","inputs":[{"name":"token","type":"address","internalType":"address"}]}],"bytecode":{"object":"0x6101e08060405234620005a55761014081620026a38038038091620000258285620007f9565b833981010312620005a5576200003b8162000831565b620000496020830162000831565b620000576040840162000831565b91620000666060850162000831565b90620000756080860162000831565b926200008460a0870162000831565b956200009360c0820162000831565b60e082015190610100986101208a8501519401519460015f553315620007e15760018054336001600160a01b03198216811790925560405191906001600160a01b03167f8be0079c531659141344cd1fd0a4f28419497f9722a3daafe3b4186f6b6457e05f80a36001600160a01b038816151580620007ce575b15620007a057506001600160a01b0387811660805260a09190915289161515806200078d575b806200077a575b1562000746576001600160a01b03811615158062000733575b1562000703576127108311620006d2578315620006a45760018060a01b03891660c05260018060a01b03881660e05260018060a01b0387168a526101405261016052610180526101a0526101c05260405163065a291b60e31b815260208160048160018060a01b0387165afa90811562000561575f9162000662575b506101205260405163095ea7b360e01b81526001600160a01b0385811660048301525f196024830152602090829060449082905f9087165af1801562000561576200063e575b5060405163095ea7b360e01b81526001600160a01b0380841660048301525f196024830152909290602090849060449082905f9087165af190811562000561575f936020926200061c575b506101205160405163095ea7b360e01b81526001600160a01b03928316600482015285196024820152948592604492849291165af191821562000561575f92620005f8575b506101205160405163095ea7b360e01b81526001600160a01b038581166004830152841960248301529093602092859260449284929091165af1801562000561575f93602093604492620005d6575b5060405163095ea7b360e01b81526001600160a01b039182166004820152851960248201529485938492165af180156200056157620005b2575b5060405163369625df60e21b81526020816004816001600160a01b0386165afa90811562000561575f916200056c575b506001600160a01b03169081620004e4575b82604051611e42918262000861833960805182818161027c01528181610afe015281816114610152818161169e015281816118210152611b0d015260a05182818161022c015281816107df01528181610abf0152611865015260c0518281816101d3015281816102b8015281816108f501528181610b5a01528181610ee20152818161149e015281816116d201526119d5015260e05182818161065801528181610848015281816109a401528181611050015281816115030152611ab101525181818161078401528181611191015281816114d00152611a51015261012051818181611126015281816113290152611b360152610140518181816106e00152818161097e015281816110f7015281816115280152611ae301526101605181818161069c015281816108220152818161108c015281816115500152611c0201526101805181818161032e01526112f101526101a05181818161038e015261062001526101c05181818161036c01526113700152f35b60405163095ea7b360e01b81526001600160a01b0390911660048201525f19602482015290602090829060449082905f905af1801562000561576200052b575b8062000370565b620005519060203d60201162000559575b620005488183620007f9565b81019062000846565b505f62000524565b503d6200053c565b6040513d5f823e3d90fd5b90506020813d602011620005a9575b816200058a60209383620007f9565b81010312620005a5576200059e9062000831565b5f6200035e565b5f80fd5b3d91506200057b565b620005ce9060203d6020116200055957620005488183620007f9565b505f6200032e565b620005f090853d87116200055957620005488183620007f9565b505f620002f4565b620006149060203d6020116200055957620005488183620007f9565b505f620002a5565b6200063690833d85116200055957620005488183620007f9565b505f62000260565b6200065a9060203d6020116200055957620005488183620007f9565b505f62000215565b90506020813d6020116200069b575b816200068060209383620007f9565b81010312620005a557620006949062000831565b5f620001cf565b3d915062000671565b60405162461bcd60e51b81526020600482015260066024820152653130b210242360d11b6044820152606490fd5b60405162461bcd60e51b815260206004820152600960248201526862616420726174696f60b81b6044820152606490fd5b60405162461bcd60e51b8152602060048201526008602482015267189859081c1bdbdb60c21b6044820152606490fd5b506001600160a01b038216151562000153565b60405162461bcd60e51b815260206004820152600c60248201526b62616420616461707465727360a01b6044820152606490fd5b506001600160a01b03871615156200013a565b506001600160a01b038816151562000133565b62461bcd60e51b81526020600482015260096024820152683d32b9379030b2323960b91b6044820152606490fd5b506001600160a01b03821615156200010d565b604051631e4fbdf760e01b81525f6004820152602490fd5b601f909101601f19168101906001600160401b038211908210176200081d57604052565b634e487b7160e01b5f52604160045260245ffd5b51906001600160a01b0382168203620005a557565b90816020910312620005a557518015158103620005a5579056fe60806040818152600480361015610014575f80fd5b5f91823560e01c93846301e1d1141461166b5750836308101b1e146113935783631d92c26d146113585783631fc170b6146113145783632022ce1e146112d9578363218fa0ac146112ba5783632e1a7d4d14610aa157836338d52e0f146107b35783633bcfc4b8146108c9578363411557d1146101205783634641257d146107b85783634800d97f146107b3578363611e6f1a1461076f578363715018a61461070f5783637535d246146106cb5783637651b1e61461068757836379248d94146106435783638cd85c8f146106085783638da5cb5b146105df578363b6b55f2514610206578363c8aae238146101be578363f2fde38b146101255750505063fbfa77cf14610120575f80fd5b611850565b346101ba5760203660031901126101ba576001600160a01b038235818116939192908490036101b657610156611894565b83156101a0575050600154826bffffffffffffffffffffffff60a01b821617600155167f8be0079c531659141344cd1fd0a4f28419497f9722a3daafe3b4186f6b6457e05f80a380f35b51631e4fbdf760e01b8152908101849052602490fd5b8480fd5b8280fd5b905034610202578160031936011261020257517f00000000000000000000000000000000000000000000000000000000000000006001600160a01b03168152602090f35b5080fd5b90346101ba57602090816003193601126105db576001600160a01b0392813590610253337f00000000000000000000000000000000000000000000000000000000000000008716146118c0565b61025b61197b565b81156105aa5780516370a0823160e01b8152308482015260249590858188817f000000000000000000000000000000000000000000000000000000000000000086165afa908115610509579084918991610579575b5010610546577f00000000000000000000000000000000000000000000000000000000000000001691815190634f783e0960e01b825284820152848187818a875af1801561053c57908591610513575b50508051631aefb10760e01b8082523085830152949081818881875afa9081156105095788916104dc575b507f0000000000000000000000000000000000000000000000000000000000000000908181029181830414901517156104ca576127109004806104bb575b507f0000000000000000000000000000000000000000000000000000000000000000947f0000000000000000000000000000000000000000000000000000000000000000885b8781106103bf575b896001815580f35b8451636ad9f9df60e01b8152308882015284818b818a5afa90811561047b579083918c9161048a575b501115610485578451838152308882015284818b818a5afa801561047b578b90610449575b600a915004801561044357610421906119ca565b5f198114610431576001016103af565b634e487b7160e01b8a5260118752888afd5b506103b7565b508481813d8311610474575b61045f8183611959565b8101031261047057600a905161040d565b5f80fd5b503d610455565b86513d8d823e3d90fd5b6103b7565b809250868092503d83116104b4575b6104a38183611959565b81010312610470578290518c6103e8565b503d610499565b6104c4906119ca565b87610369565b86601186634e487b7160e01b5f52525ffd5b90508181813d8311610502575b6104f38183611959565b8101031261047057518861032b565b503d6104e9565b83513d8a823e3d90fd5b813d8311610535575b6105268183611959565b81010312610470578387610300565b503d61051c565b82513d89823e3d90fd5b815162461bcd60e51b8152808501869052600e818801526d696e73756666696369656e74205360901b6044820152606490fd5b809250878092503d83116105a3575b6105928183611959565b8101031261047057839051896102b0565b503d610588565b6064939150519162461bcd60e51b8352820152600c60248201526b1e995c9bc819195c1bdcda5d60a21b6044820152fd5b8380fd5b90503461020257816003193601126102025760015490516001600160a01b039091168152602090f35b905034610202578160031936011261020257602090517f00000000000000000000000000000000000000000000000000000000000000008152f35b905034610202578160031936011261020257517f00000000000000000000000000000000000000000000000000000000000000006001600160a01b03168152602090f35b905034610202578160031936011261020257517f00000000000000000000000000000000000000000000000000000000000000006001600160a01b03168152602090f35b905034610202578160031936011261020257517f00000000000000000000000000000000000000000000000000000000000000006001600160a01b03168152602090f35b823461076c578060031936011261076c57610728611894565b600180546001600160a01b031981169091555f906001600160a01b03167f8be0079c531659141344cd1fd0a4f28419497f9722a3daafe3b4186f6b6457e08280a380f35b80fd5b905034610202578160031936011261020257517f00000000000000000000000000000000000000000000000000000000000000006001600160a01b03168152602090f35b61180c565b8291346108c557826003193601126108c5576020906001600160a01b0390602490610806337f00000000000000000000000000000000000000000000000000000000000000008516146118c0565b61080e61197b565b8451958693849263515ce51760e01b8452817f000000000000000000000000000000000000000000000000000000000000000016908401527f0000000000000000000000000000000000000000000000000000000000000000165af19182156108bb578392610885575b5060016020935551908152f35b9291506020833d82116108b3575b816108a060209383611959565b8101031261047057915190916001610878565b3d9150610893565b81513d85823e3d90fd5b5050fd5b823461076c578060031936011261076c57815163d2089f7360e01b8152602093906001600160a01b03907f0000000000000000000000000000000000000000000000000000000000000000821686828581845afa918215610a6557849188918794610a6f575b50875163b54f4d8760e01b815292839182905afa908115610a6557908792918691610a36575b5080821115610a2d576109679161199c565b925b602486518094819363a7533e0960e01b8352817f000000000000000000000000000000000000000000000000000000000000000016908301527f0000000000000000000000000000000000000000000000000000000000000000165afa928315610a2257926109ed575b50655af3107a40006109e69204906119bd565b9051908152f35b91508382813d8311610a1b575b610a048183611959565b8101031261047057905190655af3107a40006109d3565b503d6109fa565b8451903d90823e3d90fd5b50508392610969565b83819492503d8311610a5e575b610a4d8183611959565b810103126104705786915188610955565b503d610a43565b86513d87823e3d90fd5b9250925081813d8311610a9a575b610a878183611959565b810103126104705786849151928961092f565b503d610a7d565b90346101ba576020806003193601126105db576001600160a01b03927f0000000000000000000000000000000000000000000000000000000000000000918335610aee33878616146118c0565b610af661197b565b8015611287577f000000000000000000000000000000000000000000000000000000000000000090868216948451976370a0823160e01b90818a5230898b015260249986818c818c5afa908115610e8b579085918d91611252575b5010610ec5575b7f0000000000000000000000000000000000000000000000000000000000000000168a8751631aefb10760e01b8152308b82015287818d81865afa908115610e29579088918391610e95575b5080610e33575b5050875163d283e75f60e01b8152308b82015287818d81865afa908115610e295782918b918e9491610df5575b50898d829583610d1a575b50505050505050508551908152308882015284818a818a5afa908115610d10579083918b91610cdf575b5010610c9d57845163a9059cbb60e01b8582019081526001600160a01b03909216818a019081526020810193909352899392849190610c5990829060400103601f198101835282611959565b51925af115610c945784513d610c8b5750813b155b610c7a57846001815580f35b51635274afe760e01b815291820152fd5b60011415610c6e565b513d85823e3d90fd5b845162461bcd60e51b81528088018590526017818a01527f696e73756666696369656e7420616674657220657869740000000000000000006044820152606490fd5b809250868092503d8311610d09575b610cf88183611959565b81010312610470578290518b610c0d565b503d610cee565b86513d8c823e3d90fd5b8d51809581938b835230908301525afa918215610deb57928e928e928c96958392610db3575b508110610dab575b508b5195869485936395c2448760e01b85528401525af18015610da157908691610d78575b8b8982848d8f610be3565b813d8311610d9a575b610d8b8183611959565b8101031261047057848b610d6d565b503d610d81565b87513d8d823e3d90fd5b93505f610d48565b9450959250505081813d8311610de4575b610dce8183611959565b81010312610470578b8e8a948f9351905f610d40565b503d610dc4565b8b513d85823e3d90fd5b93505050508681813d8311610e22575b610e0f8183611959565b81010312610470578b898c92518f610bd8565b503d610e05565b89513d84823e3d90fd5b8c8c8b5194859384926377e206f360e01b8452830152865af18015610e8b57908791610e62575b908c91610bab565b813d8311610e84575b610e758183611959565b8101031261047057858c610e5a565b503d610e6b565b88513d8e823e3d90fd5b92505081813d8311610ebe575b610eac8183611959565b8101031261047057868c91518e610ba4565b503d610ea2565b6002548061104d575b50865163d283e75f60e01b815230818b01527f00000000000000000000000000000000000000000000000000000000000000008216908c9088818e81865afa90811561104357898d8f8e93869561100b575b5084610f33575b50505050505050610b58565b8d51809481938b835230908301525afa908115610deb5783928f928f928d9691610fd2575b5081811115610fca5750925b83610f73575b93908d92610f27565b8c5195869485936395c2448760e01b85528401525af18015610e8b57908791610fa1575b81908c8c8f610f6a565b813d8311610fc3575b610fb48183611959565b8101031261047057858c610f97565b503d610faa565b905092610f64565b945050938092508391503d8311611004575b610fee8183611959565b81010312610470578c8c8f92938b94515f610f58565b503d610fe4565b955050508092508391503d831161103c575b6110278183611959565b8101031261047057518c908a898d8f5f610f20565b503d61101d565b8a513d84823e3d90fd5b817f000000000000000000000000000000000000000000000000000000000000000016803b1561124e5788516288951f60e11b81526001600160a01b037f000000000000000000000000000000000000000000000000000000000000000016818d01908152602081018490528e9082908190604001038183865af1801561124257611225575b5090888c60c48f94858f918f82600255865197889687956384ef21bd60e01b87528c7f000000000000000000000000000000000000000000000000000000000000000016908701528501526044840152887f00000000000000000000000000000000000000000000000000000000000000001660648401528160848401528160a48401525af1908115610e295790889183916111f2575b5080611178575b5050610ece565b8c8c8b5194859384926359e19dc560e11b8452830152867f0000000000000000000000000000000000000000000000000000000000000000165af18015610e8b579087916111c9575b908c91611171565b813d83116111eb575b6111dc8183611959565b8101031261047057858c6111c1565b503d6111d2565b8092508a8092503d831161121e575b61120b8183611959565b810103126102025787809101518e61116a565b503d611201565b8c8b8d9f6112368d94969596611945565b9f5050509190916110d3565b8e8b51903d90823e3d90fd5b8c80fd5b809250888092503d8311611280575b61126b8183611959565b8101031261127c578490518d610b51565b8b80fd5b503d611261565b825162461bcd60e51b8152808601839052600d60248201526c7a65726f20776974686472617760981b6044820152606490fd5b9050346102025781600319360112610202576020906002549051908152f35b905034610202578160031936011261020257602090517f00000000000000000000000000000000000000000000000000000000000000008152f35b905034610202578160031936011261020257517f00000000000000000000000000000000000000000000000000000000000000006001600160a01b03168152602090f35b905034610202578160031936011261020257602090517f00000000000000000000000000000000000000000000000000000000000000008152f35b913461076c578060031936011261076c5782519161012083019083821067ffffffffffffffff8311176116585750835280825260208201926113d3611dee565b84528083019381516113e4816118f9565b8381528552606084019382516113f9816118f9565b84815285526080810193835161140e816118f9565b8181528552835160a0830191611423826118f9565b8152815260c0820192611434611dee565b845260e0830195611443611dee565b87526101009586850198611455611dee565b8a526001600160a01b037f0000000000000000000000000000000000000000000000000000000000000000811687528251909b8c978896879586948f9061149b816118f9565b867f0000000000000000000000000000000000000000000000000000000000000000168152855281516114cd816118f9565b867f0000000000000000000000000000000000000000000000000000000000000000168152895281519061150082611929565b867f0000000000000000000000000000000000000000000000000000000000000000168252867f0000000000000000000000000000000000000000000000000000000000000000166020830152867f0000000000000000000000000000000000000000000000000000000000000000168383015252519e8f925116825251906020016115ac916040908160018060a01b0391828151168552826020820151166020860152015116910152565b51511660808c015251511660a08a015251511660c088015251511660e08601525180516001600160a01b03908116928601928352602080830151821690840152604091820151169101525180516001600160a01b0390811661016085015260208201518116610180850152604090910151166101a08301525180516001600160a01b039081166101c0840152602082015181166101e08401526040909101511661020082015261022090f35b634e487b7160e01b835260419052602482fd5b8390346102025781600319360112610202576370a0823160e01b815230848201526020936001600160a01b0385836024817f000000000000000000000000000000000000000000000000000000000000000085165afa9283156117a25784936117dd575b507f00000000000000000000000000000000000000000000000000000000000000001691845191631aefb10760e01b835230818401528683602481875afa928315610a655790879186946117ac575b50602487518096819363d283e75f60e01b835230908301525afa9283156117a2578493611771575b5090611751916119bd565b81811115611769576109e6925061199c565b51908152f35b505090611763565b9092508581813d831161179b575b6117898183611959565b810103126105db575191611751611746565b503d61177f565b85513d86823e3d90fd5b8281939295503d83116117d6575b6117c48183611959565b810103126101b657869051928861171e565b503d6117ba565b9092508581813d8311611805575b6117f58183611959565b810103126105db575191866116cf565b503d6117eb565b34610470575f366003190112610470576040517f00000000000000000000000000000000000000000000000000000000000000006001600160a01b03168152602090f35b34610470575f366003190112610470576040517f00000000000000000000000000000000000000000000000000000000000000006001600160a01b03168152602090f35b6001546001600160a01b031633036118a857565b60405163118cdaa760e01b8152336004820152602490fd5b156118c757565b60405162461bcd60e51b815260206004820152600a60248201526913db9b1e481d985d5b1d60b21b6044820152606490fd5b6020810190811067ffffffffffffffff82111761191557604052565b634e487b7160e01b5f52604160045260245ffd5b6060810190811067ffffffffffffffff82111761191557604052565b67ffffffffffffffff811161191557604052565b90601f8019910116810190811067ffffffffffffffff82111761191557604052565b60025f541461198a5760025f55565b604051633ee5aeb560e01b8152600490fd5b919082039182116119a957565b634e487b7160e01b5f52601160045260245ffd5b919082018092116119a957565b6001600160a01b03907f00000000000000000000000000000000000000000000000000000000000000008216803b1561047057604090815190638237abb560e01b82525f938285809460049484868301528160249788925af18015611ce857611ddb575b508060011c92845193636cdea07b60e01b85528084860152602092838684818b8d7f0000000000000000000000000000000000000000000000000000000000000000165af1958615611d23578896611da8575b5090611a8c9161199c565b96611a9785896119bd565b605f810290808204605f1490151715611d965760648591837f0000000000000000000000000000000000000000000000000000000000000000169789519b63d875c70f60e01b8d528c867f00000000000000000000000000000000000000000000000000000000000000001695869101528c87877f0000000000000000000000000000000000000000000000000000000000000000169101528c6044877f000000000000000000000000000000000000000000000000000000000000000016910152838d015260848c01520460a48a0152838960c4818b8a5af1988915611d23578899611d67575b5086519063038941b960e51b82528582015283818481895afa908115611d23578891611d2d575b50168551636eb1769f60e11b8152308582015285838201528381604481855afa908115611d23579088949392918591611cf2575b5015611c80575b50505050813b156105db5782516361c1200160e11b81526001600160a01b037f000000000000000000000000000000000000000000000000000000000000000016918101918252602082018690529291849184919082908490829060400103925af1908115611c775750611c63575b5050611c5e906002546119bd565b600255565b611c6d8291611945565b61076c5780611c50565b513d84823e3d90fd5b604483928851958693849263095ea7b360e01b84528a8a8501525f19908401525af18015611ce857611cb5575b808692611be1565b81813d8311611ce1575b611cc98183611959565b810103126101b65751801515036105db575f80611cad565b503d611cbf565b85513d88823e3d90fd5b809550848092503d8311611d1c575b611d0b8183611959565b81010312610470578793515f611bda565b503d611d01565b87513d8a823e3d90fd5b90508381813d8311611d60575b611d448183611959565b81010312611d5c57518181168103611d5c575f611ba6565b8780fd5b503d611d3a565b9098508381813d8311611d8f575b611d7f8183611959565b810103126104705751975f611b7f565b503d611d75565b634e487b7160e01b8852601185528288fd5b919095508382813d8311611dd4575b611dc18183611959565b8101031261047057905194611a8c611a81565b503d611db7565b611de790959195611945565b935f611a2e565b60405190611dfb82611929565b5f604083828152826020820152015256fea2646970667358221220cf7617a832d01ab3d718395b9811e100a395892131680ae3997aebb7c9ed728764736f6c63430008140033","linkReferences":{}},"methodIdentifiers":{"ASSET()":"4800d97f","BORROW_RATIO()":"2022ce1e","EGGS()":"c8aae238","GAUGE()":"7651b1e6","MAX_ITERATIONS()":"1d92c26d","POOL()":"7535d246","SHADOW()":"79248d94","STS()":"611e6f1a","STS_TOKEN()":"1fc170b6","TARGET_HF()":"8cd85c8f","VAULT()":"411557d1","apy()":"3bcfc4b8","asset()":"38d52e0f","deposit(uint256)":"b6b55f25","harvest()":"4641257d","introspect()":"08101b1e","owner()":"8da5cb5b","renounceOwnership()":"715018a6","stakedLp()":"218fa0ac","totalAssets()":"01e1d114","transferOwnership(address)":"f2fde38b","vault()":"fbfa77cf","withdraw(uint256)":"2e1a7d4d"},"id":67}