{"abi":[{"type":"constructor","inputs":[{"name":"_sToken","type":"address","internalType":"address"},{"name":"_vault","type":"address","internalType":"address"},{"name":"_eggsAdapter","type":"address","internalType":"address"},{"name":"_stSAdapter","type":"address","internalType":"address"},{"name":"_shadowAdapter","type":"address","internalType":"address"},{"name":"_pool","type":"address","internalType":"address"},{"name":"_gauge","type":"address","internalType":"address"},{"name":"_borrowRatio","type":"uint256","internalType":"uint256"},{"name":"_targetHf","type":"uint256","internalType":"uint256"},{"name":"_maxIter","type":"uint256","internalType":"uint256"}],"stateMutability":"nonpayable"},{"type":"function","name":"ASSET","inputs":[],"outputs":[{"name":"","type":"address","internalType":"contract IERC20"}],"stateMutability":"view"},{"type":"function","name":"BORROW_RATIO","inputs":[],"outputs":[{"name":"","type":"uint256","internalType":"uint256"}],"stateMutability":"view"},{"type":"function","name":"EGGS","inputs":[],"outputs":[{"name":"","type":"address","internalType":"contract IEggsAdapter"}],"stateMutability":"view"},{"type":"function","name":"GAUGE","inputs":[],"outputs":[{"name":"","type":"address","internalType":"address"}],"stateMutability":"view"},{"type":"function","name":"MAX_ITERATIONS","inputs":[],"outputs":[{"name":"","type":"uint256","internalType":"uint256"}],"stateMutability":"view"},{"type":"function","name":"POOL","inputs":[],"outputs":[{"name":"","type":"address","internalType":"address"}],"stateMutability":"view"},{"type":"function","name":"SHADOW","inputs":[],"outputs":[{"name":"","type":"address","internalType":"contract IShadowAdapter"}],"stateMutability":"view"},{"type":"function","name":"STS","inputs":[],"outputs":[{"name":"","type":"address","internalType":"contract IStSAdapter"}],"stateMutability":"view"},{"type":"function","name":"STS_TOKEN","inputs":[],"outputs":[{"name":"","type":"address","internalType":"address"}],"stateMutability":"view"},{"type":"function","name":"TARGET_HF","inputs":[],"outputs":[{"name":"","type":"uint256","internalType":"uint256"}],"stateMutability":"view"},{"type":"function","name":"VAULT","inputs":[],"outputs":[{"name":"","type":"address","internalType":"address"}],"stateMutability":"view"},{"type":"function","name":"apy","inputs":[],"outputs":[{"name":"","type":"uint256","internalType":"uint256"}],"stateMutability":"view"},{"type":"function","name":"asset","inputs":[],"outputs":[{"name":"","type":"address","internalType":"contract IERC20"}],"stateMutability":"view"},{"type":"function","name":"deposit","inputs":[{"name":"amount","type":"uint256","internalType":"uint256"}],"outputs":[],"stateMutability":"nonpayable"},{"type":"function","name":"harvest","inputs":[],"outputs":[{"name":"harvested","type":"uint256","internalType":"uint256"}],"stateMutability":"nonpayable"},{"type":"function","name":"owner","inputs":[],"outputs":[{"name":"","type":"address","internalType":"address"}],"stateMutability":"view"},{"type":"function","name":"renounceOwnership","inputs":[],"outputs":[],"stateMutability":"nonpayable"},{"type":"function","name":"stakedLp","inputs":[],"outputs":[{"name":"","type":"uint256","internalType":"uint256"}],"stateMutability":"view"},{"type":"function","name":"totalAssets","inputs":[],"outputs":[{"name":"","type":"uint256","internalType":"uint256"}],"stateMutability":"view"},{"type":"function","name":"transferOwnership","inputs":[{"name":"newOwner","type":"address","internalType":"address"}],"outputs":[],"stateMutability":"nonpayable"},{"type":"function","name":"vault","inputs":[],"outputs":[{"name":"","type":"address","internalType":"address"}],"stateMutability":"view"},{"type":"function","name":"withdraw","inputs":[{"name":"amount","type":"uint256","internalType":"uint256"}],"outputs":[],"stateMutability":"nonpayable"},{"type":"event","name":"OwnershipTransferred","inputs":[{"name":"previousOwner","type":"address","indexed":true,"internalType":"address"},{"name":"newOwner","type":"address","indexed":true,"internalType":"address"}],"anonymous":false},{"type":"error","name":"OwnableInvalidOwner","inputs":[{"name":"owner","type":"address","internalType":"address"}]},{"type":"error","name":"OwnableUnauthorizedAccount","inputs":[{"name":"account","type":"address","internalType":"address"}]},{"type":"error","name":"ReentrancyGuardReentrantCall","inputs":[]},{"type":"error","name":"SafeERC20FailedOperation","inputs":[{"name":"token","type":"address","internalType":"address"}]}],"bytecode":{"object":"0x6101e060405234801562000011575f80fd5b5060405162003d9438038062003d94833981810160405281019062000037919062000ba5565b89893360015f819055505f73ffffffffffffffffffffffffffffffffffffffff168173ffffffffffffffffffffffffffffffffffffffff1603620000b4575f6040517f1e4fbdf7000000000000000000000000000000000000000000000000000000008152600401620000ab919062000ca6565b60405180910390fd5b620000c58162000a4560201b60201c565b505f73ffffffffffffffffffffffffffffffffffffffff168273ffffffffffffffffffffffffffffffffffffffff16141580156200012f57505f73ffffffffffffffffffffffffffffffffffffffff168173ffffffffffffffffffffffffffffffffffffffff1614155b62000171576040517f08c379a0000000000000000000000000000000000000000000000000000000008152600401620001689062000d1f565b60405180910390fd5b8173ffffffffffffffffffffffffffffffffffffffff1660808173ffffffffffffffffffffffffffffffffffffffff16815250508073ffffffffffffffffffffffffffffffffffffffff1660a08173ffffffffffffffffffffffffffffffffffffffff168152505050505f73ffffffffffffffffffffffffffffffffffffffff168873ffffffffffffffffffffffffffffffffffffffff16141580156200024457505f73ffffffffffffffffffffffffffffffffffffffff168673ffffffffffffffffffffffffffffffffffffffff1614155b80156200027d57505f73ffffffffffffffffffffffffffffffffffffffff168773ffffffffffffffffffffffffffffffffffffffff1614155b620002bf576040517f08c379a0000000000000000000000000000000000000000000000000000000008152600401620002b69062000d8d565b60405180910390fd5b5f73ffffffffffffffffffffffffffffffffffffffff168573ffffffffffffffffffffffffffffffffffffffff16141580156200032857505f73ffffffffffffffffffffffffffffffffffffffff168473ffffffffffffffffffffffffffffffffffffffff1614155b6200036a576040517f08c379a0000000000000000000000000000000000000000000000000000000008152600401620003619062000dfb565b60405180910390fd5b612710831115620003b2576040517f08c379a0000000000000000000000000000000000000000000000000000000008152600401620003a99062000e69565b60405180910390fd5b5f8211620003f7576040517f08c379a0000000000000000000000000000000000000000000000000000000008152600401620003ee9062000ed7565b60405180910390fd5b8773ffffffffffffffffffffffffffffffffffffffff1660c08173ffffffffffffffffffffffffffffffffffffffff16815250508573ffffffffffffffffffffffffffffffffffffffff1660e08173ffffffffffffffffffffffffffffffffffffffff16815250508673ffffffffffffffffffffffffffffffffffffffff166101008173ffffffffffffffffffffffffffffffffffffffff16815250508473ffffffffffffffffffffffffffffffffffffffff166101408173ffffffffffffffffffffffffffffffffffffffff16815250508373ffffffffffffffffffffffffffffffffffffffff166101608173ffffffffffffffffffffffffffffffffffffffff1681525050826101808181525050816101a08181525050806101c081815250506101005173ffffffffffffffffffffffffffffffffffffffff166332d148d86040518163ffffffff1660e01b8152600401602060405180830381865afa15801562000566573d5f803e3d5ffd5b505050506040513d601f19601f820116820180604052508101906200058c919062000ef7565b73ffffffffffffffffffffffffffffffffffffffff166101208173ffffffffffffffffffffffffffffffffffffffff16815250508973ffffffffffffffffffffffffffffffffffffffff1663095ea7b3897fffffffffffffffffffffffffffffffffffffffffffffffffffffffffffffffff6040518363ffffffff1660e01b81526004016200061d92919062000f38565b6020604051808303815f875af11580156200063a573d5f803e3d5ffd5b505050506040513d601f19601f8201168201806040525081019062000660919062000f9d565b508973ffffffffffffffffffffffffffffffffffffffff1663095ea7b3887fffffffffffffffffffffffffffffffffffffffffffffffffffffffffffffffff6040518363ffffffff1660e01b8152600401620006be92919062000f38565b6020604051808303815f875af1158015620006db573d5f803e3d5ffd5b505050506040513d601f19601f8201168201806040525081019062000701919062000f9d565b506101205173ffffffffffffffffffffffffffffffffffffffff1663095ea7b3887fffffffffffffffffffffffffffffffffffffffffffffffffffffffffffffffff6040518363ffffffff1660e01b81526004016200076292919062000f38565b6020604051808303815f875af11580156200077f573d5f803e3d5ffd5b505050506040513d601f19601f82011682018060405250810190620007a5919062000f9d565b506101205173ffffffffffffffffffffffffffffffffffffffff1663095ea7b3877fffffffffffffffffffffffffffffffffffffffffffffffffffffffffffffffff6040518363ffffffff1660e01b81526004016200080692919062000f38565b6020604051808303815f875af115801562000823573d5f803e3d5ffd5b505050506040513d601f19601f8201168201806040525081019062000849919062000f9d565b508973ffffffffffffffffffffffffffffffffffffffff1663095ea7b3877fffffffffffffffffffffffffffffffffffffffffffffffffffffffffffffffff6040518363ffffffff1660e01b8152600401620008a792919062000f38565b6020604051808303815f875af1158015620008c4573d5f803e3d5ffd5b505050506040513d601f19601f82011682018060405250810190620008ea919062000f9d565b505f8873ffffffffffffffffffffffffffffffffffffffff1663da58977c6040518163ffffffff1660e01b8152600401602060405180830381865afa15801562000936573d5f803e3d5ffd5b505050506040513d601f19601f820116820180604052508101906200095c919062000ef7565b90505f73ffffffffffffffffffffffffffffffffffffffff168173ffffffffffffffffffffffffffffffffffffffff161462000a34578073ffffffffffffffffffffffffffffffffffffffff1663095ea7b38a7fffffffffffffffffffffffffffffffffffffffffffffffffffffffffffffffff6040518363ffffffff1660e01b8152600401620009ef92919062000f38565b6020604051808303815f875af115801562000a0c573d5f803e3d5ffd5b505050506040513d601f19601f8201168201806040525081019062000a32919062000f9d565b505b505050505050505050505062000fcd565b5f60015f9054906101000a900473ffffffffffffffffffffffffffffffffffffffff1690508160015f6101000a81548173ffffffffffffffffffffffffffffffffffffffff021916908373ffffffffffffffffffffffffffffffffffffffff1602179055508173ffffffffffffffffffffffffffffffffffffffff168173ffffffffffffffffffffffffffffffffffffffff167f8be0079c531659141344cd1fd0a4f28419497f9722a3daafe3b4186f6b6457e060405160405180910390a35050565b5f80fd5b5f73ffffffffffffffffffffffffffffffffffffffff82169050919050565b5f62000b378262000b0c565b9050919050565b62000b498162000b2b565b811462000b54575f80fd5b50565b5f8151905062000b678162000b3e565b92915050565b5f819050919050565b62000b818162000b6d565b811462000b8c575f80fd5b50565b5f8151905062000b9f8162000b76565b92915050565b5f805f805f805f805f806101408b8d03121562000bc75762000bc662000b08565b5b5f62000bd68d828e0162000b57565b9a5050602062000be98d828e0162000b57565b995050604062000bfc8d828e0162000b57565b985050606062000c0f8d828e0162000b57565b975050608062000c228d828e0162000b57565b96505060a062000c358d828e0162000b57565b95505060c062000c488d828e0162000b57565b94505060e062000c5b8d828e0162000b8f565b93505061010062000c6f8d828e0162000b8f565b92505061012062000c838d828e0162000b8f565b9150509295989b9194979a5092959850565b62000ca08162000b2b565b82525050565b5f60208201905062000cbb5f83018462000c95565b92915050565b5f82825260208201905092915050565b7f7a65726f206164647200000000000000000000000000000000000000000000005f82015250565b5f62000d0760098362000cc1565b915062000d148262000cd1565b602082019050919050565b5f6020820190508181035f83015262000d388162000cf9565b9050919050565b7f62616420616461707465727300000000000000000000000000000000000000005f82015250565b5f62000d75600c8362000cc1565b915062000d828262000d3f565b602082019050919050565b5f6020820190508181035f83015262000da68162000d67565b9050919050565b7f62616420706f6f6c0000000000000000000000000000000000000000000000005f82015250565b5f62000de360088362000cc1565b915062000df08262000dad565b602082019050919050565b5f6020820190508181035f83015262000e148162000dd5565b9050919050565b7f62616420726174696f00000000000000000000000000000000000000000000005f82015250565b5f62000e5160098362000cc1565b915062000e5e8262000e1b565b602082019050919050565b5f6020820190508181035f83015262000e828162000e43565b9050919050565b7f62616420484600000000000000000000000000000000000000000000000000005f82015250565b5f62000ebf60068362000cc1565b915062000ecc8262000e89565b602082019050919050565b5f6020820190508181035f83015262000ef08162000eb1565b9050919050565b5f6020828403121562000f0f5762000f0e62000b08565b5b5f62000f1e8482850162000b57565b91505092915050565b62000f328162000b6d565b82525050565b5f60408201905062000f4d5f83018562000c95565b62000f5c602083018462000f27565b9392505050565b5f8115159050919050565b62000f798162000f63565b811462000f84575f80fd5b50565b5f8151905062000f978162000f6e565b92915050565b5f6020828403121562000fb55762000fb462000b08565b5b5f62000fc48482850162000f87565b91505092915050565b60805160a05160c05160e05161010051610120516101405161016051610180516101a0516101c051612bda620011ba5f395f81816105c4015261145501525f81816110ce015261151801525f818161060c015261140901525f8181610f7d0152818161108601528181611784015261223001525f8181610ddd015281816110620152818161183401528181611f13015261201901525f81816105e8015281816118770152611f5501525f818161102b015281816119050152611e0501525f8181610da101528181610f41015281816110aa01528181611748015281816117f801528181611ed701528181611fdd015281816120b50152818161215301526121f401525f818161045d015281816104f8015281816107bb0152818161085d015281816108f901528181610a4601528181610c6401528181610cf4015281816112d00152818161136b0152818161147e0152818161154801528181611627015281816119a301528181611afa0152611d6e01525f818161063601528181610bc301528181610e8601528181610eab0152818161111a01526116d001525f81816103c20152818161070f015281816109a001528181610ae301528181610be501528181610c3c01528181611007015281816111f30152818161185601528181611a460152611f340152612bda5ff3fe608060405234801561000f575f80fd5b5060043610610140575f3560e01c8063611e6f1a116100b65780638cd85c8f1161007a5780638cd85c8f1461030e5780638da5cb5b1461032c578063b6b55f251461034a578063c8aae23814610366578063f2fde38b14610384578063fbfa77cf146103a057610140565b8063611e6f1a1461028c578063715018a6146102aa5780637535d246146102b45780637651b1e6146102d257806379248d94146102f057610140565b80632e1a7d4d116101085780632e1a7d4d146101da57806338d52e0f146101f65780633bcfc4b814610214578063411557d1146102325780634641257d146102505780634800d97f1461026e57610140565b806301e1d114146101445780631d92c26d146101625780631fc170b6146101805780632022ce1e1461019e578063218fa0ac146101bc575b5f80fd5b61014c6103be565b6040516101599190612375565b60405180910390f35b61016a6105c2565b6040516101779190612375565b60405180910390f35b6101886105e6565b60405161019591906123cd565b60405180910390f35b6101a661060a565b6040516101b39190612375565b60405180910390f35b6101c461062e565b6040516101d19190612375565b60405180910390f35b6101f460048036038101906101ef9190612414565b610634565b005b6101fe610c39565b60405161020b919061249a565b60405180910390f35b61021c610c60565b6040516102299190612375565b60405180910390f35b61023a610e84565b60405161024791906123cd565b60405180910390f35b610258610ea8565b6040516102659190612375565b60405180910390f35b610276611005565b604051610283919061249a565b60405180910390f35b610294611029565b6040516102a191906124d3565b60405180910390f35b6102b261104d565b005b6102bc611060565b6040516102c991906123cd565b60405180910390f35b6102da611084565b6040516102e791906123cd565b60405180910390f35b6102f86110a8565b604051610305919061250c565b60405180910390f35b6103166110cc565b6040516103239190612375565b60405180910390f35b6103346110f0565b60405161034191906123cd565b60405180910390f35b610364600480360381019061035f9190612414565b611118565b005b61036e611625565b60405161037b9190612545565b60405180910390f35b61039e60048036038101906103999190612588565b611649565b005b6103a86116cd565b6040516103b591906123cd565b60405180910390f35b5f807f000000000000000000000000000000000000000000000000000000000000000073ffffffffffffffffffffffffffffffffffffffff166370a08231306040518263ffffffff1660e01b815260040161041991906123cd565b602060405180830381865afa158015610434573d5f803e3d5ffd5b505050506040513d601f19601f8201168201806040525081019061045891906125c7565b90505f7f000000000000000000000000000000000000000000000000000000000000000073ffffffffffffffffffffffffffffffffffffffff16631aefb107306040518263ffffffff1660e01b81526004016104b491906123cd565b602060405180830381865afa1580156104cf573d5f803e3d5ffd5b505050506040513d601f19601f820116820180604052508101906104f391906125c7565b90505f7f000000000000000000000000000000000000000000000000000000000000000073ffffffffffffffffffffffffffffffffffffffff1663d283e75f306040518263ffffffff1660e01b815260040161054f91906123cd565b602060405180830381865afa15801561056a573d5f803e3d5ffd5b505050506040513d601f19601f8201168201806040525081019061058e91906125c7565b90505f828461059d919061261f565b90508181116105ac575f6105b9565b81816105b89190612652565b5b94505050505090565b7f000000000000000000000000000000000000000000000000000000000000000081565b7f000000000000000000000000000000000000000000000000000000000000000081565b7f000000000000000000000000000000000000000000000000000000000000000081565b60025481565b7f000000000000000000000000000000000000000000000000000000000000000073ffffffffffffffffffffffffffffffffffffffff163373ffffffffffffffffffffffffffffffffffffffff16146106c2576040517f08c379a00000000000000000000000000000000000000000000000000000000081526004016106b9906126df565b60405180910390fd5b6106ca6116f4565b5f811161070c576040517f08c379a000000000000000000000000000000000000000000000000000000000815260040161070390612747565b60405180910390fd5b5f7f000000000000000000000000000000000000000000000000000000000000000073ffffffffffffffffffffffffffffffffffffffff166370a08231306040518263ffffffff1660e01b815260040161076691906123cd565b602060405180830381865afa158015610781573d5f803e3d5ffd5b505050506040513d601f19601f820116820180604052508101906107a591906125c7565b9050818110156107b8576107b7611738565b5b5f7f000000000000000000000000000000000000000000000000000000000000000073ffffffffffffffffffffffffffffffffffffffff16631aefb107306040518263ffffffff1660e01b815260040161081291906123cd565b602060405180830381865afa15801561082d573d5f803e3d5ffd5b505050506040513d601f19601f8201168201806040525081019061085191906125c7565b90505f8111156108f6577f000000000000000000000000000000000000000000000000000000000000000073ffffffffffffffffffffffffffffffffffffffff166377e206f3826040518263ffffffff1660e01b81526004016108b49190612375565b6020604051808303815f875af11580156108d0573d5f803e3d5ffd5b505050506040513d601f19601f820116820180604052508101906108f491906125c7565b505b5f7f000000000000000000000000000000000000000000000000000000000000000073ffffffffffffffffffffffffffffffffffffffff1663d283e75f306040518263ffffffff1660e01b815260040161095091906123cd565b602060405180830381865afa15801561096b573d5f803e3d5ffd5b505050506040513d601f19601f8201168201806040525081019061098f91906125c7565b90505f8190505f811115610ae0575f7f000000000000000000000000000000000000000000000000000000000000000073ffffffffffffffffffffffffffffffffffffffff166370a08231306040518263ffffffff1660e01b81526004016109f791906123cd565b602060405180830381865afa158015610a12573d5f803e3d5ffd5b505050506040513d601f19601f82011682018060405250810190610a3691906125c7565b905080821115610a44578091505b7f000000000000000000000000000000000000000000000000000000000000000073ffffffffffffffffffffffffffffffffffffffff166395c24487836040518263ffffffff1660e01b8152600401610a9d9190612375565b6020604051808303815f875af1158015610ab9573d5f803e3d5ffd5b505050506040513d601f19601f82011682018060405250810190610add91906125c7565b50505b5f7f000000000000000000000000000000000000000000000000000000000000000073ffffffffffffffffffffffffffffffffffffffff166370a08231306040518263ffffffff1660e01b8152600401610b3a91906123cd565b602060405180830381865afa158015610b55573d5f803e3d5ffd5b505050506040513d601f19601f82011682018060405250810190610b7991906125c7565b905085811015610bbe576040517f08c379a0000000000000000000000000000000000000000000000000000000008152600401610bb5906127af565b60405180910390fd5b610c297f0000000000000000000000000000000000000000000000000000000000000000877f000000000000000000000000000000000000000000000000000000000000000073ffffffffffffffffffffffffffffffffffffffff16611b9a9092919063ffffffff16565b5050505050610c36611c19565b50565b5f7f0000000000000000000000000000000000000000000000000000000000000000905090565b5f807f000000000000000000000000000000000000000000000000000000000000000073ffffffffffffffffffffffffffffffffffffffff1663d2089f736040518163ffffffff1660e01b8152600401602060405180830381865afa158015610ccb573d5f803e3d5ffd5b505050506040513d601f19601f82011682018060405250810190610cef91906125c7565b90505f7f000000000000000000000000000000000000000000000000000000000000000073ffffffffffffffffffffffffffffffffffffffff1663b54f4d876040518163ffffffff1660e01b8152600401602060405180830381865afa158015610d5b573d5f803e3d5ffd5b505050506040513d601f19601f82011682018060405250810190610d7f91906125c7565b90505f818311610d8f575f610d9c565b8183610d9b9190612652565b5b90505f7f000000000000000000000000000000000000000000000000000000000000000073ffffffffffffffffffffffffffffffffffffffff1663a7533e097f00000000000000000000000000000000000000000000000000000000000000006040518263ffffffff1660e01b8152600401610e1891906123cd565b602060405180830381865afa158015610e33573d5f803e3d5ffd5b505050506040513d601f19601f82011682018060405250810190610e5791906125c7565b90505f655af3107a400082610e6c91906127fa565b90508083610e7a919061261f565b9550505050505090565b7f000000000000000000000000000000000000000000000000000000000000000081565b5f7f000000000000000000000000000000000000000000000000000000000000000073ffffffffffffffffffffffffffffffffffffffff163373ffffffffffffffffffffffffffffffffffffffff1614610f37576040517f08c379a0000000000000000000000000000000000000000000000000000000008152600401610f2e906126df565b60405180910390fd5b610f3f6116f4565b7f000000000000000000000000000000000000000000000000000000000000000073ffffffffffffffffffffffffffffffffffffffff1663515ce5177f00000000000000000000000000000000000000000000000000000000000000006040518263ffffffff1660e01b8152600401610fb891906123cd565b6020604051808303815f875af1158015610fd4573d5f803e3d5ffd5b505050506040513d601f19601f82011682018060405250810190610ff891906125c7565b9050611002611c19565b90565b7f000000000000000000000000000000000000000000000000000000000000000081565b7f000000000000000000000000000000000000000000000000000000000000000081565b611055611c22565b61105e5f611ca9565b565b7f000000000000000000000000000000000000000000000000000000000000000081565b7f000000000000000000000000000000000000000000000000000000000000000081565b7f000000000000000000000000000000000000000000000000000000000000000081565b7f000000000000000000000000000000000000000000000000000000000000000081565b5f60015f9054906101000a900473ffffffffffffffffffffffffffffffffffffffff16905090565b7f000000000000000000000000000000000000000000000000000000000000000073ffffffffffffffffffffffffffffffffffffffff163373ffffffffffffffffffffffffffffffffffffffff16146111a6576040517f08c379a000000000000000000000000000000000000000000000000000000000815260040161119d906126df565b60405180910390fd5b6111ae6116f4565b5f81116111f0576040517f08c379a00000000000000000000000000000000000000000000000000000000081526004016111e790612874565b60405180910390fd5b5f7f000000000000000000000000000000000000000000000000000000000000000073ffffffffffffffffffffffffffffffffffffffff166370a08231306040518263ffffffff1660e01b815260040161124a91906123cd565b602060405180830381865afa158015611265573d5f803e3d5ffd5b505050506040513d601f19601f8201168201806040525081019061128991906125c7565b9050818110156112ce576040517f08c379a00000000000000000000000000000000000000000000000000000000081526004016112c5906128dc565b60405180910390fd5b7f000000000000000000000000000000000000000000000000000000000000000073ffffffffffffffffffffffffffffffffffffffff16634f783e09836040518263ffffffff1660e01b81526004016113279190612375565b6020604051808303815f875af1158015611343573d5f803e3d5ffd5b505050506040513d601f19601f8201168201806040525081019061136791906125c7565b505f7f000000000000000000000000000000000000000000000000000000000000000073ffffffffffffffffffffffffffffffffffffffff16631aefb107306040518263ffffffff1660e01b81526004016113c291906123cd565b602060405180830381865afa1580156113dd573d5f803e3d5ffd5b505050506040513d601f19601f8201168201806040525081019061140191906125c7565b90505f6127107f00000000000000000000000000000000000000000000000000000000000000008361143391906128fa565b61143d91906127fa565b90505f8111156114515761145081611d6c565b5b5f5b7f0000000000000000000000000000000000000000000000000000000000000000811015611616575f7f000000000000000000000000000000000000000000000000000000000000000073ffffffffffffffffffffffffffffffffffffffff16636ad9f9df306040518263ffffffff1660e01b81526004016114d591906123cd565b602060405180830381865afa1580156114f0573d5f803e3d5ffd5b505050506040513d601f19601f8201168201806040525081019061151491906125c7565b90507f000000000000000000000000000000000000000000000000000000000000000081116115435750611616565b5f600a7f000000000000000000000000000000000000000000000000000000000000000073ffffffffffffffffffffffffffffffffffffffff16631aefb107306040518263ffffffff1660e01b815260040161159f91906123cd565b602060405180830381865afa1580156115ba573d5f803e3d5ffd5b505050506040513d601f19601f820116820180604052508101906115de91906125c7565b6115e891906127fa565b90505f81036115f8575050611616565b61160181611d6c565b5050808061160e9061293b565b915050611453565b50505050611622611c19565b50565b7f000000000000000000000000000000000000000000000000000000000000000081565b611651611c22565b5f73ffffffffffffffffffffffffffffffffffffffff168173ffffffffffffffffffffffffffffffffffffffff16036116c1575f6040517f1e4fbdf70000000000000000000000000000000000000000000000000000000081526004016116b891906123cd565b60405180910390fd5b6116ca81611ca9565b50565b5f7f0000000000000000000000000000000000000000000000000000000000000000905090565b60025f540361172f576040517f3ee5aeb500000000000000000000000000000000000000000000000000000000815260040160405180910390fd5b60025f81905550565b5f60025490505f8111156119a0577f000000000000000000000000000000000000000000000000000000000000000073ffffffffffffffffffffffffffffffffffffffff166301112a3e7f0000000000000000000000000000000000000000000000000000000000000000836040518363ffffffff1660e01b81526004016117c1929190612982565b5f604051808303815f87803b1580156117d8575f80fd5b505af11580156117ea573d5f803e3d5ffd5b505050505f6002819055505f7f000000000000000000000000000000000000000000000000000000000000000073ffffffffffffffffffffffffffffffffffffffff166384ef21bd7f0000000000000000000000000000000000000000000000000000000000000000847f00000000000000000000000000000000000000000000000000000000000000007f00000000000000000000000000000000000000000000000000000000000000005f806040518763ffffffff1660e01b81526004016118b9969594939291906129e2565b60408051808303815f875af11580156118d4573d5f803e3d5ffd5b505050506040513d601f19601f820116820180604052508101906118f89190612a41565b9150505f81111561199e577f000000000000000000000000000000000000000000000000000000000000000073ffffffffffffffffffffffffffffffffffffffff1663b3c33b8a826040518263ffffffff1660e01b815260040161195c9190612375565b6020604051808303815f875af1158015611978573d5f803e3d5ffd5b505050506040513d601f19601f8201168201806040525081019061199c91906125c7565b505b505b5f7f000000000000000000000000000000000000000000000000000000000000000073ffffffffffffffffffffffffffffffffffffffff1663d283e75f306040518263ffffffff1660e01b81526004016119fa91906123cd565b602060405180830381865afa158015611a15573d5f803e3d5ffd5b505050506040513d601f19601f82011682018060405250810190611a3991906125c7565b90505f811115611b96575f7f000000000000000000000000000000000000000000000000000000000000000073ffffffffffffffffffffffffffffffffffffffff166370a08231306040518263ffffffff1660e01b8152600401611a9d91906123cd565b602060405180830381865afa158015611ab8573d5f803e3d5ffd5b505050506040513d601f19601f82011682018060405250810190611adc91906125c7565b90505f828211611aec5781611aee565b825b90505f811115611b93577f000000000000000000000000000000000000000000000000000000000000000073ffffffffffffffffffffffffffffffffffffffff166395c24487826040518263ffffffff1660e01b8152600401611b519190612375565b6020604051808303815f875af1158015611b6d573d5f803e3d5ffd5b505050506040513d601f19601f82011682018060405250810190611b9191906125c7565b505b50505b5050565b611c14838473ffffffffffffffffffffffffffffffffffffffff1663a9059cbb8585604051602401611bcd929190612982565b604051602081830303815290604052915060e01b6020820180517bffffffffffffffffffffffffffffffffffffffffffffffffffffffff83818316178352505050506122bb565b505050565b60015f81905550565b611c2a612356565b73ffffffffffffffffffffffffffffffffffffffff16611c486110f0565b73ffffffffffffffffffffffffffffffffffffffff1614611ca757611c6b612356565b6040517f118cdaa7000000000000000000000000000000000000000000000000000000008152600401611c9e91906123cd565b60405180910390fd5b565b5f60015f9054906101000a900473ffffffffffffffffffffffffffffffffffffffff1690508160015f6101000a81548173ffffffffffffffffffffffffffffffffffffffff021916908373ffffffffffffffffffffffffffffffffffffffff1602179055508173ffffffffffffffffffffffffffffffffffffffff168173ffffffffffffffffffffffffffffffffffffffff167f8be0079c531659141344cd1fd0a4f28419497f9722a3daafe3b4186f6b6457e060405160405180910390a35050565b7f000000000000000000000000000000000000000000000000000000000000000073ffffffffffffffffffffffffffffffffffffffff16638237abb5826040518263ffffffff1660e01b8152600401611dc59190612375565b5f604051808303815f87803b158015611ddc575f80fd5b505af1158015611dee573d5f803e3d5ffd5b505050505f600282611e0091906127fa565b90505f7f000000000000000000000000000000000000000000000000000000000000000073ffffffffffffffffffffffffffffffffffffffff16636cdea07b836040518263ffffffff1660e01b8152600401611e5c9190612375565b6020604051808303815f875af1158015611e78573d5f803e3d5ffd5b505050506040513d601f19601f82011682018060405250810190611e9c91906125c7565b90505f8284611eab9190612652565b90505f6064605f8484611ebe919061261f565b611ec891906128fa565b611ed291906127fa565b90505f7f000000000000000000000000000000000000000000000000000000000000000073ffffffffffffffffffffffffffffffffffffffff1663d875c70f7f00000000000000000000000000000000000000000000000000000000000000007f00000000000000000000000000000000000000000000000000000000000000007f00000000000000000000000000000000000000000000000000000000000000008789886040518763ffffffff1660e01b8152600401611f9896959493929190612a7f565b6020604051808303815f875af1158015611fb4573d5f803e3d5ffd5b505050506040513d601f19601f82011682018060405250810190611fd891906125c7565b90505f7f000000000000000000000000000000000000000000000000000000000000000073ffffffffffffffffffffffffffffffffffffffff1663712837207f00000000000000000000000000000000000000000000000000000000000000006040518263ffffffff1660e01b815260040161205491906123cd565b602060405180830381865afa15801561206f573d5f803e3d5ffd5b505050506040513d601f19601f820116820180604052508101906120939190612af2565b90505f8173ffffffffffffffffffffffffffffffffffffffff1663dd62ed3e307f00000000000000000000000000000000000000000000000000000000000000006040518363ffffffff1660e01b81526004016120f1929190612b1d565b602060405180830381865afa15801561210c573d5f803e3d5ffd5b505050506040513d601f19601f8201168201806040525081019061213091906125c7565b036121f2578073ffffffffffffffffffffffffffffffffffffffff1663095ea7b37f00000000000000000000000000000000000000000000000000000000000000007fffffffffffffffffffffffffffffffffffffffffffffffffffffffffffffffff6040518363ffffffff1660e01b81526004016121b0929190612982565b6020604051808303815f875af11580156121cc573d5f803e3d5ffd5b505050506040513d601f19601f820116820180604052508101906121f09190612b79565b505b7f000000000000000000000000000000000000000000000000000000000000000073ffffffffffffffffffffffffffffffffffffffff1663c38240027f0000000000000000000000000000000000000000000000000000000000000000846040518363ffffffff1660e01b815260040161226d929190612982565b5f604051808303815f87803b158015612284575f80fd5b505af1158015612296573d5f803e3d5ffd5b505050508160025f8282546122ab919061261f565b9250508190555050505050505050565b5f8060205f8451602086015f885af1806122da576040513d5f823e3d81fd5b3d92505f519150505f82146122f357600181141561230e565b5f8473ffffffffffffffffffffffffffffffffffffffff163b145b1561235057836040517f5274afe700000000000000000000000000000000000000000000000000000000815260040161234791906123cd565b60405180910390fd5b50505050565b5f33905090565b5f819050919050565b61236f8161235d565b82525050565b5f6020820190506123885f830184612366565b92915050565b5f73ffffffffffffffffffffffffffffffffffffffff82169050919050565b5f6123b78261238e565b9050919050565b6123c7816123ad565b82525050565b5f6020820190506123e05f8301846123be565b92915050565b5f80fd5b6123f38161235d565b81146123fd575f80fd5b50565b5f8135905061240e816123ea565b92915050565b5f60208284031215612429576124286123e6565b5b5f61243684828501612400565b91505092915050565b5f819050919050565b5f61246261245d6124588461238e565b61243f565b61238e565b9050919050565b5f61247382612448565b9050919050565b5f61248482612469565b9050919050565b6124948161247a565b82525050565b5f6020820190506124ad5f83018461248b565b92915050565b5f6124bd82612469565b9050919050565b6124cd816124b3565b82525050565b5f6020820190506124e65f8301846124c4565b92915050565b5f6124f682612469565b9050919050565b612506816124ec565b82525050565b5f60208201905061251f5f8301846124fd565b92915050565b5f61252f82612469565b9050919050565b61253f81612525565b82525050565b5f6020820190506125585f830184612536565b92915050565b612567816123ad565b8114612571575f80fd5b50565b5f813590506125828161255e565b92915050565b5f6020828403121561259d5761259c6123e6565b5b5f6125aa84828501612574565b91505092915050565b5f815190506125c1816123ea565b92915050565b5f602082840312156125dc576125db6123e6565b5b5f6125e9848285016125b3565b91505092915050565b7f4e487b71000000000000000000000000000000000000000000000000000000005f52601160045260245ffd5b5f6126298261235d565b91506126348361235d565b925082820190508082111561264c5761264b6125f2565b5b92915050565b5f61265c8261235d565b91506126678361235d565b925082820390508181111561267f5761267e6125f2565b5b92915050565b5f82825260208201905092915050565b7f4f6e6c79207661756c74000000000000000000000000000000000000000000005f82015250565b5f6126c9600a83612685565b91506126d482612695565b602082019050919050565b5f6020820190508181035f8301526126f6816126bd565b9050919050565b7f7a65726f207769746864726177000000000000000000000000000000000000005f82015250565b5f612731600d83612685565b915061273c826126fd565b602082019050919050565b5f6020820190508181035f83015261275e81612725565b9050919050565b7f696e73756666696369656e7420616674657220657869740000000000000000005f82015250565b5f612799601783612685565b91506127a482612765565b602082019050919050565b5f6020820190508181035f8301526127c68161278d565b9050919050565b7f4e487b71000000000000000000000000000000000000000000000000000000005f52601260045260245ffd5b5f6128048261235d565b915061280f8361235d565b92508261281f5761281e6127cd565b5b828204905092915050565b7f7a65726f206465706f73697400000000000000000000000000000000000000005f82015250565b5f61285e600c83612685565b91506128698261282a565b602082019050919050565b5f6020820190508181035f83015261288b81612852565b9050919050565b7f696e73756666696369656e7420530000000000000000000000000000000000005f82015250565b5f6128c6600e83612685565b91506128d182612892565b602082019050919050565b5f6020820190508181035f8301526128f3816128ba565b9050919050565b5f6129048261235d565b915061290f8361235d565b925082820261291d8161235d565b91508282048414831517612934576129336125f2565b5b5092915050565b5f6129458261235d565b91507fffffffffffffffffffffffffffffffffffffffffffffffffffffffffffffffff8203612977576129766125f2565b5b600182019050919050565b5f6040820190506129955f8301856123be565b6129a26020830184612366565b9392505050565b5f819050919050565b5f6129cc6129c76129c2846129a9565b61243f565b61235d565b9050919050565b6129dc816129b2565b82525050565b5f60c0820190506129f55f8301896123be565b612a026020830188612366565b612a0f60408301876123be565b612a1c60608301866123be565b612a2960808301856129d3565b612a3660a08301846129d3565b979650505050505050565b5f8060408385031215612a5757612a566123e6565b5b5f612a64858286016125b3565b9250506020612a75858286016125b3565b9150509250929050565b5f60c082019050612a925f8301896123be565b612a9f60208301886123be565b612aac60408301876123be565b612ab96060830186612366565b612ac66080830185612366565b612ad360a0830184612366565b979650505050505050565b5f81519050612aec8161255e565b92915050565b5f60208284031215612b0757612b066123e6565b5b5f612b1484828501612ade565b91505092915050565b5f604082019050612b305f8301856123be565b612b3d60208301846123be565b9392505050565b5f8115159050919050565b612b5881612b44565b8114612b62575f80fd5b50565b5f81519050612b7381612b4f565b92915050565b5f60208284031215612b8e57612b8d6123e6565b5b5f612b9b84828501612b65565b9150509291505056fea264697066735822122019a7a33e74c43d29cba99730a228d9de17c97b3480479bb20c7fd752e911c1db64736f6c63430008140033","linkReferences":{}},"methodIdentifiers":{"ASSET()":"4800d97f","BORROW_RATIO()":"2022ce1e","EGGS()":"c8aae238","GAUGE()":"7651b1e6","MAX_ITERATIONS()":"1d92c26d","POOL()":"7535d246","SHADOW()":"79248d94","STS()":"611e6f1a","STS_TOKEN()":"1fc170b6","TARGET_HF()":"8cd85c8f","VAULT()":"411557d1","apy()":"3bcfc4b8","asset()":"38d52e0f","deposit(uint256)":"b6b55f25","harvest()":"4641257d","owner()":"8da5cb5b","renounceOwnership()":"715018a6","stakedLp()":"218fa0ac","totalAssets()":"01e1d114","transferOwnership(address)":"f2fde38b","vault()":"fbfa77cf","withdraw(uint256)":"2e1a7d4d"},"id":56}