{"abi":[{"type":"constructor","inputs":[{"name":"_stS","type":"address","internalType":"address"},{"name":"_vault","type":"address","internalType":"address"},{"name":"_pendleAdapter","type":"address","internalType":"address"},{"name":"_lendingAdapter","type":"address","internalType":"address"}],"stateMutability":"nonpayable"},{"type":"function","name":"ASSET","inputs":[],"outputs":[{"name":"","type":"address","internalType":"contract IERC20"}],"stateMutability":"view"},{"type":"function","name":"LENDING","inputs":[],"outputs":[{"name":"","type":"address","internalType":"contract ILendingAdapter"}],"stateMutability":"view"},{"type":"function","name":"PENDLE","inputs":[],"outputs":[{"name":"","type":"address","internalType":"contract IPendleAdapter"}],"stateMutability":"view"},{"type":"function","name":"STABLE","inputs":[],"outputs":[{"name":"","type":"address","internalType":"address"}],"stateMutability":"view"},{"type":"function","name":"VAULT","inputs":[],"outputs":[{"name":"","type":"address","internalType":"address"}],"stateMutability":"view"},{"type":"function","name":"apy","inputs":[],"outputs":[{"name":"","type":"uint256","internalType":"uint256"}],"stateMutability":"view"},{"type":"function","name":"asset","inputs":[],"outputs":[{"name":"","type":"address","internalType":"contract IERC20"}],"stateMutability":"view"},{"type":"function","name":"deposit","inputs":[{"name":"amount","type":"uint256","internalType":"uint256"}],"outputs":[],"stateMutability":"nonpayable"},{"type":"function","name":"harvest","inputs":[],"outputs":[{"name":"harvested","type":"uint256","internalType":"uint256"}],"stateMutability":"nonpayable"},{"type":"function","name":"owner","inputs":[],"outputs":[{"name":"","type":"address","internalType":"address"}],"stateMutability":"view"},{"type":"function","name":"ptBalance","inputs":[],"outputs":[{"name":"","type":"uint256","internalType":"uint256"}],"stateMutability":"view"},{"type":"function","name":"renounceOwnership","inputs":[],"outputs":[],"stateMutability":"nonpayable"},{"type":"function","name":"totalAssets","inputs":[],"outputs":[{"name":"","type":"uint256","internalType":"uint256"}],"stateMutability":"view"},{"type":"function","name":"transferOwnership","inputs":[{"name":"newOwner","type":"address","internalType":"address"}],"outputs":[],"stateMutability":"nonpayable"},{"type":"function","name":"vault","inputs":[],"outputs":[{"name":"","type":"address","internalType":"address"}],"stateMutability":"view"},{"type":"function","name":"withdraw","inputs":[{"name":"amount","type":"uint256","internalType":"uint256"}],"outputs":[],"stateMutability":"nonpayable"},{"type":"event","name":"OwnershipTransferred","inputs":[{"name":"previousOwner","type":"address","indexed":true,"internalType":"address"},{"name":"newOwner","type":"address","indexed":true,"internalType":"address"}],"anonymous":false},{"type":"error","name":"OwnableInvalidOwner","inputs":[{"name":"owner","type":"address","internalType":"address"}]},{"type":"error","name":"OwnableUnauthorizedAccount","inputs":[{"name":"account","type":"address","internalType":"address"}]},{"type":"error","name":"ReentrancyGuardReentrantCall","inputs":[]},{"type":"error","name":"SafeERC20FailedOperation","inputs":[{"name":"token","type":"address","internalType":"address"}]}],"bytecode":{"object":"0x61012060405234801562000011575f80fd5b5060405162002a4e38038062002a4e833981810160405281019062000037919062000941565b83833360015f819055505f73ffffffffffffffffffffffffffffffffffffffff168173ffffffffffffffffffffffffffffffffffffffff1603620000b4575f6040517f1e4fbdf7000000000000000000000000000000000000000000000000000000008152600401620000ab9190620009c1565b60405180910390fd5b620000c5816200081960201b60201c565b505f73ffffffffffffffffffffffffffffffffffffffff168273ffffffffffffffffffffffffffffffffffffffff16141580156200012f57505f73ffffffffffffffffffffffffffffffffffffffff168173ffffffffffffffffffffffffffffffffffffffff1614155b62000171576040517f08c379a0000000000000000000000000000000000000000000000000000000008152600401620001689062000a3a565b60405180910390fd5b8173ffffffffffffffffffffffffffffffffffffffff1660808173ffffffffffffffffffffffffffffffffffffffff16815250508073ffffffffffffffffffffffffffffffffffffffff1660a08173ffffffffffffffffffffffffffffffffffffffff168152505050505f73ffffffffffffffffffffffffffffffffffffffff168273ffffffffffffffffffffffffffffffffffffffff16141580156200024457505f73ffffffffffffffffffffffffffffffffffffffff168173ffffffffffffffffffffffffffffffffffffffff1614155b62000286576040517f08c379a00000000000000000000000000000000000000000000000000000000081526004016200027d9062000aa8565b60405180910390fd5b8173ffffffffffffffffffffffffffffffffffffffff1660c08173ffffffffffffffffffffffffffffffffffffffff16815250508073ffffffffffffffffffffffffffffffffffffffff1660e08173ffffffffffffffffffffffffffffffffffffffff16815250508173ffffffffffffffffffffffffffffffffffffffff1663a9d75b2b6040518163ffffffff1660e01b8152600401602060405180830381865afa15801562000338573d5f803e3d5ffd5b505050506040513d601f19601f820116820180604052508101906200035e919062000ac8565b73ffffffffffffffffffffffffffffffffffffffff166101008173ffffffffffffffffffffffffffffffffffffffff16815250508373ffffffffffffffffffffffffffffffffffffffff1663095ea7b3837fffffffffffffffffffffffffffffffffffffffffffffffffffffffffffffffff6040518363ffffffff1660e01b8152600401620003ef92919062000b12565b6020604051808303815f875af11580156200040c573d5f803e3d5ffd5b505050506040513d601f19601f8201168201806040525081019062000432919062000b77565b505f8273ffffffffffffffffffffffffffffffffffffffff1663e018b0ef6040518163ffffffff1660e01b8152600401602060405180830381865afa1580156200047e573d5f803e3d5ffd5b505050506040513d601f19601f82011682018060405250810190620004a4919062000ac8565b90505f8373ffffffffffffffffffffffffffffffffffffffff1663422030156040518163ffffffff1660e01b8152600401602060405180830381865afa158015620004f1573d5f803e3d5ffd5b505050506040513d601f19601f8201168201806040525081019062000517919062000ac8565b90505f73ffffffffffffffffffffffffffffffffffffffff168273ffffffffffffffffffffffffffffffffffffffff1614620005ef578173ffffffffffffffffffffffffffffffffffffffff1663095ea7b3857fffffffffffffffffffffffffffffffffffffffffffffffffffffffffffffffff6040518363ffffffff1660e01b8152600401620005aa92919062000b12565b6020604051808303815f875af1158015620005c7573d5f803e3d5ffd5b505050506040513d601f19601f82011682018060405250810190620005ed919062000b77565b505b5f73ffffffffffffffffffffffffffffffffffffffff168173ffffffffffffffffffffffffffffffffffffffff1614620006c5578073ffffffffffffffffffffffffffffffffffffffff1663095ea7b3857fffffffffffffffffffffffffffffffffffffffffffffffffffffffffffffffff6040518363ffffffff1660e01b81526004016200068092919062000b12565b6020604051808303815f875af11580156200069d573d5f803e3d5ffd5b505050506040513d601f19601f82011682018060405250810190620006c3919062000b77565b505b6101005173ffffffffffffffffffffffffffffffffffffffff1663095ea7b3857fffffffffffffffffffffffffffffffffffffffffffffffffffffffffffffffff6040518363ffffffff1660e01b81526004016200072592919062000b12565b6020604051808303815f875af115801562000742573d5f803e3d5ffd5b505050506040513d601f19601f8201168201806040525081019062000768919062000b77565b506101005173ffffffffffffffffffffffffffffffffffffffff1663095ea7b3847fffffffffffffffffffffffffffffffffffffffffffffffffffffffffffffffff6040518363ffffffff1660e01b8152600401620007c992919062000b12565b6020604051808303815f875af1158015620007e6573d5f803e3d5ffd5b505050506040513d601f19601f820116820180604052508101906200080c919062000b77565b5050505050505062000ba7565b5f60015f9054906101000a900473ffffffffffffffffffffffffffffffffffffffff1690508160015f6101000a81548173ffffffffffffffffffffffffffffffffffffffff021916908373ffffffffffffffffffffffffffffffffffffffff1602179055508173ffffffffffffffffffffffffffffffffffffffff168173ffffffffffffffffffffffffffffffffffffffff167f8be0079c531659141344cd1fd0a4f28419497f9722a3daafe3b4186f6b6457e060405160405180910390a35050565b5f80fd5b5f73ffffffffffffffffffffffffffffffffffffffff82169050919050565b5f6200090b82620008e0565b9050919050565b6200091d81620008ff565b811462000928575f80fd5b50565b5f815190506200093b8162000912565b92915050565b5f805f80608085870312156200095c576200095b620008dc565b5b5f6200096b878288016200092b565b94505060206200097e878288016200092b565b935050604062000991878288016200092b565b9250506060620009a4878288016200092b565b91505092959194509250565b620009bb81620008ff565b82525050565b5f602082019050620009d65f830184620009b0565b92915050565b5f82825260208201905092915050565b7f7a65726f206164647200000000000000000000000000000000000000000000005f82015250565b5f62000a22600983620009dc565b915062000a2f82620009ec565b602082019050919050565b5f6020820190508181035f83015262000a538162000a14565b9050919050565b7f62616420616461707465727300000000000000000000000000000000000000005f82015250565b5f62000a90600c83620009dc565b915062000a9d8262000a5a565b602082019050919050565b5f6020820190508181035f83015262000ac18162000a82565b9050919050565b5f6020828403121562000ae05762000adf620008dc565b5b5f62000aef848285016200092b565b91505092915050565b5f819050919050565b62000b0c8162000af8565b82525050565b5f60408201905062000b275f830185620009b0565b62000b36602083018462000b01565b9392505050565b5f8115159050919050565b62000b538162000b3d565b811462000b5e575f80fd5b50565b5f8151905062000b718162000b48565b92915050565b5f6020828403121562000b8f5762000b8e620008dc565b5b5f62000b9e8482850162000b61565b91505092915050565b60805160a05160c05160e05161010051611d6d62000ce15f395f81816103a4015281816106f3015281816107d301528181610bd101528181610d4b01528181610e0e01528181610ff201526113c101525f8181610367015281816106b60152818161079701528181610b9501528181610d0e01528181610dd201528181610fce015261138501525f81816108540152818161093a01528181610e8e015281816110290152818161122d01526112e201525f8181610443015281816105c40152818161063e01528181610af401528181610c5201528181610c7701528181610f340152818161107501526114c801525f81816102cc0152818161051c015281816105e60152818161066001528181610a4f01528181610b1601528181610b6e01528181610f5601528181610faa015261114e0152611d6d5ff3fe608060405234801561000f575f80fd5b50600436106100fe575f3560e01c806354d9f65311610095578063b6b55f2511610064578063b6b55f2514610254578063e05a369f14610270578063f2fde38b1461028e578063fbfa77cf146102aa576100fe565b806354d9f653146101f0578063715018a61461020e5780637cf738d2146102185780638da5cb5b14610236576100fe565b8063411557d1116100d1578063411557d1146101785780634641257d146101965780634800d97f146101b457806348fb27b8146101d2576100fe565b806301e1d114146101025780632e1a7d4d1461012057806338d52e0f1461013c5780633bcfc4b81461015a575b5f80fd5b61010a6102c8565b60405161011791906117bc565b60405180910390f35b61013a60048036038101906101359190611803565b610441565b005b610144610b6b565b60405161015191906118a8565b60405180910390f35b610162610b92565b60405161016f91906117bc565b60405180910390f35b610180610c50565b60405161018d91906118e1565b60405180910390f35b61019e610c74565b6040516101ab91906117bc565b60405180910390f35b6101bc610fa8565b6040516101c991906118a8565b60405180910390f35b6101da610fcc565b6040516101e7919061191a565b60405180910390f35b6101f8610ff0565b60405161020591906118e1565b60405180910390f35b610216611014565b005b610220611027565b60405161022d9190611953565b60405180910390f35b61023e61104b565b60405161024b91906118e1565b60405180910390f35b61026e60048036038101906102699190611803565b611073565b005b61027861143b565b60405161028591906117bc565b60405180910390f35b6102a860048036038101906102a39190611996565b611441565b005b6102b26114c5565b6040516102bf91906118e1565b60405180910390f35b5f807f000000000000000000000000000000000000000000000000000000000000000073ffffffffffffffffffffffffffffffffffffffff166370a08231306040518263ffffffff1660e01b815260040161032391906118e1565b602060405180830381865afa15801561033e573d5f803e3d5ffd5b505050506040513d601f19601f8201168201806040525081019061036291906119d5565b90505f7f000000000000000000000000000000000000000000000000000000000000000073ffffffffffffffffffffffffffffffffffffffff1663d8b7575d307f00000000000000000000000000000000000000000000000000000000000000006040518363ffffffff1660e01b81526004016103e0929190611a00565b602060405180830381865afa1580156103fb573d5f803e3d5ffd5b505050506040513d601f19601f8201168201806040525081019061041f91906119d5565b905060025481836104309190611a54565b61043a9190611a54565b9250505090565b7f000000000000000000000000000000000000000000000000000000000000000073ffffffffffffffffffffffffffffffffffffffff163373ffffffffffffffffffffffffffffffffffffffff16146104cf576040517f08c379a00000000000000000000000000000000000000000000000000000000081526004016104c690611ae1565b60405180910390fd5b6104d76114ec565b5f8111610519576040517f08c379a000000000000000000000000000000000000000000000000000000000815260040161051090611b49565b60405180910390fd5b5f7f000000000000000000000000000000000000000000000000000000000000000073ffffffffffffffffffffffffffffffffffffffff166370a08231306040518263ffffffff1660e01b815260040161057391906118e1565b602060405180830381865afa15801561058e573d5f803e3d5ffd5b505050506040513d601f19601f820116820180604052508101906105b291906119d5565b90505f8290508082106106315761062a7f0000000000000000000000000000000000000000000000000000000000000000827f000000000000000000000000000000000000000000000000000000000000000073ffffffffffffffffffffffffffffffffffffffff166115309092919063ffffffff16565b5050610b60565b5f8211156106b3576106a47f0000000000000000000000000000000000000000000000000000000000000000837f000000000000000000000000000000000000000000000000000000000000000073ffffffffffffffffffffffffffffffffffffffff166115309092919063ffffffff16565b81816106b09190611b67565b90505b5f7f000000000000000000000000000000000000000000000000000000000000000073ffffffffffffffffffffffffffffffffffffffff1663d8b7575d307f00000000000000000000000000000000000000000000000000000000000000006040518363ffffffff1660e01b815260040161072f929190611a00565b602060405180830381865afa15801561074a573d5f803e3d5ffd5b505050506040513d601f19601f8201168201806040525081019061076e91906119d5565b90505f8111801561077e57505f82115b1561090c575f8282116107915781610793565b825b90507f000000000000000000000000000000000000000000000000000000000000000073ffffffffffffffffffffffffffffffffffffffff1663f3fef3a37f0000000000000000000000000000000000000000000000000000000000000000836040518363ffffffff1660e01b8152600401610810929190611b9a565b6020604051808303815f875af115801561082c573d5f803e3d5ffd5b505050506040513d601f19601f8201168201806040525081019061085091906119d5565b505f7f000000000000000000000000000000000000000000000000000000000000000073ffffffffffffffffffffffffffffffffffffffff16638cb29887836040518263ffffffff1660e01b81526004016108ab91906117bc565b6020604051808303815f875af11580156108c7573d5f803e3d5ffd5b505050506040513d601f19601f820116820180604052508101906108eb91906119d5565b90508084116108fa575f610907565b80846109069190611b67565b5b935050505b5f60025411801561091c57505f82115b15610a0a575f826002541161093357600254610935565b825b90505f7f000000000000000000000000000000000000000000000000000000000000000073ffffffffffffffffffffffffffffffffffffffff16634bf18369836040518263ffffffff1660e01b815260040161099191906117bc565b6020604051808303815f875af11580156109ad573d5f803e3d5ffd5b505050506040513d601f19601f820116820180604052508101906109d191906119d5565b90508160025f8282546109e49190611b67565b925050819055508084116109f8575f610a05565b8084610a049190611b67565b5b935050505b5f8214610a4c576040517f08c379a0000000000000000000000000000000000000000000000000000000008152600401610a4390611c0b565b60405180910390fd5b5f7f000000000000000000000000000000000000000000000000000000000000000073ffffffffffffffffffffffffffffffffffffffff166370a08231306040518263ffffffff1660e01b8152600401610aa691906118e1565b602060405180830381865afa158015610ac1573d5f803e3d5ffd5b505050506040513d601f19601f82011682018060405250810190610ae591906119d5565b90505f811115610b5b57610b5a7f0000000000000000000000000000000000000000000000000000000000000000827f000000000000000000000000000000000000000000000000000000000000000073ffffffffffffffffffffffffffffffffffffffff166115309092919063ffffffff16565b5b505050505b610b686115af565b50565b5f7f0000000000000000000000000000000000000000000000000000000000000000905090565b5f7f000000000000000000000000000000000000000000000000000000000000000073ffffffffffffffffffffffffffffffffffffffff166384b7249b7f00000000000000000000000000000000000000000000000000000000000000006040518263ffffffff1660e01b8152600401610c0c91906118e1565b602060405180830381865afa158015610c27573d5f803e3d5ffd5b505050506040513d601f19601f82011682018060405250810190610c4b91906119d5565b905090565b7f000000000000000000000000000000000000000000000000000000000000000081565b5f7f000000000000000000000000000000000000000000000000000000000000000073ffffffffffffffffffffffffffffffffffffffff163373ffffffffffffffffffffffffffffffffffffffff1614610d03576040517f08c379a0000000000000000000000000000000000000000000000000000000008152600401610cfa90611ae1565b60405180910390fd5b610d0b6114ec565b5f7f000000000000000000000000000000000000000000000000000000000000000073ffffffffffffffffffffffffffffffffffffffff1663d8b7575d307f00000000000000000000000000000000000000000000000000000000000000006040518363ffffffff1660e01b8152600401610d87929190611a00565b602060405180830381865afa158015610da2573d5f803e3d5ffd5b505050506040513d601f19601f82011682018060405250810190610dc691906119d5565b90505f811115610f9c577f000000000000000000000000000000000000000000000000000000000000000073ffffffffffffffffffffffffffffffffffffffff1663f3fef3a37f0000000000000000000000000000000000000000000000000000000000000000836040518363ffffffff1660e01b8152600401610e4b929190611b9a565b6020604051808303815f875af1158015610e67573d5f803e3d5ffd5b505050506040513d601f19601f82011682018060405250810190610e8b91906119d5565b507f000000000000000000000000000000000000000000000000000000000000000073ffffffffffffffffffffffffffffffffffffffff16638cb29887826040518263ffffffff1660e01b8152600401610ee591906117bc565b6020604051808303815f875af1158015610f01573d5f803e3d5ffd5b505050506040513d601f19601f82011682018060405250810190610f2591906119d5565b91505f821115610f9b57610f9a7f0000000000000000000000000000000000000000000000000000000000000000837f000000000000000000000000000000000000000000000000000000000000000073ffffffffffffffffffffffffffffffffffffffff166115309092919063ffffffff16565b5b5b50610fa56115af565b90565b7f000000000000000000000000000000000000000000000000000000000000000081565b7f000000000000000000000000000000000000000000000000000000000000000081565b7f000000000000000000000000000000000000000000000000000000000000000081565b61101c6115b8565b6110255f61163f565b565b7f000000000000000000000000000000000000000000000000000000000000000081565b5f60015f9054906101000a900473ffffffffffffffffffffffffffffffffffffffff16905090565b7f000000000000000000000000000000000000000000000000000000000000000073ffffffffffffffffffffffffffffffffffffffff163373ffffffffffffffffffffffffffffffffffffffff1614611101576040517f08c379a00000000000000000000000000000000000000000000000000000000081526004016110f890611ae1565b60405180910390fd5b6111096114ec565b5f811161114b576040517f08c379a000000000000000000000000000000000000000000000000000000000815260040161114290611c73565b60405180910390fd5b5f7f000000000000000000000000000000000000000000000000000000000000000073ffffffffffffffffffffffffffffffffffffffff166370a08231306040518263ffffffff1660e01b81526004016111a591906118e1565b602060405180830381865afa1580156111c0573d5f803e3d5ffd5b505050506040513d601f19601f820116820180604052508101906111e491906119d5565b905081811015611229576040517f08c379a000000000000000000000000000000000000000000000000000000000815260040161122090611cdb565b60405180910390fd5b5f807f000000000000000000000000000000000000000000000000000000000000000073ffffffffffffffffffffffffffffffffffffffff1663d2d14b87856040518263ffffffff1660e01b815260040161128491906117bc565b60408051808303815f875af115801561129f573d5f803e3d5ffd5b505050506040513d601f19601f820116820180604052508101906112c39190611cf9565b915091508160025f8282546112d89190611a54565b925050819055505f7f000000000000000000000000000000000000000000000000000000000000000073ffffffffffffffffffffffffffffffffffffffff166365dbdf47836040518263ffffffff1660e01b815260040161133991906117bc565b6020604051808303815f875af1158015611355573d5f803e3d5ffd5b505050506040513d601f19601f8201168201806040525081019061137991906119d5565b90505f81111561142c577f000000000000000000000000000000000000000000000000000000000000000073ffffffffffffffffffffffffffffffffffffffff166347e7ef247f0000000000000000000000000000000000000000000000000000000000000000836040518363ffffffff1660e01b81526004016113fe929190611b9a565b5f604051808303815f87803b158015611415575f80fd5b505af1158015611427573d5f803e3d5ffd5b505050505b505050506114386115af565b50565b60025481565b6114496115b8565b5f73ffffffffffffffffffffffffffffffffffffffff168173ffffffffffffffffffffffffffffffffffffffff16036114b9575f6040517f1e4fbdf70000000000000000000000000000000000000000000000000000000081526004016114b091906118e1565b60405180910390fd5b6114c28161163f565b50565b5f7f0000000000000000000000000000000000000000000000000000000000000000905090565b60025f5403611527576040517f3ee5aeb500000000000000000000000000000000000000000000000000000000815260040160405180910390fd5b60025f81905550565b6115aa838473ffffffffffffffffffffffffffffffffffffffff1663a9059cbb8585604051602401611563929190611b9a565b604051602081830303815290604052915060e01b6020820180517bffffffffffffffffffffffffffffffffffffffffffffffffffffffff8381831617835250505050611702565b505050565b60015f81905550565b6115c061179d565b73ffffffffffffffffffffffffffffffffffffffff166115de61104b565b73ffffffffffffffffffffffffffffffffffffffff161461163d5761160161179d565b6040517f118cdaa700000000000000000000000000000000000000000000000000000000815260040161163491906118e1565b60405180910390fd5b565b5f60015f9054906101000a900473ffffffffffffffffffffffffffffffffffffffff1690508160015f6101000a81548173ffffffffffffffffffffffffffffffffffffffff021916908373ffffffffffffffffffffffffffffffffffffffff1602179055508173ffffffffffffffffffffffffffffffffffffffff168173ffffffffffffffffffffffffffffffffffffffff167f8be0079c531659141344cd1fd0a4f28419497f9722a3daafe3b4186f6b6457e060405160405180910390a35050565b5f8060205f8451602086015f885af180611721576040513d5f823e3d81fd5b3d92505f519150505f821461173a576001811415611755565b5f8473ffffffffffffffffffffffffffffffffffffffff163b145b1561179757836040517f5274afe700000000000000000000000000000000000000000000000000000000815260040161178e91906118e1565b60405180910390fd5b50505050565b5f33905090565b5f819050919050565b6117b6816117a4565b82525050565b5f6020820190506117cf5f8301846117ad565b92915050565b5f80fd5b6117e2816117a4565b81146117ec575f80fd5b50565b5f813590506117fd816117d9565b92915050565b5f60208284031215611818576118176117d5565b5b5f611825848285016117ef565b91505092915050565b5f73ffffffffffffffffffffffffffffffffffffffff82169050919050565b5f819050919050565b5f61187061186b6118668461182e565b61184d565b61182e565b9050919050565b5f61188182611856565b9050919050565b5f61189282611877565b9050919050565b6118a281611888565b82525050565b5f6020820190506118bb5f830184611899565b92915050565b5f6118cb8261182e565b9050919050565b6118db816118c1565b82525050565b5f6020820190506118f45f8301846118d2565b92915050565b5f61190482611877565b9050919050565b611914816118fa565b82525050565b5f60208201905061192d5f83018461190b565b92915050565b5f61193d82611877565b9050919050565b61194d81611933565b82525050565b5f6020820190506119665f830184611944565b92915050565b611975816118c1565b811461197f575f80fd5b50565b5f813590506119908161196c565b92915050565b5f602082840312156119ab576119aa6117d5565b5b5f6119b884828501611982565b91505092915050565b5f815190506119cf816117d9565b92915050565b5f602082840312156119ea576119e96117d5565b5b5f6119f7848285016119c1565b91505092915050565b5f604082019050611a135f8301856118d2565b611a2060208301846118d2565b9392505050565b7f4e487b71000000000000000000000000000000000000000000000000000000005f52601160045260245ffd5b5f611a5e826117a4565b9150611a69836117a4565b9250828201905080821115611a8157611a80611a27565b5b92915050565b5f82825260208201905092915050565b7f4f6e6c79207661756c74000000000000000000000000000000000000000000005f82015250565b5f611acb600a83611a87565b9150611ad682611a97565b602082019050919050565b5f6020820190508181035f830152611af881611abf565b9050919050565b7f7a65726f207769746864726177000000000000000000000000000000000000005f82015250565b5f611b33600d83611a87565b9150611b3e82611aff565b602082019050919050565b5f6020820190508181035f830152611b6081611b27565b9050919050565b5f611b71826117a4565b9150611b7c836117a4565b9250828203905081811115611b9457611b93611a27565b5b92915050565b5f604082019050611bad5f8301856118d2565b611bba60208301846117ad565b9392505050565b7f696e73756666696369656e74206c6971756964697479000000000000000000005f82015250565b5f611bf5601683611a87565b9150611c0082611bc1565b602082019050919050565b5f6020820190508181035f830152611c2281611be9565b9050919050565b7f7a65726f206465706f73697400000000000000000000000000000000000000005f82015250565b5f611c5d600c83611a87565b9150611c6882611c29565b602082019050919050565b5f6020820190508181035f830152611c8a81611c51565b9050919050565b7f696e73756666696369656e742066756e647300000000000000000000000000005f82015250565b5f611cc5601283611a87565b9150611cd082611c91565b602082019050919050565b5f6020820190508181035f830152611cf281611cb9565b9050919050565b5f8060408385031215611d0f57611d0e6117d5565b5b5f611d1c858286016119c1565b9250506020611d2d858286016119c1565b915050925092905056fea2646970667358221220dc7f7b5fe1526fbc1445e35d71d95d83fb65e042342457bad226617b2e3b172f64736f6c63430008140033","linkReferences":{}},"methodIdentifiers":{"ASSET()":"4800d97f","LENDING()":"48fb27b8","PENDLE()":"7cf738d2","STABLE()":"54d9f653","VAULT()":"411557d1","apy()":"3bcfc4b8","asset()":"38d52e0f","deposit(uint256)":"b6b55f25","harvest()":"4641257d","owner()":"8da5cb5b","ptBalance()":"e05a369f","renounceOwnership()":"715018a6","totalAssets()":"01e1d114","transferOwnership(address)":"f2fde38b","vault()":"fbfa77cf","withdraw(uint256)":"2e1a7d4d"},"id":57}