{"abi":[{"type":"constructor","inputs":[{"name":"_stS","type":"address","internalType":"address"},{"name":"_vault","type":"address","internalType":"address"},{"name":"_pendleAdapter","type":"address","internalType":"address"},{"name":"_lendingAdapter","type":"address","internalType":"address"}],"stateMutability":"nonpayable"},{"type":"function","name":"ASSET","inputs":[],"outputs":[{"name":"","type":"address","internalType":"contract IERC20"}],"stateMutability":"view"},{"type":"function","name":"LENDING","inputs":[],"outputs":[{"name":"","type":"address","internalType":"contract ILendingAdapter"}],"stateMutability":"view"},{"type":"function","name":"PENDLE","inputs":[],"outputs":[{"name":"","type":"address","internalType":"contract IPendleAdapter"}],"stateMutability":"view"},{"type":"function","name":"STABLE","inputs":[],"outputs":[{"name":"","type":"address","internalType":"address"}],"stateMutability":"view"},{"type":"function","name":"VAULT","inputs":[],"outputs":[{"name":"","type":"address","internalType":"address"}],"stateMutability":"view"},{"type":"function","name":"apy","inputs":[],"outputs":[{"name":"","type":"uint256","internalType":"uint256"}],"stateMutability":"view"},{"type":"function","name":"asset","inputs":[],"outputs":[{"name":"","type":"address","internalType":"contract IERC20"}],"stateMutability":"view"},{"type":"function","name":"components","inputs":[],"outputs":[{"name":"asset","type":"address","internalType":"address"},{"name":"schemaVersion","type":"uint8","internalType":"uint8"},{"name":"comps","type":"tuple[]","internalType":"struct IStrategyIntrospection.Component[]","components":[{"name":"kind","type":"uint8","internalType":"enum IStrategyIntrospection.ComponentKind"},{"name":"adapter","type":"address","internalType":"address"},{"name":"token0","type":"address","internalType":"address"},{"name":"token1","type":"address","internalType":"address"},{"name":"pool","type":"address","internalType":"address"},{"name":"gauge","type":"address","internalType":"address"},{"name":"extra","type":"bytes","internalType":"bytes"}]}],"stateMutability":"view"},{"type":"function","name":"deposit","inputs":[{"name":"amount","type":"uint256","internalType":"uint256"}],"outputs":[],"stateMutability":"nonpayable"},{"type":"function","name":"harvest","inputs":[],"outputs":[{"name":"harvested","type":"uint256","internalType":"uint256"}],"stateMutability":"nonpayable"},{"type":"function","name":"owner","inputs":[],"outputs":[{"name":"","type":"address","internalType":"address"}],"stateMutability":"view"},{"type":"function","name":"ptBalance","inputs":[],"outputs":[{"name":"","type":"uint256","internalType":"uint256"}],"stateMutability":"view"},{"type":"function","name":"registerMe","inputs":[{"name":"projectId","type":"uint256","internalType":"uint256"}],"outputs":[],"stateMutability":"nonpayable"},{"type":"function","name":"renounceOwnership","inputs":[],"outputs":[],"stateMutability":"nonpayable"},{"type":"function","name":"totalAssets","inputs":[],"outputs":[{"name":"","type":"uint256","internalType":"uint256"}],"stateMutability":"view"},{"type":"function","name":"transferOwnership","inputs":[{"name":"newOwner","type":"address","internalType":"address"}],"outputs":[],"stateMutability":"nonpayable"},{"type":"function","name":"vault","inputs":[],"outputs":[{"name":"","type":"address","internalType":"address"}],"stateMutability":"view"},{"type":"function","name":"withdraw","inputs":[{"name":"amount","type":"uint256","internalType":"uint256"}],"outputs":[],"stateMutability":"nonpayable"},{"type":"event","name":"OwnershipTransferred","inputs":[{"name":"previousOwner","type":"address","indexed":true,"internalType":"address"},{"name":"newOwner","type":"address","indexed":true,"internalType":"address"}],"anonymous":false},{"type":"event","name":"StrategyComponent","inputs":[{"name":"strategy","type":"address","indexed":true,"internalType":"address"},{"name":"kind","type":"uint8","indexed":false,"internalType":"enum IStrategyIntrospection.ComponentKind"},{"name":"adapter","type":"address","indexed":false,"internalType":"address"},{"name":"token0","type":"address","indexed":false,"internalType":"address"},{"name":"token1","type":"address","indexed":false,"internalType":"address"},{"name":"pool","type":"address","indexed":false,"internalType":"address"},{"name":"gauge","type":"address","indexed":false,"internalType":"address"},{"name":"extra","type":"bytes","indexed":false,"internalType":"bytes"}],"anonymous":false},{"type":"event","name":"StrategyConfigured","inputs":[{"name":"strategy","type":"address","indexed":true,"internalType":"address"},{"name":"asset","type":"address","indexed":false,"internalType":"address"},{"name":"schemaVersion","type":"uint8","indexed":false,"internalType":"uint8"}],"anonymous":false},{"type":"error","name":"OwnableInvalidOwner","inputs":[{"name":"owner","type":"address","internalType":"address"}]},{"type":"error","name":"OwnableUnauthorizedAccount","inputs":[{"name":"account","type":"address","internalType":"address"}]},{"type":"error","name":"ReentrancyGuardReentrantCall","inputs":[]},{"type":"error","name":"SafeERC20FailedOperation","inputs":[{"name":"token","type":"address","internalType":"address"}]}],"bytecode":{"object":"0x610120604081815234620005cc5760808262001d428038038091620000258285620005d0565b833981010312620005cc576200003b8262000608565b6020906200004b82850162000608565b936200006760606200005f86840162000608565b920162000608565b915f91600183553315620005b45760018054336001600160a01b0319821681179092558751986001600160a01b03949092859283167f8be0079c531659141344cd1fd0a4f28419497f9722a3daafe3b4186f6b6457e08880a3169788151580620005a8575b156200057a5750608088905260a052811692831515806200056e575b156200053b5781908460c05216928360e05285519663a9d75b2b60e01b885260049286898581865afa98891562000531578599620004ee575b5061010098895287519263095ea7b360e01b93848152818682015288816044818a5f19988960248401525af18015620003db57620004cc575b50885163e018b0ef60e01b815288818781855afa908115620003db5787916200048b575b508951634220301560e01b81529089828881865afa918215620004375788928b928692859262000441575b50821680620003e5575b50168062000385575b5090916044848d5116918c5194859384928a84528b8401528860248401525af180156200037b579288959492879260449562000359575b508b5116908a519889968795865285015260248401525af19081156200034e575062000319575b50505161170a91826200063883396080518281816102fe015281816104ea01528181610bb601528181610de401528181610f35015261110b015260a05182818161049b01528181610a2a01528181610d6a01528181610f7d01528181611252015281816115400152611580015260c0518281816101e301528181610529015281816107fd01528181610b69015281816113100152611435015260e051828181610261015281816105c7015281816109db01528181610aaf01528181610ce301528181610e6401526111aa015251818181610289015281816105fe0152818161099701528181610a7401528181610cb101528181610e2b015261117a0152f35b816200033d92903d1062000346575b620003348183620005d0565b8101906200061d565b505f806200021a565b503d62000328565b8451903d90823e3d90fd5b6200037390883d8a116200034657620003348183620005d0565b505f620001f3565b89513d88823e3d90fd5b60448c51809481938a8352878c8401528960248401525af18015620003db579189918893620003b9575b92919092620001bc565b620003d390833d85116200034657620003348183620005d0565b505f620003af565b8a513d89823e3d90fd5b909392915060448d51809481938b8352888d8401528a60248401525af18015620004375788928b92869215620001b3576200042f90843d86116200034657620003348183620005d0565b505f620001b3565b8b513d8a823e3d90fd5b93925093505081813d831162000483575b6200045e8183620005d0565b810103126200047f5783889281620004778d9462000608565b9190620001a9565b8780fd5b503d62000452565b90508881813d8311620004c4575b620004a58183620005d0565b81010312620004c057620004b99062000608565b5f6200017e565b8680fd5b503d62000499565b620004e690893d8b116200034657620003348183620005d0565b505f6200015a565b9098508681813d831162000529575b620005098183620005d0565b8101031262000525576200051d9062000608565b975f62000121565b8480fd5b503d620004fd565b88513d87823e3d90fd5b855162461bcd60e51b815260048101869052600c60248201526b62616420616461707465727360a01b6044820152606490fd5b508181161515620000e8565b62461bcd60e51b81526004810187905260096024820152683d32b9379030b2323960b91b6044820152606490fd5b508382161515620000cc565b8551631e4fbdf760e01b815260048101849052602490fd5b5f80fd5b601f909101601f19168101906001600160401b03821190821017620005f457604052565b634e487b7160e01b5f52604160045260245ffd5b51906001600160a01b0382168203620005cc57565b90816020910312620005cc57518015158103620005cc579056fe6080806040526004361015610012575f80fd5b5f803560e01c91826301e1d11414610db2575081632e1a7d4d14610d5357816338d52e0f14610a0a5781633bcfc4b814610c8a578163411557d1146100e45781634641257d14610a0f5781634800d97f14610a0a57816348fb27b8146109c657816354d9f6531461098257816355af853514610888578163715018a61461082c5781637cf738d2146107e85781638da5cb5b146107c0578163b6b55f2514610476578163ba62fbe41461019d578163e05a369f14610180578163f2fde38b146100e9575063fbfa77cf146100e4575f80fd5b610f68565b3461017d57602036600319011261017d576004356001600160a01b038181169182900361017957610118610fac565b811561016057600154826bffffffffffffffffffffffff60a01b821617600155167f8be0079c531659141344cd1fd0a4f28419497f9722a3daafe3b4186f6b6457e05f80a380f35b604051631e4fbdf760e01b815260048101849052602490fd5b8280fd5b80fd5b3461017d578060031936011261017d576020600254604051908152f35b3461017d578060031936011261017d57604051906101ba82611008565b60028252805b604081106104355750906040516101d681610fd8565b6004815260018060a01b037f00000000000000000000000000000000000000000000000000000000000000001660208201528260408201528260608201528260808201528260a082015260405161022c81611024565b83815260c082015261023d826116a3565b52610247816116a3565b5060405161025481610fd8565b8281526001600160a01b037f0000000000000000000000000000000000000000000000000000000000000000811660208301527f000000000000000000000000000000000000000000000000000000000000000016604080830191909152606082018490526080820184905260a08201849052516102d181611024565b83815260c08201526102e2826116c4565b526102ec816116c4565b50604051906060820160018060a01b037f0000000000000000000000000000000000000000000000000000000000000000168352600160208401526060604084015281518091526080830193602060808360051b860101930194815b8383106103555785850386f35b90919293607f198682030183528651805160078110156104215782526020808201516001600160a01b039081169184019190915260408083015182169084015260608083015182169084015260808083015182169084015260a0808301519091169083015260c09081015160e09183018290528051918301829052909190835b83811061040a575050808201610100908101849052602098890198601f909301601f1916909101019493600101920190610348565b8060208092840101516101008286010152016103d5565b634e487b7160e01b84526021600452602484fd5b60209060405161044481610fd8565b838152828481830152846040830152606085818401528560808401528560a084015260c08301528286010152016101c0565b3461017d576020908160031936011261017d57600435916001600160a01b036104c2337f0000000000000000000000000000000000000000000000000000000000000000831614611062565b6104ca6110bc565b831561078c576040516370a0823160e01b815230600482015282816024817f000000000000000000000000000000000000000000000000000000000000000086165afa9081156106be579085918591610757575b501061071d578293817f000000000000000000000000000000000000000000000000000000000000000016906040519063d2d14b8760e01b8252600482015260408160248188865af19182156107125785928592849085926106c9575b509061058b60249260025461109b565b60025560405194859384926365dbdf4760e01b845260048401525af19283156106be57849361068e575b5050816105c5575b826001815580f35b7f00000000000000000000000000000000000000000000000000000000000000001690813b1561068a576040516311f9fbc960e21b81527f00000000000000000000000000000000000000000000000000000000000000006001600160a01b03166004820152602481019190915291908290604490829084905af1801561067f57610653575b8082916105bd565b67ffffffffffffffff811161066b576040528161064b565b634e487b7160e01b82526041600452602482fd5b6040513d84823e3d90fd5b5050fd5b9080929350813d83116106b7575b6106a68183611040565b8101031261068a57519084806105b5565b503d61069c565b6040513d86823e3d90fd5b9350505091506040813d60401161070a575b816106e860409383611040565b8101031261070657849160248261058b87809551920151925061057b565b8480fd5b3d91506106db565b6040513d87823e3d90fd5b60405162461bcd60e51b8152600481018390526012602482015271696e73756666696369656e742066756e647360701b6044820152606490fd5b809250848092503d8311610785575b6107708183611040565b81010312610781578490518661051e565b8380fd5b503d610766565b60405162461bcd60e51b815260048101839052600c60248201526b1e995c9bc819195c1bdcda5d60a21b6044820152606490fd5b3461017d578060031936011261017d576001546040516001600160a01b039091168152602090f35b3461017d578060031936011261017d576040517f00000000000000000000000000000000000000000000000000000000000000006001600160a01b03168152602090f35b3461017d578060031936011261017d57610844610fac565b600180546001600160a01b0319811690915581906001600160a01b03167f8be0079c531659141344cd1fd0a4f28419497f9722a3daafe3b4186f6b6457e08280a380f35b3461017d57602036600319011261017d576108a1610fac565b808060405160208101906307983f4560e21b82526004356024820152602481526108ca81611008565b51908273dc2b0d2dd2b7759d97d50db4eabdc369731108305af13d1561097d573d67ffffffffffffffff81116109695760405190610912601f8201601f191660200183611040565b81528260203d92013e5b156109245780f35b60405162461bcd60e51b815260206004820152601860248201527f4665654d20726567697374726174696f6e206661696c656400000000000000006044820152606490fd5b634e487b7160e01b83526041600452602483fd5b61091c565b3461017d578060031936011261017d576040517f00000000000000000000000000000000000000000000000000000000000000006001600160a01b03168152602090f35b3461017d578060031936011261017d576040517f00000000000000000000000000000000000000000000000000000000000000006001600160a01b03168152602090f35b610f20565b3461017d578060031936011261017d576001600160a01b03907f000000000000000000000000000000000000000000000000000000000000000090610a573384841614611062565b610a5f6110bc565b60405163d8b7575d60e01b81523060048201527f00000000000000000000000000000000000000000000000000000000000000006001600160a01b038116602483015260209492938493909290917f00000000000000000000000000000000000000000000000000000000000000008316908783604481855afa928315610c7f57908892918794610c48575b5083610b00575b828860018955604051908152f35b60405163f3fef3a360e01b81526001600160a01b0391909116600482015260248101849052959650939492939192918290604490829089905af180156107125791859493918793610c15575b506024906040519687938492638cb2988760e01b845260048401527f0000000000000000000000000000000000000000000000000000000000000000165af192831561067f578293610be1575b50906001918380610bb0575b829350858180610af2565b610bda917f0000000000000000000000000000000000000000000000000000000000000000611607565b8480610ba5565b9092508381813d8311610c0e575b610bf98183611040565b81010312610c0a5751916001610b99565b5080fd5b503d610bef565b909280929495503d8311610c41575b610c2e8183611040565b8101031261078157839291859187610b4c565b503d610c24565b838193949295503d8311610c78575b610c618183611040565b81010312610c7457908791519289610aeb565b8580fd5b503d610c57565b6040513d88823e3d90fd5b3461017d578060031936011261017d576040516384b7249b60e01b81526001600160a01b037f000000000000000000000000000000000000000000000000000000000000000081166004830152602090829060249082907f0000000000000000000000000000000000000000000000000000000000000000165afa90811561067f578291610d1e575b602082604051908152f35b90506020813d8211610d4b575b81610d3860209383611040565b81010312610c0a57602091505182610d13565b3d9150610d2b565b3461017d57602036600319011261017d57610d98337f00000000000000000000000000000000000000000000000000000000000000006001600160a01b031614611062565b610da06110bc565b610dab6004356110ea565b6001815580f35b34610c0a5781600319360112610c0a576370a0823160e01b81523060048201526020916001600160a01b0383836024817f000000000000000000000000000000000000000000000000000000000000000085165afa92831561067f578293610ef1575b5060405163d8b7575d60e01b81523060048201527f00000000000000000000000000000000000000000000000000000000000000006001600160a01b03166024820152908490829060449082907f0000000000000000000000000000000000000000000000000000000000000000165afa918215610ee5578092610eb3575b84610eab610ea2858761109b565b6002549061109b565b604051908152f35b9091508382813d8311610ede575b610ecb8183611040565b8101031261017d57505181610ea2610e94565b503d610ec1565b604051903d90823e3d90fd5b9092508381813d8311610f19575b610f098183611040565b81010312610c0a57519184610e15565b503d610eff565b34610f64575f366003190112610f64576040517f00000000000000000000000000000000000000000000000000000000000000006001600160a01b03168152602090f35b5f80fd5b34610f64575f366003190112610f64576040517f00000000000000000000000000000000000000000000000000000000000000006001600160a01b03168152602090f35b6001546001600160a01b03163303610fc057565b60405163118cdaa760e01b8152336004820152602490fd5b60e0810190811067ffffffffffffffff821117610ff457604052565b634e487b7160e01b5f52604160045260245ffd5b6060810190811067ffffffffffffffff821117610ff457604052565b6020810190811067ffffffffffffffff821117610ff457604052565b90601f8019910116810190811067ffffffffffffffff821117610ff457604052565b1561106957565b60405162461bcd60e51b815260206004820152600a60248201526913db9b1e481d985d5b1d60b21b6044820152606490fd5b919082018092116110a857565b634e487b7160e01b5f52601160045260245ffd5b60025f54146110cb5760025f55565b604051633ee5aeb560e01b8152600490fd5b919082039182116110a857565b80156115d257604080516370a0823160e01b808252306004808401919091527f0000000000000000000000000000000000000000000000000000000000000000946001600160a01b038087169594602094929085816024818b5afa9081156113a4575f916115a5575b5081808210156115715781611535575b5050855163d8b7575d60e01b8152308582019081527f00000000000000000000000000000000000000000000000000000000000000006001600160a01b03811660208301527f000000000000000000000000000000000000000000000000000000000000000085169290918890829081906040010381865afa90811561152b57908892915f916114fb575b50801515806114f2575b6113bd575b50505050906002549085821515806113b4575b6112e9575b5050506112ae57906024839285519687938492835230908301525afa9182156112a557505f91611279575b5080915061124c575050565b611277917f000000000000000000000000000000000000000000000000000000000000000090611607565b565b82813d831161129e575b61128d8183611040565b8101031261017d575051805f611240565b503d611283565b513d5f823e3d90fd5b50915162461bcd60e51b8152918201526016602482015275696e73756666696369656e74206c697175696469747960501b6044820152606490fd5b5f92848111156113ae575083915b6024895180958193634bf1836960e01b8352868b8401527f0000000000000000000000000000000000000000000000000000000000000000165af19182156113a4575f92611373575b5061134d906002546110dd565b6002555f918181111561136c5761136492506110dd565b5f8085611215565b5050611364565b90918682813d831161139d575b61138a8183611040565b8101031261017d5750519061134d611340565b503d611380565b87513d5f823e3d90fd5b916112f7565b50831515611210565b611407929190858111156114ea5750849384915b8b5163f3fef3a360e01b81526001600160a01b03909116818b01908152602081019390935293849283915f918391604090910190565b03925af180156114e0579087916114b7575b5050865190638cb2988760e01b82528582015285816024815f877f0000000000000000000000000000000000000000000000000000000000000000165af19081156113a4575f9161148a575b505f91818111156114835761147a92506110dd565b5f8581806111fd565b505061147a565b908682813d83116114b0575b6114a08183611040565b8101031261017d5750515f611465565b503d611496565b813d83116114d9575b6114ca8183611040565b81010312610f6457855f611419565b503d6114c0565b88513d5f823e3d90fd5b9384916113d1565b508415156111f8565b919282813d8311611524575b6115118183611040565b8101031261017d5750908791515f6111ee565b503d611507565b89513d5f823e3d90fd5b61156a9250611565827f00000000000000000000000000000000000000000000000000000000000000008c611607565b6110dd565b5f80611163565b975050505050505050611277917f000000000000000000000000000000000000000000000000000000000000000090611607565b908682813d83116115cb575b6115bb8183611040565b8101031261017d5750515f611153565b503d6115b1565b60405162461bcd60e51b815260206004820152600d60248201526c7a65726f20776974686472617760981b6044820152606490fd5b60405163a9059cbb60e01b60208083019182526001600160a01b0394909416602483015260448083019590955293815290925f91611646606482611040565b519082855af115611698575f513d61168f57506001600160a01b0381163b155b61166d5750565b604051635274afe760e01b81526001600160a01b039091166004820152602490fd5b60011415611666565b6040513d5f823e3d90fd5b8051156116b05760200190565b634e487b7160e01b5f52603260045260245ffd5b8051600110156116b0576040019056fea2646970667358221220af753b593add04946b29079984f2aa6128baebc736ff8c46811c52abbfa3542264736f6c63430008140033","linkReferences":{}},"methodIdentifiers":{"ASSET()":"4800d97f","LENDING()":"48fb27b8","PENDLE()":"7cf738d2","STABLE()":"54d9f653","VAULT()":"411557d1","apy()":"3bcfc4b8","asset()":"38d52e0f","components()":"ba62fbe4","deposit(uint256)":"b6b55f25","harvest()":"4641257d","owner()":"8da5cb5b","ptBalance()":"e05a369f","registerMe(uint256)":"55af8535","renounceOwnership()":"715018a6","totalAssets()":"01e1d114","transferOwnership(address)":"f2fde38b","vault()":"fbfa77cf","withdraw(uint256)":"2e1a7d4d"},"id":68}