{"abi":[{"type":"constructor","inputs":[{"name":"_stS","type":"address","internalType":"address"},{"name":"_vault","type":"address","internalType":"address"},{"name":"_pendleAdapter","type":"address","internalType":"address"},{"name":"_lendingAdapter","type":"address","internalType":"address"}],"stateMutability":"nonpayable"},{"type":"function","name":"ASSET","inputs":[],"outputs":[{"name":"","type":"address","internalType":"contract IERC20"}],"stateMutability":"view"},{"type":"function","name":"LENDING","inputs":[],"outputs":[{"name":"","type":"address","internalType":"contract ILendingAdapter"}],"stateMutability":"view"},{"type":"function","name":"PENDLE","inputs":[],"outputs":[{"name":"","type":"address","internalType":"contract IPendleAdapter"}],"stateMutability":"view"},{"type":"function","name":"STABLE","inputs":[],"outputs":[{"name":"","type":"address","internalType":"address"}],"stateMutability":"view"},{"type":"function","name":"VAULT","inputs":[],"outputs":[{"name":"","type":"address","internalType":"address"}],"stateMutability":"view"},{"type":"function","name":"apy","inputs":[],"outputs":[{"name":"","type":"uint256","internalType":"uint256"}],"stateMutability":"view"},{"type":"function","name":"asset","inputs":[],"outputs":[{"name":"","type":"address","internalType":"contract IERC20"}],"stateMutability":"view"},{"type":"function","name":"deposit","inputs":[{"name":"amount","type":"uint256","internalType":"uint256"}],"outputs":[],"stateMutability":"nonpayable"},{"type":"function","name":"harvest","inputs":[],"outputs":[{"name":"harvested","type":"uint256","internalType":"uint256"}],"stateMutability":"nonpayable"},{"type":"function","name":"introspect","inputs":[],"outputs":[{"name":"cfg","type":"tuple","internalType":"struct IStrategyIntrospection.StrategyConfig","components":[{"name":"asset","type":"address","internalType":"address"},{"name":"lending","type":"tuple","internalType":"struct IStrategyIntrospection.LendingConfig","components":[{"name":"adapter","type":"address","internalType":"address"},{"name":"supplyToken","type":"address","internalType":"address"},{"name":"borrowToken","type":"address","internalType":"address"}]},{"name":"eggs","type":"tuple","internalType":"struct IStrategyIntrospection.SimpleConfig","components":[{"name":"adapter","type":"address","internalType":"address"}]},{"name":"rings","type":"tuple","internalType":"struct IStrategyIntrospection.SimpleConfig","components":[{"name":"adapter","type":"address","internalType":"address"}]},{"name":"sts","type":"tuple","internalType":"struct IStrategyIntrospection.SimpleConfig","components":[{"name":"adapter","type":"address","internalType":"address"}]},{"name":"pendle","type":"tuple","internalType":"struct IStrategyIntrospection.SimpleConfig","components":[{"name":"adapter","type":"address","internalType":"address"}]},{"name":"beets","type":"tuple","internalType":"struct IStrategyIntrospection.DexConfig","components":[{"name":"adapter","type":"address","internalType":"address"},{"name":"pool","type":"address","internalType":"address"},{"name":"gauge","type":"address","internalType":"address"}]},{"name":"swapx","type":"tuple","internalType":"struct IStrategyIntrospection.DexConfig","components":[{"name":"adapter","type":"address","internalType":"address"},{"name":"pool","type":"address","internalType":"address"},{"name":"gauge","type":"address","internalType":"address"}]},{"name":"shadow","type":"tuple","internalType":"struct IStrategyIntrospection.DexConfig","components":[{"name":"adapter","type":"address","internalType":"address"},{"name":"pool","type":"address","internalType":"address"},{"name":"gauge","type":"address","internalType":"address"}]}]}],"stateMutability":"view"},{"type":"function","name":"owner","inputs":[],"outputs":[{"name":"","type":"address","internalType":"address"}],"stateMutability":"view"},{"type":"function","name":"ptBalance","inputs":[],"outputs":[{"name":"","type":"uint256","internalType":"uint256"}],"stateMutability":"view"},{"type":"function","name":"renounceOwnership","inputs":[],"outputs":[],"stateMutability":"nonpayable"},{"type":"function","name":"totalAssets","inputs":[],"outputs":[{"name":"","type":"uint256","internalType":"uint256"}],"stateMutability":"view"},{"type":"function","name":"transferOwnership","inputs":[{"name":"newOwner","type":"address","internalType":"address"}],"outputs":[],"stateMutability":"nonpayable"},{"type":"function","name":"vault","inputs":[],"outputs":[{"name":"","type":"address","internalType":"address"}],"stateMutability":"view"},{"type":"function","name":"withdraw","inputs":[{"name":"amount","type":"uint256","internalType":"uint256"}],"outputs":[],"stateMutability":"nonpayable"},{"type":"event","name":"OwnershipTransferred","inputs":[{"name":"previousOwner","type":"address","indexed":true,"internalType":"address"},{"name":"newOwner","type":"address","indexed":true,"internalType":"address"}],"anonymous":false},{"type":"error","name":"OwnableInvalidOwner","inputs":[{"name":"owner","type":"address","internalType":"address"}]},{"type":"error","name":"OwnableUnauthorizedAccount","inputs":[{"name":"account","type":"address","internalType":"address"}]},{"type":"error","name":"ReentrancyGuardReentrantCall","inputs":[]},{"type":"error","name":"SafeERC20FailedOperation","inputs":[{"name":"token","type":"address","internalType":"address"}]}],"bytecode":{"object":"0x610120604081815234620005cc5760808262001bd98038038091620000258285620005d0565b833981010312620005cc576200003b8262000608565b6020906200004b82850162000608565b936200006760606200005f86840162000608565b920162000608565b915f91600183553315620005b45760018054336001600160a01b0319821681179092558751986001600160a01b03949092859283167f8be0079c531659141344cd1fd0a4f28419497f9722a3daafe3b4186f6b6457e08880a3169788151580620005a8575b156200057a5750608088905260a052811692831515806200056e575b156200053b5781908460c05216928360e05285519663a9d75b2b60e01b885260049286898581865afa98891562000531578599620004ee575b5061010098895287519263095ea7b360e01b93848152818682015288816044818a5f19988960248401525af18015620003db57620004cc575b50885163e018b0ef60e01b815288818781855afa908115620003db5787916200048b575b508951634220301560e01b81529089828881865afa918215620004375788928b928692859262000441575b50821680620003e5575b50168062000385575b5090916044848d5116918c5194859384928a84528b8401528860248401525af180156200037b579288959492879260449562000359575b508b5116908a519889968795865285015260248401525af19081156200034e575062000319575b5050516115a19182620006388339608051828181610212015281816107dc01528181610aca01528181610c9201528181610dfb0152610fb5015260a0518281816101c501528181610642015281816109ac01528181610e43015281816110fc015281816113ea015261142a015260c051828181610251015281816105120152818161079001528181610afa015281816111ba01526112df015260e0518281816102eb015281816105fa015281816106d20152818161091501528181610b2d01528181610d1b0152611054015251818181610329015281816105b601528181610694015281816108e001528181610b5201528181610ce501526110240152f35b816200033d92903d1062000346575b620003348183620005d0565b8101906200061d565b505f806200021a565b503d62000328565b8451903d90823e3d90fd5b6200037390883d8a116200034657620003348183620005d0565b505f620001f3565b89513d88823e3d90fd5b60448c51809481938a8352878c8401528960248401525af18015620003db579189918893620003b9575b92919092620001bc565b620003d390833d85116200034657620003348183620005d0565b505f620003af565b8a513d89823e3d90fd5b909392915060448d51809481938b8352888d8401528a60248401525af18015620004375788928b92869215620001b3576200042f90843d86116200034657620003348183620005d0565b505f620001b3565b8b513d8a823e3d90fd5b93925093505081813d831162000483575b6200045e8183620005d0565b810103126200047f5783889281620004778d9462000608565b9190620001a9565b8780fd5b503d62000452565b90508881813d8311620004c4575b620004a58183620005d0565b81010312620004c057620004b99062000608565b5f6200017e565b8680fd5b503d62000499565b620004e690893d8b116200034657620003348183620005d0565b505f6200015a565b9098508681813d831162000529575b620005098183620005d0565b8101031262000525576200051d9062000608565b975f62000121565b8480fd5b503d620004fd565b88513d87823e3d90fd5b855162461bcd60e51b815260048101869052600c60248201526b62616420616461707465727360a01b6044820152606490fd5b508181161515620000e8565b62461bcd60e51b81526004810187905260096024820152683d32b9379030b2323960b91b6044820152606490fd5b508382161515620000cc565b8551631e4fbdf760e01b815260048101849052602490fd5b5f80fd5b601f909101601f19168101906001600160401b03821190821017620005f457604052565b634e487b7160e01b5f52604160045260245ffd5b51906001600160a01b0382168203620005cc57565b90816020910312620005cc57518015158103620005cc579056fe60806040818152600480361015610014575f80fd5b5f91823560e01c93846301e1d11414610c605750836308101b1e146109ef5783632e1a7d4d1461099057836338d52e0f146106295783633bcfc4b8146108ba578363411557d1146100de5783634641257d1461062e5783634800d97f1461062957836348fb27b8146105e557836354d9f653146105a1578363715018a6146105415783637cf738d2146104fd5783638da5cb5b146104d4578363b6b55f251461019f578363e05a369f1461017c578363f2fde38b146100e35750505063fbfa77cf146100de575f80fd5b610e2e565b34610178576020366003190112610178576001600160a01b0382358181169391929084900361017457610114610e72565b831561015e575050600154826bffffffffffffffffffffffff60a01b821617600155167f8be0079c531659141344cd1fd0a4f28419497f9722a3daafe3b4186f6b6457e05f80a380f35b51631e4fbdf760e01b8152908101849052602490fd5b8480fd5b8280fd5b90503461019b578160031936011261019b576020906002549051908152f35b5080fd5b82903461019b5760209283600319360112610178578035936001600160a01b036101ec337f0000000000000000000000000000000000000000000000000000000000000000831614610e9e565b6101f4610f66565b85156104a45783516370a0823160e01b8152308482015282816024817f000000000000000000000000000000000000000000000000000000000000000086165afa9081156103e157908791879161046f575b5010610439578495817f0000000000000000000000000000000000000000000000000000000000000000169085519063d2d14b8760e01b82528582015285816024818a865af190811561042f579184918893849085926103eb575b50906102b1602492600254610f45565b600255885194859384926365dbdf4760e01b84528a8401525af19283156103e15786936103b1575b5050816102e9575b846001815580f35b7f00000000000000000000000000000000000000000000000000000000000000001690813b156101745783516311f9fbc960e21b81526001600160a01b037f00000000000000000000000000000000000000000000000000000000000000001684820190815260208101929092529491859182908490829060400103925af180156103a75761037b575b8084936102e1565b67ffffffffffffffff8311610394575052818080610373565b634e487b7160e01b845260419052602483fd5b82513d86823e3d90fd5b9080929350813d83116103da575b6103c98183610f23565b8101031261017457519086806102d9565b503d6103bf565b85513d88823e3d90fd5b9350505091508581813d8311610428575b6104068183610f23565b810103126104245786916024826102b18780955192015192506102a1565b8680fd5b503d6103fc565b86513d89823e3d90fd5b50606492519162461bcd60e51b83528201526012602482015271696e73756666696369656e742066756e647360701b6044820152fd5b809250848092503d831161049d575b6104888183610f23565b810103126104995786905188610246565b8580fd5b503d61047e565b50606492519162461bcd60e51b8352820152600c60248201526b1e995c9bc819195c1bdcda5d60a21b6044820152fd5b90503461019b578160031936011261019b5760015490516001600160a01b039091168152602090f35b90503461019b578160031936011261019b57517f00000000000000000000000000000000000000000000000000000000000000006001600160a01b03168152602090f35b823461059e578060031936011261059e5761055a610e72565b600180546001600160a01b0319811690915581906001600160a01b03167f8be0079c531659141344cd1fd0a4f28419497f9722a3daafe3b4186f6b6457e08280a380f35b80fd5b90503461019b578160031936011261019b57517f00000000000000000000000000000000000000000000000000000000000000006001600160a01b03168152602090f35b90503461019b578160031936011261019b57517f00000000000000000000000000000000000000000000000000000000000000006001600160a01b03168152602090f35b610de6565b82903461019b578160031936011261019b577f0000000000000000000000000000000000000000000000000000000000000000916001600160a01b036106773382861614610e9e565b61067f610f66565b825163d8b7575d60e01b8152308682019081527f00000000000000000000000000000000000000000000000000000000000000006001600160a01b038116602080840191909152979496879590939290917f00000000000000000000000000000000000000000000000000000000000000008616918a90859081906040010381855afa9384156108b057908a9291889561087d575b5084610728575b828a8a60018b5551908152f35b885163f3fef3a360e01b81526001600160a01b039091168185019081526020810186905296995094959394929383919082908990829060400103925af18015610873579088939291610841575b506024908587519889948593638cb2988760e01b85528401527f0000000000000000000000000000000000000000000000000000000000000000165af1938415610837578294610807575b509060019184806107d6575b829387828061071b565b610800917f00000000000000000000000000000000000000000000000000000000000000006114b1565b85806107cc565b9093508481813d8311610830575b61081f8183610f23565b8101031261019b57519260016107c0565b503d610815565b83513d84823e3d90fd5b839192933d831161086c575b6108578183610f23565b810103126108685790869188610775565b8380fd5b503d61084d565b86513d87823e3d90fd5b838193949296503d83116108a9575b6108968183610f23565b810103126104245790899151938b610714565b503d61088c565b88513d89823e3d90fd5b3461017857826003193601126101785780516384b7249b60e01b81526001600160a01b037f000000000000000000000000000000000000000000000000000000000000000081169382019390935291602090839060249082907f0000000000000000000000000000000000000000000000000000000000000000165afa91821561098657839261094f575b6020838351908152f35b9091506020813d821161097e575b8161096a60209383610f23565b810103126101785760209250519083610945565b3d915061095d565b81513d85823e3d90fd5b503461019b57602036600319011261019b576109e8906109da337f00000000000000000000000000000000000000000000000000000000000000006001600160a01b031614610e9e565b6109e2610f66565b35610f94565b6001815580f35b82903461019b578160031936011261019b5780519261012084019084821067ffffffffffffffff831117610394575081528183526020830192610a3061154d565b8452818101938251610a4181610ed7565b848152855260608201918351610a5681610ed7565b858152835260808101918451610a6b81610ed7565b868152835260a08201908551610a8081610ed7565b878152825260c0830193610a9261154d565b855260e0840196610aa161154d565b88526101009687860199610ab361154d565b8b52600160a01b600190039b8c97889687958694857f00000000000000000000000000000000000000000000000000000000000000001684528151610af781610ed7565b867f00000000000000000000000000000000000000000000000000000000000000001681528b52815190610b2a82610f07565b867f0000000000000000000000000000000000000000000000000000000000000000168252867f0000000000000000000000000000000000000000000000000000000000000000166020830152828201528252519e8f92511682525190602001610bb4916040908160018060a01b0391828151168552826020820151166020860152015116910152565b51511660808c015251511660a08a015251511660c088015251511660e08601525180516001600160a01b03908116928601928352602080830151821690840152604091820151169101525180516001600160a01b0390811661016085015260208201518116610180850152604090910151166101a08301525180516001600160a01b039081166101c0840152602082015181166101e08401526040909101511661020082015261022090f35b833461059e578060031936011261059e576370a0823160e01b825230848301526020936001600160a01b0385846024817f000000000000000000000000000000000000000000000000000000000000000085165afa938415610ddc57908692918495610da7575b50855163d8b7575d60e01b8152309281019283526001600160a01b037f00000000000000000000000000000000000000000000000000000000000000001660208401529291839190829081906040015b03917f0000000000000000000000000000000000000000000000000000000000000000165afa918215610d9c578092610d6a575b5050610d5a90610d6392610f45565b60025490610f45565b9051908152f35b9091508482813d8311610d95575b610d828183610f23565b8101031261059e57505181610d5a610d4b565b503d610d78565b8451903d90823e3d90fd5b838193949296503d8311610dd5575b610dc08183610f23565b81010312610178575192859190610d17610cc7565b503d610db6565b85513d85823e3d90fd5b34610e2a575f366003190112610e2a576040517f00000000000000000000000000000000000000000000000000000000000000006001600160a01b03168152602090f35b5f80fd5b34610e2a575f366003190112610e2a576040517f00000000000000000000000000000000000000000000000000000000000000006001600160a01b03168152602090f35b6001546001600160a01b03163303610e8657565b60405163118cdaa760e01b8152336004820152602490fd5b15610ea557565b60405162461bcd60e51b815260206004820152600a60248201526913db9b1e481d985d5b1d60b21b6044820152606490fd5b6020810190811067ffffffffffffffff821117610ef357604052565b634e487b7160e01b5f52604160045260245ffd5b6060810190811067ffffffffffffffff821117610ef357604052565b90601f8019910116810190811067ffffffffffffffff821117610ef357604052565b91908201809211610f5257565b634e487b7160e01b5f52601160045260245ffd5b60025f5414610f755760025f55565b604051633ee5aeb560e01b8152600490fd5b91908203918211610f5257565b801561147c57604080516370a0823160e01b808252306004808401919091527f0000000000000000000000000000000000000000000000000000000000000000946001600160a01b038087169594602094929085816024818b5afa90811561124e575f9161144f575b50818082101561141b57816113df575b5050855163d8b7575d60e01b8152308582019081527f00000000000000000000000000000000000000000000000000000000000000006001600160a01b03811660208301527f000000000000000000000000000000000000000000000000000000000000000085169290918890829081906040010381865afa9081156113d557908892915f916113a5575b508015158061139c575b611267575b505050509060025490858215158061125e575b611193575b50505061115857906024839285519687938492835230908301525afa91821561114f57505f91611123575b508091506110f6575050565b611121917f0000000000000000000000000000000000000000000000000000000000000000906114b1565b565b82813d8311611148575b6111378183610f23565b8101031261059e575051805f6110ea565b503d61112d565b513d5f823e3d90fd5b50915162461bcd60e51b8152918201526016602482015275696e73756666696369656e74206c697175696469747960501b6044820152606490fd5b5f9284811115611258575083915b6024895180958193634bf1836960e01b8352868b8401527f0000000000000000000000000000000000000000000000000000000000000000165af191821561124e575f9261121d575b506111f790600254610f87565b6002555f91818111156112165761120e9250610f87565b5f80856110bf565b505061120e565b90918682813d8311611247575b6112348183610f23565b8101031261059e575051906111f76111ea565b503d61122a565b87513d5f823e3d90fd5b916111a1565b508315156110ba565b6112b1929190858111156113945750849384915b8b5163f3fef3a360e01b81526001600160a01b03909116818b01908152602081019390935293849283915f918391604090910190565b03925af1801561138a57908791611361575b5050865190638cb2988760e01b82528582015285816024815f877f0000000000000000000000000000000000000000000000000000000000000000165af190811561124e575f91611334575b505f918181111561132d576113249250610f87565b5f8581806110a7565b5050611324565b908682813d831161135a575b61134a8183610f23565b8101031261059e5750515f61130f565b503d611340565b813d8311611383575b6113748183610f23565b81010312610e2a57855f6112c3565b503d61136a565b88513d5f823e3d90fd5b93849161127b565b508415156110a2565b919282813d83116113ce575b6113bb8183610f23565b8101031261059e5750908791515f611098565b503d6113b1565b89513d5f823e3d90fd5b611414925061140f827f00000000000000000000000000000000000000000000000000000000000000008c6114b1565b610f87565b5f8061100d565b975050505050505050611121917f0000000000000000000000000000000000000000000000000000000000000000906114b1565b908682813d8311611475575b6114658183610f23565b8101031261059e5750515f610ffd565b503d61145b565b60405162461bcd60e51b815260206004820152600d60248201526c7a65726f20776974686472617760981b6044820152606490fd5b60405163a9059cbb60e01b60208083019182526001600160a01b0394909416602483015260448083019590955293815290925f916114f0606482610f23565b519082855af115611542575f513d61153957506001600160a01b0381163b155b6115175750565b604051635274afe760e01b81526001600160a01b039091166004820152602490fd5b60011415611510565b6040513d5f823e3d90fd5b6040519061155a82610f07565b5f604083828152826020820152015256fea2646970667358221220176ea5d117694799c9cf429aaa35de680ca316fa5533b0baf7eddd4a110119f564736f6c63430008140033","linkReferences":{}},"methodIdentifiers":{"ASSET()":"4800d97f","LENDING()":"48fb27b8","PENDLE()":"7cf738d2","STABLE()":"54d9f653","VAULT()":"411557d1","apy()":"3bcfc4b8","asset()":"38d52e0f","deposit(uint256)":"b6b55f25","harvest()":"4641257d","introspect()":"08101b1e","owner()":"8da5cb5b","ptBalance()":"e05a369f","renounceOwnership()":"715018a6","totalAssets()":"01e1d114","transferOwnership(address)":"f2fde38b","vault()":"fbfa77cf","withdraw(uint256)":"2e1a7d4d"},"id":68}