{"abi":[{"type":"constructor","inputs":[{"name":"_usdc","type":"address","internalType":"address"},{"name":"_vault","type":"address","internalType":"address"},{"name":"_ringsAdapter","type":"address","internalType":"address"},{"name":"_lendingAdapter","type":"address","internalType":"address"},{"name":"_targetHf","type":"uint256","internalType":"uint256"},{"name":"_maxIter","type":"uint256","internalType":"uint256"}],"stateMutability":"nonpayable"},{"type":"function","name":"ASSET","inputs":[],"outputs":[{"name":"","type":"address","internalType":"contract IERC20"}],"stateMutability":"view"},{"type":"function","name":"LENDING","inputs":[],"outputs":[{"name":"","type":"address","internalType":"contract ILendingAdapter"}],"stateMutability":"view"},{"type":"function","name":"RINGS","inputs":[],"outputs":[{"name":"","type":"address","internalType":"contract IRingsAdapter"}],"stateMutability":"view"},{"type":"function","name":"SC_USD","inputs":[],"outputs":[{"name":"","type":"address","internalType":"address"}],"stateMutability":"view"},{"type":"function","name":"USDC","inputs":[],"outputs":[{"name":"","type":"address","internalType":"address"}],"stateMutability":"view"},{"type":"function","name":"VAULT","inputs":[],"outputs":[{"name":"","type":"address","internalType":"address"}],"stateMutability":"view"},{"type":"function","name":"apy","inputs":[],"outputs":[{"name":"","type":"uint256","internalType":"uint256"}],"stateMutability":"pure"},{"type":"function","name":"asset","inputs":[],"outputs":[{"name":"","type":"address","internalType":"contract IERC20"}],"stateMutability":"view"},{"type":"function","name":"deposit","inputs":[{"name":"amount","type":"uint256","internalType":"uint256"}],"outputs":[],"stateMutability":"nonpayable"},{"type":"function","name":"harvest","inputs":[],"outputs":[{"name":"","type":"uint256","internalType":"uint256"}],"stateMutability":"nonpayable"},{"type":"function","name":"maxIterations","inputs":[],"outputs":[{"name":"","type":"uint256","internalType":"uint256"}],"stateMutability":"view"},{"type":"function","name":"owner","inputs":[],"outputs":[{"name":"","type":"address","internalType":"address"}],"stateMutability":"view"},{"type":"function","name":"renounceOwnership","inputs":[],"outputs":[],"stateMutability":"nonpayable"},{"type":"function","name":"targetHf","inputs":[],"outputs":[{"name":"","type":"uint256","internalType":"uint256"}],"stateMutability":"view"},{"type":"function","name":"totalAssets","inputs":[],"outputs":[{"name":"","type":"uint256","internalType":"uint256"}],"stateMutability":"view"},{"type":"function","name":"transferOwnership","inputs":[{"name":"newOwner","type":"address","internalType":"address"}],"outputs":[],"stateMutability":"nonpayable"},{"type":"function","name":"vault","inputs":[],"outputs":[{"name":"","type":"address","internalType":"address"}],"stateMutability":"view"},{"type":"function","name":"withdraw","inputs":[{"name":"amount","type":"uint256","internalType":"uint256"}],"outputs":[],"stateMutability":"nonpayable"},{"type":"event","name":"OwnershipTransferred","inputs":[{"name":"previousOwner","type":"address","indexed":true,"internalType":"address"},{"name":"newOwner","type":"address","indexed":true,"internalType":"address"}],"anonymous":false},{"type":"error","name":"OwnableInvalidOwner","inputs":[{"name":"owner","type":"address","internalType":"address"}]},{"type":"error","name":"OwnableUnauthorizedAccount","inputs":[{"name":"account","type":"address","internalType":"address"}]},{"type":"error","name":"ReentrancyGuardReentrantCall","inputs":[]},{"type":"error","name":"SafeERC20FailedOperation","inputs":[{"name":"token","type":"address","internalType":"address"}]}],"bytecode":{"object":"0x61014060405234801562000011575f80fd5b5060405162002b4138038062002b41833981810160405281019062000037919062000812565b85853360015f819055505f73ffffffffffffffffffffffffffffffffffffffff168173ffffffffffffffffffffffffffffffffffffffff1603620000b4575f6040517f1e4fbdf7000000000000000000000000000000000000000000000000000000008152600401620000ab9190620008bb565b60405180910390fd5b620000c581620006b260201b60201c565b505f73ffffffffffffffffffffffffffffffffffffffff168273ffffffffffffffffffffffffffffffffffffffff16141580156200012f57505f73ffffffffffffffffffffffffffffffffffffffff168173ffffffffffffffffffffffffffffffffffffffff1614155b62000171576040517f08c379a0000000000000000000000000000000000000000000000000000000008152600401620001689062000934565b60405180910390fd5b8173ffffffffffffffffffffffffffffffffffffffff1660808173ffffffffffffffffffffffffffffffffffffffff16815250508073ffffffffffffffffffffffffffffffffffffffff1660a08173ffffffffffffffffffffffffffffffffffffffff168152505050505f73ffffffffffffffffffffffffffffffffffffffff168473ffffffffffffffffffffffffffffffffffffffff16141580156200024457505f73ffffffffffffffffffffffffffffffffffffffff168373ffffffffffffffffffffffffffffffffffffffff1614155b62000286576040517f08c379a00000000000000000000000000000000000000000000000000000000081526004016200027d90620009a2565b60405180910390fd5b5f8211620002cb576040517f08c379a0000000000000000000000000000000000000000000000000000000008152600401620002c29062000a10565b60405180910390fd5b8373ffffffffffffffffffffffffffffffffffffffff1660c08173ffffffffffffffffffffffffffffffffffffffff16815250508273ffffffffffffffffffffffffffffffffffffffff1660e08173ffffffffffffffffffffffffffffffffffffffff16815250508573ffffffffffffffffffffffffffffffffffffffff166101008173ffffffffffffffffffffffffffffffffffffffff168152505060c05173ffffffffffffffffffffffffffffffffffffffff16638d24974f6040518163ffffffff1660e01b8152600401602060405180830381865afa158015620003b4573d5f803e3d5ffd5b505050506040513d601f19601f82011682018060405250810190620003da919062000a30565b73ffffffffffffffffffffffffffffffffffffffff166101208173ffffffffffffffffffffffffffffffffffffffff168152505081600281905550806003819055508573ffffffffffffffffffffffffffffffffffffffff1663095ea7b3857fffffffffffffffffffffffffffffffffffffffffffffffffffffffffffffffff6040518363ffffffff1660e01b81526004016200047992919062000a71565b6020604051808303815f875af115801562000496573d5f803e3d5ffd5b505050506040513d601f19601f82011682018060405250810190620004bc919062000ad6565b506101205173ffffffffffffffffffffffffffffffffffffffff1663095ea7b3847fffffffffffffffffffffffffffffffffffffffffffffffffffffffffffffffff6040518363ffffffff1660e01b81526004016200051d92919062000a71565b6020604051808303815f875af11580156200053a573d5f803e3d5ffd5b505050506040513d601f19601f8201168201806040525081019062000560919062000ad6565b508573ffffffffffffffffffffffffffffffffffffffff1663095ea7b3847fffffffffffffffffffffffffffffffffffffffffffffffffffffffffffffffff6040518363ffffffff1660e01b8152600401620005be92919062000a71565b6020604051808303815f875af1158015620005db573d5f803e3d5ffd5b505050506040513d601f19601f8201168201806040525081019062000601919062000ad6565b506101205173ffffffffffffffffffffffffffffffffffffffff1663095ea7b3857fffffffffffffffffffffffffffffffffffffffffffffffffffffffffffffffff6040518363ffffffff1660e01b81526004016200066292919062000a71565b6020604051808303815f875af11580156200067f573d5f803e3d5ffd5b505050506040513d601f19601f82011682018060405250810190620006a5919062000ad6565b5050505050505062000b06565b5f60015f9054906101000a900473ffffffffffffffffffffffffffffffffffffffff1690508160015f6101000a81548173ffffffffffffffffffffffffffffffffffffffff021916908373ffffffffffffffffffffffffffffffffffffffff1602179055508173ffffffffffffffffffffffffffffffffffffffff168173ffffffffffffffffffffffffffffffffffffffff167f8be0079c531659141344cd1fd0a4f28419497f9722a3daafe3b4186f6b6457e060405160405180910390a35050565b5f80fd5b5f73ffffffffffffffffffffffffffffffffffffffff82169050919050565b5f620007a48262000779565b9050919050565b620007b68162000798565b8114620007c1575f80fd5b50565b5f81519050620007d481620007ab565b92915050565b5f819050919050565b620007ee81620007da565b8114620007f9575f80fd5b50565b5f815190506200080c81620007e3565b92915050565b5f805f805f8060c087890312156200082f576200082e62000775565b5b5f6200083e89828a01620007c4565b96505060206200085189828a01620007c4565b95505060406200086489828a01620007c4565b94505060606200087789828a01620007c4565b93505060806200088a89828a01620007fc565b92505060a06200089d89828a01620007fc565b9150509295509295509295565b620008b58162000798565b82525050565b5f602082019050620008d05f830184620008aa565b92915050565b5f82825260208201905092915050565b7f7a65726f206164647200000000000000000000000000000000000000000000005f82015250565b5f6200091c600983620008d6565b91506200092982620008e6565b602082019050919050565b5f6020820190508181035f8301526200094d816200090e565b9050919050565b7f62616420616461707465727300000000000000000000000000000000000000005f82015250565b5f6200098a600c83620008d6565b9150620009978262000954565b602082019050919050565b5f6020820190508181035f830152620009bb816200097c565b9050919050565b7f62616420484600000000000000000000000000000000000000000000000000005f82015250565b5f620009f8600683620008d6565b915062000a0582620009c2565b602082019050919050565b5f6020820190508181035f83015262000a2981620009ea565b9050919050565b5f6020828403121562000a485762000a4762000775565b5b5f62000a5784828501620007c4565b91505092915050565b62000a6b81620007da565b82525050565b5f60408201905062000a865f830185620008aa565b62000a95602083018462000a60565b9392505050565b5f8115159050919050565b62000ab28162000a9c565b811462000abd575f80fd5b50565b5f8151905062000ad08162000aa7565b92915050565b5f6020828403121562000aee5762000aed62000775565b5b5f62000afd8482850162000ac0565b91505092915050565b60805160a05160c05160e0516101005161012051611ee962000c585f395f81816103f6015281816107f7015281816108c401528181610b9801528181610e94015281816111a50152818161146001526117f001525f818161031e015281816104b3015281816106430152818161073201528181610a1c01528181610aaf01528181610cdc01528181610ecb01528181610ff0015261131c01525f81816103b901528181610476015281816106f5015281816107ba01528181610888015281816109e001528181610b5c01528181610e4c015281816111690152818161121e015281816112e00152818161142401526117b301525f818161094501528181610c1801528181610e70015281816110ce015261138901525f818161056a01528181610cba01528181610d5f01528181610d8401528181610f17015261157501525f8181610d350152610e280152611ee95ff3fe608060405234801561000f575f80fd5b5060043610610114575f3560e01c806348fb27b8116100a057806389a302711161006f57806389a30271146102885780638da5cb5b146102a6578063b6b55f25146102c4578063f2fde38b146102e0578063fbfa77cf146102fc57610114565b806348fb27b8146102245780635acfc85a146102425780636ebb16ea14610260578063715018a61461027e57610114565b806338d52e0f116100e757806338d52e0f1461018e5780633bcfc4b8146101ac578063411557d1146101ca5780634641257d146101e85780634800d97f1461020657610114565b806301e1d114146101185780631c823eff146101365780632e1a7d4d14610154578063387f504a14610170575b5f80fd5b61012061031a565b60405161012d919061193a565b60405180910390f35b61013e610562565b60405161014b919061193a565b60405180910390f35b61016e60048036038101906101699190611981565b610568565b005b610178610d2c565b604051610185919061193a565b60405180910390f35b610196610d32565b6040516101a39190611a26565b60405180910390f35b6101b4610d59565b6040516101c1919061193a565b60405180910390f35b6101d2610d5d565b6040516101df9190611a5f565b60405180910390f35b6101f0610d81565b6040516101fd919061193a565b60405180910390f35b61020e610e26565b60405161021b9190611a26565b60405180910390f35b61022c610e4a565b6040516102399190611a98565b60405180910390f35b61024a610e6e565b6040516102579190611ad1565b60405180910390f35b610268610e92565b6040516102759190611a5f565b60405180910390f35b610286610eb6565b005b610290610ec9565b60405161029d9190611a5f565b60405180910390f35b6102ae610eed565b6040516102bb9190611a5f565b60405180910390f35b6102de60048036038101906102d99190611981565b610f15565b005b6102fa60048036038101906102f59190611b14565b6114ee565b005b610304611572565b6040516103119190611a5f565b60405180910390f35b5f807f000000000000000000000000000000000000000000000000000000000000000073ffffffffffffffffffffffffffffffffffffffff166370a08231306040518263ffffffff1660e01b81526004016103759190611a5f565b602060405180830381865afa158015610390573d5f803e3d5ffd5b505050506040513d601f19601f820116820180604052508101906103b49190611b53565b90505f7f000000000000000000000000000000000000000000000000000000000000000073ffffffffffffffffffffffffffffffffffffffff1663d8b7575d307f00000000000000000000000000000000000000000000000000000000000000006040518363ffffffff1660e01b8152600401610432929190611b7e565b602060405180830381865afa15801561044d573d5f803e3d5ffd5b505050506040513d601f19601f820116820180604052508101906104719190611b53565b90505f7f000000000000000000000000000000000000000000000000000000000000000073ffffffffffffffffffffffffffffffffffffffff16634c4ab169307f00000000000000000000000000000000000000000000000000000000000000006040518363ffffffff1660e01b81526004016104ef929190611b7e565b602060405180830381865afa15801561050a573d5f803e3d5ffd5b505050506040513d601f19601f8201168201806040525081019061052e9190611b53565b90505f828461053d9190611bd2565b905081811161054c575f610559565b81816105589190611c05565b5b94505050505090565b60025481565b7f000000000000000000000000000000000000000000000000000000000000000073ffffffffffffffffffffffffffffffffffffffff163373ffffffffffffffffffffffffffffffffffffffff16146105f6576040517f08c379a00000000000000000000000000000000000000000000000000000000081526004016105ed90611c92565b60405180910390fd5b6105fe611599565b5f8111610640576040517f08c379a000000000000000000000000000000000000000000000000000000000815260040161063790611cfa565b60405180910390fd5b5f7f000000000000000000000000000000000000000000000000000000000000000073ffffffffffffffffffffffffffffffffffffffff166370a08231306040518263ffffffff1660e01b815260040161069a9190611a5f565b602060405180830381865afa1580156106b5573d5f803e3d5ffd5b505050506040513d601f19601f820116820180604052508101906106d99190611b53565b905081811015610cb5575f81836106f09190611c05565b90505f7f000000000000000000000000000000000000000000000000000000000000000073ffffffffffffffffffffffffffffffffffffffff16634c4ab169307f00000000000000000000000000000000000000000000000000000000000000006040518363ffffffff1660e01b815260040161076e929190611b7e565b602060405180830381865afa158015610789573d5f803e3d5ffd5b505050506040513d601f19601f820116820180604052508101906107ad9190611b53565b90505f811115610aac575f7f000000000000000000000000000000000000000000000000000000000000000073ffffffffffffffffffffffffffffffffffffffff1663d8b7575d307f00000000000000000000000000000000000000000000000000000000000000006040518363ffffffff1660e01b8152600401610833929190611b7e565b602060405180830381865afa15801561084e573d5f803e3d5ffd5b505050506040513d601f19601f820116820180604052508101906108729190611b53565b90505f8382116108825781610884565b835b90507f000000000000000000000000000000000000000000000000000000000000000073ffffffffffffffffffffffffffffffffffffffff1663f3fef3a37f0000000000000000000000000000000000000000000000000000000000000000836040518363ffffffff1660e01b8152600401610901929190611d18565b6020604051808303815f875af115801561091d573d5f803e3d5ffd5b505050506040513d601f19601f820116820180604052508101906109419190611b53565b505f7f000000000000000000000000000000000000000000000000000000000000000073ffffffffffffffffffffffffffffffffffffffff1663ca9d0200836040518263ffffffff1660e01b815260040161099c919061193a565b6020604051808303815f875af11580156109b8573d5f803e3d5ffd5b505050506040513d601f19601f820116820180604052508101906109dc9190611b53565b90507f000000000000000000000000000000000000000000000000000000000000000073ffffffffffffffffffffffffffffffffffffffff166322867d787f0000000000000000000000000000000000000000000000000000000000000000868411610a485783610a4a565b865b6040518363ffffffff1660e01b8152600401610a67929190611d18565b6020604051808303815f875af1158015610a83573d5f803e3d5ffd5b505050506040513d601f19601f82011682018060405250810190610aa79190611b53565b505050505b5f7f000000000000000000000000000000000000000000000000000000000000000073ffffffffffffffffffffffffffffffffffffffff166370a08231306040518263ffffffff1660e01b8152600401610b069190611a5f565b602060405180830381865afa158015610b21573d5f803e3d5ffd5b505050506040513d601f19601f82011682018060405250810190610b459190611b53565b85610b509190611c05565b90505f811115610cb1577f000000000000000000000000000000000000000000000000000000000000000073ffffffffffffffffffffffffffffffffffffffff1663f3fef3a37f0000000000000000000000000000000000000000000000000000000000000000836040518363ffffffff1660e01b8152600401610bd5929190611d18565b6020604051808303815f875af1158015610bf1573d5f803e3d5ffd5b505050506040513d601f19601f82011682018060405250810190610c159190611b53565b507f000000000000000000000000000000000000000000000000000000000000000073ffffffffffffffffffffffffffffffffffffffff1663ca9d0200826040518263ffffffff1660e01b8152600401610c6f919061193a565b6020604051808303815f875af1158015610c8b573d5f803e3d5ffd5b505050506040513d601f19601f82011682018060405250810190610caf9190611b53565b505b5050505b610d207f0000000000000000000000000000000000000000000000000000000000000000837f000000000000000000000000000000000000000000000000000000000000000073ffffffffffffffffffffffffffffffffffffffff166115dd9092919063ffffffff16565b50610d2961165c565b50565b60035481565b5f7f0000000000000000000000000000000000000000000000000000000000000000905090565b5f90565b7f000000000000000000000000000000000000000000000000000000000000000081565b5f7f000000000000000000000000000000000000000000000000000000000000000073ffffffffffffffffffffffffffffffffffffffff163373ffffffffffffffffffffffffffffffffffffffff1614610e10576040517f08c379a0000000000000000000000000000000000000000000000000000000008152600401610e0790611c92565b60405180910390fd5b610e18611599565b5f9050610e2361165c565b90565b7f000000000000000000000000000000000000000000000000000000000000000081565b7f000000000000000000000000000000000000000000000000000000000000000081565b7f000000000000000000000000000000000000000000000000000000000000000081565b7f000000000000000000000000000000000000000000000000000000000000000081565b610ebe611665565b610ec75f6116ec565b565b7f000000000000000000000000000000000000000000000000000000000000000081565b5f60015f9054906101000a900473ffffffffffffffffffffffffffffffffffffffff16905090565b7f000000000000000000000000000000000000000000000000000000000000000073ffffffffffffffffffffffffffffffffffffffff163373ffffffffffffffffffffffffffffffffffffffff1614610fa3576040517f08c379a0000000000000000000000000000000000000000000000000000000008152600401610f9a90611c92565b60405180910390fd5b610fab611599565b5f8111610fed576040517f08c379a0000000000000000000000000000000000000000000000000000000008152600401610fe490611d89565b60405180910390fd5b5f7f000000000000000000000000000000000000000000000000000000000000000073ffffffffffffffffffffffffffffffffffffffff166370a08231306040518263ffffffff1660e01b81526004016110479190611a5f565b602060405180830381865afa158015611062573d5f803e3d5ffd5b505050506040513d601f19601f820116820180604052508101906110869190611b53565b9050818110156110cb576040517f08c379a00000000000000000000000000000000000000000000000000000000081526004016110c290611df1565b60405180910390fd5b5f7f000000000000000000000000000000000000000000000000000000000000000073ffffffffffffffffffffffffffffffffffffffff166382e7c3f5846040518263ffffffff1660e01b8152600401611125919061193a565b6020604051808303815f875af1158015611141573d5f803e3d5ffd5b505050506040513d601f19601f820116820180604052508101906111659190611b53565b90507f000000000000000000000000000000000000000000000000000000000000000073ffffffffffffffffffffffffffffffffffffffff166347e7ef247f0000000000000000000000000000000000000000000000000000000000000000836040518363ffffffff1660e01b81526004016111e2929190611d18565b5f604051808303815f87803b1580156111f9575f80fd5b505af115801561120b573d5f803e3d5ffd5b505050505f5b6003548110156114e0575f7f000000000000000000000000000000000000000000000000000000000000000073ffffffffffffffffffffffffffffffffffffffff16636ad9f9df306040518263ffffffff1660e01b81526004016112759190611a5f565b602060405180830381865afa158015611290573d5f803e3d5ffd5b505050506040513d601f19601f820116820180604052508101906112b49190611b53565b905060025481116112c557506114e0565b5f6112ce6117af565b90505f81036112de5750506114e0565b7f000000000000000000000000000000000000000000000000000000000000000073ffffffffffffffffffffffffffffffffffffffff16634b8a35297f0000000000000000000000000000000000000000000000000000000000000000836040518363ffffffff1660e01b8152600401611359929190611d18565b5f604051808303815f87803b158015611370575f80fd5b505af1158015611382573d5f803e3d5ffd5b505050505f7f000000000000000000000000000000000000000000000000000000000000000073ffffffffffffffffffffffffffffffffffffffff166382e7c3f5836040518263ffffffff1660e01b81526004016113e0919061193a565b6020604051808303815f875af11580156113fc573d5f803e3d5ffd5b505050506040513d601f19601f820116820180604052508101906114209190611b53565b90507f000000000000000000000000000000000000000000000000000000000000000073ffffffffffffffffffffffffffffffffffffffff166347e7ef247f0000000000000000000000000000000000000000000000000000000000000000836040518363ffffffff1660e01b815260040161149d929190611d18565b5f604051808303815f87803b1580156114b4575f80fd5b505af11580156114c6573d5f803e3d5ffd5b5050505083806114d590611e0f565b945050505050611211565b5050506114eb61165c565b50565b6114f6611665565b5f73ffffffffffffffffffffffffffffffffffffffff168173ffffffffffffffffffffffffffffffffffffffff1603611566575f6040517f1e4fbdf700000000000000000000000000000000000000000000000000000000815260040161155d9190611a5f565b60405180910390fd5b61156f816116ec565b50565b5f7f0000000000000000000000000000000000000000000000000000000000000000905090565b60025f54036115d4576040517f3ee5aeb500000000000000000000000000000000000000000000000000000000815260040160405180910390fd5b60025f81905550565b611657838473ffffffffffffffffffffffffffffffffffffffff1663a9059cbb8585604051602401611610929190611d18565b604051602081830303815290604052915060e01b6020820180517bffffffffffffffffffffffffffffffffffffffffffffffffffffffff8381831617835250505050611880565b505050565b60015f81905550565b61166d61191b565b73ffffffffffffffffffffffffffffffffffffffff1661168b610eed565b73ffffffffffffffffffffffffffffffffffffffff16146116ea576116ae61191b565b6040517f118cdaa70000000000000000000000000000000000000000000000000000000081526004016116e19190611a5f565b60405180910390fd5b565b5f60015f9054906101000a900473ffffffffffffffffffffffffffffffffffffffff1690508160015f6101000a81548173ffffffffffffffffffffffffffffffffffffffff021916908373ffffffffffffffffffffffffffffffffffffffff1602179055508173ffffffffffffffffffffffffffffffffffffffff168173ffffffffffffffffffffffffffffffffffffffff167f8be0079c531659141344cd1fd0a4f28419497f9722a3daafe3b4186f6b6457e060405160405180910390a35050565b5f807f000000000000000000000000000000000000000000000000000000000000000073ffffffffffffffffffffffffffffffffffffffff1663d8b7575d307f00000000000000000000000000000000000000000000000000000000000000006040518363ffffffff1660e01b815260040161182c929190611b7e565b602060405180830381865afa158015611847573d5f803e3d5ffd5b505050506040513d601f19601f8201168201806040525081019061186b9190611b53565b9050600a8161187a9190611e83565b91505090565b5f8060205f8451602086015f885af18061189f576040513d5f823e3d81fd5b3d92505f519150505f82146118b85760018114156118d3565b5f8473ffffffffffffffffffffffffffffffffffffffff163b145b1561191557836040517f5274afe700000000000000000000000000000000000000000000000000000000815260040161190c9190611a5f565b60405180910390fd5b50505050565b5f33905090565b5f819050919050565b61193481611922565b82525050565b5f60208201905061194d5f83018461192b565b92915050565b5f80fd5b61196081611922565b811461196a575f80fd5b50565b5f8135905061197b81611957565b92915050565b5f6020828403121561199657611995611953565b5b5f6119a38482850161196d565b91505092915050565b5f73ffffffffffffffffffffffffffffffffffffffff82169050919050565b5f819050919050565b5f6119ee6119e96119e4846119ac565b6119cb565b6119ac565b9050919050565b5f6119ff826119d4565b9050919050565b5f611a10826119f5565b9050919050565b611a2081611a06565b82525050565b5f602082019050611a395f830184611a17565b92915050565b5f611a49826119ac565b9050919050565b611a5981611a3f565b82525050565b5f602082019050611a725f830184611a50565b92915050565b5f611a82826119f5565b9050919050565b611a9281611a78565b82525050565b5f602082019050611aab5f830184611a89565b92915050565b5f611abb826119f5565b9050919050565b611acb81611ab1565b82525050565b5f602082019050611ae45f830184611ac2565b92915050565b611af381611a3f565b8114611afd575f80fd5b50565b5f81359050611b0e81611aea565b92915050565b5f60208284031215611b2957611b28611953565b5b5f611b3684828501611b00565b91505092915050565b5f81519050611b4d81611957565b92915050565b5f60208284031215611b6857611b67611953565b5b5f611b7584828501611b3f565b91505092915050565b5f604082019050611b915f830185611a50565b611b9e6020830184611a50565b9392505050565b7f4e487b71000000000000000000000000000000000000000000000000000000005f52601160045260245ffd5b5f611bdc82611922565b9150611be783611922565b9250828201905080821115611bff57611bfe611ba5565b5b92915050565b5f611c0f82611922565b9150611c1a83611922565b9250828203905081811115611c3257611c31611ba5565b5b92915050565b5f82825260208201905092915050565b7f4f6e6c79207661756c74000000000000000000000000000000000000000000005f82015250565b5f611c7c600a83611c38565b9150611c8782611c48565b602082019050919050565b5f6020820190508181035f830152611ca981611c70565b9050919050565b7f7a65726f207769746864726177000000000000000000000000000000000000005f82015250565b5f611ce4600d83611c38565b9150611cef82611cb0565b602082019050919050565b5f6020820190508181035f830152611d1181611cd8565b9050919050565b5f604082019050611d2b5f830185611a50565b611d38602083018461192b565b9392505050565b7f7a65726f206465706f73697400000000000000000000000000000000000000005f82015250565b5f611d73600c83611c38565b9150611d7e82611d3f565b602082019050919050565b5f6020820190508181035f830152611da081611d67565b9050919050565b7f696e73756666696369656e7420555344430000000000000000000000000000005f82015250565b5f611ddb601183611c38565b9150611de682611da7565b602082019050919050565b5f6020820190508181035f830152611e0881611dcf565b9050919050565b5f611e1982611922565b91507fffffffffffffffffffffffffffffffffffffffffffffffffffffffffffffffff8203611e4b57611e4a611ba5565b5b600182019050919050565b7f4e487b71000000000000000000000000000000000000000000000000000000005f52601260045260245ffd5b5f611e8d82611922565b9150611e9883611922565b925082611ea857611ea7611e56565b5b82820490509291505056fea2646970667358221220dc483a93fba43079d78a7e20f1b04ba03a25f7f79a390c9b65b416a14247f38564736f6c63430008140033","linkReferences":{}},"methodIdentifiers":{"ASSET()":"4800d97f","LENDING()":"48fb27b8","RINGS()":"5acfc85a","SC_USD()":"6ebb16ea","USDC()":"89a30271","VAULT()":"411557d1","apy()":"3bcfc4b8","asset()":"38d52e0f","deposit(uint256)":"b6b55f25","harvest()":"4641257d","maxIterations()":"387f504a","owner()":"8da5cb5b","renounceOwnership()":"715018a6","targetHf()":"1c823eff","totalAssets()":"01e1d114","transferOwnership(address)":"f2fde38b","vault()":"fbfa77cf","withdraw(uint256)":"2e1a7d4d"},"id":58}