{"abi":[{"type":"constructor","inputs":[{"name":"_usdc","type":"address","internalType":"address"},{"name":"_vault","type":"address","internalType":"address"},{"name":"_ringsAdapter","type":"address","internalType":"address"},{"name":"_lendingAdapter","type":"address","internalType":"address"},{"name":"_targetHf","type":"uint256","internalType":"uint256"},{"name":"_maxIter","type":"uint256","internalType":"uint256"}],"stateMutability":"nonpayable"},{"type":"function","name":"ASSET","inputs":[],"outputs":[{"name":"","type":"address","internalType":"contract IERC20"}],"stateMutability":"view"},{"type":"function","name":"LENDING","inputs":[],"outputs":[{"name":"","type":"address","internalType":"contract ILendingAdapter"}],"stateMutability":"view"},{"type":"function","name":"RINGS","inputs":[],"outputs":[{"name":"","type":"address","internalType":"contract IRingsAdapter"}],"stateMutability":"view"},{"type":"function","name":"SC_USD","inputs":[],"outputs":[{"name":"","type":"address","internalType":"address"}],"stateMutability":"view"},{"type":"function","name":"USDC","inputs":[],"outputs":[{"name":"","type":"address","internalType":"address"}],"stateMutability":"view"},{"type":"function","name":"VAULT","inputs":[],"outputs":[{"name":"","type":"address","internalType":"address"}],"stateMutability":"view"},{"type":"function","name":"apy","inputs":[],"outputs":[{"name":"","type":"uint256","internalType":"uint256"}],"stateMutability":"pure"},{"type":"function","name":"asset","inputs":[],"outputs":[{"name":"","type":"address","internalType":"contract IERC20"}],"stateMutability":"view"},{"type":"function","name":"deposit","inputs":[{"name":"amount","type":"uint256","internalType":"uint256"}],"outputs":[],"stateMutability":"nonpayable"},{"type":"function","name":"harvest","inputs":[],"outputs":[{"name":"","type":"uint256","internalType":"uint256"}],"stateMutability":"nonpayable"},{"type":"function","name":"introspect","inputs":[],"outputs":[{"name":"cfg","type":"tuple","internalType":"struct IStrategyIntrospection.StrategyConfig","components":[{"name":"asset","type":"address","internalType":"address"},{"name":"lending","type":"tuple","internalType":"struct IStrategyIntrospection.LendingConfig","components":[{"name":"adapter","type":"address","internalType":"address"},{"name":"supplyToken","type":"address","internalType":"address"},{"name":"borrowToken","type":"address","internalType":"address"}]},{"name":"eggs","type":"tuple","internalType":"struct IStrategyIntrospection.SimpleConfig","components":[{"name":"adapter","type":"address","internalType":"address"}]},{"name":"rings","type":"tuple","internalType":"struct IStrategyIntrospection.SimpleConfig","components":[{"name":"adapter","type":"address","internalType":"address"}]},{"name":"sts","type":"tuple","internalType":"struct IStrategyIntrospection.SimpleConfig","components":[{"name":"adapter","type":"address","internalType":"address"}]},{"name":"pendle","type":"tuple","internalType":"struct IStrategyIntrospection.SimpleConfig","components":[{"name":"adapter","type":"address","internalType":"address"}]},{"name":"beets","type":"tuple","internalType":"struct IStrategyIntrospection.DexConfig","components":[{"name":"adapter","type":"address","internalType":"address"},{"name":"pool","type":"address","internalType":"address"},{"name":"gauge","type":"address","internalType":"address"}]},{"name":"swapx","type":"tuple","internalType":"struct IStrategyIntrospection.DexConfig","components":[{"name":"adapter","type":"address","internalType":"address"},{"name":"pool","type":"address","internalType":"address"},{"name":"gauge","type":"address","internalType":"address"}]},{"name":"shadow","type":"tuple","internalType":"struct IStrategyIntrospection.DexConfig","components":[{"name":"adapter","type":"address","internalType":"address"},{"name":"pool","type":"address","internalType":"address"},{"name":"gauge","type":"address","internalType":"address"}]}]}],"stateMutability":"view"},{"type":"function","name":"maxIterations","inputs":[],"outputs":[{"name":"","type":"uint256","internalType":"uint256"}],"stateMutability":"view"},{"type":"function","name":"owner","inputs":[],"outputs":[{"name":"","type":"address","internalType":"address"}],"stateMutability":"view"},{"type":"function","name":"renounceOwnership","inputs":[],"outputs":[],"stateMutability":"nonpayable"},{"type":"function","name":"targetHf","inputs":[],"outputs":[{"name":"","type":"uint256","internalType":"uint256"}],"stateMutability":"view"},{"type":"function","name":"totalAssets","inputs":[],"outputs":[{"name":"","type":"uint256","internalType":"uint256"}],"stateMutability":"view"},{"type":"function","name":"transferOwnership","inputs":[{"name":"newOwner","type":"address","internalType":"address"}],"outputs":[],"stateMutability":"nonpayable"},{"type":"function","name":"vault","inputs":[],"outputs":[{"name":"","type":"address","internalType":"address"}],"stateMutability":"view"},{"type":"function","name":"withdraw","inputs":[{"name":"amount","type":"uint256","internalType":"uint256"}],"outputs":[],"stateMutability":"nonpayable"},{"type":"event","name":"OwnershipTransferred","inputs":[{"name":"previousOwner","type":"address","indexed":true,"internalType":"address"},{"name":"newOwner","type":"address","indexed":true,"internalType":"address"}],"anonymous":false},{"type":"error","name":"OwnableInvalidOwner","inputs":[{"name":"owner","type":"address","internalType":"address"}]},{"type":"error","name":"OwnableUnauthorizedAccount","inputs":[{"name":"account","type":"address","internalType":"address"}]},{"type":"error","name":"ReentrancyGuardReentrantCall","inputs":[]},{"type":"error","name":"SafeERC20FailedOperation","inputs":[{"name":"token","type":"address","internalType":"address"}]}],"bytecode":{"object":"0x610140604090808252346200049d5760c08162001af08038038091620000268285620004a1565b8339810103126200049d576200003c81620004d9565b9160206200004c818401620004d9565b62000059838501620004d9565b6200006760608601620004d9565b60a060808701519601515f92600184553315620004855760018054336001600160a01b0319821681179092558851966001600160a01b039392909184167f8be0079c531659141344cd1fd0a4f28419497f9722a3daafe3b4186f6b6457e08880a3828b16968715158062000479575b156200044b5750608087905260a052811692831515806200043f575b156200040c578815620003df5781908460c05216918260e052610100998a52875198638d24974f60e01b8a52878a600481885afa998a15620003d557869a62000392575b50610120998a5260025560035586519463095ea7b360e01b928387528460048801525f199687602482015288816044818a875af18015620003665762000370575b508588848c511660448c51809481938a83528760048401528d60248401525af180156200036657899288949260449262000344575b508b51948593849289845260048401528b60248401525af180156200033a5760449288959492879262000318575b508a5116895197889586948552600485015260248401525af19081156200030d5750620002d8575b505051906115e79283620005098439608051838181610fed01526113f7015260a0518381816101b901528181610835015281816108d0015261143b015260c051838181610247015281816107a101528181610b3301528181610ce001526110a9015260e051838181610293015281816107e501528181610a2a015281816110280152611271015251828181610204015281816106bc0152818161090e0152818161107501526111e90152518181816102b60152818161075d01528181610acc01528181610c1a0152818161104d01526112480152f35b81620002fc92903d1062000305575b620002f38183620004a1565b810190620004ee565b505f8062000202565b503d620002e7565b8451903d90823e3d90fd5b6200033290873d89116200030557620002f38183620004a1565b505f620001da565b88513d87823e3d90fd5b6200035e90853d87116200030557620002f38183620004a1565b505f620001ac565b8a513d89823e3d90fd5b6200038a90893d8b116200030557620002f38183620004a1565b505f62000177565b9099508781813d8311620003cd575b620003ad8183620004a1565b81010312620003c957620003c190620004d9565b985f62000136565b8580fd5b503d620003a1565b89513d88823e3d90fd5b875162461bcd60e51b81526004810188905260066024820152653130b210242360d11b6044820152606490fd5b875162461bcd60e51b815260048101889052600c60248201526b62616420616461707465727360a01b6044820152606490fd5b508181161515620000f2565b62461bcd60e51b81526004810189905260096024820152683d32b9379030b2323960b91b6044820152606490fd5b508382161515620000d6565b8651631e4fbdf760e01b815260048101859052602490fd5b5f80fd5b601f909101601f19168101906001600160401b03821190821017620004c557604052565b634e487b7160e01b5f52604160045260245ffd5b51906001600160a01b03821682036200049d57565b908160209103126200049d575180151581036200049d579056fe60806040818152600480361015610014575f80fd5b5f91823560e01c93846301e1d114146111c35750836308101b1e14610f1f5783631c823eff14610f005783632e1a7d4d146108af578363387f504a1461089057836338d52e0f146108145783633bcfc4b814610875578363411557d1146100f45783634641257d146108195783634800d97f1461081457836348fb27b8146107d05783635acfc85a1461078c5783636ebb16ea14610748578363715018a6146106eb57836389a30271146106a75783638da5cb5b1461067e578363b6b55f2514610192578363f2fde38b146100f95750505063fbfa77cf146100f4575f80fd5b611426565b3461018e57602036600319011261018e576001600160a01b0382358181169391929084900361018a5761012a61146a565b8315610174575050600154826bffffffffffffffffffffffff60a01b821617600155167f8be0079c531659141344cd1fd0a4f28419497f9722a3daafe3b4186f6b6457e05f80a380f35b51631e4fbdf760e01b8152908101849052602490fd5b8480fd5b8280fd5b823461067b5760209283600319360112610677576001600160a01b0393813593906101e0337f0000000000000000000000000000000000000000000000000000000000000000881614611496565b6101e8611551565b84156106475781516370a0823160e01b815230848201526024967f00000000000000000000000000000000000000000000000000000000000000009183818a818587165afa90811561063d579088918891610608575b50106105d257807f0000000000000000000000000000000000000000000000000000000000000000168451916382e7c3f560e01b988984528784015284838b818b865af19283156105c8578893610595575b507f000000000000000000000000000000000000000000000000000000000000000016927f000000000000000000000000000000000000000000000000000000000000000092843b156105915786516311f9fbc960e21b8082526001600160a01b038616828b0190815260208101939093529392918a90829081906040010381838a5af1801561058757610574575b50885b600354811015610536578751636ad9f9df60e01b8152308a82015287818e818a5afa90811561048c578b91610547575b50600254101561053657875163d8b7575d60e01b815230818b019081526001600160a01b038716602082015288908290819060400103818a5afa801561048c578b90610508575b600a91500480156104f357863b15610496578851634b8a352960e01b81526001600160a01b038416818c01908152602081018390528c90829081906040010381838c5af180156104e9578e8e8e8c948f946104cb575b508d5195869485938452830152885af190811561048c578b9161049a575b50863b156104965788518581526001600160a01b038716818c019081526020810192909252908b90829081906040010381838b5af1801561048c57908b91610474575b50505f19811461046257600101610322565b634e487b7160e01b8a52601189528b8afd5b61047d9061151b565b61048857898d610450565b8980fd5b89513d8d823e3d90fd5b8a80fd5b90508781813d83116104c4575b6104b1818361152f565b810103126104c057518d61040d565b5f80fd5b503d6104a7565b92509350506104da915061151b565b61049657878a8e8e8e5f6103ef565b8a513d8e823e3d90fd5b505050505050505050509150505b6001815580f35b508781813d831161052f575b61051e818361152f565b810103126104c057600a9051610399565b503d610514565b505050505050505050915050610501565b90508781813d831161056d575b61055e818361152f565b810103126104c057518d610352565b503d610554565b6105809099919961151b565b978b61031f565b88513d8c823e3d90fd5b8880fd5b9092508481813d83116105c1575b6105ad818361152f565b810103126105bd5751918a610290565b8780fd5b503d6105a3565b86513d8a823e3d90fd5b835162461bcd60e51b81528086018490526011818a015270696e73756666696369656e74205553444360781b6044820152606490fd5b809250858092503d8311610636575b610621818361152f565b81010312610632578790518a61023e565b8680fd5b503d610617565b85513d89823e3d90fd5b905162461bcd60e51b815291820152600c60248201526b1e995c9bc819195c1bdcda5d60a21b6044820152606490fd5b5080fd5b80fd5b90503461067757816003193601126106775760015490516001600160a01b039091168152602090f35b905034610677578160031936011261067757517f00000000000000000000000000000000000000000000000000000000000000006001600160a01b03168152602090f35b823461067b578060031936011261067b5761070461146a565b600180546001600160a01b0319811690915581906001600160a01b03167f8be0079c531659141344cd1fd0a4f28419497f9722a3daafe3b4186f6b6457e08280a380f35b905034610677578160031936011261067757517f00000000000000000000000000000000000000000000000000000000000000006001600160a01b03168152602090f35b905034610677578160031936011261067757517f00000000000000000000000000000000000000000000000000000000000000006001600160a01b03168152602090f35b905034610677578160031936011261067757517f00000000000000000000000000000000000000000000000000000000000000006001600160a01b03168152602090f35b6113e2565b90503461067757816003193601126106775760209190610863337f00000000000000000000000000000000000000000000000000000000000000006001600160a01b031614611496565b61086b611551565b6001825551908152f35b90503461067757816003193601126106775751908152602090f35b9050346106775781600319360112610677576020906003549051908152f35b903461018e57602080600319360112610efc578135926001600160a01b03917f00000000000000000000000000000000000000000000000000000000000000006108fc3385831614611496565b610904611551565b8515610ec95786907f000000000000000000000000000000000000000000000000000000000000000096858816958551986370a0823160e01b90818b52308a8c015260249a87818d818d5afa908115610d9157908b9392918891610e98575b508581106109f9575b5050875163a9059cbb60e01b8882019081526001600160a01b039096168c82019081526020810195909552936109b39350849250604001905003601f19810183528261152f565b519082865af1156109f05784513d6109e75750813b155b6109d657846001815580f35b51635274afe760e01b815291820152fd5b600114156109ca565b513d85823e3d90fd5b610a06610a5a9187611572565b8a51634c4ab16960e01b8152309581019586526001600160a01b03841660208701527f000000000000000000000000000000000000000000000000000000000000000087169590928b918491829160400190565b0381885afa918215610dd257908d918a93610e65575b5082610c05575b505050508751908152308a82015286818c818c5afa908115610bc6579087918791610bd0575b50610aa89085611572565b9182610ab6575b8a9261096c565b885163f3fef3a360e01b81526001600160a01b037f000000000000000000000000000000000000000000000000000000000000000016818d0190815260208101859052909291839182908a90829060400103925af18015610bc657908791610b9d575b50908a8a878a51958694859362654e8160e91b85528401527f0000000000000000000000000000000000000000000000000000000000000000165af18015610b9357908591610b6a575b8181610aaf565b813d8311610b8c575b610b7d818361152f565b8101031261018e57838a610b63565b503d610b73565b86513d86823e3d90fd5b813d8311610bbf575b610bb0818361152f565b8101031261018a57858c610b19565b503d610ba6565b88513d88823e3d90fd5b82819392503d8311610bfe575b610be7818361152f565b81010312610bfa57518690610aa8610a9d565b8580fd5b503d610bdd565b8b5163d8b7575d60e01b8152309281019283527f00000000000000000000000000000000000000000000000000000000000000006001600160a01b0381166020850152928c908290819060400103818a5afa908115610e5b57928f8e938e938e968791610e1e575b50610cb2965081811115610e1457509485945b5163f3fef3a360e01b81526001600160a01b039093169183019182526020820194909452909283918291604090910190565b03818d8a5af18015610e0a578f8f91928d93610ddc575b508d5193849262654e8160e91b8452830152818c8a7f0000000000000000000000000000000000000000000000000000000000000000165af1908115610dd257908a92918a91610da3575b5081811115610d9b5750915b8a51630450cfaf60e31b81526001600160a01b03909116818e019081526020810193909352918290819060400103818a875af18015610d9157908891610d68575b8b81610a77565b813d8311610d8a575b610d7b818361152f565b81010312610bfa57868d610d61565b503d610d71565b89513d89823e3d90fd5b905091610d20565b83819492503d8311610dcb575b610dba818361152f565b81010312610591578991515f610d14565b503d610db0565b8b513d8b823e3d90fd5b915050813d8311610e03575b610df2818361152f565b8101031261059157898d8f5f610cc9565b503d610de8565b8c513d8c823e3d90fd5b9050948594610c80565b949396505093505081813d8311610e54575b610e3a818361152f565b8101031261049657610cb2928f8e938d8f94519096610c6d565b503d610e30565b8d513d8d823e3d90fd5b8b809294508193503d8311610e91575b610e7f818361152f565b81010312610591578c9051915f610a70565b503d610e75565b809450898092503d8311610ec2575b610eb1818361152f565b81010312610632578a92518e610963565b503d610ea7565b825162461bcd60e51b8152808601839052600d60248201526c7a65726f20776974686472617760981b6044820152606490fd5b8380fd5b9050346106775781600319360112610677576020906002549051908152f35b913461067b578060031936011261067b5782519161012083019083821067ffffffffffffffff8311176111b0575083528082526020820192610f5f611593565b8452808301938151610f70816114cf565b838152855260608401938251610f85816114cf565b848152855260808101938351610f9a816114cf565b8181528552835160a0830191610faf826114cf565b8152815260c0820192610fc0611593565b845260e0830195610fcf611593565b87526101009586850198610fe1611593565b8a526001600160a01b037f0000000000000000000000000000000000000000000000000000000000000000811687528251909b8c97889687958694611025816114ff565b857f0000000000000000000000000000000000000000000000000000000000000000168152857f0000000000000000000000000000000000000000000000000000000000000000166020820152857f00000000000000000000000000000000000000000000000000000000000000001682820152825280516110a6816114cf565b857f00000000000000000000000000000000000000000000000000000000000000001681528652519e8f92511682525190602001611104916040908160018060a01b0391828151168552826020820151166020860152015116910152565b51511660808c015251511660a08a015251511660c088015251511660e08601525180516001600160a01b03908116928601928352602080830151821690840152604091820151169101525180516001600160a01b0390811661016085015260208201518116610180850152604090910151166101a08301525180516001600160a01b039081166101c0840152602082015181166101e08401526040909101511661020082015261022090f35b634e487b7160e01b835260419052602482fd5b8390346106775781600319360112610677576370a0823160e01b815230848201526020937f000000000000000000000000000000000000000000000000000000000000000091906001600160a01b0386836024818488165afa9283156113655785936113b3575b50855163d8b7575d60e01b8152308382019081526001600160a01b037f000000000000000000000000000000000000000000000000000000000000000016602082015290947f00000000000000000000000000000000000000000000000000000000000000009290921691908890869081906040010381855afa9182156113a957908891879361136f575b8851634c4ab16960e01b8152308682019081526001600160a01b03909316602084015296508691829081906040015b03915afa938415611365578594611336575b50820180921161132357508181111561131b576113139250611572565b905b51908152f35b505090611315565b634e487b7160e01b845260119052602483fd5b9093508681813d831161135e575b61134e818361152f565b8101031261018a575192876112f6565b503d611344565b86513d87823e3d90fd5b9394958281939294503d83116113a2575b61138a818361152f565b81010312610bfa576112e494939291889151926112b5565b503d611380565b87513d88823e3d90fd5b9092508681813d83116113db575b6113cb818361152f565b8101031261018a5751918761122a565b503d6113c1565b346104c0575f3660031901126104c0576040517f00000000000000000000000000000000000000000000000000000000000000006001600160a01b03168152602090f35b346104c0575f3660031901126104c0576040517f00000000000000000000000000000000000000000000000000000000000000006001600160a01b03168152602090f35b6001546001600160a01b0316330361147e57565b60405163118cdaa760e01b8152336004820152602490fd5b1561149d57565b60405162461bcd60e51b815260206004820152600a60248201526913db9b1e481d985d5b1d60b21b6044820152606490fd5b6020810190811067ffffffffffffffff8211176114eb57604052565b634e487b7160e01b5f52604160045260245ffd5b6060810190811067ffffffffffffffff8211176114eb57604052565b67ffffffffffffffff81116114eb57604052565b90601f8019910116810190811067ffffffffffffffff8211176114eb57604052565b60025f54146115605760025f55565b604051633ee5aeb560e01b8152600490fd5b9190820391821161157f57565b634e487b7160e01b5f52601160045260245ffd5b604051906115a0826114ff565b5f604083828152826020820152015256fea2646970667358221220675b634cd85c433d4057686ba5f06c72c7bb5d845f391eeb6f47e337ddf330e264736f6c63430008140033","linkReferences":{}},"methodIdentifiers":{"ASSET()":"4800d97f","LENDING()":"48fb27b8","RINGS()":"5acfc85a","SC_USD()":"6ebb16ea","USDC()":"89a30271","VAULT()":"411557d1","apy()":"3bcfc4b8","asset()":"38d52e0f","deposit(uint256)":"b6b55f25","harvest()":"4641257d","introspect()":"08101b1e","maxIterations()":"387f504a","owner()":"8da5cb5b","renounceOwnership()":"715018a6","targetHf()":"1c823eff","totalAssets()":"01e1d114","transferOwnership(address)":"f2fde38b","vault()":"fbfa77cf","withdraw(uint256)":"2e1a7d4d"},"id":69}