{"abi":[{"type":"constructor","inputs":[{"name":"_sToken","type":"address","internalType":"address"},{"name":"_vault","type":"address","internalType":"address"},{"name":"_stsAdapter","type":"address","internalType":"address"},{"name":"_beetsAdapter","type":"address","internalType":"address"},{"name":"_pool","type":"address","internalType":"address"},{"name":"_name","type":"string","internalType":"string"}],"stateMutability":"nonpayable"},{"type":"function","name":"ASSET","inputs":[],"outputs":[{"name":"","type":"address","internalType":"contract IERC20"}],"stateMutability":"view"},{"type":"function","name":"BEETS","inputs":[],"outputs":[{"name":"","type":"address","internalType":"contract IBeetsAdapter"}],"stateMutability":"view"},{"type":"function","name":"POOL","inputs":[],"outputs":[{"name":"","type":"address","internalType":"address"}],"stateMutability":"view"},{"type":"function","name":"STS","inputs":[],"outputs":[{"name":"","type":"address","internalType":"contract IStSAdapter"}],"stateMutability":"view"},{"type":"function","name":"STS_TOKEN","inputs":[],"outputs":[{"name":"","type":"address","internalType":"address"}],"stateMutability":"view"},{"type":"function","name":"VAULT","inputs":[],"outputs":[{"name":"","type":"address","internalType":"address"}],"stateMutability":"view"},{"type":"function","name":"apy","inputs":[],"outputs":[{"name":"","type":"uint256","internalType":"uint256"}],"stateMutability":"view"},{"type":"function","name":"asset","inputs":[],"outputs":[{"name":"","type":"address","internalType":"contract IERC20"}],"stateMutability":"view"},{"type":"function","name":"components","inputs":[],"outputs":[{"name":"asset","type":"address","internalType":"address"},{"name":"schemaVersion","type":"uint8","internalType":"uint8"},{"name":"comps","type":"tuple[]","internalType":"struct IStrategyIntrospection.Component[]","components":[{"name":"kind","type":"uint8","internalType":"enum IStrategyIntrospection.ComponentKind"},{"name":"adapter","type":"address","internalType":"address"},{"name":"token0","type":"address","internalType":"address"},{"name":"token1","type":"address","internalType":"address"},{"name":"pool","type":"address","internalType":"address"},{"name":"gauge","type":"address","internalType":"address"},{"name":"extra","type":"bytes","internalType":"bytes"},{"name":"name","type":"string","internalType":"string"}]}],"stateMutability":"view"},{"type":"function","name":"deposit","inputs":[{"name":"amount","type":"uint256","internalType":"uint256"}],"outputs":[],"stateMutability":"nonpayable"},{"type":"function","name":"harvest","inputs":[],"outputs":[{"name":"harvested","type":"uint256","internalType":"uint256"}],"stateMutability":"nonpayable"},{"type":"function","name":"name","inputs":[],"outputs":[{"name":"","type":"string","internalType":"string"}],"stateMutability":"view"},{"type":"function","name":"owner","inputs":[],"outputs":[{"name":"","type":"address","internalType":"address"}],"stateMutability":"view"},{"type":"function","name":"registerMe","inputs":[{"name":"projectId","type":"uint256","internalType":"uint256"}],"outputs":[],"stateMutability":"nonpayable"},{"type":"function","name":"renounceOwnership","inputs":[],"outputs":[],"stateMutability":"nonpayable"},{"type":"function","name":"stakedLp","inputs":[],"outputs":[{"name":"","type":"uint256","internalType":"uint256"}],"stateMutability":"view"},{"type":"function","name":"totalAssets","inputs":[],"outputs":[{"name":"","type":"uint256","internalType":"uint256"}],"stateMutability":"view"},{"type":"function","name":"transferOwnership","inputs":[{"name":"newOwner","type":"address","internalType":"address"}],"outputs":[],"stateMutability":"nonpayable"},{"type":"function","name":"vault","inputs":[],"outputs":[{"name":"","type":"address","internalType":"address"}],"stateMutability":"view"},{"type":"function","name":"withdraw","inputs":[{"name":"amount","type":"uint256","internalType":"uint256"}],"outputs":[],"stateMutability":"nonpayable"},{"type":"event","name":"OwnershipTransferred","inputs":[{"name":"previousOwner","type":"address","indexed":true,"internalType":"address"},{"name":"newOwner","type":"address","indexed":true,"internalType":"address"}],"anonymous":false},{"type":"event","name":"StrategyComponent","inputs":[{"name":"strategy","type":"address","indexed":true,"internalType":"address"},{"name":"kind","type":"uint8","indexed":false,"internalType":"enum IStrategyIntrospection.ComponentKind"},{"name":"adapter","type":"address","indexed":false,"internalType":"address"},{"name":"token0","type":"address","indexed":false,"internalType":"address"},{"name":"token1","type":"address","indexed":false,"internalType":"address"},{"name":"pool","type":"address","indexed":false,"internalType":"address"},{"name":"gauge","type":"address","indexed":false,"internalType":"address"},{"name":"extra","type":"bytes","indexed":false,"internalType":"bytes"}],"anonymous":false},{"type":"event","name":"StrategyConfigured","inputs":[{"name":"strategy","type":"address","indexed":true,"internalType":"address"},{"name":"asset","type":"address","indexed":false,"internalType":"address"},{"name":"schemaVersion","type":"uint8","indexed":false,"internalType":"uint8"}],"anonymous":false},{"type":"error","name":"OwnableInvalidOwner","inputs":[{"name":"owner","type":"address","internalType":"address"}]},{"type":"error","name":"OwnableUnauthorizedAccount","inputs":[{"name":"account","type":"address","internalType":"address"}]},{"type":"error","name":"ReentrancyGuardReentrantCall","inputs":[]},{"type":"error","name":"SafeERC20FailedOperation","inputs":[{"name":"token","type":"address","internalType":"address"}]}],"bytecode":{"object":"0x61014060409080825234620006875762001f4480380380916200002382856200068b565b833981019160c08284031262000687576200003e82620006af565b9060206200004e818501620006af565b926200005c838601620006af565b906200006b60608701620006af565b916200007a60808801620006af565b60a088015190976001600160401b039190828211620006875701601f99808b83011215620006875781518381116200060d578851601f19939092620000c6838f0186168b01856200068b565b828452898383010111620006875788905f5b838110620006725750505f9183010152600191825f5533156200065b578254336001600160a01b03198216811785558a519b6001600160a01b0398909289929083167f8be0079c531659141344cd1fd0a4f28419497f9722a3daafe3b4186f6b6457e05f80a3169a8b1515806200064f575b156200062157508a60805260a05281519384116200060d576002548381811c9116801562000602575b89821014620005ee578c8111620005a5575b50879b8411600114620005405750829185969798999a9b83925f9462000534575b50501b915f199060031b1c1916176002555b16918215158062000528575b15620004f55781871615620004c65781908360c05216908160e05261010096875284519563065a291b60e31b87528487600481875afa968715620004bc575f976200047a575b5061012096875285519363095ea7b360e01b928386528160048701525f199586602482015287816044815f885af180156200044e5762000458575b505f87828b511660448b51809481938a83528b60048401528c60248401525af180156200044e5788925f94926044926200042c575b508b5116918a51948593849289845260048401528a60248401525af180156200042257604492879594925f9262000400575b50885196879586948552600485015260248401525af18015620003f657620003c1575b505051906118659283620006df84396080518381816103650152818161062d01528181610f6d01528181611553015261161e015260a0518381816105e301528181610d0401528181610f310152611662015260c05183818161021e0152818161069101528181610bb70152611255015260e0518381816101ab015281816102f00152818161033d015281816106f301528181610d6d01528181610e90015261113f0152518281816102bb015281816103b80152818161072501528181610b1701528181610d4201528181610e69015261111401525181818161039001528181610753015281816111e801526113ec0152f35b81620003e592903d10620003ee575b620003dc81836200068b565b810190620006c4565b505f80620002cf565b503d620003d0565b83513d5f823e3d90fd5b6200041a90873d8911620003ee57620003dc81836200068b565b505f620002ac565b87513d5f823e3d90fd5b6200044690853d8711620003ee57620003dc81836200068b565b505f6200027a565b89513d5f823e3d90fd5b6200047290883d8a11620003ee57620003dc81836200068b565b505f62000245565b90968582813d8311620004b4575b6200049481836200068b565b81010312620004b15750620004a990620006af565b955f6200020a565b80fd5b503d62000488565b86513d5f823e3d90fd5b845162461bcd60e51b8152600481018590526008602482015267189859081c1bdbdb60c21b6044820152606490fd5b845162461bcd60e51b815260048101859052600c60248201526b62616420616461707465727360a01b6044820152606490fd5b508181161515620001c4565b015192505f80620001a6565b839293169a60025f52875f20915f5b8d81106200058f5750838798999a9b9c9d1062000576575b505050811b01600255620001b8565b01515f1960f88460031b161c191690555f808062000567565b818301518455928501929189019189016200054f565b60025f52885f208d80870160051c8201928b8810620005e4575b0160051c019084905b828110620005d857505062000185565b5f8155018490620005c8565b92508192620005bf565b634e487b7160e01b5f52602260045260245ffd5b90607f169062000173565b634e487b7160e01b5f52604160045260245ffd5b62461bcd60e51b8152600481018a905260096024820152683d32b9379030b2323960b91b6044820152606490fd5b5087821615156200014a565b8851631e4fbdf760e01b81525f6004820152602490fd5b8181018301518582018401528a9201620000d8565b5f80fd5b601f909101601f19168101906001600160401b038211908210176200060d57604052565b51906001600160a01b03821682036200068757565b90816020910312620006875751801515810362000687579056fe6080806040526004361015610012575f80fd5b5f803560e01c91826301e1d1141461152b5750816306fdde031461141b5781631fc170b6146113d7578163218fa0ac146113ba5781632e1a7d4d14610f1057816338d52e0f14610ce05781633bcfc4b814610e3b578163411557d1146100fa5781634641257d14610ce55781634800d97f14610ce057816355af853514610be6578163611e6f1a14610ba2578163715018a614610b465781637535d24614610b025781638da5cb5b14610ada578163b6b55f25146105bd578163ba62fbe4146101da578163d8d908c414610196578163f2fde38b146100ff575063fbfa77cf146100fa575f80fd5b61164d565b34610193576020366003190112610193576004356001600160a01b038181169182900361018f5761012e611691565b811561017657600154826bffffffffffffffffffffffff60a01b821617600155167f8be0079c531659141344cd1fd0a4f28419497f9722a3daafe3b4186f6b6457e05f80a380f35b604051631e4fbdf760e01b815260048101849052602490fd5b8280fd5b80fd5b346101935780600319360112610193576040517f00000000000000000000000000000000000000000000000000000000000000006001600160a01b03168152602090f35b346101935780600319360112610193576040516101f6816116ee565b60028152815b604081106105765750604051610211816116d1565b6003815260018060a01b037f00000000000000000000000000000000000000000000000000000000000000001660208201528260408201528260608201528260808201528260a08201526040516102678161170a565b83815260c082015260405161027b81611726565b600381526253745360e81b602082015260e0820152610299826117fe565b526102a3816117fe565b5060405163a8ea687560e01b81526001600160a01b037f000000000000000000000000000000000000000000000000000000000000000081166004830152909290602090849060249082907f0000000000000000000000000000000000000000000000000000000000000000165afa928315610569578193610538575b50919060405161032f816116d1565b600581526001600160a01b037f0000000000000000000000000000000000000000000000000000000000000000811660208301527f0000000000000000000000000000000000000000000000000000000000000000811660408084018290527f0000000000000000000000000000000000000000000000000000000000000000831660608501527f0000000000000000000000000000000000000000000000000000000000000000831660808501529490911660a083015292516103f28161170a565b84815260c082015260405161040681611726565b6005815264426565747360d81b602082015260e08201526104268261181f565b526104308161181f565b50604051928392835260016020840152606060408401526060830182518091526080840190602060808260051b870101940192805b8282106104725786860387f35b919395509193607f19878203018552855190815160078110156105245781526020808301516001600160a01b039081168284015260408085015182169084015260608085015182169084015260808085015182169084015260a0808501519091169083015260c0808401516101009184018290526001949293849361051493909260e09161050391908401906115cb565b9201519060e08184039101526115cb565b9701950192018695949391610465565b634e487b7160e01b84526021600452602484fd5b61055b91935060203d602011610562575b6105538183611742565b8101906117be565b9183610320565b503d610549565b50604051903d90823e3d90fd5b602090604051610585816116d1565b848152828581830152856040830152606086818401528660808401528660a08401528060c084015260e08301528285010152016101fc565b346101935760209081600319360112610193576001600160a01b03916004359061060a337f0000000000000000000000000000000000000000000000000000000000000000861614611764565b6106126117dd565b8115610aa7576040516370a0823160e01b81523060048201527f000000000000000000000000000000000000000000000000000000000000000085169160249181818481875afa9081156109e0579085918791610a76575b5010610a3f578360011c9160405192636cdea07b60e01b8452806004850152828483818a8c7f0000000000000000000000000000000000000000000000000000000000000000165af1938415610966578794610a10575b5085039485116109fe576106d5838661179d565b96605f880297808904605f14901517156109eb5760648798829897987f000000000000000000000000000000000000000000000000000000000000000016956040519963d875c70f60e01b8b52847f000000000000000000000000000000000000000000000000000000000000000016988960048d0152868c0152847f00000000000000000000000000000000000000000000000000000000000000001660448c0152838b015260848a01520460a4880152828760c48189885af19687156109e05786976109ad575b5060405163a8ea687560e01b8152600481018690529483868481885afa95861561096657879661098e575b506040519063038941b960e51b8252600482015283818481885afa908115610966578791610971575b5016604051636eb1769f60e11b815230600482015284838201528381604481855afa908115610966578791610929575b509086939291156108b0575b50505050803b1561018f576040516361c1200160e11b81526001600160a01b039290921660048301526024820184905282908290604490829084905af180156108a55761088d575b506108838260035461179d565b6003556001815580f35b610896906116bd565b6108a1578183610876565b5080fd5b6040513d84823e3d90fd5b60448392604051958693849263095ea7b360e01b84528960048501525f19908401525af1801561091e576108e7575b80859261082e565b81813d8311610917575b6108fb8183611742565b8101031261091357518015150361018f5785806108df565b8380fd5b503d6108f1565b6040513d87823e3d90fd5b848094939850819592503d831161095f575b6109458183611742565b8101031261095b57879586935190919293610822565b5f80fd5b503d61093b565b6040513d89823e3d90fd5b6109889150843d8611610562576105538183611742565b896107f2565b6109a6919650843d8611610562576105538183611742565b94896107c9565b83809298508197503d83116109d9575b6109c78183611742565b8101031261095b57869451958861079e565b503d6109bd565b6040513d88823e3d90fd5b50634e487b7160e01b8652601160045285fd5b634e487b7160e01b8652601160045285fd5b9093508281813d8311610a38575b610a288183611742565b8101031261095b575192886106c1565b503d610a1e565b60126064926040519262461bcd60e51b8452600484015282015271696e73756666696369656e742066756e647360701b6044820152fd5b809250838092503d8311610aa0575b610a8f8183611742565b8101031261095b578490518861066a565b503d610a85565b6064906040519062461bcd60e51b82526004820152600c60248201526b1e995c9bc819195c1bdcda5d60a21b6044820152fd5b346101935780600319360112610193576001546040516001600160a01b039091168152602090f35b346101935780600319360112610193576040517f00000000000000000000000000000000000000000000000000000000000000006001600160a01b03168152602090f35b34610193578060031936011261019357610b5e611691565b600180546001600160a01b031981169091555f906001600160a01b03167f8be0079c531659141344cd1fd0a4f28419497f9722a3daafe3b4186f6b6457e08280a380f35b346101935780600319360112610193576040517f00000000000000000000000000000000000000000000000000000000000000006001600160a01b03168152602090f35b3461019357602036600319011261019357610bff611691565b808060405160208101906307983f4560e21b8252600435602482015260248152610c28816116ee565b51908273dc2b0d2dd2b7759d97d50db4eabdc369731108305af13d15610cdb573d67ffffffffffffffff8111610cc75760405190610c70601f8201601f191660200183611742565b81528260203d92013e5b15610c825780f35b60405162461bcd60e51b815260206004820152601860248201527f4665654d20726567697374726174696f6e206661696c656400000000000000006044820152606490fd5b634e487b7160e01b5f52604160045260245ffd5b610c7a565b611609565b346101935780600319360112610193576001600160a01b0390610d2b337f0000000000000000000000000000000000000000000000000000000000000000841614611764565b610d336117dd565b60405163a8ea687560e01b81527f0000000000000000000000000000000000000000000000000000000000000000831660048201526020927f0000000000000000000000000000000000000000000000000000000000000000811692918481602481875afa908115610e30578592916024918591610e13575b5084604051968794859363515ce51760e01b85521660048401525af1918215610569578192610de3575b5060019055604051908152f35b9091508281813d8311610e0c575b610dfb8183611742565b8101031261095b5751906001610dd6565b503d610df1565b610e2a9150843d8611610562576105538183611742565b87610dac565b6040513d85823e3d90fd5b346101935780600319360112610193576040519063a7533e0960e01b825260208260248160018060a01b03807f00000000000000000000000000000000000000000000000000000000000000001660048301527f0000000000000000000000000000000000000000000000000000000000000000165afa908115610f045790610ed2575b602090655af3107a400060405191048152f35b506020813d8211610efc575b81610eeb60209383611742565b8101031261095b5760209051610ebf565b3d9150610ede565b604051903d90823e3d90fd5b34610193576020806003193601126108a1576001600160a01b0390600435907f0000000000000000000000000000000000000000000000000000000000000000610f5d3385831614611764565b610f656117dd565b8215611385577f00000000000000000000000000000000000000000000000000000000000000009084821693604051956370a0823160e01b9081885230600489015260249786818a818b5afa801561137a5784918b91611345575b50106110f5575b5060405190815230600482015284818881895afa80156110ea57829189916110b9575b5010611075576040805163a9059cbb60e01b8682019081526001600160a01b0390941688820190815260208101939093528894939285926110369183910103601f198101835282611742565b51925af1156108a55782513d61106c5750803b155b61105757826001815580f35b60405190635274afe760e01b82526004820152fd5b6001141561104b565b60405162461bcd60e51b8152600481018590526017818801527f696e73756666696369656e7420616674657220657869740000000000000000006044820152606490fd5b809250868092503d83116110e3575b6110d28183611742565b8101031261095b5781905189610fea565b503d6110c8565b6040513d8a823e3d90fd5b6003549081611105575b50610fc7565b60405163a8ea687560e01b81527f0000000000000000000000000000000000000000000000000000000000000000821660048201819052907f000000000000000000000000000000000000000000000000000000000000000083169089818d81855afa90811561131d578d91611328575b508c823b15610193576040516288951f60e11b81526001600160a01b03929092166004830152602482018690528160448183865af1801561131d576112fc575b508a60c48d959493866040948e82600355865198899687956384ef21bd60e01b875260048701528501526044840152867f00000000000000000000000000000000000000000000000000000000000000001660648401528160848401528160a48401525af1918215610e305788928b9185916112c3575b508061123c575b5050506110ff565b60405194859384926359e19dc560e11b845260048401527f0000000000000000000000000000000000000000000000000000000000000000165af19081156112b857869161128f575b9081898b93611234565b813d83116112b1575b6112a28183611742565b8101031261095b578489611285565b503d611298565b6040513d8b823e3d90fd5b935050506040823d6040116112f4575b816112e060409383611742565b8101031261018f578988809301518d61122d565b3d91506112d3565b60c46040929594938c9e6113108f946116bd565b9e509394959250506111b6565b6040513d8f823e3d90fd5b61133f91508a3d8c11610562576105538183611742565b8d611176565b809250888092503d8311611373575b61135e8183611742565b8101031261136f578390518b610fc0565b8980fd5b503d611354565b6040513d8c823e3d90fd5b60405162461bcd60e51b815260048101839052600d60248201526c7a65726f20776974686472617760981b6044820152606490fd5b346101935780600319360112610193576020600354604051908152f35b346101935780600319360112610193576040517f00000000000000000000000000000000000000000000000000000000000000006001600160a01b03168152602090f35b34610193578060031936011261019357604051908060025491600183811c92818516948515611521575b602095868610811461150d578588528794939291879082156114eb575050600114611491575b505061147992500383611742565b61148d6040519282849384528301906115cb565b0390f35b90859250600282527f405787fa12a823e0f2b7631cc41b3ba8828b3321ca811111fa75cd3aa3bb5ace5b8583106114d35750506114799350820101858061146b565b805483890185015287945086939092019181016114bb565b925093505061147994915060ff191682840152151560051b820101858061146b565b634e487b7160e01b83526022600452602483fd5b93607f1693611445565b346108a157816003193601126108a1576370a0823160e01b81523060048201526020816024817f00000000000000000000000000000000000000000000000000000000000000006001600160a01b03165afa9081156108a5578291611596575b602082604051908152f35b90506020813d82116115c3575b816115b060209383611742565b810103126108a15760209150518261158b565b3d91506115a3565b91908251928382525f5b8481106115f5575050825f602080949584010152601f8019910116010190565b6020818301810151848301820152016115d5565b3461095b575f36600319011261095b576040517f00000000000000000000000000000000000000000000000000000000000000006001600160a01b03168152602090f35b3461095b575f36600319011261095b576040517f00000000000000000000000000000000000000000000000000000000000000006001600160a01b03168152602090f35b6001546001600160a01b031633036116a557565b60405163118cdaa760e01b8152336004820152602490fd5b67ffffffffffffffff8111610cc757604052565b610100810190811067ffffffffffffffff821117610cc757604052565b6060810190811067ffffffffffffffff821117610cc757604052565b6020810190811067ffffffffffffffff821117610cc757604052565b6040810190811067ffffffffffffffff821117610cc757604052565b90601f8019910116810190811067ffffffffffffffff821117610cc757604052565b1561176b57565b60405162461bcd60e51b815260206004820152600a60248201526913db9b1e481d985d5b1d60b21b6044820152606490fd5b919082018092116117aa57565b634e487b7160e01b5f52601160045260245ffd5b9081602091031261095b57516001600160a01b038116810361095b5790565b60025f54146117ec5760025f55565b604051633ee5aeb560e01b8152600490fd5b80511561180b5760200190565b634e487b7160e01b5f52603260045260245ffd5b80516001101561180b576040019056fea2646970667358221220e1c8eae669873e8e74b0899953b8e4ce003242ffa121da5c2aff33013d21e95c64736f6c63430008140033","linkReferences":{}},"methodIdentifiers":{"ASSET()":"4800d97f","BEETS()":"d8d908c4","POOL()":"7535d246","STS()":"611e6f1a","STS_TOKEN()":"1fc170b6","VAULT()":"411557d1","apy()":"3bcfc4b8","asset()":"38d52e0f","components()":"ba62fbe4","deposit(uint256)":"b6b55f25","harvest()":"4641257d","name()":"06fdde03","owner()":"8da5cb5b","registerMe(uint256)":"55af8535","renounceOwnership()":"715018a6","stakedLp()":"218fa0ac","totalAssets()":"01e1d114","transferOwnership(address)":"f2fde38b","vault()":"fbfa77cf","withdraw(uint256)":"2e1a7d4d"},"id":58}