{"abi":[{"type":"constructor","inputs":[{"name":"_sToken","type":"address","internalType":"address"},{"name":"_vault","type":"address","internalType":"address"},{"name":"_stsAdapter","type":"address","internalType":"address"},{"name":"_beetsAdapter","type":"address","internalType":"address"},{"name":"_pool","type":"address","internalType":"address"}],"stateMutability":"nonpayable"},{"type":"function","name":"ASSET","inputs":[],"outputs":[{"name":"","type":"address","internalType":"contract IERC20"}],"stateMutability":"view"},{"type":"function","name":"BEETS","inputs":[],"outputs":[{"name":"","type":"address","internalType":"contract IBeetsAdapter"}],"stateMutability":"view"},{"type":"function","name":"POOL","inputs":[],"outputs":[{"name":"","type":"address","internalType":"address"}],"stateMutability":"view"},{"type":"function","name":"STS","inputs":[],"outputs":[{"name":"","type":"address","internalType":"contract IStSAdapter"}],"stateMutability":"view"},{"type":"function","name":"STS_TOKEN","inputs":[],"outputs":[{"name":"","type":"address","internalType":"address"}],"stateMutability":"view"},{"type":"function","name":"VAULT","inputs":[],"outputs":[{"name":"","type":"address","internalType":"address"}],"stateMutability":"view"},{"type":"function","name":"apy","inputs":[],"outputs":[{"name":"","type":"uint256","internalType":"uint256"}],"stateMutability":"view"},{"type":"function","name":"asset","inputs":[],"outputs":[{"name":"","type":"address","internalType":"contract IERC20"}],"stateMutability":"view"},{"type":"function","name":"deposit","inputs":[{"name":"amount","type":"uint256","internalType":"uint256"}],"outputs":[],"stateMutability":"nonpayable"},{"type":"function","name":"harvest","inputs":[],"outputs":[{"name":"harvested","type":"uint256","internalType":"uint256"}],"stateMutability":"nonpayable"},{"type":"function","name":"owner","inputs":[],"outputs":[{"name":"","type":"address","internalType":"address"}],"stateMutability":"view"},{"type":"function","name":"renounceOwnership","inputs":[],"outputs":[],"stateMutability":"nonpayable"},{"type":"function","name":"stakedLp","inputs":[],"outputs":[{"name":"","type":"uint256","internalType":"uint256"}],"stateMutability":"view"},{"type":"function","name":"totalAssets","inputs":[],"outputs":[{"name":"","type":"uint256","internalType":"uint256"}],"stateMutability":"view"},{"type":"function","name":"transferOwnership","inputs":[{"name":"newOwner","type":"address","internalType":"address"}],"outputs":[],"stateMutability":"nonpayable"},{"type":"function","name":"vault","inputs":[],"outputs":[{"name":"","type":"address","internalType":"address"}],"stateMutability":"view"},{"type":"function","name":"withdraw","inputs":[{"name":"amount","type":"uint256","internalType":"uint256"}],"outputs":[],"stateMutability":"nonpayable"},{"type":"event","name":"OwnershipTransferred","inputs":[{"name":"previousOwner","type":"address","indexed":true,"internalType":"address"},{"name":"newOwner","type":"address","indexed":true,"internalType":"address"}],"anonymous":false},{"type":"error","name":"OwnableInvalidOwner","inputs":[{"name":"owner","type":"address","internalType":"address"}]},{"type":"error","name":"OwnableUnauthorizedAccount","inputs":[{"name":"account","type":"address","internalType":"address"}]},{"type":"error","name":"ReentrancyGuardReentrantCall","inputs":[]},{"type":"error","name":"SafeERC20FailedOperation","inputs":[{"name":"token","type":"address","internalType":"address"}]}],"bytecode":{"object":"0x61014060405234801562000011575f80fd5b5060405162002c0038038062002c008339818101604052810190620000379190620007f7565b84843360015f819055505f73ffffffffffffffffffffffffffffffffffffffff168173ffffffffffffffffffffffffffffffffffffffff1603620000b4575f6040517f1e4fbdf7000000000000000000000000000000000000000000000000000000008152600401620000ab91906200088c565b60405180910390fd5b620000c581620006cf60201b60201c565b505f73ffffffffffffffffffffffffffffffffffffffff168273ffffffffffffffffffffffffffffffffffffffff16141580156200012f57505f73ffffffffffffffffffffffffffffffffffffffff168173ffffffffffffffffffffffffffffffffffffffff1614155b62000171576040517f08c379a0000000000000000000000000000000000000000000000000000000008152600401620001689062000905565b60405180910390fd5b8173ffffffffffffffffffffffffffffffffffffffff1660808173ffffffffffffffffffffffffffffffffffffffff16815250508073ffffffffffffffffffffffffffffffffffffffff1660a08173ffffffffffffffffffffffffffffffffffffffff168152505050505f73ffffffffffffffffffffffffffffffffffffffff168373ffffffffffffffffffffffffffffffffffffffff16141580156200024457505f73ffffffffffffffffffffffffffffffffffffffff168273ffffffffffffffffffffffffffffffffffffffff1614155b62000286576040517f08c379a00000000000000000000000000000000000000000000000000000000081526004016200027d9062000973565b60405180910390fd5b5f73ffffffffffffffffffffffffffffffffffffffff168173ffffffffffffffffffffffffffffffffffffffff1603620002f7576040517f08c379a0000000000000000000000000000000000000000000000000000000008152600401620002ee90620009e1565b60405180910390fd5b8273ffffffffffffffffffffffffffffffffffffffff1660c08173ffffffffffffffffffffffffffffffffffffffff16815250508173ffffffffffffffffffffffffffffffffffffffff1660e08173ffffffffffffffffffffffffffffffffffffffff16815250508073ffffffffffffffffffffffffffffffffffffffff166101008173ffffffffffffffffffffffffffffffffffffffff168152505060c05173ffffffffffffffffffffffffffffffffffffffff166332d148d86040518163ffffffff1660e01b8152600401602060405180830381865afa158015620003e0573d5f803e3d5ffd5b505050506040513d601f19601f8201168201806040525081019062000406919062000a01565b73ffffffffffffffffffffffffffffffffffffffff166101208173ffffffffffffffffffffffffffffffffffffffff16815250508473ffffffffffffffffffffffffffffffffffffffff1663095ea7b3847fffffffffffffffffffffffffffffffffffffffffffffffffffffffffffffffff6040518363ffffffff1660e01b81526004016200049792919062000a4b565b6020604051808303815f875af1158015620004b4573d5f803e3d5ffd5b505050506040513d601f19601f82011682018060405250810190620004da919062000ab0565b506101205173ffffffffffffffffffffffffffffffffffffffff1663095ea7b3837fffffffffffffffffffffffffffffffffffffffffffffffffffffffffffffffff6040518363ffffffff1660e01b81526004016200053b92919062000a4b565b6020604051808303815f875af115801562000558573d5f803e3d5ffd5b505050506040513d601f19601f820116820180604052508101906200057e919062000ab0565b506101205173ffffffffffffffffffffffffffffffffffffffff1663095ea7b3847fffffffffffffffffffffffffffffffffffffffffffffffffffffffffffffffff6040518363ffffffff1660e01b8152600401620005df92919062000a4b565b6020604051808303815f875af1158015620005fc573d5f803e3d5ffd5b505050506040513d601f19601f8201168201806040525081019062000622919062000ab0565b508473ffffffffffffffffffffffffffffffffffffffff1663095ea7b3837fffffffffffffffffffffffffffffffffffffffffffffffffffffffffffffffff6040518363ffffffff1660e01b81526004016200068092919062000a4b565b6020604051808303815f875af11580156200069d573d5f803e3d5ffd5b505050506040513d601f19601f82011682018060405250810190620006c3919062000ab0565b50505050505062000ae0565b5f60015f9054906101000a900473ffffffffffffffffffffffffffffffffffffffff1690508160015f6101000a81548173ffffffffffffffffffffffffffffffffffffffff021916908373ffffffffffffffffffffffffffffffffffffffff1602179055508173ffffffffffffffffffffffffffffffffffffffff168173ffffffffffffffffffffffffffffffffffffffff167f8be0079c531659141344cd1fd0a4f28419497f9722a3daafe3b4186f6b6457e060405160405180910390a35050565b5f80fd5b5f73ffffffffffffffffffffffffffffffffffffffff82169050919050565b5f620007c18262000796565b9050919050565b620007d381620007b5565b8114620007de575f80fd5b50565b5f81519050620007f181620007c8565b92915050565b5f805f805f60a0868803121562000813576200081262000792565b5b5f6200082288828901620007e1565b95505060206200083588828901620007e1565b94505060406200084888828901620007e1565b93505060606200085b88828901620007e1565b92505060806200086e88828901620007e1565b9150509295509295909350565b6200088681620007b5565b82525050565b5f602082019050620008a15f8301846200087b565b92915050565b5f82825260208201905092915050565b7f7a65726f206164647200000000000000000000000000000000000000000000005f82015250565b5f620008ed600983620008a7565b9150620008fa82620008b7565b602082019050919050565b5f6020820190508181035f8301526200091e81620008df565b9050919050565b7f62616420616461707465727300000000000000000000000000000000000000005f82015250565b5f6200095b600c83620008a7565b9150620009688262000925565b602082019050919050565b5f6020820190508181035f8301526200098c816200094d565b9050919050565b7f62616420706f6f6c0000000000000000000000000000000000000000000000005f82015250565b5f620009c9600883620008a7565b9150620009d68262000993565b602082019050919050565b5f6020820190508181035f830152620009fa81620009bb565b9050919050565b5f6020828403121562000a195762000a1862000792565b5b5f62000a2884828501620007e1565b91505092915050565b5f819050919050565b62000a458162000a31565b82525050565b5f60408201905062000a605f8301856200087b565b62000a6f602083018462000a3a565b9392505050565b5f8115159050919050565b62000a8c8162000a76565b811462000a97575f80fd5b50565b5f8151905062000aaa8162000a81565b92915050565b5f6020828403121562000ac85762000ac762000792565b5b5f62000ad78482850162000a9a565b91505092915050565b60805160a05160c05160e0516101005161012051611fdc62000c245f395f81816103910152818161070e015261104d01525f8181610581015281816106cb015281816109f101528181610b6a01528181610cea0152818161100b0152818161111101526111cc01525f8181610545015281816105ff0152818161068f015281816109b501528181610b2e01528181610be801528181610fcf015281816110d5015281816111900152818161126801528181611306015281816113a7015261145a01525f818161079c01528181610cb30152610efd01525f81816103bb0152818161091901528181610a7201528181610a9701528181610d36015261150301525f81816102f401528181610494015281816106ed0152818161083d0152818161093b0152818161098e01528181610c8f01528181610e0f015261102c0152611fdc5ff3fe608060405234801561000f575f80fd5b5060043610610109575f3560e01c80634800d97f116100a05780638da5cb5b1161006f5780638da5cb5b1461025f578063b6b55f251461027d578063d8d908c414610299578063f2fde38b146102b7578063fbfa77cf146102d357610109565b80634800d97f146101fb578063611e6f1a14610219578063715018a6146102375780637535d2461461024157610109565b806338d52e0f116100dc57806338d52e0f146101835780633bcfc4b8146101a1578063411557d1146101bf5780634641257d146101dd57610109565b806301e1d1141461010d5780631fc170b61461012b578063218fa0ac146101495780632e1a7d4d14610167575b5f80fd5b6101156102f1565b60405161012291906117f7565b60405180910390f35b61013361038f565b604051610140919061184f565b60405180910390f35b6101516103b3565b60405161015e91906117f7565b60405180910390f35b610181600480360381019061017c9190611896565b6103b9565b005b61018b61098b565b604051610198919061191c565b60405180910390f35b6101a96109b2565b6040516101b691906117f7565b60405180910390f35b6101c7610a70565b6040516101d4919061184f565b60405180910390f35b6101e5610a94565b6040516101f291906117f7565b60405180910390f35b610203610c8d565b604051610210919061191c565b60405180910390f35b610221610cb1565b60405161022e9190611955565b60405180910390f35b61023f610cd5565b005b610249610ce8565b604051610256919061184f565b60405180910390f35b610267610d0c565b604051610274919061184f565b60405180910390f35b61029760048036038101906102929190611896565b610d34565b005b6102a1611458565b6040516102ae919061198e565b60405180910390f35b6102d160048036038101906102cc91906119d1565b61147c565b005b6102db611500565b6040516102e8919061184f565b60405180910390f35b5f7f000000000000000000000000000000000000000000000000000000000000000073ffffffffffffffffffffffffffffffffffffffff166370a08231306040518263ffffffff1660e01b815260040161034b919061184f565b602060405180830381865afa158015610366573d5f803e3d5ffd5b505050506040513d601f19601f8201168201806040525081019061038a9190611a10565b905090565b7f000000000000000000000000000000000000000000000000000000000000000081565b60025481565b7f000000000000000000000000000000000000000000000000000000000000000073ffffffffffffffffffffffffffffffffffffffff163373ffffffffffffffffffffffffffffffffffffffff1614610447576040517f08c379a000000000000000000000000000000000000000000000000000000000815260040161043e90611a95565b60405180910390fd5b61044f611527565b5f8111610491576040517f08c379a000000000000000000000000000000000000000000000000000000000815260040161048890611afd565b60405180910390fd5b5f7f000000000000000000000000000000000000000000000000000000000000000073ffffffffffffffffffffffffffffffffffffffff166370a08231306040518263ffffffff1660e01b81526004016104eb919061184f565b602060405180830381865afa158015610506573d5f803e3d5ffd5b505050506040513d601f19601f8201168201806040525081019061052a9190611a10565b90508181101561083a575f60025490505f811115610838575f7f000000000000000000000000000000000000000000000000000000000000000073ffffffffffffffffffffffffffffffffffffffff1663a8ea68757f00000000000000000000000000000000000000000000000000000000000000006040518263ffffffff1660e01b81526004016105bc919061184f565b602060405180830381865afa1580156105d7573d5f803e3d5ffd5b505050506040513d601f19601f820116820180604052508101906105fb9190611b2f565b90507f000000000000000000000000000000000000000000000000000000000000000073ffffffffffffffffffffffffffffffffffffffff166301112a3e82846040518363ffffffff1660e01b8152600401610658929190611b5a565b5f604051808303815f87803b15801561066f575f80fd5b505af1158015610681573d5f803e3d5ffd5b505050505f6002819055505f7f000000000000000000000000000000000000000000000000000000000000000073ffffffffffffffffffffffffffffffffffffffff166384ef21bd7f0000000000000000000000000000000000000000000000000000000000000000857f00000000000000000000000000000000000000000000000000000000000000007f00000000000000000000000000000000000000000000000000000000000000005f806040518763ffffffff1660e01b815260040161075096959493929190611bba565b60408051808303815f875af115801561076b573d5f803e3d5ffd5b505050506040513d601f19601f8201168201806040525081019061078f9190611c19565b9150505f811115610835577f000000000000000000000000000000000000000000000000000000000000000073ffffffffffffffffffffffffffffffffffffffff1663b3c33b8a826040518263ffffffff1660e01b81526004016107f391906117f7565b6020604051808303815f875af115801561080f573d5f803e3d5ffd5b505050506040513d601f19601f820116820180604052508101906108339190611a10565b505b50505b505b817f000000000000000000000000000000000000000000000000000000000000000073ffffffffffffffffffffffffffffffffffffffff166370a08231306040518263ffffffff1660e01b8152600401610894919061184f565b602060405180830381865afa1580156108af573d5f803e3d5ffd5b505050506040513d601f19601f820116820180604052508101906108d39190611a10565b1015610914576040517f08c379a000000000000000000000000000000000000000000000000000000000815260040161090b90611ca1565b60405180910390fd5b61097f7f0000000000000000000000000000000000000000000000000000000000000000837f000000000000000000000000000000000000000000000000000000000000000073ffffffffffffffffffffffffffffffffffffffff1661156b9092919063ffffffff16565b506109886115ea565b50565b5f7f0000000000000000000000000000000000000000000000000000000000000000905090565b5f7f000000000000000000000000000000000000000000000000000000000000000073ffffffffffffffffffffffffffffffffffffffff1663a7533e097f00000000000000000000000000000000000000000000000000000000000000006040518263ffffffff1660e01b8152600401610a2c919061184f565b602060405180830381865afa158015610a47573d5f803e3d5ffd5b505050506040513d601f19601f82011682018060405250810190610a6b9190611a10565b905090565b7f000000000000000000000000000000000000000000000000000000000000000081565b5f7f000000000000000000000000000000000000000000000000000000000000000073ffffffffffffffffffffffffffffffffffffffff163373ffffffffffffffffffffffffffffffffffffffff1614610b23576040517f08c379a0000000000000000000000000000000000000000000000000000000008152600401610b1a90611a95565b60405180910390fd5b610b2b611527565b5f7f000000000000000000000000000000000000000000000000000000000000000073ffffffffffffffffffffffffffffffffffffffff1663a8ea68757f00000000000000000000000000000000000000000000000000000000000000006040518263ffffffff1660e01b8152600401610ba5919061184f565b602060405180830381865afa158015610bc0573d5f803e3d5ffd5b505050506040513d601f19601f82011682018060405250810190610be49190611b2f565b90507f000000000000000000000000000000000000000000000000000000000000000073ffffffffffffffffffffffffffffffffffffffff1663515ce517826040518263ffffffff1660e01b8152600401610c3f919061184f565b6020604051808303815f875af1158015610c5b573d5f803e3d5ffd5b505050506040513d601f19601f82011682018060405250810190610c7f9190611a10565b915050610c8a6115ea565b90565b7f000000000000000000000000000000000000000000000000000000000000000081565b7f000000000000000000000000000000000000000000000000000000000000000081565b610cdd6115f3565b610ce65f61167a565b565b7f000000000000000000000000000000000000000000000000000000000000000081565b5f60015f9054906101000a900473ffffffffffffffffffffffffffffffffffffffff16905090565b7f000000000000000000000000000000000000000000000000000000000000000073ffffffffffffffffffffffffffffffffffffffff163373ffffffffffffffffffffffffffffffffffffffff1614610dc2576040517f08c379a0000000000000000000000000000000000000000000000000000000008152600401610db990611a95565b60405180910390fd5b610dca611527565b5f8111610e0c576040517f08c379a0000000000000000000000000000000000000000000000000000000008152600401610e0390611d09565b60405180910390fd5b5f7f000000000000000000000000000000000000000000000000000000000000000073ffffffffffffffffffffffffffffffffffffffff166370a08231306040518263ffffffff1660e01b8152600401610e66919061184f565b602060405180830381865afa158015610e81573d5f803e3d5ffd5b505050506040513d601f19601f82011682018060405250810190610ea59190611a10565b905081811015610eea576040517f08c379a0000000000000000000000000000000000000000000000000000000008152600401610ee190611d71565b60405180910390fd5b5f600283610ef89190611de9565b90505f7f000000000000000000000000000000000000000000000000000000000000000073ffffffffffffffffffffffffffffffffffffffff16636cdea07b836040518263ffffffff1660e01b8152600401610f5491906117f7565b6020604051808303815f875af1158015610f70573d5f803e3d5ffd5b505050506040513d601f19601f82011682018060405250810190610f949190611a10565b90505f8285610fa39190611e19565b90505f6064605f8484610fb69190611e4c565b610fc09190611e7f565b610fca9190611de9565b90505f7f000000000000000000000000000000000000000000000000000000000000000073ffffffffffffffffffffffffffffffffffffffff1663d875c70f7f00000000000000000000000000000000000000000000000000000000000000007f00000000000000000000000000000000000000000000000000000000000000007f00000000000000000000000000000000000000000000000000000000000000008789886040518763ffffffff1660e01b815260040161109096959493929190611ec0565b6020604051808303815f875af11580156110ac573d5f803e3d5ffd5b505050506040513d601f19601f820116820180604052508101906110d09190611a10565b90505f7f000000000000000000000000000000000000000000000000000000000000000073ffffffffffffffffffffffffffffffffffffffff1663a8ea68757f00000000000000000000000000000000000000000000000000000000000000006040518263ffffffff1660e01b815260040161114c919061184f565b602060405180830381865afa158015611167573d5f803e3d5ffd5b505050506040513d601f19601f8201168201806040525081019061118b9190611b2f565b90505f7f000000000000000000000000000000000000000000000000000000000000000073ffffffffffffffffffffffffffffffffffffffff1663712837207f00000000000000000000000000000000000000000000000000000000000000006040518263ffffffff1660e01b8152600401611207919061184f565b602060405180830381865afa158015611222573d5f803e3d5ffd5b505050506040513d601f19601f820116820180604052508101906112469190611b2f565b90505f8173ffffffffffffffffffffffffffffffffffffffff1663dd62ed3e307f00000000000000000000000000000000000000000000000000000000000000006040518363ffffffff1660e01b81526004016112a4929190611f1f565b602060405180830381865afa1580156112bf573d5f803e3d5ffd5b505050506040513d601f19601f820116820180604052508101906112e39190611a10565b036113a5578073ffffffffffffffffffffffffffffffffffffffff1663095ea7b37f00000000000000000000000000000000000000000000000000000000000000007fffffffffffffffffffffffffffffffffffffffffffffffffffffffffffffffff6040518363ffffffff1660e01b8152600401611363929190611b5a565b6020604051808303815f875af115801561137f573d5f803e3d5ffd5b505050506040513d601f19601f820116820180604052508101906113a39190611f7b565b505b7f000000000000000000000000000000000000000000000000000000000000000073ffffffffffffffffffffffffffffffffffffffff1663c382400283856040518363ffffffff1660e01b8152600401611400929190611b5a565b5f604051808303815f87803b158015611417575f80fd5b505af1158015611429573d5f803e3d5ffd5b505050508260025f82825461143e9190611e4c565b9250508190555050505050505050506114556115ea565b50565b7f000000000000000000000000000000000000000000000000000000000000000081565b6114846115f3565b5f73ffffffffffffffffffffffffffffffffffffffff168173ffffffffffffffffffffffffffffffffffffffff16036114f4575f6040517f1e4fbdf70000000000000000000000000000000000000000000000000000000081526004016114eb919061184f565b60405180910390fd5b6114fd8161167a565b50565b5f7f0000000000000000000000000000000000000000000000000000000000000000905090565b60025f5403611562576040517f3ee5aeb500000000000000000000000000000000000000000000000000000000815260040160405180910390fd5b60025f81905550565b6115e5838473ffffffffffffffffffffffffffffffffffffffff1663a9059cbb858560405160240161159e929190611b5a565b604051602081830303815290604052915060e01b6020820180517bffffffffffffffffffffffffffffffffffffffffffffffffffffffff838183161783525050505061173d565b505050565b60015f81905550565b6115fb6117d8565b73ffffffffffffffffffffffffffffffffffffffff16611619610d0c565b73ffffffffffffffffffffffffffffffffffffffff16146116785761163c6117d8565b6040517f118cdaa700000000000000000000000000000000000000000000000000000000815260040161166f919061184f565b60405180910390fd5b565b5f60015f9054906101000a900473ffffffffffffffffffffffffffffffffffffffff1690508160015f6101000a81548173ffffffffffffffffffffffffffffffffffffffff021916908373ffffffffffffffffffffffffffffffffffffffff1602179055508173ffffffffffffffffffffffffffffffffffffffff168173ffffffffffffffffffffffffffffffffffffffff167f8be0079c531659141344cd1fd0a4f28419497f9722a3daafe3b4186f6b6457e060405160405180910390a35050565b5f8060205f8451602086015f885af18061175c576040513d5f823e3d81fd5b3d92505f519150505f8214611775576001811415611790565b5f8473ffffffffffffffffffffffffffffffffffffffff163b145b156117d257836040517f5274afe70000000000000000000000000000000000000000000000000000000081526004016117c9919061184f565b60405180910390fd5b50505050565b5f33905090565b5f819050919050565b6117f1816117df565b82525050565b5f60208201905061180a5f8301846117e8565b92915050565b5f73ffffffffffffffffffffffffffffffffffffffff82169050919050565b5f61183982611810565b9050919050565b6118498161182f565b82525050565b5f6020820190506118625f830184611840565b92915050565b5f80fd5b611875816117df565b811461187f575f80fd5b50565b5f813590506118908161186c565b92915050565b5f602082840312156118ab576118aa611868565b5b5f6118b884828501611882565b91505092915050565b5f819050919050565b5f6118e46118df6118da84611810565b6118c1565b611810565b9050919050565b5f6118f5826118ca565b9050919050565b5f611906826118eb565b9050919050565b611916816118fc565b82525050565b5f60208201905061192f5f83018461190d565b92915050565b5f61193f826118eb565b9050919050565b61194f81611935565b82525050565b5f6020820190506119685f830184611946565b92915050565b5f611978826118eb565b9050919050565b6119888161196e565b82525050565b5f6020820190506119a15f83018461197f565b92915050565b6119b08161182f565b81146119ba575f80fd5b50565b5f813590506119cb816119a7565b92915050565b5f602082840312156119e6576119e5611868565b5b5f6119f3848285016119bd565b91505092915050565b5f81519050611a0a8161186c565b92915050565b5f60208284031215611a2557611a24611868565b5b5f611a32848285016119fc565b91505092915050565b5f82825260208201905092915050565b7f4f6e6c79207661756c74000000000000000000000000000000000000000000005f82015250565b5f611a7f600a83611a3b565b9150611a8a82611a4b565b602082019050919050565b5f6020820190508181035f830152611aac81611a73565b9050919050565b7f7a65726f207769746864726177000000000000000000000000000000000000005f82015250565b5f611ae7600d83611a3b565b9150611af282611ab3565b602082019050919050565b5f6020820190508181035f830152611b1481611adb565b9050919050565b5f81519050611b29816119a7565b92915050565b5f60208284031215611b4457611b43611868565b5b5f611b5184828501611b1b565b91505092915050565b5f604082019050611b6d5f830185611840565b611b7a60208301846117e8565b9392505050565b5f819050919050565b5f611ba4611b9f611b9a84611b81565b6118c1565b6117df565b9050919050565b611bb481611b8a565b82525050565b5f60c082019050611bcd5f830189611840565b611bda60208301886117e8565b611be76040830187611840565b611bf46060830186611840565b611c016080830185611bab565b611c0e60a0830184611bab565b979650505050505050565b5f8060408385031215611c2f57611c2e611868565b5b5f611c3c858286016119fc565b9250506020611c4d858286016119fc565b9150509250929050565b7f696e73756666696369656e7420616674657220657869740000000000000000005f82015250565b5f611c8b601783611a3b565b9150611c9682611c57565b602082019050919050565b5f6020820190508181035f830152611cb881611c7f565b9050919050565b7f7a65726f206465706f73697400000000000000000000000000000000000000005f82015250565b5f611cf3600c83611a3b565b9150611cfe82611cbf565b602082019050919050565b5f6020820190508181035f830152611d2081611ce7565b9050919050565b7f696e73756666696369656e742066756e647300000000000000000000000000005f82015250565b5f611d5b601283611a3b565b9150611d6682611d27565b602082019050919050565b5f6020820190508181035f830152611d8881611d4f565b9050919050565b7f4e487b71000000000000000000000000000000000000000000000000000000005f52601260045260245ffd5b7f4e487b71000000000000000000000000000000000000000000000000000000005f52601160045260245ffd5b5f611df3826117df565b9150611dfe836117df565b925082611e0e57611e0d611d8f565b5b828204905092915050565b5f611e23826117df565b9150611e2e836117df565b9250828203905081811115611e4657611e45611dbc565b5b92915050565b5f611e56826117df565b9150611e61836117df565b9250828201905080821115611e7957611e78611dbc565b5b92915050565b5f611e89826117df565b9150611e94836117df565b9250828202611ea2816117df565b91508282048414831517611eb957611eb8611dbc565b5b5092915050565b5f60c082019050611ed35f830189611840565b611ee06020830188611840565b611eed6040830187611840565b611efa60608301866117e8565b611f0760808301856117e8565b611f1460a08301846117e8565b979650505050505050565b5f604082019050611f325f830185611840565b611f3f6020830184611840565b9392505050565b5f8115159050919050565b611f5a81611f46565b8114611f64575f80fd5b50565b5f81519050611f7581611f51565b92915050565b5f60208284031215611f9057611f8f611868565b5b5f611f9d84828501611f67565b9150509291505056fea264697066735822122056bc8000292a0479e5fc030ad51f7ad5037c894797f427c90b11be376c3ecafb64736f6c63430008140033","linkReferences":{}},"methodIdentifiers":{"ASSET()":"4800d97f","BEETS()":"d8d908c4","POOL()":"7535d246","STS()":"611e6f1a","STS_TOKEN()":"1fc170b6","VAULT()":"411557d1","apy()":"3bcfc4b8","asset()":"38d52e0f","deposit(uint256)":"b6b55f25","harvest()":"4641257d","owner()":"8da5cb5b","renounceOwnership()":"715018a6","stakedLp()":"218fa0ac","totalAssets()":"01e1d114","transferOwnership(address)":"f2fde38b","vault()":"fbfa77cf","withdraw(uint256)":"2e1a7d4d"},"id":59}