{"abi":[{"type":"constructor","inputs":[{"name":"_sToken","type":"address","internalType":"address"},{"name":"_vault","type":"address","internalType":"address"},{"name":"_stsAdapter","type":"address","internalType":"address"},{"name":"_beetsAdapter","type":"address","internalType":"address"},{"name":"_pool","type":"address","internalType":"address"}],"stateMutability":"nonpayable"},{"type":"function","name":"ASSET","inputs":[],"outputs":[{"name":"","type":"address","internalType":"contract IERC20"}],"stateMutability":"view"},{"type":"function","name":"BEETS","inputs":[],"outputs":[{"name":"","type":"address","internalType":"contract IBeetsAdapter"}],"stateMutability":"view"},{"type":"function","name":"POOL","inputs":[],"outputs":[{"name":"","type":"address","internalType":"address"}],"stateMutability":"view"},{"type":"function","name":"STS","inputs":[],"outputs":[{"name":"","type":"address","internalType":"contract IStSAdapter"}],"stateMutability":"view"},{"type":"function","name":"STS_TOKEN","inputs":[],"outputs":[{"name":"","type":"address","internalType":"address"}],"stateMutability":"view"},{"type":"function","name":"VAULT","inputs":[],"outputs":[{"name":"","type":"address","internalType":"address"}],"stateMutability":"view"},{"type":"function","name":"apy","inputs":[],"outputs":[{"name":"","type":"uint256","internalType":"uint256"}],"stateMutability":"view"},{"type":"function","name":"asset","inputs":[],"outputs":[{"name":"","type":"address","internalType":"contract IERC20"}],"stateMutability":"view"},{"type":"function","name":"deposit","inputs":[{"name":"amount","type":"uint256","internalType":"uint256"}],"outputs":[],"stateMutability":"nonpayable"},{"type":"function","name":"harvest","inputs":[],"outputs":[{"name":"harvested","type":"uint256","internalType":"uint256"}],"stateMutability":"nonpayable"},{"type":"function","name":"introspect","inputs":[],"outputs":[{"name":"cfg","type":"tuple","internalType":"struct IStrategyIntrospection.StrategyConfig","components":[{"name":"asset","type":"address","internalType":"address"},{"name":"lending","type":"tuple","internalType":"struct IStrategyIntrospection.LendingConfig","components":[{"name":"adapter","type":"address","internalType":"address"},{"name":"supplyToken","type":"address","internalType":"address"},{"name":"borrowToken","type":"address","internalType":"address"}]},{"name":"eggs","type":"tuple","internalType":"struct IStrategyIntrospection.SimpleConfig","components":[{"name":"adapter","type":"address","internalType":"address"}]},{"name":"rings","type":"tuple","internalType":"struct IStrategyIntrospection.SimpleConfig","components":[{"name":"adapter","type":"address","internalType":"address"}]},{"name":"sts","type":"tuple","internalType":"struct IStrategyIntrospection.SimpleConfig","components":[{"name":"adapter","type":"address","internalType":"address"}]},{"name":"pendle","type":"tuple","internalType":"struct IStrategyIntrospection.SimpleConfig","components":[{"name":"adapter","type":"address","internalType":"address"}]},{"name":"beets","type":"tuple","internalType":"struct IStrategyIntrospection.DexConfig","components":[{"name":"adapter","type":"address","internalType":"address"},{"name":"pool","type":"address","internalType":"address"},{"name":"gauge","type":"address","internalType":"address"}]},{"name":"swapx","type":"tuple","internalType":"struct IStrategyIntrospection.DexConfig","components":[{"name":"adapter","type":"address","internalType":"address"},{"name":"pool","type":"address","internalType":"address"},{"name":"gauge","type":"address","internalType":"address"}]},{"name":"shadow","type":"tuple","internalType":"struct IStrategyIntrospection.DexConfig","components":[{"name":"adapter","type":"address","internalType":"address"},{"name":"pool","type":"address","internalType":"address"},{"name":"gauge","type":"address","internalType":"address"}]}]}],"stateMutability":"view"},{"type":"function","name":"owner","inputs":[],"outputs":[{"name":"","type":"address","internalType":"address"}],"stateMutability":"view"},{"type":"function","name":"renounceOwnership","inputs":[],"outputs":[],"stateMutability":"nonpayable"},{"type":"function","name":"stakedLp","inputs":[],"outputs":[{"name":"","type":"uint256","internalType":"uint256"}],"stateMutability":"view"},{"type":"function","name":"totalAssets","inputs":[],"outputs":[{"name":"","type":"uint256","internalType":"uint256"}],"stateMutability":"view"},{"type":"function","name":"transferOwnership","inputs":[{"name":"newOwner","type":"address","internalType":"address"}],"outputs":[],"stateMutability":"nonpayable"},{"type":"function","name":"vault","inputs":[],"outputs":[{"name":"","type":"address","internalType":"address"}],"stateMutability":"view"},{"type":"function","name":"withdraw","inputs":[{"name":"amount","type":"uint256","internalType":"uint256"}],"outputs":[],"stateMutability":"nonpayable"},{"type":"event","name":"OwnershipTransferred","inputs":[{"name":"previousOwner","type":"address","indexed":true,"internalType":"address"},{"name":"newOwner","type":"address","indexed":true,"internalType":"address"}],"anonymous":false},{"type":"error","name":"OwnableInvalidOwner","inputs":[{"name":"owner","type":"address","internalType":"address"}]},{"type":"error","name":"OwnableUnauthorizedAccount","inputs":[{"name":"account","type":"address","internalType":"address"}]},{"type":"error","name":"ReentrancyGuardReentrantCall","inputs":[]},{"type":"error","name":"SafeERC20FailedOperation","inputs":[{"name":"token","type":"address","internalType":"address"}]}],"bytecode":{"object":"0x61014060409080825234620004a85760a08162001a5f8038038091620000268285620004ac565b833981010312620004a8576200003c81620004e4565b9160206200004c818401620004e4565b926200005a838201620004e4565b6200007660806200006e60608501620004e4565b9301620004e4565b955f91600183553315620004905760018054336001600160a01b0319821681179092558751986001600160a01b03949092859283167f8be0079c531659141344cd1fd0a4f28419497f9722a3daafe3b4186f6b6457e08880a316978815158062000484575b15620004565750608088905260a052811692831515806200044a575b15620004175781881615620003e85781908460c05216908160e05261010097885285519663065a291b60e31b88528588600481885afa978815620003de5784986200039b575b5061012097885286519463095ea7b360e01b928387528160048801525f199687602482015288816044818a885af180156200036f5762000379575b508588828c511660448c51809481938a83528b60048401528d60248401525af180156200036f5789928894926044926200034d575b508c5116918b51948593849289845260048401528b60248401525af18015620003435760449288959492879262000321575b50895197889586948552600485015260248401525af1908115620003165750620002e1575b5050519061154b928362000514843960805183818161023f01528181610aac01528181611029015281816112a4015261133c015260a0518381816101f70152818161083001528181610a6d0152611380015260c0518381816102a7015281816107dd01528181610d950152611068015260e05183818161019c0152818161030901528181610898015281816109ca01528181610c4d01526110ca01525182818161033d015281816107390152818161086d0152818161099501528181610c8001526110a101525181818161036b01528181610d2a0152610f470152f35b816200030592903d106200030e575b620002fc8183620004ac565b810190620004f9565b505f8062000204565b503d620002f0565b8451903d90823e3d90fd5b6200033b90873d89116200030e57620002fc8183620004ac565b505f620001df565b88513d87823e3d90fd5b6200036790853d87116200030e57620002fc8183620004ac565b505f620001ad565b8a513d89823e3d90fd5b6200039390893d8b116200030e57620002fc8183620004ac565b505f62000178565b9097508581813d8311620003d6575b620003b68183620004ac565b81010312620003d257620003ca90620004e4565b965f6200013d565b8380fd5b503d620003aa565b87513d86823e3d90fd5b855162461bcd60e51b8152600481018690526008602482015267189859081c1bdbdb60c21b6044820152606490fd5b855162461bcd60e51b815260048101869052600c60248201526b62616420616461707465727360a01b6044820152606490fd5b508181161515620000f7565b62461bcd60e51b81526004810187905260096024820152683d32b9379030b2323960b91b6044820152606490fd5b508382161515620000db565b8551631e4fbdf760e01b815260048101849052602490fd5b5f80fd5b601f909101601f19168101906001600160401b03821190821017620004d057604052565b634e487b7160e01b5f52604160045260245ffd5b51906001600160a01b0382168203620004a857565b90816020910312620004a857518015158103620004a8579056fe60806040818152600480361015610014575f80fd5b5f91823560e01c93846301e1d1141461127c5750836308101b1e14610f765783631fc170b614610f32578363218fa0ac14610f135783632e1a7d4d14610a4f57836338d52e0f1461080c5783633bcfc4b81461096e578363411557d1146100e95783634641257d146108115783634800d97f1461080c578363611e6f1a146107c8578363715018a6146107685783637535d246146107245783638da5cb5b146106fb578363b6b55f25146101cf578363d8d908c414610187578363f2fde38b146100ee5750505063fbfa77cf146100e9575f80fd5b61136b565b34610183576020366003190112610183576001600160a01b0382358181169391929084900361017f5761011f6113af565b8315610169575050600154826bffffffffffffffffffffffff60a01b821617600155167f8be0079c531659141344cd1fd0a4f28419497f9722a3daafe3b4186f6b6457e05f80a380f35b51631e4fbdf760e01b8152908101849052602490fd5b8480fd5b8280fd5b9050346101cb57816003193601126101cb57517f00000000000000000000000000000000000000000000000000000000000000006001600160a01b03168152602090f35b5080fd5b8290346101cb5760209081600319360112610183576001600160a01b03938035929061021e337f00000000000000000000000000000000000000000000000000000000000000008816146113db565b6102266114d6565b83156106cb5782516370a0823160e01b815230828201527f00000000000000000000000000000000000000000000000000000000000000008716929060249082818381885afa9081156105fe57908791899161069a575b5010610664579086949392918660011c828a838851809a8193636cdea07b60e01b8352868a8401527f0000000000000000000000000000000000000000000000000000000000000000165af196871561065a57899761062b575b50870396871161061a576102eb8688611496565b98605f8a0299808b04605f1490151715610608576064899a829a999a7f0000000000000000000000000000000000000000000000000000000000000000169888519b8c9863d875c70f60e01b8a5286867f0000000000000000000000000000000000000000000000000000000000000000169a8b8b82015201528c6044867f000000000000000000000000000000000000000000000000000000000000000016910152838d015260848c01520460a48a0152828960c4818b8b5af19889156105fe5788996105cb575b50855163a8ea687560e01b815284810186905294838684818b5afa9586156105755789966105ac575b5086519063038941b960e51b825285820152838184818b5afa90811561057557899161057f575b50168551636eb1769f60e11b8152308582015287838201528381604481855afa908115610575578991610538575b509088939291156104c2575b50505050833b1561017f5782516361c1200160e11b81526001600160a01b03909216908201908152602081018690529092849184919082908490829060400103925af19081156104b957506104a5575b5061049b82600254611496565b6002556001815580f35b6104ae90611460565b6101cb57818361048e565b513d84823e3d90fd5b604483928851958693849263095ea7b360e01b84528c8a8501525f19908401525af1801561052e576104f7575b80879261043e565b81813d8311610527575b61050b8183611474565b8101031261052357518015150361017f5787806104ef565b8580fd5b503d610501565b85513d89823e3d90fd5b848094939a50819592503d831161056e575b6105548183611474565b8101031261056a57899788935190919293610432565b5f80fd5b503d61054a565b87513d8b823e3d90fd5b61059f9150843d86116105a5575b6105978183611474565b8101906114b7565b8b610404565b503d61058d565b6105c4919650843d86116105a5576105978183611474565b948b6103dd565b8380929a508199503d83116105f7575b6105e58183611474565b8101031261056a57889651978a6103b4565b503d6105db565b86513d8a823e3d90fd5b50634e487b7160e01b88526011835287fd5b634e487b7160e01b88526011835287fd5b9096508281813d8311610653575b6106438183611474565b8101031261056a5751958a6102d7565b503d610639565b86513d8b823e3d90fd5b6064935060129185519362461bcd60e51b855284015282015271696e73756666696369656e742066756e647360701b6044820152fd5b809250848092503d83116106c4575b6106b38183611474565b8101031261056a578690518a61027d565b503d6106a9565b915162461bcd60e51b815291820152600c60248201526b1e995c9bc819195c1bdcda5d60a21b6044820152606490fd5b9050346101cb57816003193601126101cb5760015490516001600160a01b039091168152602090f35b9050346101cb57816003193601126101cb57517f00000000000000000000000000000000000000000000000000000000000000006001600160a01b03168152602090f35b82346107c557806003193601126107c5576107816113af565b600180546001600160a01b031981169091555f906001600160a01b03167f8be0079c531659141344cd1fd0a4f28419497f9722a3daafe3b4186f6b6457e08280a380f35b80fd5b9050346101cb57816003193601126101cb57517f00000000000000000000000000000000000000000000000000000000000000006001600160a01b03168152602090f35b611327565b346101835782600319360112610183576001600160a01b0392610857337f00000000000000000000000000000000000000000000000000000000000000008616146113db565b61085f6114d6565b815163a8ea687560e01b81527f0000000000000000000000000000000000000000000000000000000000000000851684820152602094907f000000000000000000000000000000000000000000000000000000000000000082168682602481845afa9182156109645791846024928995948293610945575b508751988995869463515ce51760e01b865216908401525af1928315610939578193610909575b506001905551908152f35b9092508381813d8311610932575b6109218183611474565b8101031261056a57519160016108fe565b503d610917565b509051903d90823e3d90fd5b61095d919350863d88116105a5576105978183611474565b918a6108d7565b85513d86823e3d90fd5b9034610183578260031936011261018357815163a7533e0960e01b81526001600160a01b037f000000000000000000000000000000000000000000000000000000000000000081169282019290925290602090829060249082907f0000000000000000000000000000000000000000000000000000000000000000165afa928315610a445792610a0b575b602083655af3107a4000845191048152f35b91506020823d8211610a3c575b81610a2560209383611474565b8101031261056a57905190655af3107a40006109f9565b3d9150610a18565b8251903d90823e3d90fd5b903461018357602080600319360112610f0f576001600160a01b03927f0000000000000000000000000000000000000000000000000000000000000000918335610a9c33878616146113db565b610aa46114d6565b8015610edc577f000000000000000000000000000000000000000000000000000000000000000090868216948451976370a0823160e01b90818a5230898b015260249986818c818c5afa908115610ed2579085918d91610e9d575b5010610c36575b508551908152308882015284818a818a5afa908115610c2c579083918b91610bfb575b5010610bb957845163a9059cbb60e01b8582019081526001600160a01b03909216818a019081526020810193909352899392849190610b7590829060400103601f198101835282611474565b51925af115610bb05784513d610ba75750813b155b610b9657846001815580f35b51635274afe760e01b815291820152fd5b60011415610b8a565b513d85823e3d90fd5b845162461bcd60e51b81528088018590526017818a01527f696e73756666696369656e7420616674657220657869740000000000000000006044820152606490fd5b809250868092503d8311610c25575b610c148183611474565b8101031261056a578290518b610b29565b503d610c0a565b86513d8c823e3d90fd5b888b60025480610c49575b505050610b06565b8c847f000000000000000000000000000000000000000000000000000000000000000016928a8c51809363a8ea687560e01b8252887f000000000000000000000000000000000000000000000000000000000000000016809883015281875afa918215610e91578192610e72575b50833b156107c5578b516288951f60e11b81526001600160a01b03909216828f019081526020810184905282908190604001038183875af18015610e6657610e46575b508c9260c48f93848f918f8f96836002558751998a9788966384ef21bd60e01b88528701528501526044840152887f00000000000000000000000000000000000000000000000000000000000000001660648401528160848401528160a48401525af1918215610e3a578b828e928b95610e02575b5083610d7f575b92509250610c41565b8b5195869485936359e19dc560e11b85528401527f0000000000000000000000000000000000000000000000000000000000000000165af18015610df857908691610dcf575b81908b8b8e610d76565b813d8311610df1575b610de28183611474565b8101031261056a57848b610dc5565b503d610dd8565b87513d8d823e3d90fd5b9450925050508882813d8311610e33575b610e1d8183611474565b810103126107c5578b8b8980940151925f610d6f565b503d610e13565b508851903d90823e3d90fd5b928b8b929f8f95908f91610e5990611460565b9f505050929c9d90610cfa565b8f8c51903d90823e3d90fd5b610e8a9192508b3d8d116105a5576105978183611474565b905f610cb7565b508b51903d90823e3d90fd5b809250888092503d8311610ecb575b610eb68183611474565b81010312610ec7578490518d610aff565b8b80fd5b503d610eac565b88513d8e823e3d90fd5b825162461bcd60e51b8152808601839052600d60248201526c7a65726f20776974686472617760981b6044820152606490fd5b8380fd5b9050346101cb57816003193601126101cb576020906002549051908152f35b9050346101cb57816003193601126101cb57517f00000000000000000000000000000000000000000000000000000000000000006001600160a01b03168152602090f35b9034610183578260031936011261018357815190610120820182811067ffffffffffffffff821117611269578352838252610faf6114f7565b60208301528251610fbf81611414565b848152838301528251610fd181611414565b84815260608301528251610fe481611414565b84815260808301528251610ff781611414565b84815260a08301526110076114f7565b60c08301526110146114f7565b60e08301526110216114f7565b6101008301527f00000000000000000000000000000000000000000000000000000000000000006001600160a01b03168252825161105e81611414565b6001600160a01b037f0000000000000000000000000000000000000000000000000000000000000000811682526080840191909152835163a8ea687560e01b81527f000000000000000000000000000000000000000000000000000000000000000082169281018390527f000000000000000000000000000000000000000000000000000000000000000090911691602082602481865afa91821561125f5791610100939161123c9593610220989261123e575b5086519261111f84611444565b83526020808401919091526001600160a01b039182168784015260c084019290925285518351821681528383015180518316828501529283015182166040808301919091529092015116606082015293810151516001600160a01b03908116608086810191909152606083015151821660a0878101919091529083015151821660c0808801919091529083015151821660e08701528201518051821684870190815260208083015184169082015260409182015190921691015260e081015180516001600160a01b0390811661016087015260208201518116610180870152604090910151166101a0850152015180516001600160a01b039081166101c0850152602082015181166101e085015260409091015116610200830152565bf35b61125891925060203d6020116105a5576105978183611474565b9088611112565b85513d88823e3d90fd5b634e487b7160e01b855260418252602485fd5b9134610f0f5783600319360112610f0f576370a0823160e01b835230908301526020826024817f00000000000000000000000000000000000000000000000000000000000000006001600160a01b03165afa91821561131d5783926112e6575b6020838351908152f35b9091506020813d8211611315575b8161130160209383611474565b8101031261018357602092505190836112dc565b3d91506112f4565b81513d85823e3d90fd5b3461056a575f36600319011261056a576040517f00000000000000000000000000000000000000000000000000000000000000006001600160a01b03168152602090f35b3461056a575f36600319011261056a576040517f00000000000000000000000000000000000000000000000000000000000000006001600160a01b03168152602090f35b6001546001600160a01b031633036113c357565b60405163118cdaa760e01b8152336004820152602490fd5b156113e257565b60405162461bcd60e51b815260206004820152600a60248201526913db9b1e481d985d5b1d60b21b6044820152606490fd5b6020810190811067ffffffffffffffff82111761143057604052565b634e487b7160e01b5f52604160045260245ffd5b6060810190811067ffffffffffffffff82111761143057604052565b67ffffffffffffffff811161143057604052565b90601f8019910116810190811067ffffffffffffffff82111761143057604052565b919082018092116114a357565b634e487b7160e01b5f52601160045260245ffd5b9081602091031261056a57516001600160a01b038116810361056a5790565b60025f54146114e55760025f55565b604051633ee5aeb560e01b8152600490fd5b6040519061150482611444565b5f604083828152826020820152015256fea2646970667358221220ee54f0490424cfb15a597543fff59dba9c0f53a91b88ec57a5eff47dffd8101f64736f6c63430008140033","linkReferences":{}},"methodIdentifiers":{"ASSET()":"4800d97f","BEETS()":"d8d908c4","POOL()":"7535d246","STS()":"611e6f1a","STS_TOKEN()":"1fc170b6","VAULT()":"411557d1","apy()":"3bcfc4b8","asset()":"38d52e0f","deposit(uint256)":"b6b55f25","harvest()":"4641257d","introspect()":"08101b1e","owner()":"8da5cb5b","renounceOwnership()":"715018a6","stakedLp()":"218fa0ac","totalAssets()":"01e1d114","transferOwnership(address)":"f2fde38b","vault()":"fbfa77cf","withdraw(uint256)":"2e1a7d4d"},"id":70}