{"abi":[{"type":"constructor","inputs":[{"name":"_sToken","type":"address","internalType":"address"},{"name":"_vault","type":"address","internalType":"address"},{"name":"_swapXAdapter","type":"address","internalType":"address"},{"name":"_stsAdapter","type":"address","internalType":"address"},{"name":"_pool","type":"address","internalType":"address"},{"name":"_gauge","type":"address","internalType":"address"}],"stateMutability":"nonpayable"},{"type":"function","name":"ASSET","inputs":[],"outputs":[{"name":"","type":"address","internalType":"contract IERC20"}],"stateMutability":"view"},{"type":"function","name":"GAUGE","inputs":[],"outputs":[{"name":"","type":"address","internalType":"address"}],"stateMutability":"view"},{"type":"function","name":"POOL","inputs":[],"outputs":[{"name":"","type":"address","internalType":"address"}],"stateMutability":"view"},{"type":"function","name":"STS","inputs":[],"outputs":[{"name":"","type":"address","internalType":"contract IStSAdapter"}],"stateMutability":"view"},{"type":"function","name":"STS_TOKEN","inputs":[],"outputs":[{"name":"","type":"address","internalType":"address"}],"stateMutability":"view"},{"type":"function","name":"SWAPX","inputs":[],"outputs":[{"name":"","type":"address","internalType":"contract ISwapXAdapter"}],"stateMutability":"view"},{"type":"function","name":"VAULT","inputs":[],"outputs":[{"name":"","type":"address","internalType":"address"}],"stateMutability":"view"},{"type":"function","name":"apy","inputs":[],"outputs":[{"name":"","type":"uint256","internalType":"uint256"}],"stateMutability":"view"},{"type":"function","name":"asset","inputs":[],"outputs":[{"name":"","type":"address","internalType":"contract IERC20"}],"stateMutability":"view"},{"type":"function","name":"deposit","inputs":[{"name":"amount","type":"uint256","internalType":"uint256"}],"outputs":[],"stateMutability":"nonpayable"},{"type":"function","name":"harvest","inputs":[],"outputs":[{"name":"harvested","type":"uint256","internalType":"uint256"}],"stateMutability":"nonpayable"},{"type":"function","name":"introspect","inputs":[],"outputs":[{"name":"cfg","type":"tuple","internalType":"struct IStrategyIntrospection.StrategyConfig","components":[{"name":"asset","type":"address","internalType":"address"},{"name":"lending","type":"tuple","internalType":"struct IStrategyIntrospection.LendingConfig","components":[{"name":"adapter","type":"address","internalType":"address"},{"name":"supplyToken","type":"address","internalType":"address"},{"name":"borrowToken","type":"address","internalType":"address"}]},{"name":"eggs","type":"tuple","internalType":"struct IStrategyIntrospection.SimpleConfig","components":[{"name":"adapter","type":"address","internalType":"address"}]},{"name":"rings","type":"tuple","internalType":"struct IStrategyIntrospection.SimpleConfig","components":[{"name":"adapter","type":"address","internalType":"address"}]},{"name":"sts","type":"tuple","internalType":"struct IStrategyIntrospection.SimpleConfig","components":[{"name":"adapter","type":"address","internalType":"address"}]},{"name":"pendle","type":"tuple","internalType":"struct IStrategyIntrospection.SimpleConfig","components":[{"name":"adapter","type":"address","internalType":"address"}]},{"name":"beets","type":"tuple","internalType":"struct IStrategyIntrospection.DexConfig","components":[{"name":"adapter","type":"address","internalType":"address"},{"name":"pool","type":"address","internalType":"address"},{"name":"gauge","type":"address","internalType":"address"}]},{"name":"swapx","type":"tuple","internalType":"struct IStrategyIntrospection.DexConfig","components":[{"name":"adapter","type":"address","internalType":"address"},{"name":"pool","type":"address","internalType":"address"},{"name":"gauge","type":"address","internalType":"address"}]},{"name":"shadow","type":"tuple","internalType":"struct IStrategyIntrospection.DexConfig","components":[{"name":"adapter","type":"address","internalType":"address"},{"name":"pool","type":"address","internalType":"address"},{"name":"gauge","type":"address","internalType":"address"}]}]}],"stateMutability":"view"},{"type":"function","name":"owner","inputs":[],"outputs":[{"name":"","type":"address","internalType":"address"}],"stateMutability":"view"},{"type":"function","name":"renounceOwnership","inputs":[],"outputs":[],"stateMutability":"nonpayable"},{"type":"function","name":"stakedLp","inputs":[],"outputs":[{"name":"","type":"uint256","internalType":"uint256"}],"stateMutability":"view"},{"type":"function","name":"totalAssets","inputs":[],"outputs":[{"name":"","type":"uint256","internalType":"uint256"}],"stateMutability":"view"},{"type":"function","name":"transferOwnership","inputs":[{"name":"newOwner","type":"address","internalType":"address"}],"outputs":[],"stateMutability":"nonpayable"},{"type":"function","name":"vault","inputs":[],"outputs":[{"name":"","type":"address","internalType":"address"}],"stateMutability":"view"},{"type":"function","name":"withdraw","inputs":[{"name":"amount","type":"uint256","internalType":"uint256"}],"outputs":[],"stateMutability":"nonpayable"},{"type":"event","name":"OwnershipTransferred","inputs":[{"name":"previousOwner","type":"address","indexed":true,"internalType":"address"},{"name":"newOwner","type":"address","indexed":true,"internalType":"address"}],"anonymous":false},{"type":"error","name":"OwnableInvalidOwner","inputs":[{"name":"owner","type":"address","internalType":"address"}]},{"type":"error","name":"OwnableUnauthorizedAccount","inputs":[{"name":"account","type":"address","internalType":"address"}]},{"type":"error","name":"ReentrancyGuardReentrantCall","inputs":[]},{"type":"error","name":"SafeERC20FailedOperation","inputs":[{"name":"token","type":"address","internalType":"address"}]}],"bytecode":{"object":"0x610160604081815234620004fa5760c082620019c78038038091620000258285620004fe565b833981010312620004fa576200003b8262000536565b6020916200004b83850162000536565b926200005982860162000536565b93620000686060870162000536565b946200008560a06200007d60808a0162000536565b980162000536565b955f91600183553315620004e25760018054336001600160a01b03198216811790925587516001600160a01b03999096928a9283167f8be0079c531659141344cd1fd0a4f28419497f9722a3daafe3b4186f6b6457e08880a3169485151580620004d6575b15620004a85750608085905260a052861690811515806200049c575b1562000469578689161515806200045d575b156200042e5760c0829052861660e0819052610100988952610120978852855163065a291b60e31b8152968588600481855afa97881562000424578498620003e1575b5061014097885286519463095ea7b360e01b928387528060048801525f199687602482015288816044818a875af18015620003d7579189918893620003b5575b506044858d5116918c5194859384928a845260048401528c60248401525af18015620003ab57918891879362000389575b5060448a51809481938883528960048401528b60248401525af180156200037f576044928895949287926200035d575b508a5116895197889586948552600485015260248401525af19081156200035257506200031d575b50505191611461938462000566853960805184818161020401528181610a8e01528181610fe5015281816111e30152611271015260a0518481816101b90152818161086601528181610a4f01526112b5015260c0518481816102ca0152818161080b015281816108cf015281816109ac01528181610c2a0152611053015260e051848181610263015281816107c701528181610d6a015261101f0152518381816102fc015281816107230152818161097701528181610cd001526110780152518281816103f4015281816106df015281816108a901528181610c6601526110a001525181818161032901528181610cff0152610ee80152f35b816200034192903d106200034a575b620003388183620004fe565b8101906200054b565b505f8062000224565b503d6200032c565b8451903d90823e3d90fd5b6200037790873d89116200034a57620003388183620004fe565b505f620001fc565b88513d87823e3d90fd5b620003a390833d85116200034a57620003388183620004fe565b505f620001cc565b89513d88823e3d90fd5b620003cf90833d85116200034a57620003388183620004fe565b505f6200019b565b8a513d89823e3d90fd5b9097508581813d83116200041c575b620003fc8183620004fe565b810103126200041857620004109062000536565b965f6200015b565b8380fd5b503d620003f0565b87513d86823e3d90fd5b855162461bcd60e51b8152600481018690526008602482015267189859081c1bdbdb60c21b6044820152606490fd5b50868816151562000118565b855162461bcd60e51b815260048101869052600c60248201526b62616420616461707465727360a01b6044820152606490fd5b50868116151562000106565b62461bcd60e51b81526004810187905260096024820152683d32b9379030b2323960b91b6044820152606490fd5b508882161515620000ea565b8551631e4fbdf760e01b815260048101849052602490fd5b5f80fd5b601f909101601f19168101906001600160401b038211908210176200052257604052565b634e487b7160e01b5f52604160045260245ffd5b51906001600160a01b0382168203620004fa57565b90816020910312620004fa57518015158103620004fa579056fe60806040818152600480361015610014575f80fd5b5f91823560e01c93846301e1d114146111bb5750836308101b1e14610f175783631fc170b614610ed3578363218fa0ac14610eb45783632e1a7d4d14610a3157836338d52e0f1461083a5783633bcfc4b814610950578363411557d1146100f45783634641257d1461083f5783634800d97f1461083a57836355bafc81146107f6578363611e6f1a146107b2578363715018a6146107525783637535d2461461070e5783637651b1e6146106ca5783638da5cb5b146106a1578363b6b55f2514610192578363f2fde38b146100f95750505063fbfa77cf146100f4575f80fd5b6112a0565b3461018e57602036600319011261018e576001600160a01b0382358181169391929084900361018a5761012a6112e4565b8315610174575050600154826bffffffffffffffffffffffff60a01b821617600155167f8be0079c531659141344cd1fd0a4f28419497f9722a3daafe3b4186f6b6457e05f80a380f35b51631e4fbdf760e01b8152908101849052602490fd5b8480fd5b8280fd5b92503461046b576020908160031936011261018e578035936001600160a01b03926101e0337f0000000000000000000000000000000000000000000000000000000000000000861614611310565b6101e86113ec565b85156106715781516370a0823160e01b815230848201526024947f00000000000000000000000000000000000000000000000000000000000000008116929182818881875afa908115610667579089918991610636575b50106105ff578351636cdea07b60e01b8152600189901c868201819052838289818c7f000000000000000000000000000000000000000000000000000000000000000088165af19182156105f55789926105c6575b5089039889116105b4576102a8818a6113cb565b98605f8a0299808b04605f14901517156105a2576064899a849389938b9c9b967f000000000000000000000000000000000000000000000000000000000000000016988a519d8e63d875c70f60e01b8152887f000000000000000000000000000000000000000000000000000000000000000016809882015201528c6044877f000000000000000000000000000000000000000000000000000000000000000016910152838d015260848c01520460a48a0152838960c4818b895af198891561052b57889961056f575b5085519063038941b960e51b82528782015283818481885afa90811561052b578891610535575b50168451636eb1769f60e11b8152308782015284838201528381604481855afa90811561052b5788916104ee575b5090879392911561047c575b50505050803b156104785781516361c1200160e11b81526001600160a01b037f00000000000000000000000000000000000000000000000000000000000000001693810193845260208401869052928491849182908490829060400103925af190811561046f5750610457575b5061044d826002546113cb565b6002556001815580f35b61046090611395565b61046b57815f610440565b5080fd5b513d84823e3d90fd5b8380fd5b604483928751958693849263095ea7b360e01b8452898c8501525f19908401525af180156104e4576104b1575b8086926103d3565b81813d83116104dd575b6104c581836113a9565b8101031261018a575180151503610478575f806104a9565b503d6104bb565b84513d88823e3d90fd5b848094939950819592503d8311610524575b61050a81836113a9565b81010312610520578896879351909192936103c7565b5f80fd5b503d610500565b86513d8a823e3d90fd5b90508381813d8311610568575b61054c81836113a9565b8101031261056457518181168103610564575f610399565b8780fd5b503d610542565b8480929a508199503d831161059b575b61058981836113a9565b8101031261052057889651975f610372565b503d61057f565b634e487b7160e01b8952601187528789fd5b634e487b7160e01b8852601186528688fd5b9091508381813d83116105ee575b6105de81836113a9565b810103126105205751905f610294565b503d6105d4565b86513d8b823e3d90fd5b835162461bcd60e51b815280860183905260128188015271696e73756666696369656e742066756e647360701b6044820152606490fd5b809250848092503d8311610660575b61064f81836113a9565b81010312610520578890515f61023f565b503d610645565b85513d8a823e3d90fd5b905162461bcd60e51b815291820152600c60248201526b1e995c9bc819195c1bdcda5d60a21b6044820152606490fd5b90503461046b578160031936011261046b5760015490516001600160a01b039091168152602090f35b90503461046b578160031936011261046b57517f00000000000000000000000000000000000000000000000000000000000000006001600160a01b03168152602090f35b90503461046b578160031936011261046b57517f00000000000000000000000000000000000000000000000000000000000000006001600160a01b03168152602090f35b82346107af57806003193601126107af5761076b6112e4565b600180546001600160a01b031981169091555f906001600160a01b03167f8be0079c531659141344cd1fd0a4f28419497f9722a3daafe3b4186f6b6457e08280a380f35b80fd5b90503461046b578160031936011261046b57517f00000000000000000000000000000000000000000000000000000000000000006001600160a01b03168152602090f35b90503461046b578160031936011261046b57517f00000000000000000000000000000000000000000000000000000000000000006001600160a01b03168152602090f35b61125c565b82913461094c578260031936011261094c576020906001600160a01b039060249061088d337f0000000000000000000000000000000000000000000000000000000000000000851614611310565b6108956113ec565b8451958693849263515ce51760e01b8452817f000000000000000000000000000000000000000000000000000000000000000016908401527f0000000000000000000000000000000000000000000000000000000000000000165af191821561094257839261090c575b5060016020935551908152f35b9291506020833d821161093a575b81610927602093836113a9565b81010312610520579151909160016108ff565b3d915061091a565b81513d85823e3d90fd5b5050fd5b903461018e578260031936011261018e57815163a7533e0960e01b81526001600160a01b037f000000000000000000000000000000000000000000000000000000000000000081169282019290925290602090829060249082907f0000000000000000000000000000000000000000000000000000000000000000165afa928315610a2657926109ed575b602083655af3107a4000845191048152f35b91506020823d8211610a1e575b81610a07602093836113a9565b8101031261052057905190655af3107a40006109db565b3d91506109fa565b8251903d90823e3d90fd5b903461018e57602080600319360112610478576001600160a01b03927f0000000000000000000000000000000000000000000000000000000000000000918335610a7e3387861614611310565b610a866113ec565b8015610e81577f000000000000000000000000000000000000000000000000000000000000000090868216948451976370a0823160e01b90818a5230898b015260249986818c818c5afa908115610e77579085918d91610e42575b5010610c18575b508551908152308882015284818a818a5afa908115610c0e579083918b91610bdd575b5010610b9b57845163a9059cbb60e01b8582019081526001600160a01b03909216818a019081526020810193909352899392849190610b5790829060400103601f1981018352826113a9565b51925af115610b925784513d610b895750813b155b610b7857846001815580f35b51635274afe760e01b815291820152fd5b60011415610b6c565b513d85823e3d90fd5b845162461bcd60e51b81528088018590526017818a01527f696e73756666696369656e7420616674657220657869740000000000000000006044820152606490fd5b809250868092503d8311610c07575b610bf681836113a9565b81010312610520578290518b610b0b565b503d610bec565b86513d8c823e3d90fd5b60025480610c27575b50610ae8565b817f000000000000000000000000000000000000000000000000000000000000000016803b15610e3e5788516288951f60e11b81526001600160a01b037f000000000000000000000000000000000000000000000000000000000000000016818d01908152602081018490528e9082908190604001038183865af18015610e3257610e1b575b50888c60c48f93848f918f82600255865198899687956384ef21bd60e01b87528c7f000000000000000000000000000000000000000000000000000000000000000016908701528501526044840152887f00000000000000000000000000000000000000000000000000000000000000001660648401528160848401528160a48401525af1918215610e0f578b828e928b95610dd7575b5083610d54575b50505050610c21565b8b5195869485936359e19dc560e11b85528401527f0000000000000000000000000000000000000000000000000000000000000000165af18015610dcd57908691610da4575b81908b8b8e610d4b565b813d8311610dc6575b610db781836113a9565b8101031261052057848b610d9a565b503d610dad565b87513d8d823e3d90fd5b9450925050508882813d8311610e08575b610df281836113a9565b810103126107af578b8b8980940151925f610d44565b503d610de8565b508851903d90823e3d90fd5b8c8b8d9f610e298d94611395565b9f505050610cad565b8e8b51903d90823e3d90fd5b8c80fd5b809250888092503d8311610e70575b610e5b81836113a9565b81010312610e6c578490518d610ae1565b8b80fd5b503d610e51565b88513d8e823e3d90fd5b825162461bcd60e51b8152808601839052600d60248201526c7a65726f20776974686472617760981b6044820152606490fd5b90503461046b578160031936011261046b576020906002549051908152f35b90503461046b578160031936011261046b57517f00000000000000000000000000000000000000000000000000000000000000006001600160a01b03168152602090f35b91346107af57806003193601126107af5782519161012083019083821067ffffffffffffffff8311176111a8575083528082526020820192610f5761140d565b8452808301938151610f6881611349565b838152855260608401938251610f7d81611349565b848152855260808101938351610f9281611349565b8181528552835160a0830191610fa782611349565b8152815260c0820192610fb861140d565b845260e0830195610fc761140d565b87526101009586850198610fd961140d565b8a526001600160a01b037f0000000000000000000000000000000000000000000000000000000000000000811687528251909b8c9788968795869461101d81611349565b7f000000000000000000000000000000000000000000000000000000000000000086168152885280518e61105082611379565b867f0000000000000000000000000000000000000000000000000000000000000000168252867f0000000000000000000000000000000000000000000000000000000000000000166020830152867f0000000000000000000000000000000000000000000000000000000000000000168383015252519e8f925116825251906020016110fc916040908160018060a01b0391828151168552826020820151166020860152015116910152565b51511660808c015251511660a08a015251511660c088015251511660e08601525180516001600160a01b03908116928601928352602080830151821690840152604091820151169101525180516001600160a01b0390811661016085015260208201518116610180850152604090910151166101a08301525180516001600160a01b039081166101c0840152602082015181166101e08401526040909101511661020082015261022090f35b634e487b7160e01b835260419052602482fd5b91346104785783600319360112610478576370a0823160e01b835230908301526020826024817f00000000000000000000000000000000000000000000000000000000000000006001600160a01b03165afa918215610942578392611225575b6020838351908152f35b9091506020813d8211611254575b81611240602093836113a9565b8101031261018e576020925051908361121b565b3d9150611233565b34610520575f366003190112610520576040517f00000000000000000000000000000000000000000000000000000000000000006001600160a01b03168152602090f35b34610520575f366003190112610520576040517f00000000000000000000000000000000000000000000000000000000000000006001600160a01b03168152602090f35b6001546001600160a01b031633036112f857565b60405163118cdaa760e01b8152336004820152602490fd5b1561131757565b60405162461bcd60e51b815260206004820152600a60248201526913db9b1e481d985d5b1d60b21b6044820152606490fd5b6020810190811067ffffffffffffffff82111761136557604052565b634e487b7160e01b5f52604160045260245ffd5b6060810190811067ffffffffffffffff82111761136557604052565b67ffffffffffffffff811161136557604052565b90601f8019910116810190811067ffffffffffffffff82111761136557604052565b919082018092116113d857565b634e487b7160e01b5f52601160045260245ffd5b60025f54146113fb5760025f55565b604051633ee5aeb560e01b8152600490fd5b6040519061141a82611379565b5f604083828152826020820152015256fea26469706673582212207b5a1165215a86b8d2d365470d6766beb6b3ff677b9ac1b5b5a9b58ff757b75664736f6c63430008140033","linkReferences":{}},"methodIdentifiers":{"ASSET()":"4800d97f","GAUGE()":"7651b1e6","POOL()":"7535d246","STS()":"611e6f1a","STS_TOKEN()":"1fc170b6","SWAPX()":"55bafc81","VAULT()":"411557d1","apy()":"3bcfc4b8","asset()":"38d52e0f","deposit(uint256)":"b6b55f25","harvest()":"4641257d","introspect()":"08101b1e","owner()":"8da5cb5b","renounceOwnership()":"715018a6","stakedLp()":"218fa0ac","totalAssets()":"01e1d114","transferOwnership(address)":"f2fde38b","vault()":"fbfa77cf","withdraw(uint256)":"2e1a7d4d"},"id":71}