{"abi":[{"type":"constructor","inputs":[{"name":"_sToken","type":"address","internalType":"address"},{"name":"_vault","type":"address","internalType":"address"},{"name":"_swapXAdapter","type":"address","internalType":"address"},{"name":"_stsAdapter","type":"address","internalType":"address"},{"name":"_pool","type":"address","internalType":"address"},{"name":"_gauge","type":"address","internalType":"address"}],"stateMutability":"nonpayable"},{"type":"function","name":"ASSET","inputs":[],"outputs":[{"name":"","type":"address","internalType":"contract IERC20"}],"stateMutability":"view"},{"type":"function","name":"GAUGE","inputs":[],"outputs":[{"name":"","type":"address","internalType":"address"}],"stateMutability":"view"},{"type":"function","name":"POOL","inputs":[],"outputs":[{"name":"","type":"address","internalType":"address"}],"stateMutability":"view"},{"type":"function","name":"STS","inputs":[],"outputs":[{"name":"","type":"address","internalType":"contract IStSAdapter"}],"stateMutability":"view"},{"type":"function","name":"STS_TOKEN","inputs":[],"outputs":[{"name":"","type":"address","internalType":"address"}],"stateMutability":"view"},{"type":"function","name":"SWAPX","inputs":[],"outputs":[{"name":"","type":"address","internalType":"contract ISwapXAdapter"}],"stateMutability":"view"},{"type":"function","name":"VAULT","inputs":[],"outputs":[{"name":"","type":"address","internalType":"address"}],"stateMutability":"view"},{"type":"function","name":"apy","inputs":[],"outputs":[{"name":"","type":"uint256","internalType":"uint256"}],"stateMutability":"view"},{"type":"function","name":"asset","inputs":[],"outputs":[{"name":"","type":"address","internalType":"contract IERC20"}],"stateMutability":"view"},{"type":"function","name":"deposit","inputs":[{"name":"amount","type":"uint256","internalType":"uint256"}],"outputs":[],"stateMutability":"nonpayable"},{"type":"function","name":"harvest","inputs":[],"outputs":[{"name":"harvested","type":"uint256","internalType":"uint256"}],"stateMutability":"nonpayable"},{"type":"function","name":"owner","inputs":[],"outputs":[{"name":"","type":"address","internalType":"address"}],"stateMutability":"view"},{"type":"function","name":"renounceOwnership","inputs":[],"outputs":[],"stateMutability":"nonpayable"},{"type":"function","name":"stakedLp","inputs":[],"outputs":[{"name":"","type":"uint256","internalType":"uint256"}],"stateMutability":"view"},{"type":"function","name":"totalAssets","inputs":[],"outputs":[{"name":"","type":"uint256","internalType":"uint256"}],"stateMutability":"view"},{"type":"function","name":"transferOwnership","inputs":[{"name":"newOwner","type":"address","internalType":"address"}],"outputs":[],"stateMutability":"nonpayable"},{"type":"function","name":"vault","inputs":[],"outputs":[{"name":"","type":"address","internalType":"address"}],"stateMutability":"view"},{"type":"function","name":"withdraw","inputs":[{"name":"amount","type":"uint256","internalType":"uint256"}],"outputs":[],"stateMutability":"nonpayable"},{"type":"event","name":"OwnershipTransferred","inputs":[{"name":"previousOwner","type":"address","indexed":true,"internalType":"address"},{"name":"newOwner","type":"address","indexed":true,"internalType":"address"}],"anonymous":false},{"type":"error","name":"OwnableInvalidOwner","inputs":[{"name":"owner","type":"address","internalType":"address"}]},{"type":"error","name":"OwnableUnauthorizedAccount","inputs":[{"name":"account","type":"address","internalType":"address"}]},{"type":"error","name":"ReentrancyGuardReentrantCall","inputs":[]},{"type":"error","name":"SafeERC20FailedOperation","inputs":[{"name":"token","type":"address","internalType":"address"}]}],"bytecode":{"object":"0x61016060405234801562000011575f80fd5b5060405162002af238038062002af2833981810160405281019062000037919062000867565b85853360015f819055505f73ffffffffffffffffffffffffffffffffffffffff168173ffffffffffffffffffffffffffffffffffffffff1603620000b4575f6040517f1e4fbdf7000000000000000000000000000000000000000000000000000000008152600401620000ab919062000910565b60405180910390fd5b620000c5816200073f60201b60201c565b505f73ffffffffffffffffffffffffffffffffffffffff168273ffffffffffffffffffffffffffffffffffffffff16141580156200012f57505f73ffffffffffffffffffffffffffffffffffffffff168173ffffffffffffffffffffffffffffffffffffffff1614155b62000171576040517f08c379a0000000000000000000000000000000000000000000000000000000008152600401620001689062000989565b60405180910390fd5b8173ffffffffffffffffffffffffffffffffffffffff1660808173ffffffffffffffffffffffffffffffffffffffff16815250508073ffffffffffffffffffffffffffffffffffffffff1660a08173ffffffffffffffffffffffffffffffffffffffff168152505050505f73ffffffffffffffffffffffffffffffffffffffff168473ffffffffffffffffffffffffffffffffffffffff16141580156200024457505f73ffffffffffffffffffffffffffffffffffffffff168373ffffffffffffffffffffffffffffffffffffffff1614155b62000286576040517f08c379a00000000000000000000000000000000000000000000000000000000081526004016200027d90620009f7565b60405180910390fd5b5f73ffffffffffffffffffffffffffffffffffffffff168273ffffffffffffffffffffffffffffffffffffffff1614158015620002ef57505f73ffffffffffffffffffffffffffffffffffffffff168173ffffffffffffffffffffffffffffffffffffffff1614155b62000331576040517f08c379a0000000000000000000000000000000000000000000000000000000008152600401620003289062000a65565b60405180910390fd5b8373ffffffffffffffffffffffffffffffffffffffff1660c08173ffffffffffffffffffffffffffffffffffffffff16815250508273ffffffffffffffffffffffffffffffffffffffff1660e08173ffffffffffffffffffffffffffffffffffffffff16815250508173ffffffffffffffffffffffffffffffffffffffff166101008173ffffffffffffffffffffffffffffffffffffffff16815250508073ffffffffffffffffffffffffffffffffffffffff166101208173ffffffffffffffffffffffffffffffffffffffff168152505060e05173ffffffffffffffffffffffffffffffffffffffff166332d148d86040518163ffffffff1660e01b8152600401602060405180830381865afa1580156200044f573d5f803e3d5ffd5b505050506040513d601f19601f8201168201806040525081019062000475919062000a85565b73ffffffffffffffffffffffffffffffffffffffff166101408173ffffffffffffffffffffffffffffffffffffffff16815250508573ffffffffffffffffffffffffffffffffffffffff1663095ea7b3847fffffffffffffffffffffffffffffffffffffffffffffffffffffffffffffffff6040518363ffffffff1660e01b81526004016200050692919062000acf565b6020604051808303815f875af115801562000523573d5f803e3d5ffd5b505050506040513d601f19601f8201168201806040525081019062000549919062000b34565b506101405173ffffffffffffffffffffffffffffffffffffffff1663095ea7b3847fffffffffffffffffffffffffffffffffffffffffffffffffffffffffffffffff6040518363ffffffff1660e01b8152600401620005aa92919062000acf565b6020604051808303815f875af1158015620005c7573d5f803e3d5ffd5b505050506040513d601f19601f82011682018060405250810190620005ed919062000b34565b508573ffffffffffffffffffffffffffffffffffffffff1663095ea7b3857fffffffffffffffffffffffffffffffffffffffffffffffffffffffffffffffff6040518363ffffffff1660e01b81526004016200064b92919062000acf565b6020604051808303815f875af115801562000668573d5f803e3d5ffd5b505050506040513d601f19601f820116820180604052508101906200068e919062000b34565b506101405173ffffffffffffffffffffffffffffffffffffffff1663095ea7b3857fffffffffffffffffffffffffffffffffffffffffffffffffffffffffffffffff6040518363ffffffff1660e01b8152600401620006ef92919062000acf565b6020604051808303815f875af11580156200070c573d5f803e3d5ffd5b505050506040513d601f19601f8201168201806040525081019062000732919062000b34565b5050505050505062000b64565b5f60015f9054906101000a900473ffffffffffffffffffffffffffffffffffffffff1690508160015f6101000a81548173ffffffffffffffffffffffffffffffffffffffff021916908373ffffffffffffffffffffffffffffffffffffffff1602179055508173ffffffffffffffffffffffffffffffffffffffff168173ffffffffffffffffffffffffffffffffffffffff167f8be0079c531659141344cd1fd0a4f28419497f9722a3daafe3b4186f6b6457e060405160405180910390a35050565b5f80fd5b5f73ffffffffffffffffffffffffffffffffffffffff82169050919050565b5f620008318262000806565b9050919050565b620008438162000825565b81146200084e575f80fd5b50565b5f81519050620008618162000838565b92915050565b5f805f805f8060c0878903121562000884576200088362000802565b5b5f6200089389828a0162000851565b9650506020620008a689828a0162000851565b9550506040620008b989828a0162000851565b9450506060620008cc89828a0162000851565b9350506080620008df89828a0162000851565b92505060a0620008f289828a0162000851565b9150509295509295509295565b6200090a8162000825565b82525050565b5f602082019050620009255f830184620008ff565b92915050565b5f82825260208201905092915050565b7f7a65726f206164647200000000000000000000000000000000000000000000005f82015250565b5f620009716009836200092b565b91506200097e826200093b565b602082019050919050565b5f6020820190508181035f830152620009a28162000963565b9050919050565b7f62616420616461707465727300000000000000000000000000000000000000005f82015250565b5f620009df600c836200092b565b9150620009ec82620009a9565b602082019050919050565b5f6020820190508181035f83015262000a1081620009d1565b9050919050565b7f62616420706f6f6c0000000000000000000000000000000000000000000000005f82015250565b5f62000a4d6008836200092b565b915062000a5a8262000a17565b602082019050919050565b5f6020820190508181035f83015262000a7e8162000a3f565b9050919050565b5f6020828403121562000a9d5762000a9c62000802565b5b5f62000aac8482850162000851565b91505092915050565b5f819050919050565b62000ac98162000ab5565b82525050565b5f60408201905062000ae45f830185620008ff565b62000af3602083018462000abe565b9392505050565b5f8115159050919050565b62000b108162000afa565b811462000b1b575f80fd5b50565b5f8151905062000b2e8162000b05565b92915050565b5f6020828403121562000b4c5762000b4b62000802565b5b5f62000b5b8482850162000b1e565b91505092915050565b60805160a05160c05160e051610100516101205161014051611e5562000c9d5f395f81816103ba0152818161069c0152610f8601525f81816105a901528181610af601528181610c23015261126101525f81816106590152818161097e01528181610bff01528181610f44015261104a01525f818161072a01528181610bc80152610e3601525f818161056d0152818161061d0152818161094201528181610aba01528181610ba401528181610f080152818161100e015281816110e601528181611184015261122501525f81816103e4015281816108a6015281816109ff01528181610a2401528181610c6f015261137c01525f818161031d015281816104bd0152818161067b015281816107ca015281816108c80152818161091b01528181610b8001528181610d480152610f650152611e555ff3fe608060405234801561000f575f80fd5b5060043610610114575f3560e01c806355bafc81116100a05780637651b1e61161006f5780637651b1e6146102885780638da5cb5b146102a6578063b6b55f25146102c4578063f2fde38b146102e0578063fbfa77cf146102fc57610114565b806355bafc8114610224578063611e6f1a14610242578063715018a6146102605780637535d2461461026a57610114565b806338d52e0f116100e757806338d52e0f1461018e5780633bcfc4b8146101ac578063411557d1146101ca5780634641257d146101e85780634800d97f1461020657610114565b806301e1d114146101185780631fc170b614610136578063218fa0ac146101545780632e1a7d4d14610172575b5f80fd5b61012061031a565b60405161012d9190611670565b60405180910390f35b61013e6103b8565b60405161014b91906116c8565b60405180910390f35b61015c6103dc565b6040516101699190611670565b60405180910390f35b61018c6004803603810190610187919061170f565b6103e2565b005b610196610918565b6040516101a39190611795565b60405180910390f35b6101b461093f565b6040516101c19190611670565b60405180910390f35b6101d26109fd565b6040516101df91906116c8565b60405180910390f35b6101f0610a21565b6040516101fd9190611670565b60405180910390f35b61020e610b7e565b60405161021b9190611795565b60405180910390f35b61022c610ba2565b60405161023991906117ce565b60405180910390f35b61024a610bc6565b6040516102579190611807565b60405180910390f35b610268610bea565b005b610272610bfd565b60405161027f91906116c8565b60405180910390f35b610290610c21565b60405161029d91906116c8565b60405180910390f35b6102ae610c45565b6040516102bb91906116c8565b60405180910390f35b6102de60048036038101906102d9919061170f565b610c6d565b005b6102fa60048036038101906102f5919061184a565b6112f5565b005b610304611379565b60405161031191906116c8565b60405180910390f35b5f7f000000000000000000000000000000000000000000000000000000000000000073ffffffffffffffffffffffffffffffffffffffff166370a08231306040518263ffffffff1660e01b815260040161037491906116c8565b602060405180830381865afa15801561038f573d5f803e3d5ffd5b505050506040513d601f19601f820116820180604052508101906103b39190611889565b905090565b7f000000000000000000000000000000000000000000000000000000000000000081565b60025481565b7f000000000000000000000000000000000000000000000000000000000000000073ffffffffffffffffffffffffffffffffffffffff163373ffffffffffffffffffffffffffffffffffffffff1614610470576040517f08c379a00000000000000000000000000000000000000000000000000000000081526004016104679061190e565b60405180910390fd5b6104786113a0565b5f81116104ba576040517f08c379a00000000000000000000000000000000000000000000000000000000081526004016104b190611976565b60405180910390fd5b5f7f000000000000000000000000000000000000000000000000000000000000000073ffffffffffffffffffffffffffffffffffffffff166370a08231306040518263ffffffff1660e01b815260040161051491906116c8565b602060405180830381865afa15801561052f573d5f803e3d5ffd5b505050506040513d601f19601f820116820180604052508101906105539190611889565b9050818110156107c7575f60025490505f8111156107c5577f000000000000000000000000000000000000000000000000000000000000000073ffffffffffffffffffffffffffffffffffffffff166301112a3e7f0000000000000000000000000000000000000000000000000000000000000000836040518363ffffffff1660e01b81526004016105e6929190611994565b5f604051808303815f87803b1580156105fd575f80fd5b505af115801561060f573d5f803e3d5ffd5b505050505f6002819055505f7f000000000000000000000000000000000000000000000000000000000000000073ffffffffffffffffffffffffffffffffffffffff166384ef21bd7f0000000000000000000000000000000000000000000000000000000000000000847f00000000000000000000000000000000000000000000000000000000000000007f00000000000000000000000000000000000000000000000000000000000000005f806040518763ffffffff1660e01b81526004016106de969594939291906119f4565b60408051808303815f875af11580156106f9573d5f803e3d5ffd5b505050506040513d601f19601f8201168201806040525081019061071d9190611a53565b9150505f8111156107c3577f000000000000000000000000000000000000000000000000000000000000000073ffffffffffffffffffffffffffffffffffffffff1663b3c33b8a826040518263ffffffff1660e01b81526004016107819190611670565b6020604051808303815f875af115801561079d573d5f803e3d5ffd5b505050506040513d601f19601f820116820180604052508101906107c19190611889565b505b505b505b817f000000000000000000000000000000000000000000000000000000000000000073ffffffffffffffffffffffffffffffffffffffff166370a08231306040518263ffffffff1660e01b815260040161082191906116c8565b602060405180830381865afa15801561083c573d5f803e3d5ffd5b505050506040513d601f19601f820116820180604052508101906108609190611889565b10156108a1576040517f08c379a000000000000000000000000000000000000000000000000000000000815260040161089890611adb565b60405180910390fd5b61090c7f0000000000000000000000000000000000000000000000000000000000000000837f000000000000000000000000000000000000000000000000000000000000000073ffffffffffffffffffffffffffffffffffffffff166113e49092919063ffffffff16565b50610915611463565b50565b5f7f0000000000000000000000000000000000000000000000000000000000000000905090565b5f7f000000000000000000000000000000000000000000000000000000000000000073ffffffffffffffffffffffffffffffffffffffff1663a7533e097f00000000000000000000000000000000000000000000000000000000000000006040518263ffffffff1660e01b81526004016109b991906116c8565b602060405180830381865afa1580156109d4573d5f803e3d5ffd5b505050506040513d601f19601f820116820180604052508101906109f89190611889565b905090565b7f000000000000000000000000000000000000000000000000000000000000000081565b5f7f000000000000000000000000000000000000000000000000000000000000000073ffffffffffffffffffffffffffffffffffffffff163373ffffffffffffffffffffffffffffffffffffffff1614610ab0576040517f08c379a0000000000000000000000000000000000000000000000000000000008152600401610aa79061190e565b60405180910390fd5b610ab86113a0565b7f000000000000000000000000000000000000000000000000000000000000000073ffffffffffffffffffffffffffffffffffffffff1663515ce5177f00000000000000000000000000000000000000000000000000000000000000006040518263ffffffff1660e01b8152600401610b3191906116c8565b6020604051808303815f875af1158015610b4d573d5f803e3d5ffd5b505050506040513d601f19601f82011682018060405250810190610b719190611889565b9050610b7b611463565b90565b7f000000000000000000000000000000000000000000000000000000000000000081565b7f000000000000000000000000000000000000000000000000000000000000000081565b7f000000000000000000000000000000000000000000000000000000000000000081565b610bf261146c565b610bfb5f6114f3565b565b7f000000000000000000000000000000000000000000000000000000000000000081565b7f000000000000000000000000000000000000000000000000000000000000000081565b5f60015f9054906101000a900473ffffffffffffffffffffffffffffffffffffffff16905090565b7f000000000000000000000000000000000000000000000000000000000000000073ffffffffffffffffffffffffffffffffffffffff163373ffffffffffffffffffffffffffffffffffffffff1614610cfb576040517f08c379a0000000000000000000000000000000000000000000000000000000008152600401610cf29061190e565b60405180910390fd5b610d036113a0565b5f8111610d45576040517f08c379a0000000000000000000000000000000000000000000000000000000008152600401610d3c90611b43565b60405180910390fd5b5f7f000000000000000000000000000000000000000000000000000000000000000073ffffffffffffffffffffffffffffffffffffffff166370a08231306040518263ffffffff1660e01b8152600401610d9f91906116c8565b602060405180830381865afa158015610dba573d5f803e3d5ffd5b505050506040513d601f19601f82011682018060405250810190610dde9190611889565b905081811015610e23576040517f08c379a0000000000000000000000000000000000000000000000000000000008152600401610e1a90611bab565b60405180910390fd5b5f600283610e319190611c23565b90505f7f000000000000000000000000000000000000000000000000000000000000000073ffffffffffffffffffffffffffffffffffffffff16636cdea07b836040518263ffffffff1660e01b8152600401610e8d9190611670565b6020604051808303815f875af1158015610ea9573d5f803e3d5ffd5b505050506040513d601f19601f82011682018060405250810190610ecd9190611889565b90505f8285610edc9190611c53565b90505f6064605f8484610eef9190611c86565b610ef99190611cb9565b610f039190611c23565b90505f7f000000000000000000000000000000000000000000000000000000000000000073ffffffffffffffffffffffffffffffffffffffff1663d875c70f7f00000000000000000000000000000000000000000000000000000000000000007f00000000000000000000000000000000000000000000000000000000000000007f00000000000000000000000000000000000000000000000000000000000000008789886040518763ffffffff1660e01b8152600401610fc996959493929190611cfa565b6020604051808303815f875af1158015610fe5573d5f803e3d5ffd5b505050506040513d601f19601f820116820180604052508101906110099190611889565b90505f7f000000000000000000000000000000000000000000000000000000000000000073ffffffffffffffffffffffffffffffffffffffff1663712837207f00000000000000000000000000000000000000000000000000000000000000006040518263ffffffff1660e01b815260040161108591906116c8565b602060405180830381865afa1580156110a0573d5f803e3d5ffd5b505050506040513d601f19601f820116820180604052508101906110c49190611d6d565b90505f8173ffffffffffffffffffffffffffffffffffffffff1663dd62ed3e307f00000000000000000000000000000000000000000000000000000000000000006040518363ffffffff1660e01b8152600401611122929190611d98565b602060405180830381865afa15801561113d573d5f803e3d5ffd5b505050506040513d601f19601f820116820180604052508101906111619190611889565b03611223578073ffffffffffffffffffffffffffffffffffffffff1663095ea7b37f00000000000000000000000000000000000000000000000000000000000000007fffffffffffffffffffffffffffffffffffffffffffffffffffffffffffffffff6040518363ffffffff1660e01b81526004016111e1929190611994565b6020604051808303815f875af11580156111fd573d5f803e3d5ffd5b505050506040513d601f19601f820116820180604052508101906112219190611df4565b505b7f000000000000000000000000000000000000000000000000000000000000000073ffffffffffffffffffffffffffffffffffffffff1663c38240027f0000000000000000000000000000000000000000000000000000000000000000846040518363ffffffff1660e01b815260040161129e929190611994565b5f604051808303815f87803b1580156112b5575f80fd5b505af11580156112c7573d5f803e3d5ffd5b505050508160025f8282546112dc9190611c86565b92505081905550505050505050506112f2611463565b50565b6112fd61146c565b5f73ffffffffffffffffffffffffffffffffffffffff168173ffffffffffffffffffffffffffffffffffffffff160361136d575f6040517f1e4fbdf700000000000000000000000000000000000000000000000000000000815260040161136491906116c8565b60405180910390fd5b611376816114f3565b50565b5f7f0000000000000000000000000000000000000000000000000000000000000000905090565b60025f54036113db576040517f3ee5aeb500000000000000000000000000000000000000000000000000000000815260040160405180910390fd5b60025f81905550565b61145e838473ffffffffffffffffffffffffffffffffffffffff1663a9059cbb8585604051602401611417929190611994565b604051602081830303815290604052915060e01b6020820180517bffffffffffffffffffffffffffffffffffffffffffffffffffffffff83818316178352505050506115b6565b505050565b60015f81905550565b611474611651565b73ffffffffffffffffffffffffffffffffffffffff16611492610c45565b73ffffffffffffffffffffffffffffffffffffffff16146114f1576114b5611651565b6040517f118cdaa70000000000000000000000000000000000000000000000000000000081526004016114e891906116c8565b60405180910390fd5b565b5f60015f9054906101000a900473ffffffffffffffffffffffffffffffffffffffff1690508160015f6101000a81548173ffffffffffffffffffffffffffffffffffffffff021916908373ffffffffffffffffffffffffffffffffffffffff1602179055508173ffffffffffffffffffffffffffffffffffffffff168173ffffffffffffffffffffffffffffffffffffffff167f8be0079c531659141344cd1fd0a4f28419497f9722a3daafe3b4186f6b6457e060405160405180910390a35050565b5f8060205f8451602086015f885af1806115d5576040513d5f823e3d81fd5b3d92505f519150505f82146115ee576001811415611609565b5f8473ffffffffffffffffffffffffffffffffffffffff163b145b1561164b57836040517f5274afe700000000000000000000000000000000000000000000000000000000815260040161164291906116c8565b60405180910390fd5b50505050565b5f33905090565b5f819050919050565b61166a81611658565b82525050565b5f6020820190506116835f830184611661565b92915050565b5f73ffffffffffffffffffffffffffffffffffffffff82169050919050565b5f6116b282611689565b9050919050565b6116c2816116a8565b82525050565b5f6020820190506116db5f8301846116b9565b92915050565b5f80fd5b6116ee81611658565b81146116f8575f80fd5b50565b5f81359050611709816116e5565b92915050565b5f60208284031215611724576117236116e1565b5b5f611731848285016116fb565b91505092915050565b5f819050919050565b5f61175d61175861175384611689565b61173a565b611689565b9050919050565b5f61176e82611743565b9050919050565b5f61177f82611764565b9050919050565b61178f81611775565b82525050565b5f6020820190506117a85f830184611786565b92915050565b5f6117b882611764565b9050919050565b6117c8816117ae565b82525050565b5f6020820190506117e15f8301846117bf565b92915050565b5f6117f182611764565b9050919050565b611801816117e7565b82525050565b5f60208201905061181a5f8301846117f8565b92915050565b611829816116a8565b8114611833575f80fd5b50565b5f8135905061184481611820565b92915050565b5f6020828403121561185f5761185e6116e1565b5b5f61186c84828501611836565b91505092915050565b5f81519050611883816116e5565b92915050565b5f6020828403121561189e5761189d6116e1565b5b5f6118ab84828501611875565b91505092915050565b5f82825260208201905092915050565b7f4f6e6c79207661756c74000000000000000000000000000000000000000000005f82015250565b5f6118f8600a836118b4565b9150611903826118c4565b602082019050919050565b5f6020820190508181035f830152611925816118ec565b9050919050565b7f7a65726f207769746864726177000000000000000000000000000000000000005f82015250565b5f611960600d836118b4565b915061196b8261192c565b602082019050919050565b5f6020820190508181035f83015261198d81611954565b9050919050565b5f6040820190506119a75f8301856116b9565b6119b46020830184611661565b9392505050565b5f819050919050565b5f6119de6119d96119d4846119bb565b61173a565b611658565b9050919050565b6119ee816119c4565b82525050565b5f60c082019050611a075f8301896116b9565b611a146020830188611661565b611a2160408301876116b9565b611a2e60608301866116b9565b611a3b60808301856119e5565b611a4860a08301846119e5565b979650505050505050565b5f8060408385031215611a6957611a686116e1565b5b5f611a7685828601611875565b9250506020611a8785828601611875565b9150509250929050565b7f696e73756666696369656e7420616674657220657869740000000000000000005f82015250565b5f611ac56017836118b4565b9150611ad082611a91565b602082019050919050565b5f6020820190508181035f830152611af281611ab9565b9050919050565b7f7a65726f206465706f73697400000000000000000000000000000000000000005f82015250565b5f611b2d600c836118b4565b9150611b3882611af9565b602082019050919050565b5f6020820190508181035f830152611b5a81611b21565b9050919050565b7f696e73756666696369656e742066756e647300000000000000000000000000005f82015250565b5f611b956012836118b4565b9150611ba082611b61565b602082019050919050565b5f6020820190508181035f830152611bc281611b89565b9050919050565b7f4e487b71000000000000000000000000000000000000000000000000000000005f52601260045260245ffd5b7f4e487b71000000000000000000000000000000000000000000000000000000005f52601160045260245ffd5b5f611c2d82611658565b9150611c3883611658565b925082611c4857611c47611bc9565b5b828204905092915050565b5f611c5d82611658565b9150611c6883611658565b9250828203905081811115611c8057611c7f611bf6565b5b92915050565b5f611c9082611658565b9150611c9b83611658565b9250828201905080821115611cb357611cb2611bf6565b5b92915050565b5f611cc382611658565b9150611cce83611658565b9250828202611cdc81611658565b91508282048414831517611cf357611cf2611bf6565b5b5092915050565b5f60c082019050611d0d5f8301896116b9565b611d1a60208301886116b9565b611d2760408301876116b9565b611d346060830186611661565b611d416080830185611661565b611d4e60a0830184611661565b979650505050505050565b5f81519050611d6781611820565b92915050565b5f60208284031215611d8257611d816116e1565b5b5f611d8f84828501611d59565b91505092915050565b5f604082019050611dab5f8301856116b9565b611db860208301846116b9565b9392505050565b5f8115159050919050565b611dd381611dbf565b8114611ddd575f80fd5b50565b5f81519050611dee81611dca565b92915050565b5f60208284031215611e0957611e086116e1565b5b5f611e1684828501611de0565b9150509291505056fea26469706673582212209c6e855722d70609d09b7786316e85cf1367dc261f656a44aa5c5bf70dc3d88b64736f6c63430008140033","linkReferences":{}},"methodIdentifiers":{"ASSET()":"4800d97f","GAUGE()":"7651b1e6","POOL()":"7535d246","STS()":"611e6f1a","STS_TOKEN()":"1fc170b6","SWAPX()":"55bafc81","VAULT()":"411557d1","apy()":"3bcfc4b8","asset()":"38d52e0f","deposit(uint256)":"b6b55f25","harvest()":"4641257d","owner()":"8da5cb5b","renounceOwnership()":"715018a6","stakedLp()":"218fa0ac","totalAssets()":"01e1d114","transferOwnership(address)":"f2fde38b","vault()":"fbfa77cf","withdraw(uint256)":"2e1a7d4d"},"id":60}