{"abi":[{"type":"constructor","inputs":[{"name":"_sToken","type":"address","internalType":"address"},{"name":"_vault","type":"address","internalType":"address"},{"name":"_swapXAdapter","type":"address","internalType":"address"},{"name":"_stsAdapter","type":"address","internalType":"address"},{"name":"_pool","type":"address","internalType":"address"},{"name":"_gauge","type":"address","internalType":"address"},{"name":"_name","type":"string","internalType":"string"}],"stateMutability":"nonpayable"},{"type":"function","name":"ASSET","inputs":[],"outputs":[{"name":"","type":"address","internalType":"contract IERC20"}],"stateMutability":"view"},{"type":"function","name":"GAUGE","inputs":[],"outputs":[{"name":"","type":"address","internalType":"address"}],"stateMutability":"view"},{"type":"function","name":"POOL","inputs":[],"outputs":[{"name":"","type":"address","internalType":"address"}],"stateMutability":"view"},{"type":"function","name":"STS","inputs":[],"outputs":[{"name":"","type":"address","internalType":"contract IStSAdapter"}],"stateMutability":"view"},{"type":"function","name":"STS_TOKEN","inputs":[],"outputs":[{"name":"","type":"address","internalType":"address"}],"stateMutability":"view"},{"type":"function","name":"SWAPX","inputs":[],"outputs":[{"name":"","type":"address","internalType":"contract ISwapXAdapter"}],"stateMutability":"view"},{"type":"function","name":"VAULT","inputs":[],"outputs":[{"name":"","type":"address","internalType":"address"}],"stateMutability":"view"},{"type":"function","name":"apy","inputs":[],"outputs":[{"name":"","type":"uint256","internalType":"uint256"}],"stateMutability":"view"},{"type":"function","name":"asset","inputs":[],"outputs":[{"name":"","type":"address","internalType":"contract IERC20"}],"stateMutability":"view"},{"type":"function","name":"components","inputs":[],"outputs":[{"name":"asset","type":"address","internalType":"address"},{"name":"schemaVersion","type":"uint8","internalType":"uint8"},{"name":"comps","type":"tuple[]","internalType":"struct IStrategyIntrospection.Component[]","components":[{"name":"kind","type":"uint8","internalType":"enum IStrategyIntrospection.ComponentKind"},{"name":"adapter","type":"address","internalType":"address"},{"name":"token0","type":"address","internalType":"address"},{"name":"token1","type":"address","internalType":"address"},{"name":"pool","type":"address","internalType":"address"},{"name":"gauge","type":"address","internalType":"address"},{"name":"extra","type":"bytes","internalType":"bytes"},{"name":"name","type":"string","internalType":"string"}]}],"stateMutability":"view"},{"type":"function","name":"deposit","inputs":[{"name":"amount","type":"uint256","internalType":"uint256"}],"outputs":[],"stateMutability":"nonpayable"},{"type":"function","name":"harvest","inputs":[],"outputs":[{"name":"harvested","type":"uint256","internalType":"uint256"}],"stateMutability":"nonpayable"},{"type":"function","name":"name","inputs":[],"outputs":[{"name":"","type":"string","internalType":"string"}],"stateMutability":"view"},{"type":"function","name":"owner","inputs":[],"outputs":[{"name":"","type":"address","internalType":"address"}],"stateMutability":"view"},{"type":"function","name":"registerMe","inputs":[{"name":"projectId","type":"uint256","internalType":"uint256"}],"outputs":[],"stateMutability":"nonpayable"},{"type":"function","name":"renounceOwnership","inputs":[],"outputs":[],"stateMutability":"nonpayable"},{"type":"function","name":"stakedLp","inputs":[],"outputs":[{"name":"","type":"uint256","internalType":"uint256"}],"stateMutability":"view"},{"type":"function","name":"totalAssets","inputs":[],"outputs":[{"name":"","type":"uint256","internalType":"uint256"}],"stateMutability":"view"},{"type":"function","name":"transferOwnership","inputs":[{"name":"newOwner","type":"address","internalType":"address"}],"outputs":[],"stateMutability":"nonpayable"},{"type":"function","name":"vault","inputs":[],"outputs":[{"name":"","type":"address","internalType":"address"}],"stateMutability":"view"},{"type":"function","name":"withdraw","inputs":[{"name":"amount","type":"uint256","internalType":"uint256"}],"outputs":[],"stateMutability":"nonpayable"},{"type":"event","name":"OwnershipTransferred","inputs":[{"name":"previousOwner","type":"address","indexed":true,"internalType":"address"},{"name":"newOwner","type":"address","indexed":true,"internalType":"address"}],"anonymous":false},{"type":"event","name":"StrategyComponent","inputs":[{"name":"strategy","type":"address","indexed":true,"internalType":"address"},{"name":"kind","type":"uint8","indexed":false,"internalType":"enum IStrategyIntrospection.ComponentKind"},{"name":"adapter","type":"address","indexed":false,"internalType":"address"},{"name":"token0","type":"address","indexed":false,"internalType":"address"},{"name":"token1","type":"address","indexed":false,"internalType":"address"},{"name":"pool","type":"address","indexed":false,"internalType":"address"},{"name":"gauge","type":"address","indexed":false,"internalType":"address"},{"name":"extra","type":"bytes","indexed":false,"internalType":"bytes"}],"anonymous":false},{"type":"event","name":"StrategyConfigured","inputs":[{"name":"strategy","type":"address","indexed":true,"internalType":"address"},{"name":"asset","type":"address","indexed":false,"internalType":"address"},{"name":"schemaVersion","type":"uint8","indexed":false,"internalType":"uint8"}],"anonymous":false},{"type":"error","name":"OwnableInvalidOwner","inputs":[{"name":"owner","type":"address","internalType":"address"}]},{"type":"error","name":"OwnableUnauthorizedAccount","inputs":[{"name":"account","type":"address","internalType":"address"}]},{"type":"error","name":"ReentrancyGuardReentrantCall","inputs":[]},{"type":"error","name":"SafeERC20FailedOperation","inputs":[{"name":"token","type":"address","internalType":"address"}]}],"bytecode":{"object":"0x61016060409080825234620006d85762001ecd8038038091620000238285620006dc565b833981019160e082840312620006d8576200003e8262000700565b9060206200004e81850162000700565b6200005b83860162000700565b956200006a6060870162000700565b90620000796080880162000700565b976200008860a0890162000700565b60c089015190986001600160401b039190828211620006d85701601f848183011215620006d85781518381116200065e57895192601f1996620000d28b89868601160186620006dc565b8285528a8383010111620006d85789905f5b838110620006c35750505f9184010152600191825f553315620006ac578254336001600160a01b03198216811785558b516001600160a01b039d909a928e929083167f8be0079c531659141344cd1fd0a4f28419497f9722a3daafe3b4186f6b6457e05f80a3169889151580620006a0575b156200067257508860805260a05280519384116200065e57600254958387811c9716801562000653575b8a8810146200063f5786838d9811620005e3575b50899285116001146200057e57505f92849290918362000572575b50501b915f199060031b1c1916176002555b16908115158062000566575b15620005335785881615158062000527575b15620004f85760c0829052851660e0819052610100978852610120968752845163065a291b60e31b8152958487600481855afa968715620004ee575f97620004ac575b5061014096875285519363095ea7b360e01b928386528060048701525f199586602482015287816044815f875af18015620004a2579188915f9362000480575b506044858c5116918b5194859384928a845260048401528b60248401525af1801562000476579187915f9362000454575b5060448951809481938883528960048401528a60248401525af180156200044a57604492879594925f9262000428575b50895116885196879586948552600485015260248401525af180156200041e57620003e9575b5050519161179d93846200073085396080518481816101b60152818161056701528181610ee2015281816114aa0152611575015260a05184818161051d01528181610cc401528181610ea601526115b9015260c0518481816102b00152818161063001528181610b7501528181610d3001528181610e05015261107c015260e051848181610210015281816105cd01528181610b3101526111ba0152518381816103080152818161066201528181610a9101528181610dde015261111d0152518281816103300152818161075c01528181610a4d01528181610d0901526110b10152518181816102e0015281816106900152818161114d01526113430152f35b816200040d92903d1062000416575b620004048183620006dc565b81019062000715565b505f80620002e9565b503d620003f8565b83513d5f823e3d90fd5b6200044290873d89116200041657620004048183620006dc565b505f620002c3565b87513d5f823e3d90fd5b6200046e90833d85116200041657620004048183620006dc565b505f62000293565b88513d5f823e3d90fd5b6200049a90833d85116200041657620004048183620006dc565b505f62000262565b89513d5f823e3d90fd5b90968582813d8311620004e6575b620004c68183620006dc565b81010312620004e35750620004db9062000700565b955f62000222565b80fd5b503d620004ba565b86513d5f823e3d90fd5b845162461bcd60e51b8152600481018590526008602482015267189859081c1bdbdb60c21b6044820152606490fd5b508587161515620001df565b845162461bcd60e51b815260048101859052600c60248201526b62616420616461707465727360a01b6044820152606490fd5b508581161515620001cd565b015192505f80620001af565b849394929192169160025f52895f20925f5b8b828210620005cb5750508411620005b2575b505050811b01600255620001c1565b01515f1960f88460031b161c191690555f8080620005a3565b8484015186558e995094870194938401930162000590565b909192939495965060025f52895f208480880160051c8201928c891062000635575b958e999897969594939291950160051c01905b81811062000627575062000194565b5f81558d9850850162000618565b9250819262000605565b634e487b7160e01b5f52602260045260245ffd5b96607f169662000180565b634e487b7160e01b5f52604160045260245ffd5b62461bcd60e51b8152600481018b905260096024820152683d32b9379030b2323960b91b6044820152606490fd5b508c8216151562000156565b8951631e4fbdf760e01b81525f6004820152602490fd5b8181018301518682018401528b9201620000e4565b5f80fd5b601f909101601f19168101906001600160401b038211908210176200065e57604052565b51906001600160a01b0382168203620006d857565b90816020910312620006d857518015158103620006d8579056fe6080806040526004361015610012575f80fd5b5f803560e01c91826301e1d114146114825750816306fdde03146113725781631fc170b61461132e578163218fa0ac146113115781632e1a7d4d14610e8557816338d52e0f14610c9e5781633bcfc4b814610db0578163411557d1146101055781634641257d14610ca35781634800d97f14610c9e57816355af853514610ba457816355bafc8114610b60578163611e6f1a14610b1c578163715018a614610ac05781637535d24614610a7c5781637651b1e614610a385781638da5cb5b14610a10578163b6b55f25146104f7578163ba62fbe4146101a1578163f2fde38b1461010a575063fbfa77cf14610105575f80fd5b6115a4565b3461019e57602036600319011261019e576004356001600160a01b038181169182900361019a576101396115e8565b811561018157600154826bffffffffffffffffffffffff60a01b821617600155167f8be0079c531659141344cd1fd0a4f28419497f9722a3daafe3b4186f6b6457e05f80a380f35b604051631e4fbdf760e01b815260048101849052602490fd5b8280fd5b80fd5b3461019e578060031936011261019e576040517f00000000000000000000000000000000000000000000000000000000000000006001600160a01b0316906101e881611645565b60028152825b604081106104a8575060405161020381611628565b6003815260018060a01b037f00000000000000000000000000000000000000000000000000000000000000001660208201528360408201528360608201528360808201528360a082015260405161025981611661565b84815260c082015260405161026d8161167d565b600381526253745360e81b602082015260e082015261028b82611736565b5261029581611736565b506040516102a281611628565b600581526001600160a01b037f00000000000000000000000000000000000000000000000000000000000000008116602083015260408083018590527f0000000000000000000000000000000000000000000000000000000000000000821660608401527f0000000000000000000000000000000000000000000000000000000000000000821660808401527f000000000000000000000000000000000000000000000000000000000000000090911660a08301525161036181611661565b84815260c08201526040516103758161167d565b60058152640a6eec2e0b60db1b602082015260e082015261039582611757565b5261039f81611757565b5060405192839260608401908452600160208501526060604085015282518091526080840190602060808260051b870101940192805b8282106103e25786860387f35b919395509193607f19878203018552855190815160078110156104945781526020808301516001600160a01b039081168284015260408085015182169084015260608085015182169084015260808085015182169084015260a0808501519091169083015260c0808401516101009184018290526001949293849361048493909260e0916104739190840190611522565b9201519060e0818403910152611522565b97019501920186959493916103d5565b634e487b7160e01b84526021600452602484fd5b602090604094929394516104bb81611628565b838152828481830152846040830152606085818401528560808401528560a08401528060c084015260e0830152828601015201929190926101ee565b3461019e576020908160031936011261019e576001600160a01b039160043590610544337f00000000000000000000000000000000000000000000000000000000000000008616146116bb565b61054c611715565b81156109dd576040516370a0823160e01b81523060048201527f00000000000000000000000000000000000000000000000000000000000000008516946024929091818185818a5afa9081156109d25790859187916109a1575b5010610969578360011c9160405192636cdea07b60e01b8452806004850152828486818a867f0000000000000000000000000000000000000000000000000000000000000000165af193841561095e57879461092f575b50850394851161091c5761061183866116f4565b96605f880297808904605f1490151715610909576064879883989697987f000000000000000000000000000000000000000000000000000000000000000016956040519963d875c70f60e01b8b52857f000000000000000000000000000000000000000000000000000000000000000016948560048d01528a8c0152857f00000000000000000000000000000000000000000000000000000000000000001660448c0152838b015260848a01520460a4880152828760c48188885af19687156108915785976108d6575b506040519063038941b960e51b8252600482015282818781875afa90811561089157859161089c575b501693604051636eb1769f60e11b815230600482015283828201528281604481895afa908115610891578591610858575b50948495949394156107e3575b50505050803b156107d4576040516361c1200160e11b81527f00000000000000000000000000000000000000000000000000000000000000006001600160a01b03166004820152602481018490529082908290604490829084905af180156107d8576107c0575b506107b6826003546116f4565b6003556001815580f35b6107c990611614565b6107d45781836107a9565b5080fd5b6040513d84823e3d90fd5b60448392604051958693849263095ea7b360e01b84528960048501525f19908401525af1801561084d5761081a575b808492610742565b81813d8311610846575b61082e8183611699565b8101031261019a5751801515036107d4578480610812565b503d610824565b6040513d86823e3d90fd5b80949550838092503d831161088a575b6108728183611699565b810103126108865791518693929084610735565b5f80fd5b503d610868565b6040513d87823e3d90fd5b90508281813d83116108cf575b6108b38183611699565b810103126108cb575181811681036108cb5788610704565b8480fd5b503d6108a9565b83809298508196503d8311610902575b6108f08183611699565b810103126108865786935195886106db565b503d6108e6565b634e487b7160e01b875260116004528487fd5b634e487b7160e01b865260116004528386fd5b9093508281813d8311610957575b6109478183611699565b81010312610886575192886105fd565b503d61093d565b6040513d89823e3d90fd5b6064906012846040519262461bcd60e51b8452600484015282015271696e73756666696369656e742066756e647360701b6044820152fd5b809250838092503d83116109cb575b6109ba8183611699565b8101031261088657849051886105a6565b503d6109b0565b6040513d88823e3d90fd5b6064906040519062461bcd60e51b82526004820152600c60248201526b1e995c9bc819195c1bdcda5d60a21b6044820152fd5b3461019e578060031936011261019e576001546040516001600160a01b039091168152602090f35b3461019e578060031936011261019e576040517f00000000000000000000000000000000000000000000000000000000000000006001600160a01b03168152602090f35b3461019e578060031936011261019e576040517f00000000000000000000000000000000000000000000000000000000000000006001600160a01b03168152602090f35b3461019e578060031936011261019e57610ad86115e8565b600180546001600160a01b031981169091555f906001600160a01b03167f8be0079c531659141344cd1fd0a4f28419497f9722a3daafe3b4186f6b6457e08280a380f35b3461019e578060031936011261019e576040517f00000000000000000000000000000000000000000000000000000000000000006001600160a01b03168152602090f35b3461019e578060031936011261019e576040517f00000000000000000000000000000000000000000000000000000000000000006001600160a01b03168152602090f35b3461019e57602036600319011261019e57610bbd6115e8565b808060405160208101906307983f4560e21b8252600435602482015260248152610be681611645565b51908273dc2b0d2dd2b7759d97d50db4eabdc369731108305af13d15610c99573d67ffffffffffffffff8111610c855760405190610c2e601f8201601f191660200183611699565b81528260203d92013e5b15610c405780f35b60405162461bcd60e51b815260206004820152601860248201527f4665654d20726567697374726174696f6e206661696c656400000000000000006044820152606490fd5b634e487b7160e01b5f52604160045260245ffd5b610c38565b611560565b3461019e578060031936011261019e578060206001600160a01b03610ceb337f00000000000000000000000000000000000000000000000000000000000000008316146116bb565b610cf3611715565b60246040518095819363515ce51760e01b8352807f00000000000000000000000000000000000000000000000000000000000000001660048401527f0000000000000000000000000000000000000000000000000000000000000000165af1918215610da3578192610d6f575b60208360018455604051908152f35b91506020823d8211610d9b575b81610d8960209383611699565b81010312610886579051906001610d60565b3d9150610d7c565b50604051903d90823e3d90fd5b3461019e578060031936011261019e576040519063a7533e0960e01b825260208260248160018060a01b03807f00000000000000000000000000000000000000000000000000000000000000001660048301527f0000000000000000000000000000000000000000000000000000000000000000165afa908115610e795790610e47575b602090655af3107a400060405191048152f35b506020813d8211610e71575b81610e6060209383611699565b810103126108865760209051610e34565b3d9150610e53565b604051903d90823e3d90fd5b3461019e576020806003193601126107d4576001600160a01b0390600435907f0000000000000000000000000000000000000000000000000000000000000000610ed233858316146116bb565b610eda611715565b82156112dc577f00000000000000000000000000000000000000000000000000000000000000009084821693604051956370a0823160e01b9081885230600489015260249786818a818b5afa80156112d15784918b9161129c575b501061106a575b5060405190815230600482015284818881895afa801561105f578291899161102e575b5010610fea576040805163a9059cbb60e01b8682019081526001600160a01b039094168882019081526020810193909352889493928592610fab9183910103601f198101835282611699565b51925af1156107d85782513d610fe15750803b155b610fcc57826001815580f35b60405190635274afe760e01b82526004820152fd5b60011415610fc0565b60405162461bcd60e51b8152600481018590526017818801527f696e73756666696369656e7420616674657220657869740000000000000000006044820152606490fd5b809250868092503d8311611058575b6110478183611699565b810103126108865781905189610f5f565b503d61103d565b6040513d8a823e3d90fd5b60035480611079575b50610f3c565b817f000000000000000000000000000000000000000000000000000000000000000016803b15611298576040516288951f60e11b81527f00000000000000000000000000000000000000000000000000000000000000006001600160a01b03166004820152602481018390528b8160448183865af1801561128d5761126c575b50916040899260c48c8e809781600355855197889586946384ef21bd60e01b8652897f00000000000000000000000000000000000000000000000000000000000000001660048701528501526044840152867f00000000000000000000000000000000000000000000000000000000000000001660648401528160848401528160a48401525af19182156112615788928b918591611228575b50806111a1575b505050611073565b60405194859384926359e19dc560e11b845260048401527f0000000000000000000000000000000000000000000000000000000000000000165af190811561121d5786916111f4575b9081898b93611199565b813d8311611216575b6112078183611699565b810103126108865784896111ea565b503d6111fd565b6040513d8b823e3d90fd5b935050506040823d604011611259575b8161124560409383611699565b8101031261019a578988809301518d611192565b3d9150611238565b6040513d85823e3d90fd5b899260c48c9d611280604094979597611614565b9d505092509290926110f9565b6040513d8e823e3d90fd5b8a80fd5b809250888092503d83116112ca575b6112b58183611699565b810103126112c6578390518b610f35565b8980fd5b503d6112ab565b6040513d8c823e3d90fd5b60405162461bcd60e51b815260048101839052600d60248201526c7a65726f20776974686472617760981b6044820152606490fd5b3461019e578060031936011261019e576020600354604051908152f35b3461019e578060031936011261019e576040517f00000000000000000000000000000000000000000000000000000000000000006001600160a01b03168152602090f35b3461019e578060031936011261019e57604051908060025491600183811c92818516948515611478575b6020958686108114611464578588528794939291879082156114425750506001146113e8575b50506113d092500383611699565b6113e4604051928284938452830190611522565b0390f35b90859250600282527f405787fa12a823e0f2b7631cc41b3ba8828b3321ca811111fa75cd3aa3bb5ace5b85831061142a5750506113d0935082010185806113c2565b80548389018501528794508693909201918101611412565b92509350506113d094915060ff191682840152151560051b82010185806113c2565b634e487b7160e01b83526022600452602483fd5b93607f169361139c565b346107d457816003193601126107d4576370a0823160e01b81523060048201526020816024817f00000000000000000000000000000000000000000000000000000000000000006001600160a01b03165afa9081156107d85782916114ed575b602082604051908152f35b90506020813d821161151a575b8161150760209383611699565b810103126107d4576020915051826114e2565b3d91506114fa565b91908251928382525f5b84811061154c575050825f602080949584010152601f8019910116010190565b60208183018101518483018201520161152c565b34610886575f366003190112610886576040517f00000000000000000000000000000000000000000000000000000000000000006001600160a01b03168152602090f35b34610886575f366003190112610886576040517f00000000000000000000000000000000000000000000000000000000000000006001600160a01b03168152602090f35b6001546001600160a01b031633036115fc57565b60405163118cdaa760e01b8152336004820152602490fd5b67ffffffffffffffff8111610c8557604052565b610100810190811067ffffffffffffffff821117610c8557604052565b6060810190811067ffffffffffffffff821117610c8557604052565b6020810190811067ffffffffffffffff821117610c8557604052565b6040810190811067ffffffffffffffff821117610c8557604052565b90601f8019910116810190811067ffffffffffffffff821117610c8557604052565b156116c257565b60405162461bcd60e51b815260206004820152600a60248201526913db9b1e481d985d5b1d60b21b6044820152606490fd5b9190820180921161170157565b634e487b7160e01b5f52601160045260245ffd5b60025f54146117245760025f55565b604051633ee5aeb560e01b8152600490fd5b8051156117435760200190565b634e487b7160e01b5f52603260045260245ffd5b805160011015611743576040019056fea2646970667358221220763f00cd21585ed16a48847052ca8f082c5d25ffc30f2711bfb341b8b5fe2df664736f6c63430008140033","linkReferences":{}},"methodIdentifiers":{"ASSET()":"4800d97f","GAUGE()":"7651b1e6","POOL()":"7535d246","STS()":"611e6f1a","STS_TOKEN()":"1fc170b6","SWAPX()":"55bafc81","VAULT()":"411557d1","apy()":"3bcfc4b8","asset()":"38d52e0f","components()":"ba62fbe4","deposit(uint256)":"b6b55f25","harvest()":"4641257d","name()":"06fdde03","owner()":"8da5cb5b","registerMe(uint256)":"55af8535","renounceOwnership()":"715018a6","stakedLp()":"218fa0ac","totalAssets()":"01e1d114","transferOwnership(address)":"f2fde38b","vault()":"fbfa77cf","withdraw(uint256)":"2e1a7d4d"},"id":59}