{"abi":[{"type":"constructor","inputs":[{"name":"_asset","type":"address","internalType":"contract IERC20"},{"name":"_name","type":"string","internalType":"string"},{"name":"_symbol","type":"string","internalType":"string"},{"name":"_strategyManager","type":"address","internalType":"address"}],"stateMutability":"nonpayable"},{"type":"function","name":"MAX_STRATEGIES","inputs":[],"outputs":[{"name":"","type":"uint256","internalType":"uint256"}],"stateMutability":"view"},{"type":"function","name":"addStrategy","inputs":[{"name":"strategy","type":"address","internalType":"contract IYieldStrategy"},{"name":"allocation","type":"uint256","internalType":"uint256"}],"outputs":[],"stateMutability":"nonpayable"},{"type":"function","name":"allocations","inputs":[{"name":"","type":"address","internalType":"contract IYieldStrategy"}],"outputs":[{"name":"","type":"uint256","internalType":"uint256"}],"stateMutability":"view"},{"type":"function","name":"allowance","inputs":[{"name":"owner","type":"address","internalType":"address"},{"name":"spender","type":"address","internalType":"address"}],"outputs":[{"name":"","type":"uint256","internalType":"uint256"}],"stateMutability":"view"},{"type":"function","name":"approve","inputs":[{"name":"spender","type":"address","internalType":"address"},{"name":"value","type":"uint256","internalType":"uint256"}],"outputs":[{"name":"","type":"bool","internalType":"bool"}],"stateMutability":"nonpayable"},{"type":"function","name":"asset","inputs":[],"outputs":[{"name":"","type":"address","internalType":"address"}],"stateMutability":"view"},{"type":"function","name":"balanceOf","inputs":[{"name":"account","type":"address","internalType":"address"}],"outputs":[{"name":"","type":"uint256","internalType":"uint256"}],"stateMutability":"view"},{"type":"function","name":"convertToAssets","inputs":[{"name":"shares","type":"uint256","internalType":"uint256"}],"outputs":[{"name":"","type":"uint256","internalType":"uint256"}],"stateMutability":"view"},{"type":"function","name":"convertToShares","inputs":[{"name":"assets","type":"uint256","internalType":"uint256"}],"outputs":[{"name":"","type":"uint256","internalType":"uint256"}],"stateMutability":"view"},{"type":"function","name":"decimals","inputs":[],"outputs":[{"name":"","type":"uint8","internalType":"uint8"}],"stateMutability":"view"},{"type":"function","name":"deposit","inputs":[{"name":"assets","type":"uint256","internalType":"uint256"},{"name":"receiver","type":"address","internalType":"address"}],"outputs":[{"name":"","type":"uint256","internalType":"uint256"}],"stateMutability":"nonpayable"},{"type":"function","name":"emergencyPause","inputs":[],"outputs":[],"stateMutability":"nonpayable"},{"type":"function","name":"emergencyPaused","inputs":[],"outputs":[{"name":"","type":"bool","internalType":"bool"}],"stateMutability":"view"},{"type":"function","name":"harvestYield","inputs":[],"outputs":[],"stateMutability":"nonpayable"},{"type":"function","name":"maxDeposit","inputs":[{"name":"","type":"address","internalType":"address"}],"outputs":[{"name":"","type":"uint256","internalType":"uint256"}],"stateMutability":"view"},{"type":"function","name":"maxMint","inputs":[{"name":"","type":"address","internalType":"address"}],"outputs":[{"name":"","type":"uint256","internalType":"uint256"}],"stateMutability":"view"},{"type":"function","name":"maxRedeem","inputs":[{"name":"owner","type":"address","internalType":"address"}],"outputs":[{"name":"","type":"uint256","internalType":"uint256"}],"stateMutability":"view"},{"type":"function","name":"maxWithdraw","inputs":[{"name":"owner","type":"address","internalType":"address"}],"outputs":[{"name":"","type":"uint256","internalType":"uint256"}],"stateMutability":"view"},{"type":"function","name":"mint","inputs":[{"name":"shares","type":"uint256","internalType":"uint256"},{"name":"receiver","type":"address","internalType":"address"}],"outputs":[{"name":"","type":"uint256","internalType":"uint256"}],"stateMutability":"nonpayable"},{"type":"function","name":"name","inputs":[],"outputs":[{"name":"","type":"string","internalType":"string"}],"stateMutability":"view"},{"type":"function","name":"owner","inputs":[],"outputs":[{"name":"","type":"address","internalType":"address"}],"stateMutability":"view"},{"type":"function","name":"previewDeposit","inputs":[{"name":"assets","type":"uint256","internalType":"uint256"}],"outputs":[{"name":"","type":"uint256","internalType":"uint256"}],"stateMutability":"view"},{"type":"function","name":"previewMint","inputs":[{"name":"shares","type":"uint256","internalType":"uint256"}],"outputs":[{"name":"","type":"uint256","internalType":"uint256"}],"stateMutability":"view"},{"type":"function","name":"previewRedeem","inputs":[{"name":"shares","type":"uint256","internalType":"uint256"}],"outputs":[{"name":"","type":"uint256","internalType":"uint256"}],"stateMutability":"view"},{"type":"function","name":"previewWithdraw","inputs":[{"name":"assets","type":"uint256","internalType":"uint256"}],"outputs":[{"name":"","type":"uint256","internalType":"uint256"}],"stateMutability":"view"},{"type":"function","name":"rebalance","inputs":[{"name":"newAllocations","type":"uint256[]","internalType":"uint256[]"}],"outputs":[],"stateMutability":"nonpayable"},{"type":"function","name":"redeem","inputs":[{"name":"shares","type":"uint256","internalType":"uint256"},{"name":"receiver","type":"address","internalType":"address"},{"name":"owner","type":"address","internalType":"address"}],"outputs":[{"name":"","type":"uint256","internalType":"uint256"}],"stateMutability":"nonpayable"},{"type":"function","name":"renounceOwnership","inputs":[],"outputs":[],"stateMutability":"nonpayable"},{"type":"function","name":"setStrategyManager","inputs":[{"name":"newManager","type":"address","internalType":"address"}],"outputs":[],"stateMutability":"nonpayable"},{"type":"function","name":"strategies","inputs":[{"name":"","type":"uint256","internalType":"uint256"}],"outputs":[{"name":"","type":"address","internalType":"contract IYieldStrategy"}],"stateMutability":"view"},{"type":"function","name":"strategyManager","inputs":[],"outputs":[{"name":"","type":"address","internalType":"address"}],"stateMutability":"view"},{"type":"function","name":"symbol","inputs":[],"outputs":[{"name":"","type":"string","internalType":"string"}],"stateMutability":"view"},{"type":"function","name":"totalAllocation","inputs":[],"outputs":[{"name":"","type":"uint256","internalType":"uint256"}],"stateMutability":"view"},{"type":"function","name":"totalAssets","inputs":[],"outputs":[{"name":"","type":"uint256","internalType":"uint256"}],"stateMutability":"view"},{"type":"function","name":"totalSupply","inputs":[],"outputs":[{"name":"","type":"uint256","internalType":"uint256"}],"stateMutability":"view"},{"type":"function","name":"transfer","inputs":[{"name":"to","type":"address","internalType":"address"},{"name":"value","type":"uint256","internalType":"uint256"}],"outputs":[{"name":"","type":"bool","internalType":"bool"}],"stateMutability":"nonpayable"},{"type":"function","name":"transferFrom","inputs":[{"name":"from","type":"address","internalType":"address"},{"name":"to","type":"address","internalType":"address"},{"name":"value","type":"uint256","internalType":"uint256"}],"outputs":[{"name":"","type":"bool","internalType":"bool"}],"stateMutability":"nonpayable"},{"type":"function","name":"transferOwnership","inputs":[{"name":"newOwner","type":"address","internalType":"address"}],"outputs":[],"stateMutability":"nonpayable"},{"type":"function","name":"unpause","inputs":[],"outputs":[],"stateMutability":"nonpayable"},{"type":"function","name":"withdraw","inputs":[{"name":"assets","type":"uint256","internalType":"uint256"},{"name":"receiver","type":"address","internalType":"address"},{"name":"owner","type":"address","internalType":"address"}],"outputs":[{"name":"","type":"uint256","internalType":"uint256"}],"stateMutability":"nonpayable"},{"type":"event","name":"Approval","inputs":[{"name":"owner","type":"address","indexed":true,"internalType":"address"},{"name":"spender","type":"address","indexed":true,"internalType":"address"},{"name":"value","type":"uint256","indexed":false,"internalType":"uint256"}],"anonymous":false},{"type":"event","name":"Deposit","inputs":[{"name":"sender","type":"address","indexed":true,"internalType":"address"},{"name":"owner","type":"address","indexed":true,"internalType":"address"},{"name":"assets","type":"uint256","indexed":false,"internalType":"uint256"},{"name":"shares","type":"uint256","indexed":false,"internalType":"uint256"}],"anonymous":false},{"type":"event","name":"OwnershipTransferred","inputs":[{"name":"previousOwner","type":"address","indexed":true,"internalType":"address"},{"name":"newOwner","type":"address","indexed":true,"internalType":"address"}],"anonymous":false},{"type":"event","name":"RebalanceExecuted","inputs":[{"name":"strategies","type":"address[]","indexed":false,"internalType":"address[]"},{"name":"allocations","type":"uint256[]","indexed":false,"internalType":"uint256[]"}],"anonymous":false},{"type":"event","name":"StrategyAllocated","inputs":[{"name":"strategy","type":"address","indexed":true,"internalType":"address"},{"name":"amount","type":"uint256","indexed":false,"internalType":"uint256"}],"anonymous":false},{"type":"event","name":"StrategyWithdrawn","inputs":[{"name":"strategy","type":"address","indexed":true,"internalType":"address"},{"name":"amount","type":"uint256","indexed":false,"internalType":"uint256"}],"anonymous":false},{"type":"event","name":"Transfer","inputs":[{"name":"from","type":"address","indexed":true,"internalType":"address"},{"name":"to","type":"address","indexed":true,"internalType":"address"},{"name":"value","type":"uint256","indexed":false,"internalType":"uint256"}],"anonymous":false},{"type":"event","name":"Withdraw","inputs":[{"name":"sender","type":"address","indexed":true,"internalType":"address"},{"name":"receiver","type":"address","indexed":true,"internalType":"address"},{"name":"owner","type":"address","indexed":true,"internalType":"address"},{"name":"assets","type":"uint256","indexed":false,"internalType":"uint256"},{"name":"shares","type":"uint256","indexed":false,"internalType":"uint256"}],"anonymous":false},{"type":"event","name":"YieldHarvested","inputs":[{"name":"totalYield","type":"uint256","indexed":false,"internalType":"uint256"}],"anonymous":false},{"type":"error","name":"ERC20InsufficientAllowance","inputs":[{"name":"spender","type":"address","internalType":"address"},{"name":"allowance","type":"uint256","internalType":"uint256"},{"name":"needed","type":"uint256","internalType":"uint256"}]},{"type":"error","name":"ERC20InsufficientBalance","inputs":[{"name":"sender","type":"address","internalType":"address"},{"name":"balance","type":"uint256","internalType":"uint256"},{"name":"needed","type":"uint256","internalType":"uint256"}]},{"type":"error","name":"ERC20InvalidApprover","inputs":[{"name":"approver","type":"address","internalType":"address"}]},{"type":"error","name":"ERC20InvalidReceiver","inputs":[{"name":"receiver","type":"address","internalType":"address"}]},{"type":"error","name":"ERC20InvalidSender","inputs":[{"name":"sender","type":"address","internalType":"address"}]},{"type":"error","name":"ERC20InvalidSpender","inputs":[{"name":"spender","type":"address","internalType":"address"}]},{"type":"error","name":"ERC4626ExceededMaxDeposit","inputs":[{"name":"receiver","type":"address","internalType":"address"},{"name":"assets","type":"uint256","internalType":"uint256"},{"name":"max","type":"uint256","internalType":"uint256"}]},{"type":"error","name":"ERC4626ExceededMaxMint","inputs":[{"name":"receiver","type":"address","internalType":"address"},{"name":"shares","type":"uint256","internalType":"uint256"},{"name":"max","type":"uint256","internalType":"uint256"}]},{"type":"error","name":"ERC4626ExceededMaxRedeem","inputs":[{"name":"owner","type":"address","internalType":"address"},{"name":"shares","type":"uint256","internalType":"uint256"},{"name":"max","type":"uint256","internalType":"uint256"}]},{"type":"error","name":"ERC4626ExceededMaxWithdraw","inputs":[{"name":"owner","type":"address","internalType":"address"},{"name":"assets","type":"uint256","internalType":"uint256"},{"name":"max","type":"uint256","internalType":"uint256"}]},{"type":"error","name":"OwnableInvalidOwner","inputs":[{"name":"owner","type":"address","internalType":"address"}]},{"type":"error","name":"OwnableUnauthorizedAccount","inputs":[{"name":"account","type":"address","internalType":"address"}]},{"type":"error","name":"ReentrancyGuardReentrantCall","inputs":[]},{"type":"error","name":"SafeERC20FailedOperation","inputs":[{"name":"token","type":"address","internalType":"address"}]}],"bytecode":{"object":"0x60c060405234801562000010575f80fd5b506040516200443f3803806200443f8339818101604052810190620000369190620005a0565b3384848481600390816200004b919062000884565b5080600490816200005d919062000884565b5050505f806200007383620001a260201b60201c565b91509150816200008557601262000087565b805b60ff1660a08160ff16815250508273ffffffffffffffffffffffffffffffffffffffff1660808173ffffffffffffffffffffffffffffffffffffffff168152505050505060016005819055505f73ffffffffffffffffffffffffffffffffffffffff168173ffffffffffffffffffffffffffffffffffffffff160362000146575f6040517f1e4fbdf70000000000000000000000000000000000000000000000000000000081526004016200013d919062000979565b60405180910390fd5b6200015781620002b560201b60201c565b508060075f6101000a81548173ffffffffffffffffffffffffffffffffffffffff021916908373ffffffffffffffffffffffffffffffffffffffff1602179055505050505062000a55565b5f805f808473ffffffffffffffffffffffffffffffffffffffff1660405160240160405160208183030381529060405263313ce56760e01b6020820180517bffffffffffffffffffffffffffffffffffffffffffffffffffffffff8381831617835250505050604051620002179190620009de565b5f60405180830381855afa9150503d805f811462000251576040519150601f19603f3d011682016040523d82523d5f602084013e62000256565b606091505b50915091508180156200026b57506020815110155b15620002a7575f8180602001905181019062000288919062000a25565b905060ff80168111620002a55760018194509450505050620002b0565b505b5f809350935050505b915091565b5f60065f9054906101000a900473ffffffffffffffffffffffffffffffffffffffff1690508160065f6101000a81548173ffffffffffffffffffffffffffffffffffffffff021916908373ffffffffffffffffffffffffffffffffffffffff1602179055508173ffffffffffffffffffffffffffffffffffffffff168173ffffffffffffffffffffffffffffffffffffffff167f8be0079c531659141344cd1fd0a4f28419497f9722a3daafe3b4186f6b6457e060405160405180910390a35050565b5f604051905090565b5f80fd5b5f80fd5b5f73ffffffffffffffffffffffffffffffffffffffff82169050919050565b5f620003b48262000389565b9050919050565b5f620003c782620003a8565b9050919050565b620003d981620003bb565b8114620003e4575f80fd5b50565b5f81519050620003f781620003ce565b92915050565b5f80fd5b5f80fd5b5f601f19601f8301169050919050565b7f4e487b71000000000000000000000000000000000000000000000000000000005f52604160045260245ffd5b6200044d8262000405565b810181811067ffffffffffffffff821117156200046f576200046e62000415565b5b80604052505050565b5f6200048362000378565b905062000491828262000442565b919050565b5f67ffffffffffffffff821115620004b357620004b262000415565b5b620004be8262000405565b9050602081019050919050565b5f5b83811015620004ea578082015181840152602081019050620004cd565b5f8484015250505050565b5f6200050b620005058462000496565b62000478565b9050828152602081018484840111156200052a576200052962000401565b5b62000537848285620004cb565b509392505050565b5f82601f830112620005565762000555620003fd565b5b815162000568848260208601620004f5565b91505092915050565b6200057c81620003a8565b811462000587575f80fd5b50565b5f815190506200059a8162000571565b92915050565b5f805f8060808587031215620005bb57620005ba62000381565b5b5f620005ca87828801620003e7565b945050602085015167ffffffffffffffff811115620005ee57620005ed62000385565b5b620005fc878288016200053f565b935050604085015167ffffffffffffffff81111562000620576200061f62000385565b5b6200062e878288016200053f565b925050606062000641878288016200058a565b91505092959194509250565b5f81519050919050565b7f4e487b71000000000000000000000000000000000000000000000000000000005f52602260045260245ffd5b5f60028204905060018216806200069c57607f821691505b602082108103620006b257620006b162000657565b5b50919050565b5f819050815f5260205f209050919050565b5f6020601f8301049050919050565b5f82821b905092915050565b5f60088302620007167fffffffffffffffffffffffffffffffffffffffffffffffffffffffffffffffff82620006d9565b620007228683620006d9565b95508019841693508086168417925050509392505050565b5f819050919050565b5f819050919050565b5f6200076c6200076662000760846200073a565b62000743565b6200073a565b9050919050565b5f819050919050565b62000787836200074c565b6200079f620007968262000773565b848454620006e5565b825550505050565b5f90565b620007b5620007a7565b620007c28184846200077c565b505050565b5b81811015620007e957620007dd5f82620007ab565b600181019050620007c8565b5050565b601f82111562000838576200080281620006b8565b6200080d84620006ca565b810160208510156200081d578190505b620008356200082c85620006ca565b830182620007c7565b50505b505050565b5f82821c905092915050565b5f6200085a5f19846008026200083d565b1980831691505092915050565b5f62000874838362000849565b9150826002028217905092915050565b6200088f826200064d565b67ffffffffffffffff811115620008ab57620008aa62000415565b5b620008b7825462000684565b620008c4828285620007ed565b5f60209050601f831160018114620008fa575f8415620008e5578287015190505b620008f1858262000867565b86555062000960565b601f1984166200090a86620006b8565b5f5b8281101562000933578489015182556001820191506020850194506020810190506200090c565b868310156200095357848901516200094f601f89168262000849565b8355505b6001600288020188555050505b505050505050565b6200097381620003a8565b82525050565b5f6020820190506200098e5f83018462000968565b92915050565b5f81519050919050565b5f81905092915050565b5f620009b48262000994565b620009c081856200099e565b9350620009d2818560208601620004cb565b80840191505092915050565b5f620009eb8284620009a8565b915081905092915050565b62000a01816200073a565b811462000a0c575f80fd5b50565b5f8151905062000a1f81620009f6565b92915050565b5f6020828403121562000a3d5762000a3c62000381565b5b5f62000a4c8482850162000a0f565b91505092915050565b60805160a0516139c862000a775f395f610ab901525f610aea01526139c85ff3fe608060405234801561000f575f80fd5b5060043610610246575f3560e01c8063767f06ae11610139578063c63d75b6116100b6578063d905777e1161007a578063d905777e14610766578063dd62ed3e14610796578063e8d991d1146107c6578063ef8b30f7146107d0578063f2fde38b1461080057610246565b8063c63d75b61461068a578063c6e6f592146106ba578063c9411e22146106ea578063ce96cb7714610706578063d574ea3d1461073657610246565b806395d89b41116100fd57806395d89b41146105ac578063a9059cbb146105ca578063b3d7f6b9146105fa578063b460af941461062a578063ba0876521461065a57610246565b8063767f06ae14610506578063780d57101461052457806379203dc4146105405780638da5cb5b1461055e57806394bf804d1461057c57610246565b806339b70e38116101c757806352a9039c1161018b57806352a9039c146104505780635c966646146104805780636e553f651461049c57806370a08231146104cc578063715018a6146104fc57610246565b806339b70e38146103be5780633f4ba83a146103dc578063402d267d146103e65780634cdad5061461041657806351858e271461044657610246565b806318160ddd1161020e57806318160ddd1461031657806323b872dd1461033457806327c830a914610364578063313ce5671461038257806338d52e0f146103a057610246565b806301e1d1141461024a57806306fdde031461026857806307a2d13a14610286578063095ea7b3146102b65780630a28a477146102e6575b5f80fd5b61025261081c565b60405161025f9190612b3a565b60405180910390f35b61027061098e565b60405161027d9190612bdd565b60405180910390f35b6102a0600480360381019061029b9190612c2f565b610a1e565b6040516102ad9190612b3a565b60405180910390f35b6102d060048036038101906102cb9190612cb4565b610a30565b6040516102dd9190612d0c565b60405180910390f35b61030060048036038101906102fb9190612c2f565b610a52565b60405161030d9190612b3a565b60405180910390f35b61031e610a65565b60405161032b9190612b3a565b60405180910390f35b61034e60048036038101906103499190612d25565b610a6e565b60405161035b9190612d0c565b60405180910390f35b61036c610a9c565b6040516103799190612d0c565b60405180910390f35b61038a610aae565b6040516103979190612d90565b60405180910390f35b6103a8610ae7565b6040516103b59190612db8565b60405180910390f35b6103c6610b0e565b6040516103d39190612db8565b60405180910390f35b6103e4610b33565b005b61040060048036038101906103fb9190612dd1565b610b56565b60405161040d9190612b3a565b60405180910390f35b610430600480360381019061042b9190612c2f565b610b7f565b60405161043d9190612b3a565b60405180910390f35b61044e610b91565b005b61046a60048036038101906104659190612e37565b610bb5565b6040516104779190612b3a565b60405180910390f35b61049a60048036038101906104959190612dd1565b610bca565b005b6104b660048036038101906104b19190612e62565b610c15565b6040516104c39190612b3a565b60405180910390f35b6104e660048036038101906104e19190612dd1565b610c95565b6040516104f39190612b3a565b60405180910390f35b610504610cda565b005b61050e610ced565b60405161051b9190612b3a565b60405180910390f35b61053e60048036038101906105399190612f01565b610cf2565b005b61054861109e565b6040516105559190612b3a565b60405180910390f35b6105666110a4565b6040516105739190612db8565b60405180910390f35b61059660048036038101906105919190612e62565b6110cc565b6040516105a39190612b3a565b60405180910390f35b6105b461114c565b6040516105c19190612bdd565b60405180910390f35b6105e460048036038101906105df9190612cb4565b6111dc565b6040516105f19190612d0c565b60405180910390f35b610614600480360381019061060f9190612c2f565b6111fe565b6040516106219190612b3a565b60405180910390f35b610644600480360381019061063f9190612f4c565b611211565b6040516106519190612b3a565b60405180910390f35b610674600480360381019061066f9190612f4c565b611293565b6040516106819190612b3a565b60405180910390f35b6106a4600480360381019061069f9190612dd1565b611315565b6040516106b19190612b3a565b60405180910390f35b6106d460048036038101906106cf9190612c2f565b61133e565b6040516106e19190612b3a565b60405180910390f35b61070460048036038101906106ff9190612f9c565b611350565b005b610720600480360381019061071b9190612dd1565b611543565b60405161072d9190612b3a565b60405180910390f35b610750600480360381019061074b9190612c2f565b61155d565b60405161075d9190613035565b60405180910390f35b610780600480360381019061077b9190612dd1565b611598565b60405161078d9190612b3a565b60405180910390f35b6107b060048036038101906107ab919061304e565b6115a9565b6040516107bd9190612b3a565b60405180910390f35b6107ce61162b565b005b6107ea60048036038101906107e59190612c2f565b6117e6565b6040516107f79190612b3a565b60405180910390f35b61081a60048036038101906108159190612dd1565b6117f8565b005b5f80610826610ae7565b73ffffffffffffffffffffffffffffffffffffffff166370a08231306040518263ffffffff1660e01b815260040161085e9190612db8565b602060405180830381865afa158015610879573d5f803e3d5ffd5b505050506040513d601f19601f8201168201806040525081019061089d91906130a0565b90505f805f90505b60088054905081101561097a57600881815481106108c6576108c56130cb565b5b905f5260205f20015f9054906101000a900473ffffffffffffffffffffffffffffffffffffffff1673ffffffffffffffffffffffffffffffffffffffff166301e1d1146040518163ffffffff1660e01b8152600401602060405180830381865afa158015610936573d5f803e3d5ffd5b505050506040513d601f19601f8201168201806040525081019061095a91906130a0565b826109659190613125565b9150808061097290613158565b9150506108a5565b5080826109879190613125565b9250505090565b60606003805461099d906131cc565b80601f01602080910402602001604051908101604052809291908181526020018280546109c9906131cc565b8015610a145780601f106109eb57610100808354040283529160200191610a14565b820191905f5260205f20905b8154815290600101906020018083116109f757829003601f168201915b5050505050905090565b5f610a29825f61187c565b9050919050565b5f80610a3a6118d4565b9050610a478185856118db565b600191505092915050565b5f610a5e8260016118ed565b9050919050565b5f600254905090565b5f80610a786118d4565b9050610a85858285611945565b610a908585856119d8565b60019150509392505050565b600b5f9054906101000a900460ff1681565b5f610ab7611ac8565b7f0000000000000000000000000000000000000000000000000000000000000000610ae291906131fc565b905090565b5f7f0000000000000000000000000000000000000000000000000000000000000000905090565b60075f9054906101000a900473ffffffffffffffffffffffffffffffffffffffff1681565b610b3b611acc565b5f600b5f6101000a81548160ff021916908315150217905550565b5f7fffffffffffffffffffffffffffffffffffffffffffffffffffffffffffffffff9050919050565b5f610b8a825f61187c565b9050919050565b610b99611acc565b6001600b5f6101000a81548160ff021916908315150217905550565b6009602052805f5260405f205f915090505481565b610bd2611acc565b8060075f6101000a81548173ffffffffffffffffffffffffffffffffffffffff021916908373ffffffffffffffffffffffffffffffffffffffff16021790555050565b5f80610c2083610b56565b905080841115610c6b578284826040517f79012fb2000000000000000000000000000000000000000000000000000000008152600401610c6293929190613230565b60405180910390fd5b5f610c75856117e6565b9050610c8a610c826118d4565b858784611b53565b809250505092915050565b5f805f8373ffffffffffffffffffffffffffffffffffffffff1673ffffffffffffffffffffffffffffffffffffffff1681526020019081526020015f20549050919050565b610ce2611acc565b610ceb5f611bbd565b565b600a81565b60075f9054906101000a900473ffffffffffffffffffffffffffffffffffffffff1673ffffffffffffffffffffffffffffffffffffffff163373ffffffffffffffffffffffffffffffffffffffff1614610d81576040517f08c379a0000000000000000000000000000000000000000000000000000000008152600401610d78906132af565b60405180910390fd5b600b5f9054906101000a900460ff1615610dd0576040517f08c379a0000000000000000000000000000000000000000000000000000000008152600401610dc790613317565b60405180910390fd5b610dd8611c80565b6008805490508282905014610e22576040517f08c379a0000000000000000000000000000000000000000000000000000000008152600401610e199061337f565b60405180910390fd5b5f805f90505b83839050811015610f0357838382818110610e4657610e456130cb565b5b9050602002013582610e589190613125565b9150838382818110610e6d57610e6c6130cb565b5b9050602002013560095f60088481548110610e8b57610e8a6130cb565b5b905f5260205f20015f9054906101000a900473ffffffffffffffffffffffffffffffffffffffff1673ffffffffffffffffffffffffffffffffffffffff1673ffffffffffffffffffffffffffffffffffffffff1681526020019081526020015f20819055508080610efb90613158565b915050610e28565b50612710811115610f49576040517f08c379a0000000000000000000000000000000000000000000000000000000008152600401610f40906133e7565b60405180910390fd5b80600a81905550610f58611cc6565b5f60088054905067ffffffffffffffff811115610f7857610f77613405565b5b604051908082528060200260200182016040528015610fa65781602001602082028036833780820191505090505b5090505f5b6008805490508110156110545760088181548110610fcc57610fcb6130cb565b5b905f5260205f20015f9054906101000a900473ffffffffffffffffffffffffffffffffffffffff16828281518110611007576110066130cb565b5b602002602001019073ffffffffffffffffffffffffffffffffffffffff16908173ffffffffffffffffffffffffffffffffffffffff1681525050808061104c90613158565b915050610fab565b507ffb313b5f9090e84f3108863e50c8eff725890aec80ef976d0cc80699bfc5923f81858560405161108893929190613561565b60405180910390a1505061109a611cc8565b5050565b600a5481565b5f60065f9054906101000a900473ffffffffffffffffffffffffffffffffffffffff16905090565b5f806110d783611315565b905080841115611122578284826040517f284ff66700000000000000000000000000000000000000000000000000000000815260040161111993929190613230565b60405180910390fd5b5f61112c856111fe565b90506111416111396118d4565b858388611b53565b809250505092915050565b60606004805461115b906131cc565b80601f0160208091040260200160405190810160405280929190818152602001828054611187906131cc565b80156111d25780601f106111a9576101008083540402835291602001916111d2565b820191905f5260205f20905b8154815290600101906020018083116111b557829003601f168201915b5050505050905090565b5f806111e66118d4565b90506111f38185856119d8565b600191505092915050565b5f61120a82600161187c565b9050919050565b5f8061121c83611543565b905080851115611267578285826040517ffe9cceec00000000000000000000000000000000000000000000000000000000815260040161125e93929190613230565b60405180910390fd5b5f61127186610a52565b905061128761127e6118d4565b86868985611cd2565b80925050509392505050565b5f8061129e83611598565b9050808511156112e9578285826040517fb94abeec0000000000000000000000000000000000000000000000000000000081526004016112e093929190613230565b60405180910390fd5b5f6112f386610b7f565b90506113096113006118d4565b8686848a611cd2565b80925050509392505050565b5f7fffffffffffffffffffffffffffffffffffffffffffffffffffffffffffffffff9050919050565b5f611349825f6118ed565b9050919050565b611358611acc565b600a600880549050106113a0576040517f08c379a0000000000000000000000000000000000000000000000000000000008152600401611397906135e2565b60405180910390fd5b6127108111156113e5576040517f08c379a00000000000000000000000000000000000000000000000000000000081526004016113dc9061364a565b60405180910390fd5b61271081600a546113f69190613125565b1115611437576040517f08c379a000000000000000000000000000000000000000000000000000000000815260040161142e906133e7565b60405180910390fd5b600882908060018154018082558091505060019003905f5260205f20015f9091909190916101000a81548173ffffffffffffffffffffffffffffffffffffffff021916908373ffffffffffffffffffffffffffffffffffffffff1602179055508060095f8473ffffffffffffffffffffffffffffffffffffffff1673ffffffffffffffffffffffffffffffffffffffff1681526020019081526020015f208190555080600a5f8282546114ea9190613125565b925050819055508173ffffffffffffffffffffffffffffffffffffffff167fe0891f411f6f2912bfe7f0d8ce9304c1017fc1a451848763f197c95a89d45dc0826040516115379190612b3a565b60405180910390a25050565b5f61155661155083610c95565b5f61187c565b9050919050565b6008818154811061156c575f80fd5b905f5260205f20015f915054906101000a900473ffffffffffffffffffffffffffffffffffffffff1681565b5f6115a282610c95565b9050919050565b5f60015f8473ffffffffffffffffffffffffffffffffffffffff1673ffffffffffffffffffffffffffffffffffffffff1681526020019081526020015f205f8373ffffffffffffffffffffffffffffffffffffffff1673ffffffffffffffffffffffffffffffffffffffff1681526020019081526020015f2054905092915050565b60075f9054906101000a900473ffffffffffffffffffffffffffffffffffffffff1673ffffffffffffffffffffffffffffffffffffffff163373ffffffffffffffffffffffffffffffffffffffff16146116ba576040517f08c379a00000000000000000000000000000000000000000000000000000000081526004016116b1906132af565b60405180910390fd5b6116c2611c80565b5f805f90505b6008805490508110156117a3575f600882815481106116ea576116e96130cb565b5b905f5260205f20015f9054906101000a900473ffffffffffffffffffffffffffffffffffffffff1673ffffffffffffffffffffffffffffffffffffffff16634641257d6040518163ffffffff1660e01b81526004016020604051808303815f875af115801561175b573d5f803e3d5ffd5b505050506040513d601f19601f8201168201806040525081019061177f91906130a0565b9050808361178d9190613125565b925050808061179b90613158565b9150506116c8565b507feb2d114a827fe0da3db4c0e374010959cf461f7ed76987aeff51666dea9add9b816040516117d39190612b3a565b60405180910390a1506117e4611cc8565b565b5f6117f1825f6118ed565b9050919050565b611800611acc565b5f73ffffffffffffffffffffffffffffffffffffffff168173ffffffffffffffffffffffffffffffffffffffff1603611870575f6040517f1e4fbdf70000000000000000000000000000000000000000000000000000000081526004016118679190612db8565b60405180910390fd5b61187981611bbd565b50565b5f6118cc600161188a61081c565b6118949190613125565b61189c611ac8565b600a6118a89190613797565b6118b0610a65565b6118ba9190613125565b8486611d8b909392919063ffffffff16565b905092915050565b5f33905090565b6118e88383836001611dd8565b505050565b5f61193d6118f9611ac8565b600a6119059190613797565b61190d610a65565b6119179190613125565b600161192161081c565b61192b9190613125565b8486611d8b909392919063ffffffff16565b905092915050565b5f61195084846115a9565b90507fffffffffffffffffffffffffffffffffffffffffffffffffffffffffffffffff8110156119d257818110156119c3578281836040517ffb8f41b20000000000000000000000000000000000000000000000000000000081526004016119ba93929190613230565b60405180910390fd5b6119d184848484035f611dd8565b5b50505050565b5f73ffffffffffffffffffffffffffffffffffffffff168373ffffffffffffffffffffffffffffffffffffffff1603611a48575f6040517f96c6fd1e000000000000000000000000000000000000000000000000000000008152600401611a3f9190612db8565b60405180910390fd5b5f73ffffffffffffffffffffffffffffffffffffffff168273ffffffffffffffffffffffffffffffffffffffff1603611ab8575f6040517fec442f05000000000000000000000000000000000000000000000000000000008152600401611aaf9190612db8565b60405180910390fd5b611ac3838383611fa7565b505050565b5f90565b611ad46118d4565b73ffffffffffffffffffffffffffffffffffffffff16611af26110a4565b73ffffffffffffffffffffffffffffffffffffffff1614611b5157611b156118d4565b6040517f118cdaa7000000000000000000000000000000000000000000000000000000008152600401611b489190612db8565b60405180910390fd5b565b600b5f9054906101000a900460ff1615611ba2576040517f08c379a0000000000000000000000000000000000000000000000000000000008152600401611b9990613317565b60405180910390fd5b611bae848484846121c0565b611bb78261224a565b50505050565b5f60065f9054906101000a900473ffffffffffffffffffffffffffffffffffffffff1690508160065f6101000a81548173ffffffffffffffffffffffffffffffffffffffff021916908373ffffffffffffffffffffffffffffffffffffffff1602179055508173ffffffffffffffffffffffffffffffffffffffff168173ffffffffffffffffffffffffffffffffffffffff167f8be0079c531659141344cd1fd0a4f28419497f9722a3daafe3b4186f6b6457e060405160405180910390a35050565b600260055403611cbc576040517f3ee5aeb500000000000000000000000000000000000000000000000000000000815260040160405180910390fd5b6002600581905550565b565b6001600581905550565b5f611cdb610ae7565b73ffffffffffffffffffffffffffffffffffffffff166370a08231306040518263ffffffff1660e01b8152600401611d139190612db8565b602060405180830381865afa158015611d2e573d5f803e3d5ffd5b505050506040513d601f19601f82011682018060405250810190611d5291906130a0565b905080831115611d76575f8184611d6991906137e1565b9050611d748161249d565b505b611d83868686868661264a565b505050505050565b5f611db9611d988361272a565b8015611db457505f8480611daf57611dae613814565b5b868809115b612757565b611dc4868686612762565b611dce9190613125565b9050949350505050565b5f73ffffffffffffffffffffffffffffffffffffffff168473ffffffffffffffffffffffffffffffffffffffff1603611e48575f6040517fe602df05000000000000000000000000000000000000000000000000000000008152600401611e3f9190612db8565b60405180910390fd5b5f73ffffffffffffffffffffffffffffffffffffffff168373ffffffffffffffffffffffffffffffffffffffff1603611eb8575f6040517f94280d62000000000000000000000000000000000000000000000000000000008152600401611eaf9190612db8565b60405180910390fd5b8160015f8673ffffffffffffffffffffffffffffffffffffffff1673ffffffffffffffffffffffffffffffffffffffff1681526020019081526020015f205f8573ffffffffffffffffffffffffffffffffffffffff1673ffffffffffffffffffffffffffffffffffffffff1681526020019081526020015f20819055508015611fa1578273ffffffffffffffffffffffffffffffffffffffff168473ffffffffffffffffffffffffffffffffffffffff167f8c5be1e5ebec7d5bd14f71427d1e84f3dd0314c0f7b2291e5b200ac8c7c3b92584604051611f989190612b3a565b60405180910390a35b50505050565b5f73ffffffffffffffffffffffffffffffffffffffff168373ffffffffffffffffffffffffffffffffffffffff1603611ff7578060025f828254611feb9190613125565b925050819055506120c5565b5f805f8573ffffffffffffffffffffffffffffffffffffffff1673ffffffffffffffffffffffffffffffffffffffff1681526020019081526020015f2054905081811015612080578381836040517fe450d38c00000000000000000000000000000000000000000000000000000000815260040161207793929190613230565b60405180910390fd5b8181035f808673ffffffffffffffffffffffffffffffffffffffff1673ffffffffffffffffffffffffffffffffffffffff1681526020019081526020015f2081905550505b5f73ffffffffffffffffffffffffffffffffffffffff168273ffffffffffffffffffffffffffffffffffffffff160361210c578060025f8282540392505081905550612156565b805f808473ffffffffffffffffffffffffffffffffffffffff1673ffffffffffffffffffffffffffffffffffffffff1681526020019081526020015f205f82825401925050819055505b8173ffffffffffffffffffffffffffffffffffffffff168373ffffffffffffffffffffffffffffffffffffffff167fddf252ad1be2c89b69c2b068fc378daa952ba7f163c4a11628f55a4df523b3ef836040516121b39190612b3a565b60405180910390a3505050565b6121d36121cb610ae7565b853085612841565b6121dd83826128c3565b8273ffffffffffffffffffffffffffffffffffffffff168473ffffffffffffffffffffffffffffffffffffffff167fdcbc1c05240f31ff3ad067ef1ee35ce4997762752e3a095284754544f4c709d7848460405161223c929190613841565b60405180910390a350505050565b5f5b600880549050811015612499575f60095f60088481548110612271576122706130cb565b5b905f5260205f20015f9054906101000a900473ffffffffffffffffffffffffffffffffffffffff1673ffffffffffffffffffffffffffffffffffffffff1673ffffffffffffffffffffffffffffffffffffffff1681526020019081526020015f20541115612486575f61271060095f600885815481106122f4576122f36130cb565b5b905f5260205f20015f9054906101000a900473ffffffffffffffffffffffffffffffffffffffff1673ffffffffffffffffffffffffffffffffffffffff1673ffffffffffffffffffffffffffffffffffffffff1681526020019081526020015f2054846123619190613868565b61236b91906138a9565b90505f811115612484576123e26008838154811061238c5761238b6130cb565b5b905f5260205f20015f9054906101000a900473ffffffffffffffffffffffffffffffffffffffff16826123bd610ae7565b73ffffffffffffffffffffffffffffffffffffffff166129429092919063ffffffff16565b600882815481106123f6576123f56130cb565b5b905f5260205f20015f9054906101000a900473ffffffffffffffffffffffffffffffffffffffff1673ffffffffffffffffffffffffffffffffffffffff1663b6b55f25826040518263ffffffff1660e01b81526004016124569190612b3a565b5f604051808303815f87803b15801561246d575f80fd5b505af115801561247f573d5f803e3d5ffd5b505050505b505b808061249190613158565b91505061224c565b5050565b5f8190505f5b600880549050811080156124b657505f82115b15612645575f600882815481106124d0576124cf6130cb565b5b905f5260205f20015f9054906101000a900473ffffffffffffffffffffffffffffffffffffffff1673ffffffffffffffffffffffffffffffffffffffff166301e1d1146040518163ffffffff1660e01b8152600401602060405180830381865afa158015612540573d5f803e3d5ffd5b505050506040513d601f19601f8201168201806040525081019061256491906130a0565b90505f811115612631575f81841161257c578361257e565b815b905060088381548110612594576125936130cb565b5b905f5260205f20015f9054906101000a900473ffffffffffffffffffffffffffffffffffffffff1673ffffffffffffffffffffffffffffffffffffffff16632e1a7d4d826040518263ffffffff1660e01b81526004016125f49190612b3a565b5f604051808303815f87803b15801561260b575f80fd5b505af115801561261d573d5f803e3d5ffd5b50505050808461262d91906137e1565b9350505b50808061263d90613158565b9150506124a3565b505050565b8273ffffffffffffffffffffffffffffffffffffffff168573ffffffffffffffffffffffffffffffffffffffff161461268957612688838683611945565b5b61269383826129c1565b6126a561269e610ae7565b8584612942565b8273ffffffffffffffffffffffffffffffffffffffff168473ffffffffffffffffffffffffffffffffffffffff168673ffffffffffffffffffffffffffffffffffffffff167ffbde797d201c681b91056529119e0b02407c7bb96a4a2c75c01fc9667232c8db858560405161271b929190613841565b60405180910390a45050505050565b5f60016002836003811115612742576127416138d9565b5b61274c9190613906565b60ff16149050919050565b5f8115159050919050565b5f805f61276f8686612a40565b915091505f82036127945783818161278a57612789613814565b5b049250505061283a565b8184116127b3576127b26127ad5f861460126011612a5d565b612a76565b5b5f8486880990508181118303925080820391505f855f038616905080860495508083049250600181825f0304019050808402831792505f600287600302189050808702600203810290508087026002038102905080870260020381029050808702600203810290508087026002038102905080870260020381029050808402955050505050505b9392505050565b6128bd848573ffffffffffffffffffffffffffffffffffffffff166323b872dd86868660405160240161287693929190613936565b604051602081830303815290604052915060e01b6020820180517bffffffffffffffffffffffffffffffffffffffffffffffffffffffff8381831617835250505050612a87565b50505050565b5f73ffffffffffffffffffffffffffffffffffffffff168273ffffffffffffffffffffffffffffffffffffffff1603612933575f6040517fec442f0500000000000000000000000000000000000000000000000000000000815260040161292a9190612db8565b60405180910390fd5b61293e5f8383611fa7565b5050565b6129bc838473ffffffffffffffffffffffffffffffffffffffff1663a9059cbb858560405160240161297592919061396b565b604051602081830303815290604052915060e01b6020820180517bffffffffffffffffffffffffffffffffffffffffffffffffffffffff8381831617835250505050612a87565b505050565b5f73ffffffffffffffffffffffffffffffffffffffff168273ffffffffffffffffffffffffffffffffffffffff1603612a31575f6040517f96c6fd1e000000000000000000000000000000000000000000000000000000008152600401612a289190612db8565b60405180910390fd5b612a3c825f83611fa7565b5050565b5f805f198385098385029150818110828203039250509250929050565b5f612a6784612757565b82841802821890509392505050565b634e487b715f52806020526024601cfd5b5f8060205f8451602086015f885af180612aa6576040513d5f823e3d81fd5b3d92505f519150505f8214612abf576001811415612ada565b5f8473ffffffffffffffffffffffffffffffffffffffff163b145b15612b1c57836040517f5274afe7000000000000000000000000000000000000000000000000000000008152600401612b139190612db8565b60405180910390fd5b50505050565b5f819050919050565b612b3481612b22565b82525050565b5f602082019050612b4d5f830184612b2b565b92915050565b5f81519050919050565b5f82825260208201905092915050565b5f5b83811015612b8a578082015181840152602081019050612b6f565b5f8484015250505050565b5f601f19601f8301169050919050565b5f612baf82612b53565b612bb98185612b5d565b9350612bc9818560208601612b6d565b612bd281612b95565b840191505092915050565b5f6020820190508181035f830152612bf58184612ba5565b905092915050565b5f80fd5b5f80fd5b612c0e81612b22565b8114612c18575f80fd5b50565b5f81359050612c2981612c05565b92915050565b5f60208284031215612c4457612c43612bfd565b5b5f612c5184828501612c1b565b91505092915050565b5f73ffffffffffffffffffffffffffffffffffffffff82169050919050565b5f612c8382612c5a565b9050919050565b612c9381612c79565b8114612c9d575f80fd5b50565b5f81359050612cae81612c8a565b92915050565b5f8060408385031215612cca57612cc9612bfd565b5b5f612cd785828601612ca0565b9250506020612ce885828601612c1b565b9150509250929050565b5f8115159050919050565b612d0681612cf2565b82525050565b5f602082019050612d1f5f830184612cfd565b92915050565b5f805f60608486031215612d3c57612d3b612bfd565b5b5f612d4986828701612ca0565b9350506020612d5a86828701612ca0565b9250506040612d6b86828701612c1b565b9150509250925092565b5f60ff82169050919050565b612d8a81612d75565b82525050565b5f602082019050612da35f830184612d81565b92915050565b612db281612c79565b82525050565b5f602082019050612dcb5f830184612da9565b92915050565b5f60208284031215612de657612de5612bfd565b5b5f612df384828501612ca0565b91505092915050565b5f612e0682612c79565b9050919050565b612e1681612dfc565b8114612e20575f80fd5b50565b5f81359050612e3181612e0d565b92915050565b5f60208284031215612e4c57612e4b612bfd565b5b5f612e5984828501612e23565b91505092915050565b5f8060408385031215612e7857612e77612bfd565b5b5f612e8585828601612c1b565b9250506020612e9685828601612ca0565b9150509250929050565b5f80fd5b5f80fd5b5f80fd5b5f8083601f840112612ec157612ec0612ea0565b5b8235905067ffffffffffffffff811115612ede57612edd612ea4565b5b602083019150836020820283011115612efa57612ef9612ea8565b5b9250929050565b5f8060208385031215612f1757612f16612bfd565b5b5f83013567ffffffffffffffff811115612f3457612f33612c01565b5b612f4085828601612eac565b92509250509250929050565b5f805f60608486031215612f6357612f62612bfd565b5b5f612f7086828701612c1b565b9350506020612f8186828701612ca0565b9250506040612f9286828701612ca0565b9150509250925092565b5f8060408385031215612fb257612fb1612bfd565b5b5f612fbf85828601612e23565b9250506020612fd085828601612c1b565b9150509250929050565b5f819050919050565b5f612ffd612ff8612ff384612c5a565b612fda565b612c5a565b9050919050565b5f61300e82612fe3565b9050919050565b5f61301f82613004565b9050919050565b61302f81613015565b82525050565b5f6020820190506130485f830184613026565b92915050565b5f806040838503121561306457613063612bfd565b5b5f61307185828601612ca0565b925050602061308285828601612ca0565b9150509250929050565b5f8151905061309a81612c05565b92915050565b5f602082840312156130b5576130b4612bfd565b5b5f6130c28482850161308c565b91505092915050565b7f4e487b71000000000000000000000000000000000000000000000000000000005f52603260045260245ffd5b7f4e487b71000000000000000000000000000000000000000000000000000000005f52601160045260245ffd5b5f61312f82612b22565b915061313a83612b22565b9250828201905080821115613152576131516130f8565b5b92915050565b5f61316282612b22565b91507fffffffffffffffffffffffffffffffffffffffffffffffffffffffffffffffff8203613194576131936130f8565b5b600182019050919050565b7f4e487b71000000000000000000000000000000000000000000000000000000005f52602260045260245ffd5b5f60028204905060018216806131e357607f821691505b6020821081036131f6576131f561319f565b5b50919050565b5f61320682612d75565b915061321183612d75565b9250828201905060ff81111561322a576132296130f8565b5b92915050565b5f6060820190506132435f830186612da9565b6132506020830185612b2b565b61325d6040830184612b2b565b949350505050565b7f4e6f7420617574686f72697a6564207374726174656779206d616e61676572005f82015250565b5f613299601f83612b5d565b91506132a482613265565b602082019050919050565b5f6020820190508181035f8301526132c68161328d565b9050919050565b7f5661756c742069732070617573656400000000000000000000000000000000005f82015250565b5f613301600f83612b5d565b915061330c826132cd565b602082019050919050565b5f6020820190508181035f83015261332e816132f5565b9050919050565b7f496e76616c696420616c6c6f636174696f6e73206c656e6774680000000000005f82015250565b5f613369601a83612b5d565b915061337482613335565b602082019050919050565b5f6020820190508181035f8301526133968161335d565b9050919050565b7f546f74616c20616c6c6f636174696f6e206578636565646564000000000000005f82015250565b5f6133d1601983612b5d565b91506133dc8261339d565b602082019050919050565b5f6020820190508181035f8301526133fe816133c5565b9050919050565b7f4e487b71000000000000000000000000000000000000000000000000000000005f52604160045260245ffd5b5f81519050919050565b5f82825260208201905092915050565b5f819050602082019050919050565b61346481612c79565b82525050565b5f613475838361345b565b60208301905092915050565b5f602082019050919050565b5f61349782613432565b6134a1818561343c565b93506134ac8361344c565b805f5b838110156134dc5781516134c3888261346a565b97506134ce83613481565b9250506001810190506134af565b5085935050505092915050565b5f82825260208201905092915050565b5f80fd5b82818337505050565b5f61351183856134e9565b93507f07ffffffffffffffffffffffffffffffffffffffffffffffffffffffffffffff831115613544576135436134f9565b5b6020830292506135558385846134fd565b82840190509392505050565b5f6040820190508181035f830152613579818661348d565b9050818103602083015261358e818486613506565b9050949350505050565b7f4d617820737472617465676965732072656163686564000000000000000000005f82015250565b5f6135cc601683612b5d565b91506135d782613598565b602082019050919050565b5f6020820190508181035f8301526135f9816135c0565b9050919050565b7f416c6c6f636174696f6e20746f6f2068696768000000000000000000000000005f82015250565b5f613634601383612b5d565b915061363f82613600565b602082019050919050565b5f6020820190508181035f83015261366181613628565b9050919050565b5f8160011c9050919050565b5f808291508390505b60018511156136bd57808604811115613699576136986130f8565b5b60018516156136a85780820291505b80810290506136b685613668565b945061367d565b94509492505050565b5f826136d55760019050613790565b816136e2575f9050613790565b81600181146136f8576002811461370257613731565b6001915050613790565b60ff841115613714576137136130f8565b5b8360020a91508482111561372b5761372a6130f8565b5b50613790565b5060208310610133831016604e8410600b84101617156137665782820a905083811115613761576137606130f8565b5b613790565b6137738484846001613674565b9250905081840481111561378a576137896130f8565b5b81810290505b9392505050565b5f6137a182612b22565b91506137ac83612d75565b92506137d97fffffffffffffffffffffffffffffffffffffffffffffffffffffffffffffffff84846136c6565b905092915050565b5f6137eb82612b22565b91506137f683612b22565b925082820390508181111561380e5761380d6130f8565b5b92915050565b7f4e487b71000000000000000000000000000000000000000000000000000000005f52601260045260245ffd5b5f6040820190506138545f830185612b2b565b6138616020830184612b2b565b9392505050565b5f61387282612b22565b915061387d83612b22565b925082820261388b81612b22565b915082820484148315176138a2576138a16130f8565b5b5092915050565b5f6138b382612b22565b91506138be83612b22565b9250826138ce576138cd613814565b5b828204905092915050565b7f4e487b71000000000000000000000000000000000000000000000000000000005f52602160045260245ffd5b5f61391082612d75565b915061391b83612d75565b92508261392b5761392a613814565b5b828206905092915050565b5f6060820190506139495f830186612da9565b6139566020830185612da9565b6139636040830184612b2b565b949350505050565b5f60408201905061397e5f830185612da9565b61398b6020830184612b2b565b939250505056fea2646970667358221220c6c82b1c65f209349b7afe0dff0fa74636e014bc6b38d77d67832e16ae45619c64736f6c63430008140033","linkReferences":{}},"methodIdentifiers":{"MAX_STRATEGIES()":"767f06ae","addStrategy(address,uint256)":"c9411e22","allocations(address)":"52a9039c","allowance(address,address)":"dd62ed3e","approve(address,uint256)":"095ea7b3","asset()":"38d52e0f","balanceOf(address)":"70a08231","convertToAssets(uint256)":"07a2d13a","convertToShares(uint256)":"c6e6f592","decimals()":"313ce567","deposit(uint256,address)":"6e553f65","emergencyPause()":"51858e27","emergencyPaused()":"27c830a9","harvestYield()":"e8d991d1","maxDeposit(address)":"402d267d","maxMint(address)":"c63d75b6","maxRedeem(address)":"d905777e","maxWithdraw(address)":"ce96cb77","mint(uint256,address)":"94bf804d","name()":"06fdde03","owner()":"8da5cb5b","previewDeposit(uint256)":"ef8b30f7","previewMint(uint256)":"b3d7f6b9","previewRedeem(uint256)":"4cdad506","previewWithdraw(uint256)":"0a28a477","rebalance(uint256[])":"780d5710","redeem(uint256,address,address)":"ba087652","renounceOwnership()":"715018a6","setStrategyManager(address)":"5c966646","strategies(uint256)":"d574ea3d","strategyManager()":"39b70e38","symbol()":"95d89b41","totalAllocation()":"79203dc4","totalAssets()":"01e1d114","totalSupply()":"18160ddd","transfer(address,uint256)":"a9059cbb","transferFrom(address,address,uint256)":"23b872dd","transferOwnership(address)":"f2fde38b","unpause()":"3f4ba83a","withdraw(uint256,address,address)":"b460af94"},"id":44}