{"abi":[{"type":"constructor","inputs":[{"name":"_asset","type":"address","internalType":"contract IERC20"},{"name":"_name","type":"string","internalType":"string"},{"name":"_symbol","type":"string","internalType":"string"},{"name":"_strategyManager","type":"address","internalType":"address"}],"stateMutability":"nonpayable"},{"type":"function","name":"MAX_STRATEGIES","inputs":[],"outputs":[{"name":"","type":"uint256","internalType":"uint256"}],"stateMutability":"view"},{"type":"function","name":"addStrategy","inputs":[{"name":"strategy","type":"address","internalType":"contract IYieldStrategy"},{"name":"allocation","type":"uint256","internalType":"uint256"}],"outputs":[],"stateMutability":"nonpayable"},{"type":"function","name":"allocations","inputs":[{"name":"","type":"address","internalType":"contract IYieldStrategy"}],"outputs":[{"name":"","type":"uint256","internalType":"uint256"}],"stateMutability":"view"},{"type":"function","name":"allowance","inputs":[{"name":"owner","type":"address","internalType":"address"},{"name":"spender","type":"address","internalType":"address"}],"outputs":[{"name":"","type":"uint256","internalType":"uint256"}],"stateMutability":"view"},{"type":"function","name":"approve","inputs":[{"name":"spender","type":"address","internalType":"address"},{"name":"value","type":"uint256","internalType":"uint256"}],"outputs":[{"name":"","type":"bool","internalType":"bool"}],"stateMutability":"nonpayable"},{"type":"function","name":"asset","inputs":[],"outputs":[{"name":"","type":"address","internalType":"address"}],"stateMutability":"view"},{"type":"function","name":"balanceOf","inputs":[{"name":"account","type":"address","internalType":"address"}],"outputs":[{"name":"","type":"uint256","internalType":"uint256"}],"stateMutability":"view"},{"type":"function","name":"convertToAssets","inputs":[{"name":"shares","type":"uint256","internalType":"uint256"}],"outputs":[{"name":"","type":"uint256","internalType":"uint256"}],"stateMutability":"view"},{"type":"function","name":"convertToShares","inputs":[{"name":"assets","type":"uint256","internalType":"uint256"}],"outputs":[{"name":"","type":"uint256","internalType":"uint256"}],"stateMutability":"view"},{"type":"function","name":"decimals","inputs":[],"outputs":[{"name":"","type":"uint8","internalType":"uint8"}],"stateMutability":"view"},{"type":"function","name":"deposit","inputs":[{"name":"assets","type":"uint256","internalType":"uint256"},{"name":"receiver","type":"address","internalType":"address"}],"outputs":[{"name":"","type":"uint256","internalType":"uint256"}],"stateMutability":"nonpayable"},{"type":"function","name":"emergencyPause","inputs":[],"outputs":[],"stateMutability":"nonpayable"},{"type":"function","name":"emergencyPaused","inputs":[],"outputs":[{"name":"","type":"bool","internalType":"bool"}],"stateMutability":"view"},{"type":"function","name":"harvestYield","inputs":[],"outputs":[],"stateMutability":"nonpayable"},{"type":"function","name":"maxDeposit","inputs":[{"name":"","type":"address","internalType":"address"}],"outputs":[{"name":"","type":"uint256","internalType":"uint256"}],"stateMutability":"view"},{"type":"function","name":"maxMint","inputs":[{"name":"","type":"address","internalType":"address"}],"outputs":[{"name":"","type":"uint256","internalType":"uint256"}],"stateMutability":"view"},{"type":"function","name":"maxRedeem","inputs":[{"name":"owner","type":"address","internalType":"address"}],"outputs":[{"name":"","type":"uint256","internalType":"uint256"}],"stateMutability":"view"},{"type":"function","name":"maxWithdraw","inputs":[{"name":"owner","type":"address","internalType":"address"}],"outputs":[{"name":"","type":"uint256","internalType":"uint256"}],"stateMutability":"view"},{"type":"function","name":"mint","inputs":[{"name":"shares","type":"uint256","internalType":"uint256"},{"name":"receiver","type":"address","internalType":"address"}],"outputs":[{"name":"","type":"uint256","internalType":"uint256"}],"stateMutability":"nonpayable"},{"type":"function","name":"name","inputs":[],"outputs":[{"name":"","type":"string","internalType":"string"}],"stateMutability":"view"},{"type":"function","name":"owner","inputs":[],"outputs":[{"name":"","type":"address","internalType":"address"}],"stateMutability":"view"},{"type":"function","name":"previewDeposit","inputs":[{"name":"assets","type":"uint256","internalType":"uint256"}],"outputs":[{"name":"","type":"uint256","internalType":"uint256"}],"stateMutability":"view"},{"type":"function","name":"previewMint","inputs":[{"name":"shares","type":"uint256","internalType":"uint256"}],"outputs":[{"name":"","type":"uint256","internalType":"uint256"}],"stateMutability":"view"},{"type":"function","name":"previewRedeem","inputs":[{"name":"shares","type":"uint256","internalType":"uint256"}],"outputs":[{"name":"","type":"uint256","internalType":"uint256"}],"stateMutability":"view"},{"type":"function","name":"previewWithdraw","inputs":[{"name":"assets","type":"uint256","internalType":"uint256"}],"outputs":[{"name":"","type":"uint256","internalType":"uint256"}],"stateMutability":"view"},{"type":"function","name":"rebalance","inputs":[{"name":"newAllocations","type":"uint256[]","internalType":"uint256[]"}],"outputs":[],"stateMutability":"nonpayable"},{"type":"function","name":"redeem","inputs":[{"name":"shares","type":"uint256","internalType":"uint256"},{"name":"receiver","type":"address","internalType":"address"},{"name":"owner","type":"address","internalType":"address"}],"outputs":[{"name":"","type":"uint256","internalType":"uint256"}],"stateMutability":"nonpayable"},{"type":"function","name":"renounceOwnership","inputs":[],"outputs":[],"stateMutability":"nonpayable"},{"type":"function","name":"setStrategyManager","inputs":[{"name":"newManager","type":"address","internalType":"address"}],"outputs":[],"stateMutability":"nonpayable"},{"type":"function","name":"strategies","inputs":[{"name":"","type":"uint256","internalType":"uint256"}],"outputs":[{"name":"","type":"address","internalType":"contract IYieldStrategy"}],"stateMutability":"view"},{"type":"function","name":"strategyManager","inputs":[],"outputs":[{"name":"","type":"address","internalType":"address"}],"stateMutability":"view"},{"type":"function","name":"symbol","inputs":[],"outputs":[{"name":"","type":"string","internalType":"string"}],"stateMutability":"view"},{"type":"function","name":"totalAllocation","inputs":[],"outputs":[{"name":"","type":"uint256","internalType":"uint256"}],"stateMutability":"view"},{"type":"function","name":"totalAssets","inputs":[],"outputs":[{"name":"","type":"uint256","internalType":"uint256"}],"stateMutability":"view"},{"type":"function","name":"totalSupply","inputs":[],"outputs":[{"name":"","type":"uint256","internalType":"uint256"}],"stateMutability":"view"},{"type":"function","name":"transfer","inputs":[{"name":"to","type":"address","internalType":"address"},{"name":"value","type":"uint256","internalType":"uint256"}],"outputs":[{"name":"","type":"bool","internalType":"bool"}],"stateMutability":"nonpayable"},{"type":"function","name":"transferFrom","inputs":[{"name":"from","type":"address","internalType":"address"},{"name":"to","type":"address","internalType":"address"},{"name":"value","type":"uint256","internalType":"uint256"}],"outputs":[{"name":"","type":"bool","internalType":"bool"}],"stateMutability":"nonpayable"},{"type":"function","name":"transferOwnership","inputs":[{"name":"newOwner","type":"address","internalType":"address"}],"outputs":[],"stateMutability":"nonpayable"},{"type":"function","name":"unpause","inputs":[],"outputs":[],"stateMutability":"nonpayable"},{"type":"function","name":"withdraw","inputs":[{"name":"assets","type":"uint256","internalType":"uint256"},{"name":"receiver","type":"address","internalType":"address"},{"name":"owner","type":"address","internalType":"address"}],"outputs":[{"name":"","type":"uint256","internalType":"uint256"}],"stateMutability":"nonpayable"},{"type":"event","name":"Approval","inputs":[{"name":"owner","type":"address","indexed":true,"internalType":"address"},{"name":"spender","type":"address","indexed":true,"internalType":"address"},{"name":"value","type":"uint256","indexed":false,"internalType":"uint256"}],"anonymous":false},{"type":"event","name":"Deposit","inputs":[{"name":"sender","type":"address","indexed":true,"internalType":"address"},{"name":"owner","type":"address","indexed":true,"internalType":"address"},{"name":"assets","type":"uint256","indexed":false,"internalType":"uint256"},{"name":"shares","type":"uint256","indexed":false,"internalType":"uint256"}],"anonymous":false},{"type":"event","name":"OwnershipTransferred","inputs":[{"name":"previousOwner","type":"address","indexed":true,"internalType":"address"},{"name":"newOwner","type":"address","indexed":true,"internalType":"address"}],"anonymous":false},{"type":"event","name":"RebalanceExecuted","inputs":[{"name":"strategies","type":"address[]","indexed":false,"internalType":"address[]"},{"name":"allocations","type":"uint256[]","indexed":false,"internalType":"uint256[]"}],"anonymous":false},{"type":"event","name":"StrategyAllocated","inputs":[{"name":"strategy","type":"address","indexed":true,"internalType":"address"},{"name":"amount","type":"uint256","indexed":false,"internalType":"uint256"}],"anonymous":false},{"type":"event","name":"StrategyAllocationUpdated","inputs":[{"name":"strategy","type":"address","indexed":true,"internalType":"address"},{"name":"bps","type":"uint256","indexed":false,"internalType":"uint256"}],"anonymous":false},{"type":"event","name":"StrategyDeposit","inputs":[{"name":"strategy","type":"address","indexed":true,"internalType":"address"},{"name":"assets","type":"uint256","indexed":false,"internalType":"uint256"}],"anonymous":false},{"type":"event","name":"StrategyWithdrawal","inputs":[{"name":"strategy","type":"address","indexed":true,"internalType":"address"},{"name":"assets","type":"uint256","indexed":false,"internalType":"uint256"}],"anonymous":false},{"type":"event","name":"StrategyWithdrawn","inputs":[{"name":"strategy","type":"address","indexed":true,"internalType":"address"},{"name":"amount","type":"uint256","indexed":false,"internalType":"uint256"}],"anonymous":false},{"type":"event","name":"Transfer","inputs":[{"name":"from","type":"address","indexed":true,"internalType":"address"},{"name":"to","type":"address","indexed":true,"internalType":"address"},{"name":"value","type":"uint256","indexed":false,"internalType":"uint256"}],"anonymous":false},{"type":"event","name":"Withdraw","inputs":[{"name":"sender","type":"address","indexed":true,"internalType":"address"},{"name":"receiver","type":"address","indexed":true,"internalType":"address"},{"name":"owner","type":"address","indexed":true,"internalType":"address"},{"name":"assets","type":"uint256","indexed":false,"internalType":"uint256"},{"name":"shares","type":"uint256","indexed":false,"internalType":"uint256"}],"anonymous":false},{"type":"event","name":"YieldHarvested","inputs":[{"name":"totalYield","type":"uint256","indexed":false,"internalType":"uint256"}],"anonymous":false},{"type":"error","name":"ERC20InsufficientAllowance","inputs":[{"name":"spender","type":"address","internalType":"address"},{"name":"allowance","type":"uint256","internalType":"uint256"},{"name":"needed","type":"uint256","internalType":"uint256"}]},{"type":"error","name":"ERC20InsufficientBalance","inputs":[{"name":"sender","type":"address","internalType":"address"},{"name":"balance","type":"uint256","internalType":"uint256"},{"name":"needed","type":"uint256","internalType":"uint256"}]},{"type":"error","name":"ERC20InvalidApprover","inputs":[{"name":"approver","type":"address","internalType":"address"}]},{"type":"error","name":"ERC20InvalidReceiver","inputs":[{"name":"receiver","type":"address","internalType":"address"}]},{"type":"error","name":"ERC20InvalidSender","inputs":[{"name":"sender","type":"address","internalType":"address"}]},{"type":"error","name":"ERC20InvalidSpender","inputs":[{"name":"spender","type":"address","internalType":"address"}]},{"type":"error","name":"ERC4626ExceededMaxDeposit","inputs":[{"name":"receiver","type":"address","internalType":"address"},{"name":"assets","type":"uint256","internalType":"uint256"},{"name":"max","type":"uint256","internalType":"uint256"}]},{"type":"error","name":"ERC4626ExceededMaxMint","inputs":[{"name":"receiver","type":"address","internalType":"address"},{"name":"shares","type":"uint256","internalType":"uint256"},{"name":"max","type":"uint256","internalType":"uint256"}]},{"type":"error","name":"ERC4626ExceededMaxRedeem","inputs":[{"name":"owner","type":"address","internalType":"address"},{"name":"shares","type":"uint256","internalType":"uint256"},{"name":"max","type":"uint256","internalType":"uint256"}]},{"type":"error","name":"ERC4626ExceededMaxWithdraw","inputs":[{"name":"owner","type":"address","internalType":"address"},{"name":"assets","type":"uint256","internalType":"uint256"},{"name":"max","type":"uint256","internalType":"uint256"}]},{"type":"error","name":"OwnableInvalidOwner","inputs":[{"name":"owner","type":"address","internalType":"address"}]},{"type":"error","name":"OwnableUnauthorizedAccount","inputs":[{"name":"account","type":"address","internalType":"address"}]},{"type":"error","name":"ReentrancyGuardReentrantCall","inputs":[]},{"type":"error","name":"SafeERC20FailedOperation","inputs":[{"name":"token","type":"address","internalType":"address"}]}],"bytecode":{"object":"0x60c0806040523462000406576200261880380380916200002082856200040a565b8339810190608081830312620004065780516001600160a01b0392838216820362000406576020838101519092906001600160401b03908181116200040657836200006d9187016200044a565b92604086015182811162000406576060916200008b9188016200044a565b950151948686168096036200040657835182811162000311576003918254916001968784811c94168015620003fb575b89851014620003e7578190601f9485811162000394575b50899085831160011462000331575f9262000325575b50505f1982861b1c191690871b1783555b8051938411620003115760049687548781811c9116801562000306575b82821014620002f3579081848796959493116200029a575b50809285116001146200023057505f9362000224575b505082851b925f19911b1c19161783555b6200016081620004b2565b90156200021b575b60a052608052600555331562000204575060068054336001600160a01b03198083168217909355604051949091167f8be0079c531659141344cd1fd0a4f28419497f9722a3daafe3b4186f6b6457e05f80a360075416176007556120a090816200057882396080518181816108be01528181610e5c0152818161115101528181611b3b01528181611ce90152611dce015260a051816111970152f35b6024905f60405191631e4fbdf760e01b8352820152fd5b50601262000168565b015191505f8062000144565b929190879550601f198516895f52845f20945f905b82821062000280575050851162000266575b50505050811b01835562000155565b01519060f8845f19921b161c191690555f80808062000257565b8484015187558a9890960195938401939081019062000245565b909192939450885f52815f208480880160051c820192848910620002e9575b918a91899897969594930160051c01915b828110620002da5750506200012e565b5f81558897508a9101620002ca565b92508192620002b9565b602289634e487b7160e01b5f525260245ffd5b90607f169062000116565b634e487b7160e01b5f52604160045260245ffd5b015190505f80620000e8565b90899350601f19831691875f528b5f20925f5b8d8282106200037d575050841162000365575b505050811b018355620000f9565b01515f1983881b60f8161c191690555f808062000357565b8385015186558d9790950194938401930162000344565b909150855f52895f208580850160051c8201928c8610620003dd575b918b91869594930160051c01915b828110620003ce575050620000d2565b5f81558594508b9101620003be565b92508192620003b0565b634e487b7160e01b5f52602260045260245ffd5b93607f1693620000bb565b5f80fd5b601f909101601f19168101906001600160401b038211908210176200031157604052565b6001600160401b0381116200031157601f01601f191660200190565b919080601f84011215620004065782519062000466826200042e565b916200047660405193846200040a565b80835260209182828701011162000406575f5b8181106200049e5750825f9394955001015290565b858101830151848201840152820162000489565b6040805163313ce56760e01b60208201908152600482529293929181016001600160401b038111828210176200031157604052515f9384928392916001600160a01b03165afa3d156200056e573d906200050c826200042e565b916200051c60405193846200040a565b82523d84602084013e5b8062000561575b62000538575b508190565b6020818051810103126200055d576020015160ff811162000533576001925060ff1690565b8280fd5b506020815110156200052d565b6060906200052656fe60406080815260049081361015610014575f80fd5b5f91823560e01c806301e1d1141461141a57806306fdde031461132657806307a2d13a146110e8578063095ea7b31461127d5780630a28a4771461125d57806318160ddd1461123e57806323b872dd1461120157806327c830a9146111dd578063313ce5671461118057806338d52e0f1461113c57806339b70e38146111135780633f4ba83a146110ed578063402d267d1461060c5780634cdad506146110e857806351858e27146110bf57806352a9039c146110875780635c966646146110425780636e553f6514610e1b57806370a08231146103c2578063715018a614610dbe578063767f06ae14610da2578063780d571014610b0b57806379203dc414610aec5780638da5cb5b14610ac357806394bf804d1461087c57806395d89b4114610778578063a9059cbb14610747578063b3d7f6b914610727578063b460af941461069a578063ba08765214610611578063c63d75b61461060c578063c6e6f59214610268578063c9411e2214610480578063ce96cb7714610447578063d574ea3d14610404578063d905777e146103c2578063dd62ed3e14610379578063e8d991d11461026d578063ef8b30f7146102685763f2fde38b146101d6575f80fd5b34610264576020366003190112610264576101ef6114a8565b906101f8611595565b6001600160a01b0391821692831561024e575050600654826bffffffffffffffffffffffff60a01b821617600655167f8be0079c531659141344cd1fd0a4f28419497f9722a3daafe3b4186f6b6457e08380a380f35b51631e4fbdf760e01b8152908101849052602490fd5b8280fd5b61152e565b509190346103755781600319360112610375576007546001600160a01b03929061029a9084163314611a2a565b6102a2611aea565b809381945b600854861015610342576102ba8661154c565b905490855190634641257d60e01b8252818581888b602097889660031b1c165af1918215610338578592610304575b50506102f8906102fe92611702565b95611ab4565b946102a7565b90809250813d8311610331575b61031b8183611605565b8101031261032d5751816102f86102e9565b8380fd5b503d610311565b86513d87823e3d90fd5b7feb2d114a827fe0da3db4c0e374010959cf461f7ed76987aeff51666dea9add9b602084928651908152a1600160055580f35b5080fd5b505034610375578060031936011261037557806020926103976114a8565b61039f6114be565b6001600160a01b0391821683526001865283832091168252845220549051908152f35b505034610375576020366003190112610375576020906103fd6103e36114a8565b6001600160a01b03165f9081526020819052604090205490565b9051908152f35b5034610264576020366003190112610264573591600854831015610444575061042e60209261154c565b905491519160018060a01b039160031b1c168152f35b80fd5b505034610375576020366003190112610375576020916103fd9082906001600160a01b036104736114a8565b16815280855220546118e5565b50346102645781600319360112610264576104996114a8565b91602435916104a6611595565b60085490600a8210156105d057612710808511610597576104d4906104cd86600a54611702565b11156119de565b6801000000000000000082101561058457509160209161051b8460017feda1127dbe257a768246136b79de9d901a2a66b37e0197435f9b4c2e499095c4960160085561154c565b9560018060a01b038091169682549060031b9188831b921b191617905584865260098352818187205561055082600a54611702565b600a55847fe0891f411f6f2912bfe7f0d8ce9304c1017fc1a451848763f197c95a89d45dc0848351858152a251908152a280f35b634e487b7160e01b865260419052602485fd5b835162461bcd60e51b81526020818401526013602482015272082d8d8dec6c2e8d2dedc40e8dede40d0d2ced606b1b6044820152606490fd5b606490602084519162461bcd60e51b8352820152601660248201527513585e081cdd1c985d1959da595cc81c995858da195960521b6044820152fd5b6114d4565b508234610444578290610623366114f9565b6001600160a01b038116845260208490529590922054909493908086116106655750508361065f916106566020966118e5565b94859133611cca565b51908152f35b9251632e52afbb60e21b81526001600160a01b0390941690840190815260208101949094525060408301529081906060010390fd5b50829034610375576106d09183916106b1366114f9565b6001600160a01b038116855260208590529690932054909594906118e5565b8086116106f257505061065f90846106e9602096611861565b94859233611cca565b9251633fa733bb60e21b81526001600160a01b0390941690840190815260208101949094525060408301529081906060010390fd5b50913461044457602036600319011261044457506103fd602092356118ba565b5050346103755780600319360112610375576020906107716107676114a8565b6024359033611627565b5160018152f35b50919034610375578160031936011261037557805191809380549160019083821c92828516948515610872575b602095868610811461085f5785895290811561083b57506001146107e3575b6107df87876107d5828c0383611605565b5191829182611437565b0390f35b81529295507f8a35acfbc15ff81a39ae7d344fd709f28e8600b4aa8c65c6b64bfe7fe36bd19b5b82841061082857505050826107df946107d592820101945f806107c4565b805486850188015292860192810161080a565b60ff19168887015250505050151560051b83010192506107d5826107df5f806107c4565b634e487b7160e01b845260228352602484fd5b93607f16936107a5565b5090346102645780600319360112610264578135926108996114be565b906108a3856118ba565b936108b360ff600b541615611a76565b60018060a01b0391827f000000000000000000000000000000000000000000000000000000000000000016938551906020986323b872dd60e01b8a84015261091b60249333858201523060448201528a606482015260648152610915816115e9565b88611c58565b858216918215610aad578161092f91611723565b8751908982528a8201527fdcbc1c05240f31ff3ad067ef1ee35ce4997762752e3a095284754544f4c709d7883392a3815b600854811015610aa457846109748261154c565b919054600392831b1c1684526009808b528885205461099e575b505061099990611ab4565b610960565b866109a88461154c565b905490841b1c1685528a5287842054808a02908a8204148a151715610a9257612710900490811561098e576109ee82886109e18661154c565b905490851b1c168a612018565b866109f88461154c565b905490831b1c16803b15610a8e57858091868c518094819363b6b55f2560e01b8352888d8401525af18015610a8457886109999594937fc6f6f91a48277d76f232cc08a9a30f6b05b3fd9b92c3180c25936e17a22a1025938f93610a75575b50610a618661154c565b9054911b1c16928b51908152a2905f61098e565b610a7e906115c1565b5f610a57565b8a513d88823e3d90fd5b8580fd5b634e487b7160e01b8552601186528385fd5b88888851908152f35b885163ec442f0560e01b81528087018690528490fd5b50503461037557816003193601126103755760065490516001600160a01b039091168152602090f35b505034610375578160031936011261037557602090600a549051908152f35b5090346102645760208060031936011261032d5782359267ffffffffffffffff91828511610a8e5736602386011215610a8e5784820135928311610a8e576024928386019060059581871b9786893692010111610d9e576007546001600160a01b0390610b7b9082163314611a2a565b610b8a60ff600b541615611a76565b610b92611aea565b6008548303610d5c57898a805b83868210610cc857505050610bb86127108211156119de565b600a55600854610bc781611ad2565b96610bd484519889611605565b818852610be082611ad2565b8888019990601f1901368b378c5b838110610c84575050505090805195818701918752518091526060860196918a905b828210610c6b5750505050838503838501528085526001600160fb1b0310610c675785846001978593857ffb313b5f9090e84f3108863e50c8eff725890aec80ef976d0cc80699bfc5923f98013701030190a15580f35b8680fd5b8351811689529786019792860192600190910190610c10565b610c8d8161154c565b9054908b51831015610cb55760031b1c8516818d1b8b018a0152610cb090611ab4565b610bee565b50634e487b7160e01b8f5260328452828ffd5b80610ce3610d559495610cdc858b8d611ac2565b3590611702565b9487610cf0858b8d611ac2565b3591610cfb8661154c565b949054600395861b1c16815260098d522055610d168361154c565b9054911b1c167feda1127dbe257a768246136b79de9d901a2a66b37e0197435f9b4c2e499095c489610d49848a8c611ac2565b358851908152a2611ab4565b8b90610b9f565b815162461bcd60e51b8152808701869052601a818901527f496e76616c696420616c6c6f636174696f6e73206c656e6774680000000000006044820152606490fd5b8880fd5b50503461037557816003193601126103755760209051600a8152f35b8334610444578060031936011261044457610dd7611595565b600680546001600160a01b0319811690915581906001600160a01b03167f8be0079c531659141344cd1fd0a4f28419497f9722a3daafe3b4186f6b6457e08280a380f35b5090346102645780600319360112610264578135610e376114be565b93610e418261188f565b93610e5160ff600b541615611a76565b60018060a01b0391827f000000000000000000000000000000000000000000000000000000000000000016938551906020986323b872dd60e01b8a840152610eb3602493338582015230604482015283606482015260648152610915816115e9565b858116908115610aad5789610ec791611723565b8751828152898b8201527fdcbc1c05240f31ff3ad067ef1ee35ce4997762752e3a095284754544f4c709d7893392a3825b6008548110156110395785610f0c8261154c565b919054600392831b1c1685526009808c5289862054610f36575b5050610f3190611ab4565b610ef8565b87610f408461154c565b905490841b1c1686528b5288852054808402908482041484151715611027576127109004908115610f2657610f868289610f798661154c565b905490851b1c168b612018565b87610f908461154c565b905490831b1c16803b15610c67578683878a838f51958694859363b6b55f2560e01b85528401525af1801561101d5789610f319594938f92937fc6f6f91a48277d76f232cc08a9a30f6b05b3fd9b92c3180c25936e17a22a10259461100e575b50610ffa8661154c565b9054911b1c16928c51908152a2905f610f26565b611017906115c1565b5f610ff0565b8b513d89823e3d90fd5b634e487b7160e01b8652601187528486fd5b89898951908152f35b83346104445760203660031901126104445761105c6114a8565b611064611595565b60018060a01b03166bffffffffffffffffffffffff60a01b600754161760075580f35b5050346103755760203660031901126103755760209181906001600160a01b036110af6114a8565b1681526009845220549051908152f35b83346104445780600319360112610444576110d8611595565b600160ff19600b541617600b5580f35b61147e565b8334610444578060031936011261044457611106611595565b60ff19600b5416600b5580f35b50503461037557816003193601126103755760075490516001600160a01b039091168152602090f35b505034610375578160031936011261037557517f00000000000000000000000000000000000000000000000000000000000000006001600160a01b03168152602090f35b5091903461037557816003193601126103755760ff7f0000000000000000000000000000000000000000000000000000000000000000169160ff83116111ca576020838351908152f35b634e487b7160e01b815260118452602490fd5b50503461037557816003193601126103755760209060ff600b541690519015158152f35b505034610375576060366003190112610375576020906107716112226114a8565b61122a6114be565b60443591611239833383611790565b611627565b5050346103755781600319360112610375576020906002549051908152f35b50913461044457602036600319011261044457506103fd60209235611861565b50346102645781600319360112610264576112966114a8565b60243590331561130f576001600160a01b03169182156112f857508083602095338152600187528181208582528752205582519081527f8c5be1e5ebec7d5bd14f71427d1e84f3dd0314c0f7b2291e5b200ac8c7c3b925843392a35160018152f35b8351634a1406b160e11b8152908101859052602490fd5b835163e602df0560e01b8152808401869052602490fd5b509034610264578260031936011261026457805191836003549060019082821c928281168015611410575b60209586861082146113fd57508488529081156113db5750600114611382575b6107df86866107d5828b0383611605565b929550600383527fc2575a0e9e593c00f959f8c92f12db2869c3395a3b0502d05e2516446f71f85b5b8284106113c857505050826107df946107d592820101945f611371565b80548685018801529286019281016113ab565b60ff191687860152505050151560051b83010192506107d5826107df5f611371565b634e487b7160e01b845260229052602483fd5b93607f1693611351565b5050346103755781600319360112610375576020906103fd611b0d565b602080825282518183018190529093925f5b82811061146a57505060409293505f838284010152601f8019910116010190565b818101860151848201604001528501611449565b346114a45760203660031901126114a457602061149c6004356118e5565b604051908152f35b5f80fd5b600435906001600160a01b03821682036114a457565b602435906001600160a01b03821682036114a457565b346114a45760203660031901126114a4576114ed6114a8565b5060206040515f198152f35b60609060031901126114a457600435906001600160a01b039060243582811681036114a4579160443590811681036114a45790565b346114a45760203660031901126114a457602061149c60043561188f565b6008548110156115815760085f527ff3f7a9fe364faab93b216da50a3214154f22a0a2b415b23a84c8169e8b636ee301905f90565b634e487b7160e01b5f52603260045260245ffd5b6006546001600160a01b031633036115a957565b60405163118cdaa760e01b8152336004820152602490fd5b67ffffffffffffffff81116115d557604052565b634e487b7160e01b5f52604160045260245ffd5b60a0810190811067ffffffffffffffff8211176115d557604052565b90601f8019910116810190811067ffffffffffffffff8211176115d557604052565b916001600160a01b038084169283156116ea57169283156116d2575f90838252816020526040822054908382106116a0575091604082827fddf252ad1be2c89b69c2b068fc378daa952ba7f163c4a11628f55a4df523b3ef958760209652828652038282205586815220818154019055604051908152a3565b60405163391434e360e21b81526001600160a01b03919091166004820152602481019190915260448101839052606490fd5b60405163ec442f0560e01b81525f6004820152602490fd5b604051634b637e8f60e11b81525f6004820152602490fd5b9190820180921161170f57565b634e487b7160e01b5f52601160045260245ffd5b7fddf252ad1be2c89b69c2b068fc378daa952ba7f163c4a11628f55a4df523b3ef60205f9261175485600254611702565b6002556001600160a01b0316938415841461177b5780600254036002555b604051908152a3565b84845283825260408420818154019055611772565b9160018060a01b03809316915f9383855260016020526040938486209183169182875260205284862054925f1984106117cd575b50505050505050565b848410611831575080156118195781156118015785526001602052838520908552602052039120555f8080808080806117c4565b8451634a1406b160e11b815260048101879052602490fd5b845163e602df0560e01b815260048101879052602490fd5b8551637dc7a0d960e11b81526001600160a01b039190911660048201526024810184905260448101859052606490fd5b6002546001810180911161170f57611877611b0d565b906001820180921161170f5761188c92611910565b90565b6002546001810180911161170f576118a5611b0d565b906001820180921161170f5761188c92611944565b6118c2611b0d565b6001810180911161170f57600254906001820180921161170f5761188c92611910565b6118ed611b0d565b6001810180911161170f57600254906001820180921161170f5761188c92611944565b9161191c818385611944565b9181156119305761188c9309151590611702565b634e487b7160e01b5f52601260045260245ffd5b90915f1983830992808302928380861095039480860395146119d057848311156119b85790829109815f038216809204600280826003021880830282030280830282030280830282030280830282030280830282030280920290030293600183805f03040190848311900302920304170290565b82634e487b715f52156003026011186020526024601cfd5b505080925015611930570490565b156119e557565b60405162461bcd60e51b815260206004820152601960248201527f546f74616c20616c6c6f636174696f6e206578636565646564000000000000006044820152606490fd5b15611a3157565b60405162461bcd60e51b815260206004820152601f60248201527f4e6f7420617574686f72697a6564207374726174656779206d616e61676572006044820152606490fd5b15611a7d57565b60405162461bcd60e51b815260206004820152600f60248201526e15985d5b1d081a5cc81c185d5cd959608a1b6044820152606490fd5b5f19811461170f5760010190565b91908110156115815760051b0190565b67ffffffffffffffff81116115d55760051b60200190565b600260055414611afb576002600555565b604051633ee5aeb560e01b8152600490fd5b604080516370a0823160e01b81523060048083019190915292916001600160a01b03919060209081836024817f000000000000000000000000000000000000000000000000000000000000000088165afa928315611c4e575f93611c1f575b5092905f938492600854925b838510611b8f57505050505061188c929350611702565b909192939582828a611ba08a61154c565b91905491885194859384926278744560e21b845260031b1c165afa908115611c15575f91611be6575b50611bd790611bdd92611702565b96611ab4565b93929190611b78565b908382813d8311611c0e575b611bfc8183611605565b81010312610444575051611bdd611bc9565b503d611bf2565b85513d5f823e3d90fd5b90928282813d8311611c47575b611c368183611605565b81010312610444575051915f611b6c565b503d611c2c565b50513d5f823e3d90fd5b905f602091828151910182855af115611cb2575f513d611ca957506001600160a01b0381163b155b611c875750565b604051635274afe760e01b81526001600160a01b039091166004820152602490fd5b60011415611c80565b6040513d5f823e3d90fd5b9190820391821161170f57565b6040516370a0823160e01b8152306004820152929490926020816024817f00000000000000000000000000000000000000000000000000000000000000006001600160a01b03165afa908115611cb2575f91611fe6575b50808511611e55575b506001600160a01b03858116959084169382878603611e44575b505085156116ea57855f525f60205260405f205490828210611e12575091816040927ffbde797d201c681b91056529119e0b02407c7bb96a4a2c75c01fc9667232c8db94885f525f60205203835f205580600254036002555f877fddf252ad1be2c89b69c2b068fc378daa952ba7f163c4a11628f55a4df523b3ef60208651858152a3611dfb86837f00000000000000000000000000000000000000000000000000000000000000006001600160a01b0316612018565b825195865260208601526001600160a01b031693a4565b60405163391434e360e21b81526001600160a01b03919091166004820152602481019190915260448101829052606490fd5b611e4e9183611790565b5f82611d44565b611e66908593979596949296611cbd565b955f5b600854811080611fdd575b15611fd0576020611e848261154c565b90546040516278744560e21b815292918391600491839160039190911b1c6001600160a01b03165afa908115611cb2575f91611f9e575b5080611ed1575b50611ecc90611ab4565b611e69565b90979080821115611f9657975b611ee78161154c565b905460039190911b1c6001600160a01b0316803b156114a4575f809160248c6040519485938492632e1a7d4d60e01b845260048401525af18015611cb257611ecc93611f3a928c92611f87575b50611cbd565b987fd5ad0f046bd35f48b421a3e575435de38cea1980177b1c6da935d2f26049f3fa6020611f678461154c565b905460405194855260039190911b1c6001600160a01b031692a290611ec2565b611f90906115c1565b5f611f34565b508097611ede565b906020823d602011611fc8575b81611fb860209383611605565b810103126104445750515f611ebb565b3d9150611fab565b509193955091935f611d2a565b50871515611e74565b906020823d602011612010575b8161200060209383611605565b810103126104445750515f611d21565b3d9150611ff3565b60405163a9059cbb60e01b60208201526001600160a01b039092166024830152604480830193909352918152608081019167ffffffffffffffff8311828410176115d55761206892604052611c58565b56fea264697066735822122077b52ae817d1e5f381a0fc44972761003f5321cf1a8c75f8779c87fda5a8e11664736f6c63430008140033","linkReferences":{}},"methodIdentifiers":{"MAX_STRATEGIES()":"767f06ae","addStrategy(address,uint256)":"c9411e22","allocations(address)":"52a9039c","allowance(address,address)":"dd62ed3e","approve(address,uint256)":"095ea7b3","asset()":"38d52e0f","balanceOf(address)":"70a08231","convertToAssets(uint256)":"07a2d13a","convertToShares(uint256)":"c6e6f592","decimals()":"313ce567","deposit(uint256,address)":"6e553f65","emergencyPause()":"51858e27","emergencyPaused()":"27c830a9","harvestYield()":"e8d991d1","maxDeposit(address)":"402d267d","maxMint(address)":"c63d75b6","maxRedeem(address)":"d905777e","maxWithdraw(address)":"ce96cb77","mint(uint256,address)":"94bf804d","name()":"06fdde03","owner()":"8da5cb5b","previewDeposit(uint256)":"ef8b30f7","previewMint(uint256)":"b3d7f6b9","previewRedeem(uint256)":"4cdad506","previewWithdraw(uint256)":"0a28a477","rebalance(uint256[])":"780d5710","redeem(uint256,address,address)":"ba087652","renounceOwnership()":"715018a6","setStrategyManager(address)":"5c966646","strategies(uint256)":"d574ea3d","strategyManager()":"39b70e38","symbol()":"95d89b41","totalAllocation()":"79203dc4","totalAssets()":"01e1d114","totalSupply()":"18160ddd","transfer(address,uint256)":"a9059cbb","transferFrom(address,address,uint256)":"23b872dd","transferOwnership(address)":"f2fde38b","unpause()":"3f4ba83a","withdraw(uint256,address,address)":"b460af94"},"id":45}